Component: ARM Compiler 5.06 update 7 (build 960) Tool: armlink [4d3601]

==============================================================================

Section Cross References

    startup_stm32h743xx.o(STACK) refers (Special) to heapauxi.o(.text) for __use_two_region_memory
    startup_stm32h743xx.o(HEAP) refers (Special) to heapauxi.o(.text) for __use_two_region_memory
    startup_stm32h743xx.o(RESET) refers (Special) to heapauxi.o(.text) for __use_two_region_memory
    startup_stm32h743xx.o(RESET) refers to startup_stm32h743xx.o(STACK) for __initial_sp
    startup_stm32h743xx.o(RESET) refers to startup_stm32h743xx.o(.text) for Reset_Handler
    startup_stm32h743xx.o(RESET) refers to stm32h7xx_it.o(i.NMI_Handler) for NMI_Handler
    startup_stm32h743xx.o(RESET) refers to stm32h7xx_it.o(i.HardFault_Handler) for HardFault_Handler
    startup_stm32h743xx.o(RESET) refers to stm32h7xx_it.o(i.MemManage_Handler) for MemManage_Handler
    startup_stm32h743xx.o(RESET) refers to stm32h7xx_it.o(i.BusFault_Handler) for BusFault_Handler
    startup_stm32h743xx.o(RESET) refers to stm32h7xx_it.o(i.UsageFault_Handler) for UsageFault_Handler
    startup_stm32h743xx.o(RESET) refers to stm32h7xx_it.o(i.SVC_Handler) for SVC_Handler
    startup_stm32h743xx.o(RESET) refers to stm32h7xx_it.o(i.DebugMon_Handler) for DebugMon_Handler
    startup_stm32h743xx.o(RESET) refers to stm32h7xx_it.o(i.PendSV_Handler) for PendSV_Handler
    startup_stm32h743xx.o(RESET) refers to stm32h7xx_it.o(i.SysTick_Handler) for SysTick_Handler
    startup_stm32h743xx.o(RESET) refers to exti.o(i.EXTI3_IRQHandler) for EXTI3_IRQHandler
    startup_stm32h743xx.o(RESET) refers to stm32h7xx_it.o(i.DMA1_Stream0_IRQHandler) for DMA1_Stream0_IRQHandler
    startup_stm32h743xx.o(RESET) refers to exti.o(i.EXTI9_5_IRQHandler) for EXTI9_5_IRQHandler
    startup_stm32h743xx.o(RESET) refers to timer.o(i.TIM3_IRQHandler) for TIM3_IRQHandler
==============================================================================

Removing Unused input sections from the image.

    Removing main.o(.rev16_text), (4 bytes).
    Removing main.o(.revsh_text), (4 bytes).
    Removing main.o(.rrx_text), (6 bytes).
    Removing stm32h7xx_it.o(.rev16_text), (4 bytes).
    Removing stm32h7xx_it.o(.revsh_text), (4 bytes).
    Removing stm32h7xx_it.o(.rrx_text), (6 bytes).
    Removing system_stm32h7xx.o(.rev16_text), (4 bytes).
    Removing system_stm32h7xx.o(.revsh_text), (4 bytes).
    Removing system_stm32h7xx.o(.rrx_text), (6 bytes).
    Removing system_stm32h7xx.o(i.SystemCoreClockUpdate), (564 bytes).
    Removing delay.o(.rev16_text), (4 bytes).
    Removing delay.o(.revsh_text), (4 bytes).
    Removing delay.o(.rrx_text), (6 bytes).
    Removing delay.o(i.delay_nms), (24 bytes).
    Removing sys.o(.rev16_text), (4 bytes).
    Removing sys.o(.revsh_text), (4 bytes).
    Removing sys.o(.rrx_text), (6 bytes).
    Removing sys.o(i.get_dcahce_sta), (16 bytes).
==============================================================================

Image Symbol Table

    Local Symbols

    Symbol Name                              Value     Ov Type        Size  Object(Section)

    ../clib/angel/boardlib.s                 0x00000000   Number         0  boardshut.o ABSOLUTE
    ../clib/angel/boardlib.s                 0x00000000   Number         0  boardinit2.o ABSOLUTE
    ../clib/angel/boardlib.s                 0x00000000   Number         0  boardinit3.o ABSOLUTE
    ../clib/angel/boardlib.s                 0x00000000   Number         0  boardinit1.o ABSOLUTE
    ../clib/angel/handlers.s                 0x00000000   Number         0  __scatter_zi.o ABSOLUTE
    ../clib/angel/handlers.s                 0x00000000   Number         0  __scatter_copy.o ABSOLUTE
    ../clib/angel/kernel.s                   0x00000000   Number         0  rtexit2.o ABSOLUTE
    ../clib/angel/kernel.s                   0x00000000   Number         0  __rtentry.o ABSOLUTE
    ../clib/angel/kernel.s                   0x00000000   Number         0  __rtentry4.o ABSOLUTE
    ../clib/angel/kernel.s                   0x00000000   Number         0  __rtentry2.o ABSOLUTE
    ../clib/angel/kernel.s                   0x00000000   Number         0  rtexit.o ABSOLUTE
    ../clib/angel/rt.s                       0x00000000   Number         0  rt_errno_addr.o ABSOLUTE
    ../clib/angel/rt.s                       0x00000000   Number         0  rt_errno_addr_intlibspace.o ABSOLUTE
    ../clib/angel/rt.s                       0x00000000   Number         0  rt_div0.o ABSOLUTE
    ../clib/angel/rt.s                       0x00000000   Number         0  aeabi_ldiv0.o ABSOLUTE
    ../clib/angel/rt.s                       0x00000000   Number         0  aeabi_ldiv0_sigfpe.o ABSOLUTE
    ../clib/angel/rt.s                       0x00000000   Number         0  rt_raise.o ABSOLUTE
    ../clib/angel/scatter.s                  0x00000000   Number         0  __scatter.o ABSOLUTE
    ../clib/angel/startup.s                  0x00000000   Number         0  __main.o ABSOLUTE
    ../clib/angel/sys.s                      0x00000000   Number         0  use_no_semi_2.o ABSOLUTE
    ../clib/angel/sys.s                      0x00000000   Number         0  libspace.o ABSOLUTE
    ../clib/angel/sys.s                      0x00000000   Number         0  use_no_semi.o ABSOLUTE
    ../clib/angel/sys.s                      0x00000000   Number         0  sys_stackheap_outer.o ABSOLUTE
    ../clib/armsys.c                         0x00000000   Number         0  _get_argv_nomalloc.o ABSOLUTE
    ../clib/armsys.c                         0x00000000   Number         0  argv_veneer.o ABSOLUTE
    ../clib/armsys.c                         0x00000000   Number         0  argv_veneer.o ABSOLUTE
    ../clib/armsys.c                         0x00000000   Number         0  no_argv.o ABSOLUTE
    ../clib/fenv.c                           0x00000000   Number         0  _rserrno.o ABSOLUTE
    ../clib/heapalloc.c                      0x00000000   Number         0  hrguard.o ABSOLUTE
    ../clib/heapaux.c                        0x00000000   Number         0  heapauxi.o ABSOLUTE
    ../clib/libinit.s                        0x00000000   Number         0  libshutdown2.o ABSOLUTE
    ../clib/libinit.s                        0x00000000   Number         0  libshutdown.o ABSOLUTE
    ../clib/libinit.s                        0x00000000   Number         0  libinit.o ABSOLUTE
    ../clib/libinit.s                        0x00000000   Number         0  libinit2.o ABSOLUTE
    ../clib/longlong.s                       0x00000000   Number         0  lludivv7m.o ABSOLUTE
    ../clib/memcpset.s                       0x00000000   Number         0  rt_memclr_w.o ABSOLUTE
    ../clib/memcpset.s                       0x00000000   Number         0  strcmpv7m_pel.o ABSOLUTE
    ../clib/memcpset.s                       0x00000000   Number         0  rt_memcpy_w.o ABSOLUTE
    ../clib/printf.c                         0x00000000   Number         0  _printf_dec.o ABSOLUTE
    ../clib/printf.c                         0x00000000   Number         0  _printf_hex_ll.o ABSOLUTE
    ../clib/printf.c                         0x00000000   Number         0  _printf_char_common.o ABSOLUTE
    ../clib/printf.c                         0x00000000   Number         0  _printf_hex_int.o ABSOLUTE
    ../clib/printf.c                         0x00000000   Number         0  _printf_hex_int_ll.o ABSOLUTE
    ../clib/printf.c                         0x00000000   Number         0  _printf_hex_ptr.o ABSOLUTE
    ../clib/printf.c                         0x00000000   Number         0  _printf_hex_int_ptr.o ABSOLUTE
    ../clib/printf.c                         0x00000000   Number         0  _printf_hex_ll_ptr.o ABSOLUTE
    ../clib/printf.c                         0x00000000   Number         0  __printf_flags.o ABSOLUTE
    ../clib/printf.c                         0x00000000   Number         0  __printf_ss.o ABSOLUTE
    ../clib/printf.c                         0x00000000   Number         0  __printf_flags_ss.o ABSOLUTE
    ../clib/printf.c                         0x00000000   Number         0  __printf_wp.o ABSOLUTE
    ../clib/printf.c                         0x00000000   Number         0  __printf_flags_wp.o ABSOLUTE
    ../clib/printf.c                         0x00000000   Number         0  __printf_ss_wp.o ABSOLUTE
    ../clib/printf.c                         0x00000000   Number         0  __printf_flags_ss_wp.o ABSOLUTE
    ../clib/printf.c                         0x00000000   Number         0  __printf_nopercent.o ABSOLUTE
    ../clib/printf.c                         0x00000000   Number         0  _printf_hex_int_ll_ptr.o ABSOLUTE
    ../clib/printf.c                         0x00000000   Number         0  _printf_char_file.o ABSOLUTE
    ../clib/printf.c                         0x00000000   Number         0  _printf_char.o ABSOLUTE
    ../clib/printf.c                         0x00000000   Number         0  _printf_intcommon.o ABSOLUTE
    ../clib/printf.c                         0x00000000   Number         0  _printf_str.o ABSOLUTE
    ../clib/printf.c                         0x00000000   Number         0  __printf.o ABSOLUTE
    ../clib/printf.c                         0x00000000   Number         0  noretval__2printf.o ABSOLUTE
    ../clib/printf.c                         0x00000000   Number         0  __2printf.o ABSOLUTE
    ../clib/printf_percent.s                 0x00000000   Number         0  _printf_x.o ABSOLUTE
    ../clib/printf_percent.s                 0x00000000   Number         0  _printf_percent.o ABSOLUTE
    ../clib/printf_percent.s                 0x00000000   Number         0  _printf_d.o ABSOLUTE
    ../clib/printf_percent.s                 0x00000000   Number         0  _printf_percent_end.o ABSOLUTE
    ../clib/printf_percent.s                 0x00000000   Number         0  _printf_s.o ABSOLUTE
    ../clib/signal.c                         0x00000000   Number         0  defsig_exit.o ABSOLUTE
    ../clib/signal.c                         0x00000000   Number         0  defsig_fpe_formal.o ABSOLUTE
    ../clib/signal.c                         0x00000000   Number         0  defsig_rtmem_formal.o ABSOLUTE
    ../clib/signal.c                         0x00000000   Number         0  defsig_rtred_inner.o ABSOLUTE
    ../clib/signal.c                         0x00000000   Number         0  defsig_stak_inner.o ABSOLUTE
    ../clib/signal.c                         0x00000000   Number         0  defsig_pvfn_inner.o ABSOLUTE
    ../clib/signal.c                         0x00000000   Number         0  defsig_rtmem_inner.o ABSOLUTE
    ../clib/signal.c                         0x00000000   Number         0  defsig_cppl_inner.o ABSOLUTE
    ../clib/signal.c                         0x00000000   Number         0  defsig_fpe_outer.o ABSOLUTE
    ../clib/signal.c                         0x00000000   Number         0  defsig_general.o ABSOLUTE
    ../clib/signal.c                         0x00000000   Number         0  defsig_segv_inner.o ABSOLUTE
    ../clib/signal.c                         0x00000000   Number         0  defsig_other.o ABSOLUTE
    ../clib/signal.c                         0x00000000   Number         0  defsig_rtmem_outer.o ABSOLUTE
    ../clib/signal.c                         0x00000000   Number         0  __raise.o ABSOLUTE
    ../clib/signal.c                         0x00000000   Number         0  defsig_abrt_inner.o ABSOLUTE
    ../clib/signal.c                         0x00000000   Number         0  defsig_fpe_inner.o ABSOLUTE
    ../clib/signal.s                         0x00000000   Number         0  defsig.o ABSOLUTE
    ../clib/stdio.c                          0x00000000   Number         0  ferror_locked.o ABSOLUTE
    ../clib/stdio.c                          0x00000000   Number         0  ferror.o ABSOLUTE
    ../clib/stdlib.c                         0x00000000   Number         0  exit.o ABSOLUTE
    ../fplib/fpinit.s                        0x00000000   Number         0  fpinit.o ABSOLUTE
    ../fplib/usenofp.s                       0x00000000   Number         0  usenofp.o ABSOLUTE
    ../mathlib/sqrt.c                        0x00000000   Number         0  sqrt_x.o ABSOLUTE
    ../mathlib/sqrt.c                        0x00000000   Number         0  sqrt.o ABSOLUTE
    ..\..\Drivers\BSP\24CXX\24cxx.c          0x00000000   Number         0  24cxx.o ABSOLUTE
    ..\..\Drivers\BSP\ADC\adc.c              0x00000000   Number         0  adc.o ABSOLUTE
    ..\..\Drivers\BSP\COMM\comm.c            0x00000000   Number         0  comm.o ABSOLUTE
    ..\..\Drivers\BSP\COMM\func.c            0x00000000   Number         0  func.o ABSOLUTE
    ..\..\Drivers\BSP\EXTI\exti.c            0x00000000   Number         0  exti.o ABSOLUTE
    ..\..\Drivers\BSP\IIC\myiic.c            0x00000000   Number         0  myiic.o ABSOLUTE
    ..\..\Drivers\BSP\KEY\key.c              0x00000000   Number         0  key.o ABSOLUTE
    ..\..\Drivers\BSP\LCD\lcd.c              0x00000000   Number         0  lcd.o ABSOLUTE
    ..\..\Drivers\BSP\LCD\ltdc.c             0x00000000   Number         0  ltdc.o ABSOLUTE
    ..\..\Drivers\BSP\LED\led.c              0x00000000   Number         0  led.o ABSOLUTE
    ..\..\Drivers\BSP\MPU\mpu.c              0x00000000   Number         0  mpu.o ABSOLUTE
    ..\..\Drivers\BSP\PCF8574\pcf8574.c      0x00000000   Number         0  pcf8574.o ABSOLUTE
    ..\..\Drivers\BSP\QSPI\qspi.c            0x00000000   Number         0  qspi.o ABSOLUTE
    ..\..\Drivers\BSP\SDRAM\sdram.c          0x00000000   Number         0  sdram.o ABSOLUTE
    ..\..\Drivers\BSP\TIMER\timer.c          0x00000000   Number         0  timer.o ABSOLUTE
    ..\..\Drivers\BSP\TOUCH\ctiic.c          0x00000000   Number         0  ctiic.o ABSOLUTE
    ..\..\Drivers\BSP\TOUCH\ft5206.c         0x00000000   Number         0  ft5206.o ABSOLUTE
    ..\..\Drivers\BSP\TOUCH\gt5668.c         0x00000000   Number         0  gt5668.o ABSOLUTE
    ..\..\Drivers\BSP\TOUCH\gt9147.c         0x00000000   Number         0  gt9147.o ABSOLUTE
    ..\..\Drivers\BSP\TOUCH\ott2001a.c       0x00000000   Number         0  ott2001a.o ABSOLUTE
    ..\..\Drivers\BSP\TOUCH\touch.c          0x00000000   Number         0  touch.o ABSOLUTE
    ..\..\Drivers\BSP\TR\TRgpio.c            0x00000000   Number         0  trgpio.o ABSOLUTE
    ..\..\Drivers\BSP\TR\TRspi.c             0x00000000   Number         0  trspi.o ABSOLUTE
    ..\..\Drivers\BSP\USART232\dma.c         0x00000000   Number         0  dma.o ABSOLUTE
    ..\..\Drivers\BSP\USART232\usart232.c    0x00000000   Number         0  usart232.o ABSOLUTE
    ..\..\Drivers\BSP\W25QXX\w25qxx.c        0x00000000   Number         0  w25qxx.o ABSOLUTE
    ..\..\Drivers\CMSIS\Device\ST\STM32H7xx\Source\Templates\arm\startup_stm32h743xx.s 0x00000000   Number         0  startup_stm32h743xx.o ABSOLUTE
    ..\..\Drivers\CMSIS\Device\ST\STM32H7xx\Source\Templates\system_stm32h7xx.c 0x00000000   Number         0  system_stm32h7xx.o ABSOLUTE
    ..\..\Drivers\STM32H7xx_HAL_Driver\Src\stm32h7xx_hal.c 0x00000000   Number         0  stm32h7xx_hal.o ABSOLUTE
    ..\..\Drivers\STM32H7xx_HAL_Driver\Src\stm32h7xx_hal_adc.c 0x00000000   Number         0  stm32h7xx_hal_adc.o ABSOLUTE
    ..\..\Drivers\STM32H7xx_HAL_Driver\Src\stm32h7xx_hal_adc_ex.c 0x00000000   Number         0  stm32h7xx_hal_adc_ex.o ABSOLUTE
    ..\..\Drivers\STM32H7xx_HAL_Driver\Src\stm32h7xx_hal_cortex.c 0x00000000   Number         0  stm32h7xx_hal_cortex.o ABSOLUTE
    ..\..\Drivers\STM32H7xx_HAL_Driver\Src\stm32h7xx_hal_dma.c 0x00000000   Number         0  stm32h7xx_hal_dma.o ABSOLUTE
    ..\..\Drivers\STM32H7xx_HAL_Driver\Src\stm32h7xx_hal_dma2d.c 0x00000000   Number         0  stm32h7xx_hal_dma2d.o ABSOLUTE
    ..\..\Drivers\STM32H7xx_HAL_Driver\Src\stm32h7xx_hal_dma_ex.c 0x00000000   Number         0  stm32h7xx_hal_dma_ex.o ABSOLUTE
    ..\..\Drivers\STM32H7xx_HAL_Driver\Src\stm32h7xx_hal_gpio.c 0x00000000   Number         0  stm32h7xx_hal_gpio.o ABSOLUTE
    ..\..\Drivers\STM32H7xx_HAL_Driver\Src\stm32h7xx_hal_ltdc.c 0x00000000   Number         0  stm32h7xx_hal_ltdc.o ABSOLUTE
    ..\..\Drivers\STM32H7xx_HAL_Driver\Src\stm32h7xx_hal_ltdc_ex.c 0x00000000   Number         0  stm32h7xx_hal_ltdc_ex.o ABSOLUTE
    ..\..\Drivers\STM32H7xx_HAL_Driver\Src\stm32h7xx_hal_mdma.c 0x00000000   Number         0  stm32h7xx_hal_mdma.o ABSOLUTE
    ..\..\Drivers\STM32H7xx_HAL_Driver\Src\stm32h7xx_hal_pwr.c 0x00000000   Number         0  stm32h7xx_hal_pwr.o ABSOLUTE
    ..\..\Drivers\STM32H7xx_HAL_Driver\Src\stm32h7xx_hal_pwr_ex.c 0x00000000   Number         0  stm32h7xx_hal_pwr_ex.o ABSOLUTE
    ..\..\Drivers\STM32H7xx_HAL_Driver\Src\stm32h7xx_hal_qspi.c 0x00000000   Number         0  stm32h7xx_hal_qspi.o ABSOLUTE
    ..\..\Drivers\STM32H7xx_HAL_Driver\Src\stm32h7xx_hal_rcc.c 0x00000000   Number         0  stm32h7xx_hal_rcc.o ABSOLUTE
    ..\..\Drivers\STM32H7xx_HAL_Driver\Src\stm32h7xx_hal_rcc_ex.c 0x00000000   Number         0  stm32h7xx_hal_rcc_ex.o ABSOLUTE
    ..\..\Drivers\STM32H7xx_HAL_Driver\Src\stm32h7xx_hal_sdram.c 0x00000000   Number         0  stm32h7xx_hal_sdram.o ABSOLUTE
    ..\..\Drivers\STM32H7xx_HAL_Driver\Src\stm32h7xx_hal_sram.c 0x00000000   Number         0  stm32h7xx_hal_sram.o ABSOLUTE
    ..\..\Drivers\STM32H7xx_HAL_Driver\Src\stm32h7xx_hal_tim.c 0x00000000   Number         0  stm32h7xx_hal_tim.o ABSOLUTE
    ..\..\Drivers\STM32H7xx_HAL_Driver\Src\stm32h7xx_hal_tim_ex.c 0x00000000   Number         0  stm32h7xx_hal_tim_ex.o ABSOLUTE
    ..\..\Drivers\STM32H7xx_HAL_Driver\Src\stm32h7xx_hal_uart.c 0x00000000   Number         0  stm32h7xx_hal_uart.o ABSOLUTE
    ..\..\Drivers\STM32H7xx_HAL_Driver\Src\stm32h7xx_hal_uart_ex.c 0x00000000   Number         0  stm32h7xx_hal_uart_ex.o ABSOLUTE
    ..\..\Drivers\STM32H7xx_HAL_Driver\Src\stm32h7xx_ll_fmc.c 0x00000000   Number         0  stm32h7xx_ll_fmc.o ABSOLUTE
    ..\..\Drivers\SYSTEM\delay\delay.c       0x00000000   Number         0  delay.o ABSOLUTE
    ..\..\Drivers\SYSTEM\sys\sys.c           0x00000000   Number         0  sys.o ABSOLUTE
    ..\..\Drivers\SYSTEM\usart\usart.c       0x00000000   Number         0  usart.o ABSOLUTE
    ..\..\User\main.c                        0x00000000   Number         0  main.o ABSOLUTE
    ..\..\User\stm32h7xx_it.c                0x00000000   Number         0  stm32h7xx_it.o ABSOLUTE
    ..\\..\\Drivers\\BSP\\24CXX\\24cxx.c     0x00000000   Number         0  24cxx.o ABSOLUTE
    ..\\..\\Drivers\\BSP\\ADC\\adc.c         0x00000000   Number         0  adc.o ABSOLUTE
    ..\\..\\Drivers\\BSP\\COMM\\comm.c       0x00000000   Number         0  comm.o ABSOLUTE
    ..\\..\\Drivers\\BSP\\COMM\\func.c       0x00000000   Number         0  func.o ABSOLUTE
    ..\\..\\Drivers\\BSP\\EXTI\\exti.c       0x00000000   Number         0  exti.o ABSOLUTE
    ..\\..\\Drivers\\BSP\\IIC\\myiic.c       0x00000000   Number         0  myiic.o ABSOLUTE
    ..\\..\\Drivers\\BSP\\KEY\\key.c         0x00000000   Number         0  key.o ABSOLUTE
    ..\\..\\Drivers\\BSP\\LCD\\lcd.c         0x00000000   Number         0  lcd.o ABSOLUTE
    ..\\..\\Drivers\\BSP\\LCD\\ltdc.c        0x00000000   Number         0  ltdc.o ABSOLUTE
    ..\\..\\Drivers\\BSP\\LED\\led.c         0x00000000   Number         0  led.o ABSOLUTE
    ..\\..\\Drivers\\BSP\\MPU\\mpu.c         0x00000000   Number         0  mpu.o ABSOLUTE
    ..\\..\\Drivers\\BSP\\PCF8574\\pcf8574.c 0x00000000   Number         0  pcf8574.o ABSOLUTE
    ..\\..\\Drivers\\BSP\\QSPI\\qspi.c       0x00000000   Number         0  qspi.o ABSOLUTE
    ..\\..\\Drivers\\BSP\\SDRAM\\sdram.c     0x00000000   Number         0  sdram.o ABSOLUTE
    ..\\..\\Drivers\\BSP\\TIMER\\timer.c     0x00000000   Number         0  timer.o ABSOLUTE
    ..\\..\\Drivers\\BSP\\TOUCH\\ctiic.c     0x00000000   Number         0  ctiic.o ABSOLUTE
    ..\\..\\Drivers\\BSP\\TOUCH\\ft5206.c    0x00000000   Number         0  ft5206.o ABSOLUTE
    ..\\..\\Drivers\\BSP\\TOUCH\\gt5668.c    0x00000000   Number         0  gt5668.o ABSOLUTE
    ..\\..\\Drivers\\BSP\\TOUCH\\gt9147.c    0x00000000   Number         0  gt9147.o ABSOLUTE
    ..\\..\\Drivers\\BSP\\TOUCH\\ott2001a.c  0x00000000   Number         0  ott2001a.o ABSOLUTE
    ..\\..\\Drivers\\BSP\\TOUCH\\touch.c     0x00000000   Number         0  touch.o ABSOLUTE
    ..\\..\\Drivers\\BSP\\TR\\TRgpio.c       0x00000000   Number         0  trgpio.o ABSOLUTE
    ..\\..\\Drivers\\BSP\\TR\\TRspi.c        0x00000000   Number         0  trspi.o ABSOLUTE
    ..\\..\\Drivers\\BSP\\USART232\\dma.c    0x00000000   Number         0  dma.o ABSOLUTE
    ..\\..\\Drivers\\BSP\\USART232\\usart232.c 0x00000000   Number         0  usart232.o ABSOLUTE
    ..\\..\\Drivers\\BSP\\W25QXX\\w25qxx.c   0x00000000   Number         0  w25qxx.o ABSOLUTE
    ..\\..\\Drivers\\CMSIS\\Device\\ST\\STM32H7xx\\Source\\Templates\\system_stm32h7xx.c 0x00000000   Number         0  system_stm32h7xx.o ABSOLUTE
    ..\\..\\Drivers\\STM32H7xx_HAL_Driver\\Src\\stm32h7xx_hal.c 0x00000000   Number         0  stm32h7xx_hal.o ABSOLUTE
    ..\\..\\Drivers\\STM32H7xx_HAL_Driver\\Src\\stm32h7xx_hal_adc.c 0x00000000   Number         0  stm32h7xx_hal_adc.o ABSOLUTE
    ..\\..\\Drivers\\STM32H7xx_HAL_Driver\\Src\\stm32h7xx_hal_adc_ex.c 0x00000000   Number         0  stm32h7xx_hal_adc_ex.o ABSOLUTE
    ..\\..\\Drivers\\STM32H7xx_HAL_Driver\\Src\\stm32h7xx_hal_cortex.c 0x00000000   Number         0  stm32h7xx_hal_cortex.o ABSOLUTE
    ..\\..\\Drivers\\STM32H7xx_HAL_Driver\\Src\\stm32h7xx_hal_dma.c 0x00000000   Number         0  stm32h7xx_hal_dma.o ABSOLUTE
    ..\\..\\Drivers\\STM32H7xx_HAL_Driver\\Src\\stm32h7xx_hal_dma2d.c 0x00000000   Number         0  stm32h7xx_hal_dma2d.o ABSOLUTE
    ..\\..\\Drivers\\STM32H7xx_HAL_Driver\\Src\\stm32h7xx_hal_dma_ex.c 0x00000000   Number         0  stm32h7xx_hal_dma_ex.o ABSOLUTE
    ..\\..\\Drivers\\STM32H7xx_HAL_Driver\\Src\\stm32h7xx_hal_gpio.c 0x00000000   Number         0  stm32h7xx_hal_gpio.o ABSOLUTE
    ..\\..\\Drivers\\STM32H7xx_HAL_Driver\\Src\\stm32h7xx_hal_ltdc.c 0x00000000   Number         0  stm32h7xx_hal_ltdc.o ABSOLUTE
    ..\\..\\Drivers\\STM32H7xx_HAL_Driver\\Src\\stm32h7xx_hal_ltdc_ex.c 0x00000000   Number         0  stm32h7xx_hal_ltdc_ex.o ABSOLUTE
    ..\\..\\Drivers\\STM32H7xx_HAL_Driver\\Src\\stm32h7xx_hal_mdma.c 0x00000000   Number         0  stm32h7xx_hal_mdma.o ABSOLUTE
    ..\\..\\Drivers\\STM32H7xx_HAL_Driver\\Src\\stm32h7xx_hal_pwr.c 0x00000000   Number         0  stm32h7xx_hal_pwr.o ABSOLUTE
    ..\\..\\Drivers\\STM32H7xx_HAL_Driver\\Src\\stm32h7xx_hal_pwr_ex.c 0x00000000   Number         0  stm32h7xx_hal_pwr_ex.o ABSOLUTE
    ..\\..\\Drivers\\STM32H7xx_HAL_Driver\\Src\\stm32h7xx_hal_qspi.c 0x00000000   Number         0  stm32h7xx_hal_qspi.o ABSOLUTE
    ..\\..\\Drivers\\STM32H7xx_HAL_Driver\\Src\\stm32h7xx_hal_rcc.c 0x00000000   Number         0  stm32h7xx_hal_rcc.o ABSOLUTE
    ..\\..\\Drivers\\STM32H7xx_HAL_Driver\\Src\\stm32h7xx_hal_rcc_ex.c 0x00000000   Number         0  stm32h7xx_hal_rcc_ex.o ABSOLUTE
    ..\\..\\Drivers\\STM32H7xx_HAL_Driver\\Src\\stm32h7xx_hal_sdram.c 0x00000000   Number         0  stm32h7xx_hal_sdram.o ABSOLUTE
    ..\\..\\Drivers\\STM32H7xx_HAL_Driver\\Src\\stm32h7xx_hal_sram.c 0x00000000   Number         0  stm32h7xx_hal_sram.o ABSOLUTE
    ..\\..\\Drivers\\STM32H7xx_HAL_Driver\\Src\\stm32h7xx_hal_tim.c 0x00000000   Number         0  stm32h7xx_hal_tim.o ABSOLUTE
    ..\\..\\Drivers\\STM32H7xx_HAL_Driver\\Src\\stm32h7xx_hal_tim_ex.c 0x00000000   Number         0  stm32h7xx_hal_tim_ex.o ABSOLUTE
    ..\\..\\Drivers\\STM32H7xx_HAL_Driver\\Src\\stm32h7xx_hal_uart.c 0x00000000   Number         0  stm32h7xx_hal_uart.o ABSOLUTE
    ..\\..\\Drivers\\STM32H7xx_HAL_Driver\\Src\\stm32h7xx_hal_uart_ex.c 0x00000000   Number         0  stm32h7xx_hal_uart_ex.o ABSOLUTE
    ..\\..\\Drivers\\STM32H7xx_HAL_Driver\\Src\\stm32h7xx_ll_fmc.c 0x00000000   Number         0  stm32h7xx_ll_fmc.o ABSOLUTE
    ..\\..\\Drivers\\SYSTEM\\delay\\delay.c  0x00000000   Number         0  delay.o ABSOLUTE
    ..\\..\\Drivers\\SYSTEM\\sys\\sys.c      0x00000000   Number         0  sys.o ABSOLUTE
    ..\\..\\Drivers\\SYSTEM\\usart\\usart.c  0x00000000   Number         0  usart.o ABSOLUTE
    ..\\..\\User\\main.c                     0x00000000   Number         0  main.o ABSOLUTE
    ..\\..\\User\\stm32h7xx_it.c             0x00000000   Number         0  stm32h7xx_it.o ABSOLUTE
    dc.s                                     0x00000000   Number         0  dc.o ABSOLUTE
    RESET                                    0x08000000   Section      664  startup_stm32h743xx.o(RESET)
    !!!main                                  0x08000298   Section        8  __main.o(!!!main)
    !!!scatter                               0x080002a0   Section       52  __scatter.o(!!!scatter)
    !!handler_copy                           0x080002d4   Section       26  __scatter_copy.o(!!handler_copy)
    !!handler_zi                             0x080002f0   Section       28  __scatter_zi.o(!!handler_zi)
    .ARM.Collect$$_printf_percent$$00000000  0x0800030c   Section        0  _printf_percent.o(.ARM.Collect$$_printf_percent$$00000000)
    .ARM.Collect$$_printf_percent$$00000017  0x0800030c   Section        4  _printf_percent_end.o(.ARM.Collect$$_printf_percent$$00000017)
    .ARM.Collect$$libinit$$00000000          0x08000310   Section        2  libinit.o(.ARM.Collect$$libinit$$00000000)
    .ARM.Collect$$libinit$$00000001          0x08000312   Section        4  libinit2.o(.ARM.Collect$$libinit$$00000001)
    .ARM.Collect$$libinit$$00000004          0x08000316   Section        0  libinit2.o(.ARM.Collect$$libinit$$00000004)
    .ARM.Collect$$libinit$$0000000A          0x08000316   Section        0  libinit2.o(.ARM.Collect$$libinit$$0000000A)
    .ARM.Collect$$libinit$$0000000C          0x08000316   Section        0  libinit2.o(.ARM.Collect$$libinit$$0000000C)
    .ARM.Collect$$libinit$$0000000E          0x08000316   Section        0  libinit2.o(.ARM.Collect$$libinit$$0000000E)
    .ARM.Collect$$libinit$$00000011          0x08000316   Section        0  libinit2.o(.ARM.Collect$$libinit$$00000011)
    .ARM.Collect$$libinit$$00000013          0x08000316   Section        0  libinit2.o(.ARM.Collect$$libinit$$00000013)
    .ARM.Collect$$libinit$$00000015          0x08000316   Section        0  libinit2.o(.ARM.Collect$$libinit$$00000015)
    .ARM.Collect$$libinit$$00000017          0x08000316   Section        0  libinit2.o(.ARM.Collect$$libinit$$00000017)
    .ARM.Collect$$libinit$$00000019          0x08000316   Section        0  libinit2.o(.ARM.Collect$$libinit$$00000019)
    .ARM.Collect$$libinit$$0000001B          0x08000316   Section        0  libinit2.o(.ARM.Collect$$libinit$$0000001B)
    .ARM.Collect$$libinit$$0000001D          0x08000316   Section        0  libinit2.o(.ARM.Collect$$libinit$$0000001D)
    .ARM.Collect$$libinit$$0000001F          0x08000316   Section        0  libinit2.o(.ARM.Collect$$libinit$$0000001F)
    .ARM.Collect$$libinit$$00000021          0x08000316   Section        0  libinit2.o(.ARM.Collect$$libinit$$00000021)
    .ARM.Collect$$libinit$$00000023          0x08000316   Section        0  libinit2.o(.ARM.Collect$$libinit$$00000023)
    .ARM.Collect$$libinit$$00000025          0x08000316   Section        0  libinit2.o(.ARM.Collect$$libinit$$00000025)
    .ARM.Collect$$libinit$$0000002C          0x08000316   Section        0  libinit2.o(.ARM.Collect$$libinit$$0000002C)
    .ARM.Collect$$libinit$$0000002E          0x08000316   Section        0  libinit2.o(.ARM.Collect$$libinit$$0000002E)
    .ARM.Collect$$libinit$$00000030          0x08000316   Section        0  libinit2.o(.ARM.Collect$$libinit$$00000030)
    .ARM.Collect$$libinit$$00000032          0x08000316   Section        0  libinit2.o(.ARM.Collect$$libinit$$00000032)
    .ARM.Collect$$libinit$$00000033          0x08000316   Section        2  libinit2.o(.ARM.Collect$$libinit$$00000033)
    .ARM.Collect$$libshutdown$$00000000      0x08000318   Section        2  libshutdown.o(.ARM.Collect$$libshutdown$$00000000)
    .ARM.Collect$$libshutdown$$00000002      0x0800031a   Section        0  libshutdown2.o(.ARM.Collect$$libshutdown$$00000002)
    .ARM.Collect$$libshutdown$$00000004      0x0800031a   Section        0  libshutdown2.o(.ARM.Collect$$libshutdown$$00000004)
    .ARM.Collect$$libshutdown$$00000006      0x0800031a   Section        0  libshutdown2.o(.ARM.Collect$$libshutdown$$00000006)
    .ARM.Collect$$libshutdown$$00000009      0x0800031a   Section        0  libshutdown2.o(.ARM.Collect$$libshutdown$$00000009)
    .ARM.Collect$$libshutdown$$0000000C      0x0800031a   Section        0  libshutdown2.o(.ARM.Collect$$libshutdown$$0000000C)
    .ARM.Collect$$libshutdown$$0000000E      0x0800031a   Section        0  libshutdown2.o(.ARM.Collect$$libshutdown$$0000000E)
    .ARM.Collect$$libshutdown$$00000011      0x0800031a   Section        0  libshutdown2.o(.ARM.Collect$$libshutdown$$00000011)
    .ARM.Collect$$libshutdown$$00000012      0x0800031a   Section        2  libshutdown2.o(.ARM.Collect$$libshutdown$$00000012)
    .ARM.Collect$$rtentry$$00000000          0x0800031c   Section        0  __rtentry.o(.ARM.Collect$$rtentry$$00000000)
    .ARM.Collect$$rtentry$$00000002          0x0800031c   Section        0  __rtentry2.o(.ARM.Collect$$rtentry$$00000002)
    .ARM.Collect$$rtentry$$00000004          0x0800031c   Section        6  __rtentry4.o(.ARM.Collect$$rtentry$$00000004)
    .ARM.Collect$$rtentry$$00000009          0x08000322   Section        0  __rtentry2.o(.ARM.Collect$$rtentry$$00000009)
    .ARM.Collect$$rtentry$$0000000A          0x08000322   Section        4  __rtentry2.o(.ARM.Collect$$rtentry$$0000000A)
    .ARM.Collect$$rtentry$$0000000C          0x08000326   Section        0  __rtentry2.o(.ARM.Collect$$rtentry$$0000000C)
    .ARM.Collect$$rtentry$$0000000D          0x08000326   Section        8  __rtentry2.o(.ARM.Collect$$rtentry$$0000000D)
    .ARM.Collect$$rtexit$$00000000           0x0800032e   Section        2  rtexit.o(.ARM.Collect$$rtexit$$00000000)
    .ARM.Collect$$rtexit$$00000002           0x08000330   Section        0  rtexit2.o(.ARM.Collect$$rtexit$$00000002)
    .ARM.Collect$$rtexit$$00000003           0x08000330   Section        4  rtexit2.o(.ARM.Collect$$rtexit$$00000003)
    .ARM.Collect$$rtexit$$00000004           0x08000334   Section        6  rtexit2.o(.ARM.Collect$$rtexit$$00000004)
    .text                                    0x0800033c   Section       80  startup_stm32h743xx.o(.text)
    $v0                                      0x0800033c   Number         0  startup_stm32h743xx.o(.text)
    .text                                    0x0800038c   Section        2  use_no_semi_2.o(.text)
    .text                                    0x0800038e   Section      238  lludivv7m.o(.text)
    .text                                    0x0800047c   Section        0  noretval__2printf.o(.text)
    .text                                    0x08000494   Section        0  __printf.o(.text)
    .text                                    0x080004fc   Section       78  rt_memclr_w.o(.text)
    .text                                    0x0800054a   Section        0  heapauxi.o(.text)
    .text                                    0x08000550   Section        2  use_no_semi.o(.text)
    .text                                    0x08000554   Section        0  _printf_char_file.o(.text)
    .text                                    0x08000578   Section        0  _printf_char_common.o(.text)
    _printf_input_char                       0x08000579   Thumb Code    10  _printf_char_common.o(.text)
    .text                                    0x080005a8   Section        0  ferror.o(.text)
    .text                                    0x080005b0   Section        8  libspace.o(.text)
    .text                                    0x080005b8   Section       74  sys_stackheap_outer.o(.text)
    .text                                    0x08000602   Section        0  exit.o(.text)
    i.BusFault_Handler                       0x08000614   Section        0  stm32h7xx_it.o(i.BusFault_Handler)
    i.Check_Data                             0x08000618   Section        0  comm.o(i.Check_Data)
    i.DMA1_Stream0_IRQHandler                0x080009c0   Section        0  stm32h7xx_it.o(i.DMA1_Stream0_IRQHandler)
    i.DMA_CalcBaseAndBitshift                0x080009d0   Section        0  stm32h7xx_hal_dma.o(i.DMA_CalcBaseAndBitshift)
    DMA_CalcBaseAndBitshift                  0x080009d1   Thumb Code   224  stm32h7xx_hal_dma.o(i.DMA_CalcBaseAndBitshift)
    i.DMA_CalcDMAMUXChannelBaseAndMask       0x08000abc   Section        0  stm32h7xx_hal_dma.o(i.DMA_CalcDMAMUXChannelBaseAndMask)
    DMA_CalcDMAMUXChannelBaseAndMask         0x08000abd   Thumb Code   178  stm32h7xx_hal_dma.o(i.DMA_CalcDMAMUXChannelBaseAndMask)
    i.DMA_CalcDMAMUXRequestGenBaseAndMask    0x08000b80   Section        0  stm32h7xx_hal_dma.o(i.DMA_CalcDMAMUXRequestGenBaseAndMask)
    DMA_CalcDMAMUXRequestGenBaseAndMask      0x08000b81   Thumb Code   140  stm32h7xx_hal_dma.o(i.DMA_CalcDMAMUXRequestGenBaseAndMask)
    i.DMA_CheckFifoParam                     0x08000c18   Section        0  stm32h7xx_hal_dma.o(i.DMA_CheckFifoParam)
    DMA_CheckFifoParam                       0x08000c19   Thumb Code   174  stm32h7xx_hal_dma.o(i.DMA_CheckFifoParam)
    i.DMA_SetConfig                          0x08000cc8   Section        0  stm32h7xx_hal_dma.o(i.DMA_SetConfig)
    DMA_SetConfig                            0x08000cc9   Thumb Code   614  stm32h7xx_hal_dma.o(i.DMA_SetConfig)
    i.DebugMon_Handler                       0x08000f3c   Section        0  stm32h7xx_it.o(i.DebugMon_Handler)
    i.DecRecvData_Usart232                   0x08000f40   Section        0  comm.o(i.DecRecvData_Usart232)
    i.EXTI3_IRQHandler                       0x08000fdc   Section        0  exti.o(i.EXTI3_IRQHandler)
    i.EXTI9_5_IRQHandler                     0x08000ff0   Section        0  exti.o(i.EXTI9_5_IRQHandler)
    i.Error_Handler                          0x08001004   Section        0  main.o(i.Error_Handler)
    i.Getdata                                0x08001030   Section        0  comm.o(i.Getdata)
    i.HAL_DMA_Abort                          0x08001270   Section        0  stm32h7xx_hal_dma.o(i.HAL_DMA_Abort)
    i.HAL_DMA_Abort_IT                       0x0800174c   Section        0  stm32h7xx_hal_dma.o(i.HAL_DMA_Abort_IT)
    i.HAL_DMA_IRQHandler                     0x08001ae4   Section        0  stm32h7xx_hal_dma.o(i.HAL_DMA_IRQHandler)
    i.HAL_DMA_Init                           0x080025dc   Section        0  stm32h7xx_hal_dma.o(i.HAL_DMA_Init)
    i.HAL_DMA_Start_IT                       0x08002afc   Section        0  stm32h7xx_hal_dma.o(i.HAL_DMA_Start_IT)
    i.HAL_Delay                              0x08002edc   Section        0  stm32h7xx_hal.o(i.HAL_Delay)
    i.HAL_EnableCompensationCell             0x08002f04   Section        0  stm32h7xx_hal.o(i.HAL_EnableCompensationCell)
    i.HAL_GPIO_EXTI_Callback                 0x08002f18   Section        0  exti.o(i.HAL_GPIO_EXTI_Callback)
    i.HAL_GPIO_EXTI_IRQHandler               0x08002f4c   Section        0  stm32h7xx_hal_gpio.o(i.HAL_GPIO_EXTI_IRQHandler)
    i.HAL_GPIO_Init                          0x08002f68   Section        0  stm32h7xx_hal_gpio.o(i.HAL_GPIO_Init)
    i.HAL_GPIO_TogglePin                     0x08003164   Section        0  stm32h7xx_hal_gpio.o(i.HAL_GPIO_TogglePin)
    i.HAL_GPIO_WritePin                      0x08003178   Section        0  stm32h7xx_hal_gpio.o(i.HAL_GPIO_WritePin)
    i.HAL_GetREVID                           0x08003184   Section        0  stm32h7xx_hal.o(i.HAL_GetREVID)
    i.HAL_GetTick                            0x08003190   Section        0  stm32h7xx_hal.o(i.HAL_GetTick)
    i.HAL_IncTick                            0x0800319c   Section        0  stm32h7xx_hal.o(i.HAL_IncTick)
    i.HAL_Init                               0x080031b4   Section        0  stm32h7xx_hal.o(i.HAL_Init)
    i.HAL_InitTick                           0x08003214   Section        0  stm32h7xx_hal.o(i.HAL_InitTick)
    i.HAL_MspInit                            0x0800326c   Section        0  stm32h7xx_hal.o(i.HAL_MspInit)
    i.HAL_NVIC_EnableIRQ                     0x0800326e   Section        0  stm32h7xx_hal_cortex.o(i.HAL_NVIC_EnableIRQ)
    i.HAL_NVIC_SetPriority                   0x08003296   Section        0  stm32h7xx_hal_cortex.o(i.HAL_NVIC_SetPriority)
    i.HAL_NVIC_SetPriorityGrouping           0x08003310   Section        0  stm32h7xx_hal_cortex.o(i.HAL_NVIC_SetPriorityGrouping)
    i.HAL_NVIC_SystemReset                   0x08003338   Section        0  stm32h7xx_hal_cortex.o(i.HAL_NVIC_SystemReset)
    i.HAL_PWREx_EnableUSBVoltageDetector     0x0800337c   Section        0  stm32h7xx_hal_pwr_ex.o(i.HAL_PWREx_EnableUSBVoltageDetector)
    i.HAL_RCCEx_GetD3PCLK1Freq               0x08003390   Section        0  stm32h7xx_hal_rcc_ex.o(i.HAL_RCCEx_GetD3PCLK1Freq)
    i.HAL_RCCEx_GetPLL2ClockFreq             0x080033b4   Section        0  stm32h7xx_hal_rcc_ex.o(i.HAL_RCCEx_GetPLL2ClockFreq)
    i.HAL_RCCEx_GetPLL3ClockFreq             0x080035e4   Section        0  stm32h7xx_hal_rcc_ex.o(i.HAL_RCCEx_GetPLL3ClockFreq)
    i.HAL_RCCEx_PeriphCLKConfig              0x08003814   Section        0  stm32h7xx_hal_rcc_ex.o(i.HAL_RCCEx_PeriphCLKConfig)
    i.HAL_RCC_ClockConfig                    0x08004378   Section        0  stm32h7xx_hal_rcc.o(i.HAL_RCC_ClockConfig)
    i.HAL_RCC_GetHCLKFreq                    0x08004698   Section        0  stm32h7xx_hal_rcc.o(i.HAL_RCC_GetHCLKFreq)
    i.HAL_RCC_GetPCLK1Freq                   0x080046e4   Section        0  stm32h7xx_hal_rcc.o(i.HAL_RCC_GetPCLK1Freq)
    i.HAL_RCC_GetPCLK2Freq                   0x08004708   Section        0  stm32h7xx_hal_rcc.o(i.HAL_RCC_GetPCLK2Freq)
    i.HAL_RCC_GetSysClockFreq                0x0800472c   Section        0  stm32h7xx_hal_rcc.o(i.HAL_RCC_GetSysClockFreq)
    i.HAL_RCC_OscConfig                      0x08004958   Section        0  stm32h7xx_hal_rcc.o(i.HAL_RCC_OscConfig)
    i.HAL_SYSTICK_CLKSourceConfig            0x08005158   Section        0  stm32h7xx_hal_cortex.o(i.HAL_SYSTICK_CLKSourceConfig)
    i.HAL_SYSTICK_Config                     0x08005180   Section        0  stm32h7xx_hal_cortex.o(i.HAL_SYSTICK_Config)
    i.HAL_TIMEx_Break2Callback               0x080051b4   Section        0  stm32h7xx_hal_tim_ex.o(i.HAL_TIMEx_Break2Callback)
    i.HAL_TIMEx_BreakCallback                0x080051b6   Section        0  stm32h7xx_hal_tim_ex.o(i.HAL_TIMEx_BreakCallback)
    i.HAL_TIMEx_CommutCallback               0x080051b8   Section        0  stm32h7xx_hal_tim_ex.o(i.HAL_TIMEx_CommutCallback)
    i.HAL_TIM_IC_CaptureCallback             0x080051ba   Section        0  stm32h7xx_hal_tim.o(i.HAL_TIM_IC_CaptureCallback)
    i.HAL_TIM_IRQHandler                     0x080051bc   Section        0  stm32h7xx_hal_tim.o(i.HAL_TIM_IRQHandler)
    i.HAL_TIM_OC_DelayElapsedCallback        0x08005374   Section        0  stm32h7xx_hal_tim.o(i.HAL_TIM_OC_DelayElapsedCallback)
    i.HAL_TIM_PWM_PulseFinishedCallback      0x08005376   Section        0  stm32h7xx_hal_tim.o(i.HAL_TIM_PWM_PulseFinishedCallback)
    i.HAL_TIM_PeriodElapsedCallback          0x08005378   Section        0  timer.o(i.HAL_TIM_PeriodElapsedCallback)
    i.HAL_TIM_TriggerCallback                0x0800537a   Section        0  stm32h7xx_hal_tim.o(i.HAL_TIM_TriggerCallback)
    i.HAL_UARTEx_DisableFifoMode             0x0800537c   Section        0  stm32h7xx_hal_uart_ex.o(i.HAL_UARTEx_DisableFifoMode)
    i.HAL_UARTEx_ReceiveToIdle_DMA           0x080053ca   Section        0  stm32h7xx_hal_uart_ex.o(i.HAL_UARTEx_ReceiveToIdle_DMA)
    i.HAL_UARTEx_RxEventCallback             0x0800543c   Section        0  stm32h7xx_it.o(i.HAL_UARTEx_RxEventCallback)
    i.HAL_UARTEx_RxFifoFullCallback          0x0800558c   Section        0  stm32h7xx_hal_uart_ex.o(i.HAL_UARTEx_RxFifoFullCallback)
    i.HAL_UARTEx_SetRxFifoThreshold          0x0800558e   Section        0  stm32h7xx_hal_uart_ex.o(i.HAL_UARTEx_SetRxFifoThreshold)
    i.HAL_UARTEx_SetTxFifoThreshold          0x080055ec   Section        0  stm32h7xx_hal_uart_ex.o(i.HAL_UARTEx_SetTxFifoThreshold)
    i.HAL_UARTEx_TxFifoEmptyCallback         0x0800564a   Section        0  stm32h7xx_hal_uart_ex.o(i.HAL_UARTEx_TxFifoEmptyCallback)
    i.HAL_UARTEx_WakeupCallback              0x0800564c   Section        0  stm32h7xx_hal_uart_ex.o(i.HAL_UARTEx_WakeupCallback)
    i.HAL_UART_ErrorCallback                 0x08005650   Section        0  stm32h7xx_it.o(i.HAL_UART_ErrorCallback)
    i.HAL_UART_GetState                      0x08005690   Section        0  stm32h7xx_hal_uart.o(i.HAL_UART_GetState)
    i.HAL_UART_IRQHandler                    0x080056a0   Section        0  stm32h7xx_hal_uart.o(i.HAL_UART_IRQHandler)
    i.HAL_UART_Init                          0x08005af8   Section        0  stm32h7xx_hal_uart.o(i.HAL_UART_Init)
    i.HAL_UART_MspInit                       0x08005b70   Section        0  usart.o(i.HAL_UART_MspInit)
    i.HAL_UART_Receive_IT                    0x08005de4   Section        0  stm32h7xx_hal_uart.o(i.HAL_UART_Receive_IT)
    i.HAL_UART_RxCpltCallback                0x08005e58   Section        0  usart.o(i.HAL_UART_RxCpltCallback)
    i.HAL_UART_RxHalfCpltCallback            0x08005f08   Section        0  stm32h7xx_hal_uart.o(i.HAL_UART_RxHalfCpltCallback)
    i.HAL_UART_Transmit                      0x08005f0a   Section        0  stm32h7xx_hal_uart.o(i.HAL_UART_Transmit)
    i.HAL_UART_TxCpltCallback                0x08005fe0   Section        0  stm32h7xx_hal_uart.o(i.HAL_UART_TxCpltCallback)
    i.HardFault_Handler                      0x08005fe2   Section        0  stm32h7xx_it.o(i.HardFault_Handler)
    i.LED_Init                               0x08005fe8   Section        0  led.o(i.LED_Init)
    i.MX_DMA_Init                            0x08006040   Section        0  dma.o(i.MX_DMA_Init)
    i.MX_USART2_UART_Init                    0x08006074   Section        0  usart232.o(i.MX_USART2_UART_Init)
    i.MemManage_Handler                      0x080060f4   Section        0  stm32h7xx_it.o(i.MemManage_Handler)
    i.Module_TR_Mode_Set                     0x080060f8   Section        0  trgpio.o(i.Module_TR_Mode_Set)
    i.NMI_Handler                            0x080061ec   Section        0  stm32h7xx_it.o(i.NMI_Handler)
    i.PendSV_Handler                         0x080061f0   Section        0  stm32h7xx_it.o(i.PendSV_Handler)
    i.RCCEx_PLL2_Config                      0x080061f4   Section        0  stm32h7xx_hal_rcc_ex.o(i.RCCEx_PLL2_Config)
    RCCEx_PLL2_Config                        0x080061f5   Thumb Code   350  stm32h7xx_hal_rcc_ex.o(i.RCCEx_PLL2_Config)
    i.RCCEx_PLL3_Config                      0x08006358   Section        0  stm32h7xx_hal_rcc_ex.o(i.RCCEx_PLL3_Config)
    RCCEx_PLL3_Config                        0x08006359   Thumb Code   350  stm32h7xx_hal_rcc_ex.o(i.RCCEx_PLL3_Config)
    i.Recv_ACK_Usart232                      0x080064bc   Section        0  comm.o(i.Recv_ACK_Usart232)
    i.SVC_Handler                            0x080064fc   Section        0  stm32h7xx_it.o(i.SVC_Handler)
    i.Set_TR1                                0x08006500   Section        0  trspi.o(i.Set_TR1)
    i.Set_TR2                                0x0800662c   Section        0  trspi.o(i.Set_TR2)
    i.SysTick_Handler                        0x08006758   Section        0  stm32h7xx_it.o(i.SysTick_Handler)
    i.SystemInit                             0x08006760   Section        0  system_stm32h7xx.o(i.SystemInit)
    i.TIM3_IRQHandler                        0x0800685c   Section        0  timer.o(i.TIM3_IRQHandler)
    i.TIM5_IRQHandler                        0x0800686c   Section        0  timer.o(i.TIM5_IRQHandler)
    i.TR1_ioReset                            0x08006880   Section        0  trspi.o(i.TR1_ioReset)
    i.TR2_ioReset                            0x080068c8   Section        0  trspi.o(i.TR2_ioReset)
    i.TR_GPIO_Init                           0x08006910   Section        0  trgpio.o(i.TR_GPIO_Init)
    i.UARTEx_SetNbDataToProcess              0x08006aa4   Section        0  stm32h7xx_hal_uart_ex.o(i.UARTEx_SetNbDataToProcess)
    UARTEx_SetNbDataToProcess                0x08006aa5   Thumb Code    78  stm32h7xx_hal_uart_ex.o(i.UARTEx_SetNbDataToProcess)
    i.UART_AdvFeatureConfig                  0x08006afc   Section        0  stm32h7xx_hal_uart.o(i.UART_AdvFeatureConfig)
    i.UART_CheckIdleState                    0x08006bf4   Section        0  stm32h7xx_hal_uart.o(i.UART_CheckIdleState)
    i.UART_DMAAbortOnError                   0x08006c6a   Section        0  stm32h7xx_hal_uart.o(i.UART_DMAAbortOnError)
    UART_DMAAbortOnError                     0x08006c6b   Thumb Code    24  stm32h7xx_hal_uart.o(i.UART_DMAAbortOnError)
    i.UART_DMAError                          0x08006c82   Section        0  stm32h7xx_hal_uart.o(i.UART_DMAError)
    UART_DMAError                            0x08006c83   Thumb Code    94  stm32h7xx_hal_uart.o(i.UART_DMAError)
    i.UART_DMAReceiveCplt                    0x08006ce0   Section        0  stm32h7xx_hal_uart.o(i.UART_DMAReceiveCplt)
    UART_DMAReceiveCplt                      0x08006ce1   Thumb Code   170  stm32h7xx_hal_uart.o(i.UART_DMAReceiveCplt)
    i.UART_DMARxHalfCplt                     0x08006d8a   Section        0  stm32h7xx_hal_uart.o(i.UART_DMARxHalfCplt)
    UART_DMARxHalfCplt                       0x08006d8b   Thumb Code    34  stm32h7xx_hal_uart.o(i.UART_DMARxHalfCplt)
    i.UART_EndRxTransfer                     0x08006dac   Section        0  stm32h7xx_hal_uart.o(i.UART_EndRxTransfer)
    UART_EndRxTransfer                       0x08006dad   Thumb Code   104  stm32h7xx_hal_uart.o(i.UART_EndRxTransfer)
    i.UART_EndTransmit_IT                    0x08006e18   Section        0  stm32h7xx_hal_uart.o(i.UART_EndTransmit_IT)
    UART_EndTransmit_IT                      0x08006e19   Thumb Code    48  stm32h7xx_hal_uart.o(i.UART_EndTransmit_IT)
    i.UART_EndTxTransfer                     0x08006e48   Section        0  stm32h7xx_hal_uart.o(i.UART_EndTxTransfer)
    UART_EndTxTransfer                       0x08006e49   Thumb Code    64  stm32h7xx_hal_uart.o(i.UART_EndTxTransfer)
    i.UART_RxISR_16BIT                       0x08006e88   Section        0  stm32h7xx_hal_uart.o(i.UART_RxISR_16BIT)
    UART_RxISR_16BIT                         0x08006e89   Thumb Code   210  stm32h7xx_hal_uart.o(i.UART_RxISR_16BIT)
    i.UART_RxISR_16BIT_FIFOEN                0x08006f5c   Section        0  stm32h7xx_hal_uart.o(i.UART_RxISR_16BIT_FIFOEN)
    UART_RxISR_16BIT_FIFOEN                  0x08006f5d   Thumb Code   448  stm32h7xx_hal_uart.o(i.UART_RxISR_16BIT_FIFOEN)
    i.UART_RxISR_8BIT                        0x08007124   Section        0  stm32h7xx_hal_uart.o(i.UART_RxISR_8BIT)
    UART_RxISR_8BIT                          0x08007125   Thumb Code   206  stm32h7xx_hal_uart.o(i.UART_RxISR_8BIT)
    i.UART_RxISR_8BIT_FIFOEN                 0x080071f4   Section        0  stm32h7xx_hal_uart.o(i.UART_RxISR_8BIT_FIFOEN)
    UART_RxISR_8BIT_FIFOEN                   0x080071f5   Thumb Code   446  stm32h7xx_hal_uart.o(i.UART_RxISR_8BIT_FIFOEN)
    i.UART_SetConfig                         0x080073bc   Section        0  stm32h7xx_hal_uart.o(i.UART_SetConfig)
    i.UART_Start_Receive_DMA                 0x08007948   Section        0  stm32h7xx_hal_uart.o(i.UART_Start_Receive_DMA)
    i.UART_Start_Receive_IT                  0x08007a1c   Section        0  stm32h7xx_hal_uart.o(i.UART_Start_Receive_IT)
    i.UART_WaitOnFlagUntilTimeout            0x08007b8c   Section        0  stm32h7xx_hal_uart.o(i.UART_WaitOnFlagUntilTimeout)
    i.USART1_IRQHandler                      0x08007c8c   Section        0  usart.o(i.USART1_IRQHandler)
    i.USART2_IRQHandler                      0x08007cdc   Section        0  stm32h7xx_it.o(i.USART2_IRQHandler)
    i.Update_1Hz_Usart232                    0x08007cec   Section        0  comm.o(i.Update_1Hz_Usart232)
    i.UsageFault_Handler                     0x08007d28   Section        0  stm32h7xx_it.o(i.UsageFault_Handler)
    i.__NVIC_GetPriorityGrouping             0x08007d2c   Section        0  stm32h7xx_hal_cortex.o(i.__NVIC_GetPriorityGrouping)
    __NVIC_GetPriorityGrouping               0x08007d2d   Thumb Code    10  stm32h7xx_hal_cortex.o(i.__NVIC_GetPriorityGrouping)
    i.__NVIC_SetPriority                     0x08007d3c   Section        0  stm32h7xx_hal_cortex.o(i.__NVIC_SetPriority)
    __NVIC_SetPriority                       0x08007d3d   Thumb Code    32  stm32h7xx_hal_cortex.o(i.__NVIC_SetPriority)
    i._sys_exit                              0x08007d64   Section        0  usart.o(i._sys_exit)
    i.cmemcpy                                0x08007d68   Section        0  func.o(i.cmemcpy)
    i.combineByte                            0x08007d7e   Section        0  comm.o(i.combineByte)
    i.delay_init                             0x08007dcc   Section        0  delay.o(i.delay_init)
    i.delay_ms                               0x08007de0   Section        0  delay.o(i.delay_ms)
    i.delay_nus                              0x08007e12   Section        0  delay.o(i.delay_nus)
    i.delay_us                               0x08007e1c   Section        0  delay.o(i.delay_us)
    i.fputc                                  0x08007e64   Section        0  usart.o(i.fputc)
    i.main                                   0x08007e80   Section        0  main.o(i.main)
    i.sys_stm32_clock_init                   0x08007f44   Section        0  sys.o(i.sys_stm32_clock_init)
    i.usart_init                             0x08008064   Section        0  usart.o(i.usart_init)
    x$fpl$fpinit                             0x0800809c   Section       10  fpinit.o(x$fpl$fpinit)
    $v0                                      0x0800809c   Number         0  fpinit.o(x$fpl$fpinit)
    .constdata                               0x080080a6   Section       16  system_stm32h7xx.o(.constdata)
    .constdata                               0x080080b6   Section        8  stm32h7xx_hal_dma.o(.constdata)
    flagBitshiftOffset                       0x080080b6   Data           8  stm32h7xx_hal_dma.o(.constdata)
    .constdata                               0x080080be   Section       24  stm32h7xx_hal_uart.o(.constdata)
    .constdata                               0x080080d6   Section       16  stm32h7xx_hal_uart_ex.o(.constdata)
    numerator                                0x080080d6   Data           8  stm32h7xx_hal_uart_ex.o(.constdata)
    denominator                              0x080080de   Data           8  stm32h7xx_hal_uart_ex.o(.constdata)
    .data                                    0x24000000   Section        8  system_stm32h7xx.o(.data)
    .data                                    0x24000008   Section        2  delay.o(.data)
    g_fac_us                                 0x24000008   Data           2  delay.o(.data)
    .data                                    0x2400000c   Section        7  usart.o(.data)
    .data                                    0x24000014   Section        9  stm32h7xx_hal.o(.data)
    .bss                                     0x24000020   Section      344  usart.o(.bss)
    .bss                                     0x24000178   Section      212  comm.o(.bss)
    .bss                                     0x2400024c   Section      152  timer.o(.bss)
    .bss                                     0x240002e4   Section      264  usart232.o(.bss)
    .bss                                     0x240003ec   Section       96  libspace.o(.bss)
    HEAP                                     0x24000450   Section     2048  startup_stm32h743xx.o(HEAP)
    Heap_Mem                                 0x24000450   Data        2048  startup_stm32h743xx.o(HEAP)
    STACK                                    0x24000c50   Section     4608  startup_stm32h743xx.o(STACK)
    Stack_Mem                                0x24000c50   Data        4608  startup_stm32h743xx.o(STACK)
    __initial_sp                             0x24001e50   Data           0  startup_stm32h743xx.o(STACK)
    .ARM.__AT_0xC0000000                     0xc0000000   Section    2048000  ltdc.o(.ARM.__AT_0xC0000000)

    Global Symbols

    Symbol Name                              Value     Ov Type        Size  Object(Section)

    BuildAttributes$$THM_ISAv4$E$P$D$K$B$S$7EM$VFPv5_D16$PE$PLD8$A:L22UL41UL21$X:L11$S22US41US21$IEEE1$IW$USESV6$~STKCKD$USESV7$~SHL$OTIME$ROPI$IEEEJ$EBA8$UX$STANDARDLIB$REQ8$PRES8$EABIv2 0x00000000   Number         0  anon$$obj.o ABSOLUTE
    __ARM_use_no_argv                        0x00000000   Number         0  main.o ABSOLUTE
    __ARM_exceptions_init                     - Undefined Weak Reference
    __alloca_initialize                       - Undefined Weak Reference
    __arm_fini_                               - Undefined Weak Reference
    __arm_preinit_                            - Undefined Weak Reference
    __cpp_initialize__aeabi_                  - Undefined Weak Reference
    __cxa_finalize                            - Undefined Weak Reference
    __rt_locale                               - Undefined Weak Reference
    __sigvec_lookup                           - Undefined Weak Reference
    _atexit_init                              - Undefined Weak Reference
    _call_atexit_fns                          - Undefined Weak Reference
    _clock_init                               - Undefined Weak Reference
    _fp_trap_init                             - Undefined Weak Reference
    _fp_trap_shutdown                         - Undefined Weak Reference
    _get_lc_collate                           - Undefined Weak Reference
    _get_lc_ctype                             - Undefined Weak Reference
    _get_lc_monetary                          - Undefined Weak Reference
    _get_lc_numeric                           - Undefined Weak Reference
    _get_lc_time                              - Undefined Weak Reference
    _getenv_init                              - Undefined Weak Reference
    _handle_redirection                       - Undefined Weak Reference
    _init_alloc                               - Undefined Weak Reference
    _init_user_alloc                          - Undefined Weak Reference
    _initio                                   - Undefined Weak Reference
    _mutex_acquire                            - Undefined Weak Reference
    _mutex_release                            - Undefined Weak Reference
    _printf_mbtowc                            - Undefined Weak Reference
    _printf_post_padding                      - Undefined Weak Reference
    _printf_pre_padding                       - Undefined Weak Reference
    _printf_truncate_signed                   - Undefined Weak Reference
    _printf_truncate_unsigned                 - Undefined Weak Reference
    _rand_init                                - Undefined Weak Reference
    _signal_finish                            - Undefined Weak Reference
    _signal_init                              - Undefined Weak Reference
    _terminate_alloc                          - Undefined Weak Reference
    _terminate_user_alloc                     - Undefined Weak Reference
    _terminateio                              - Undefined Weak Reference
    __Vectors_Size                           0x00000298   Number         0  startup_stm32h743xx.o ABSOLUTE
    __Vectors                                0x08000000   Data           4  startup_stm32h743xx.o(RESET)
    __Vectors_End                            0x08000298   Data           0  startup_stm32h743xx.o(RESET)
    __main                                   0x08000299   Thumb Code     8  __main.o(!!!main)
    __scatterload                            0x080002a1   Thumb Code     0  __scatter.o(!!!scatter)
    __scatterload_rt2                        0x080002a1   Thumb Code    44  __scatter.o(!!!scatter)
    __scatterload_rt2_thumb_only             0x080002a1   Thumb Code     0  __scatter.o(!!!scatter)
    __scatterload_null                       0x080002af   Thumb Code     0  __scatter.o(!!!scatter)
    __scatterload_copy                       0x080002d5   Thumb Code    26  __scatter_copy.o(!!handler_copy)
    __scatterload_zeroinit                   0x080002f1   Thumb Code    28  __scatter_zi.o(!!handler_zi)
    _printf_percent                          0x0800030d   Thumb Code     0  _printf_percent.o(.ARM.Collect$$_printf_percent$$00000000)
    _printf_percent_end                      0x0800030d   Thumb Code     0  _printf_percent_end.o(.ARM.Collect$$_printf_percent$$00000017)
    __rt_lib_init                            0x08000311   Thumb Code     0  libinit.o(.ARM.Collect$$libinit$$00000000)
    __rt_lib_init_fp_1                       0x08000313   Thumb Code     0  libinit2.o(.ARM.Collect$$libinit$$00000001)
    __rt_lib_init_alloca_1                   0x08000317   Thumb Code     0  libinit2.o(.ARM.Collect$$libinit$$0000002E)
    __rt_lib_init_argv_1                     0x08000317   Thumb Code     0  libinit2.o(.ARM.Collect$$libinit$$0000002C)
    __rt_lib_init_atexit_1                   0x08000317   Thumb Code     0  libinit2.o(.ARM.Collect$$libinit$$0000001B)
    __rt_lib_init_clock_1                    0x08000317   Thumb Code     0  libinit2.o(.ARM.Collect$$libinit$$00000021)
    __rt_lib_init_cpp_1                      0x08000317   Thumb Code     0  libinit2.o(.ARM.Collect$$libinit$$00000032)
    __rt_lib_init_exceptions_1               0x08000317   Thumb Code     0  libinit2.o(.ARM.Collect$$libinit$$00000030)
    __rt_lib_init_fp_trap_1                  0x08000317   Thumb Code     0  libinit2.o(.ARM.Collect$$libinit$$0000001F)
    __rt_lib_init_getenv_1                   0x08000317   Thumb Code     0  libinit2.o(.ARM.Collect$$libinit$$00000023)
    __rt_lib_init_heap_1                     0x08000317   Thumb Code     0  libinit2.o(.ARM.Collect$$libinit$$0000000A)
    __rt_lib_init_lc_collate_1               0x08000317   Thumb Code     0  libinit2.o(.ARM.Collect$$libinit$$00000011)
    __rt_lib_init_lc_ctype_1                 0x08000317   Thumb Code     0  libinit2.o(.ARM.Collect$$libinit$$00000013)
    __rt_lib_init_lc_monetary_1              0x08000317   Thumb Code     0  libinit2.o(.ARM.Collect$$libinit$$00000015)
    __rt_lib_init_lc_numeric_1               0x08000317   Thumb Code     0  libinit2.o(.ARM.Collect$$libinit$$00000017)
    __rt_lib_init_lc_time_1                  0x08000317   Thumb Code     0  libinit2.o(.ARM.Collect$$libinit$$00000019)
    __rt_lib_init_preinit_1                  0x08000317   Thumb Code     0  libinit2.o(.ARM.Collect$$libinit$$00000004)
    __rt_lib_init_rand_1                     0x08000317   Thumb Code     0  libinit2.o(.ARM.Collect$$libinit$$0000000E)
    __rt_lib_init_return                     0x08000317   Thumb Code     0  libinit2.o(.ARM.Collect$$libinit$$00000033)
    __rt_lib_init_signal_1                   0x08000317   Thumb Code     0  libinit2.o(.ARM.Collect$$libinit$$0000001D)
    __rt_lib_init_stdio_1                    0x08000317   Thumb Code     0  libinit2.o(.ARM.Collect$$libinit$$00000025)
    __rt_lib_init_user_alloc_1               0x08000317   Thumb Code     0  libinit2.o(.ARM.Collect$$libinit$$0000000C)
    __rt_lib_shutdown                        0x08000319   Thumb Code     0  libshutdown.o(.ARM.Collect$$libshutdown$$00000000)
    __rt_lib_shutdown_cpp_1                  0x0800031b   Thumb Code     0  libshutdown2.o(.ARM.Collect$$libshutdown$$00000004)
    __rt_lib_shutdown_fini_1                 0x0800031b   Thumb Code     0  libshutdown2.o(.ARM.Collect$$libshutdown$$00000002)
    __rt_lib_shutdown_fp_trap_1              0x0800031b   Thumb Code     0  libshutdown2.o(.ARM.Collect$$libshutdown$$00000009)
    __rt_lib_shutdown_heap_1                 0x0800031b   Thumb Code     0  libshutdown2.o(.ARM.Collect$$libshutdown$$00000011)
    __rt_lib_shutdown_return                 0x0800031b   Thumb Code     0  libshutdown2.o(.ARM.Collect$$libshutdown$$00000012)
    __rt_lib_shutdown_signal_1               0x0800031b   Thumb Code     0  libshutdown2.o(.ARM.Collect$$libshutdown$$0000000C)
    __rt_lib_shutdown_stdio_1                0x0800031b   Thumb Code     0  libshutdown2.o(.ARM.Collect$$libshutdown$$00000006)
    __rt_lib_shutdown_user_alloc_1           0x0800031b   Thumb Code     0  libshutdown2.o(.ARM.Collect$$libshutdown$$0000000E)
    __rt_entry                               0x0800031d   Thumb Code     0  __rtentry.o(.ARM.Collect$$rtentry$$00000000)
    __rt_entry_presh_1                       0x0800031d   Thumb Code     0  __rtentry2.o(.ARM.Collect$$rtentry$$00000002)
    __rt_entry_sh                            0x0800031d   Thumb Code     0  __rtentry4.o(.ARM.Collect$$rtentry$$00000004)
    __rt_entry_li                            0x08000323   Thumb Code     0  __rtentry2.o(.ARM.Collect$$rtentry$$0000000A)
    __rt_entry_postsh_1                      0x08000323   Thumb Code     0  __rtentry2.o(.ARM.Collect$$rtentry$$00000009)
    __rt_entry_main                          0x08000327   Thumb Code     0  __rtentry2.o(.ARM.Collect$$rtentry$$0000000D)
    __rt_entry_postli_1                      0x08000327   Thumb Code     0  __rtentry2.o(.ARM.Collect$$rtentry$$0000000C)
    __rt_exit                                0x0800032f   Thumb Code     0  rtexit.o(.ARM.Collect$$rtexit$$00000000)
    __rt_exit_ls                             0x08000331   Thumb Code     0  rtexit2.o(.ARM.Collect$$rtexit$$00000003)
    __rt_exit_prels_1                        0x08000331   Thumb Code     0  rtexit2.o(.ARM.Collect$$rtexit$$00000002)
    __rt_exit_exit                           0x08000335   Thumb Code     0  rtexit2.o(.ARM.Collect$$rtexit$$00000004)
    Reset_Handler                            0x0800033d   Thumb Code    20  startup_stm32h743xx.o(.text)
    ADC3_IRQHandler                          0x08000363   Thumb Code     0  startup_stm32h743xx.o(.text)
    ADC_IRQHandler                           0x08000363   Thumb Code     0  startup_stm32h743xx.o(.text)
    BDMA_Channel0_IRQHandler                 0x08000363   Thumb Code     0  startup_stm32h743xx.o(.text)
    BDMA_Channel1_IRQHandler                 0x08000363   Thumb Code     0  startup_stm32h743xx.o(.text)
    BDMA_Channel2_IRQHandler                 0x08000363   Thumb Code     0  startup_stm32h743xx.o(.text)
    BDMA_Channel3_IRQHandler                 0x08000363   Thumb Code     0  startup_stm32h743xx.o(.text)
    BDMA_Channel4_IRQHandler                 0x08000363   Thumb Code     0  startup_stm32h743xx.o(.text)
    BDMA_Channel5_IRQHandler                 0x08000363   Thumb Code     0  startup_stm32h743xx.o(.text)
    BDMA_Channel6_IRQHandler                 0x08000363   Thumb Code     0  startup_stm32h743xx.o(.text)
    BDMA_Channel7_IRQHandler                 0x08000363   Thumb Code     0  startup_stm32h743xx.o(.text)
    CEC_IRQHandler                           0x08000363   Thumb Code     0  startup_stm32h743xx.o(.text)
    COMP1_IRQHandler                         0x08000363   Thumb Code     0  startup_stm32h743xx.o(.text)
    CRS_IRQHandler                           0x08000363   Thumb Code     0  startup_stm32h743xx.o(.text)
    DCMI_IRQHandler                          0x08000363   Thumb Code     0  startup_stm32h743xx.o(.text)
    DFSDM1_FLT0_IRQHandler                   0x08000363   Thumb Code     0  startup_stm32h743xx.o(.text)
    DFSDM1_FLT1_IRQHandler                   0x08000363   Thumb Code     0  startup_stm32h743xx.o(.text)
    DFSDM1_FLT2_IRQHandler                   0x08000363   Thumb Code     0  startup_stm32h743xx.o(.text)
    DFSDM1_FLT3_IRQHandler                   0x08000363   Thumb Code     0  startup_stm32h743xx.o(.text)
    DMA1_Stream1_IRQHandler                  0x08000363   Thumb Code     0  startup_stm32h743xx.o(.text)
    DMA1_Stream2_IRQHandler                  0x08000363   Thumb Code     0  startup_stm32h743xx.o(.text)
    DMA1_Stream3_IRQHandler                  0x08000363   Thumb Code     0  startup_stm32h743xx.o(.text)
    DMA1_Stream4_IRQHandler                  0x08000363   Thumb Code     0  startup_stm32h743xx.o(.text)
    DMA1_Stream5_IRQHandler                  0x08000363   Thumb Code     0  startup_stm32h743xx.o(.text)
    DMA1_Stream6_IRQHandler                  0x08000363   Thumb Code     0  startup_stm32h743xx.o(.text)
    DMA1_Stream7_IRQHandler                  0x08000363   Thumb Code     0  startup_stm32h743xx.o(.text)
    DMA2D_IRQHandler                         0x08000363   Thumb Code     0  startup_stm32h743xx.o(.text)
    DMA2_Stream0_IRQHandler                  0x08000363   Thumb Code     0  startup_stm32h743xx.o(.text)
    DMA2_Stream1_IRQHandler                  0x08000363   Thumb Code     0  startup_stm32h743xx.o(.text)
    DMA2_Stream2_IRQHandler                  0x08000363   Thumb Code     0  startup_stm32h743xx.o(.text)
    DMA2_Stream3_IRQHandler                  0x08000363   Thumb Code     0  startup_stm32h743xx.o(.text)
    DMA2_Stream4_IRQHandler                  0x08000363   Thumb Code     0  startup_stm32h743xx.o(.text)
    DMA2_Stream5_IRQHandler                  0x08000363   Thumb Code     0  startup_stm32h743xx.o(.text)
    DMA2_Stream6_IRQHandler                  0x08000363   Thumb Code     0  startup_stm32h743xx.o(.text)
    DMA2_Stream7_IRQHandler                  0x08000363   Thumb Code     0  startup_stm32h743xx.o(.text)
    DMAMUX1_OVR_IRQHandler                   0x08000363   Thumb Code     0  startup_stm32h743xx.o(.text)
    DMAMUX2_OVR_IRQHandler                   0x08000363   Thumb Code     0  startup_stm32h743xx.o(.text)
    ECC_IRQHandler                           0x08000363   Thumb Code     0  startup_stm32h743xx.o(.text)
    ETH_IRQHandler                           0x08000363   Thumb Code     0  startup_stm32h743xx.o(.text)
    ETH_WKUP_IRQHandler                      0x08000363   Thumb Code     0  startup_stm32h743xx.o(.text)
    EXTI0_IRQHandler                         0x08000363   Thumb Code     0  startup_stm32h743xx.o(.text)
    EXTI15_10_IRQHandler                     0x08000363   Thumb Code     0  startup_stm32h743xx.o(.text)
    EXTI1_IRQHandler                         0x08000363   Thumb Code     0  startup_stm32h743xx.o(.text)
    EXTI2_IRQHandler                         0x08000363   Thumb Code     0  startup_stm32h743xx.o(.text)
    EXTI4_IRQHandler                         0x08000363   Thumb Code     0  startup_stm32h743xx.o(.text)
    FDCAN1_IT0_IRQHandler                    0x08000363   Thumb Code     0  startup_stm32h743xx.o(.text)
    FDCAN1_IT1_IRQHandler                    0x08000363   Thumb Code     0  startup_stm32h743xx.o(.text)
    FDCAN2_IT0_IRQHandler                    0x08000363   Thumb Code     0  startup_stm32h743xx.o(.text)
    FDCAN2_IT1_IRQHandler                    0x08000363   Thumb Code     0  startup_stm32h743xx.o(.text)
    FDCAN_CAL_IRQHandler                     0x08000363   Thumb Code     0  startup_stm32h743xx.o(.text)
    FLASH_IRQHandler                         0x08000363   Thumb Code     0  startup_stm32h743xx.o(.text)
    FMC_IRQHandler                           0x08000363   Thumb Code     0  startup_stm32h743xx.o(.text)
    FPU_IRQHandler                           0x08000363   Thumb Code     0  startup_stm32h743xx.o(.text)
    HRTIM1_FLT_IRQHandler                    0x08000363   Thumb Code     0  startup_stm32h743xx.o(.text)
    HRTIM1_Master_IRQHandler                 0x08000363   Thumb Code     0  startup_stm32h743xx.o(.text)
    HRTIM1_TIMA_IRQHandler                   0x08000363   Thumb Code     0  startup_stm32h743xx.o(.text)
    HRTIM1_TIMB_IRQHandler                   0x08000363   Thumb Code     0  startup_stm32h743xx.o(.text)
    HRTIM1_TIMC_IRQHandler                   0x08000363   Thumb Code     0  startup_stm32h743xx.o(.text)
    HRTIM1_TIMD_IRQHandler                   0x08000363   Thumb Code     0  startup_stm32h743xx.o(.text)
    HRTIM1_TIME_IRQHandler                   0x08000363   Thumb Code     0  startup_stm32h743xx.o(.text)
    HSEM1_IRQHandler                         0x08000363   Thumb Code     0  startup_stm32h743xx.o(.text)
    I2C1_ER_IRQHandler                       0x08000363   Thumb Code     0  startup_stm32h743xx.o(.text)
    I2C1_EV_IRQHandler                       0x08000363   Thumb Code     0  startup_stm32h743xx.o(.text)
    I2C2_ER_IRQHandler                       0x08000363   Thumb Code     0  startup_stm32h743xx.o(.text)
    I2C2_EV_IRQHandler                       0x08000363   Thumb Code     0  startup_stm32h743xx.o(.text)
    I2C3_ER_IRQHandler                       0x08000363   Thumb Code     0  startup_stm32h743xx.o(.text)
    I2C3_EV_IRQHandler                       0x08000363   Thumb Code     0  startup_stm32h743xx.o(.text)
    I2C4_ER_IRQHandler                       0x08000363   Thumb Code     0  startup_stm32h743xx.o(.text)
    I2C4_EV_IRQHandler                       0x08000363   Thumb Code     0  startup_stm32h743xx.o(.text)
    JPEG_IRQHandler                          0x08000363   Thumb Code     0  startup_stm32h743xx.o(.text)
    LPTIM1_IRQHandler                        0x08000363   Thumb Code     0  startup_stm32h743xx.o(.text)
    LPTIM2_IRQHandler                        0x08000363   Thumb Code     0  startup_stm32h743xx.o(.text)
    LPTIM3_IRQHandler                        0x08000363   Thumb Code     0  startup_stm32h743xx.o(.text)
    LPTIM4_IRQHandler                        0x08000363   Thumb Code     0  startup_stm32h743xx.o(.text)
    LPTIM5_IRQHandler                        0x08000363   Thumb Code     0  startup_stm32h743xx.o(.text)
    LPUART1_IRQHandler                       0x08000363   Thumb Code     0  startup_stm32h743xx.o(.text)
    LTDC_ER_IRQHandler                       0x08000363   Thumb Code     0  startup_stm32h743xx.o(.text)
    LTDC_IRQHandler                          0x08000363   Thumb Code     0  startup_stm32h743xx.o(.text)
    MDIOS_IRQHandler                         0x08000363   Thumb Code     0  startup_stm32h743xx.o(.text)
    MDIOS_WKUP_IRQHandler                    0x08000363   Thumb Code     0  startup_stm32h743xx.o(.text)
    MDMA_IRQHandler                          0x08000363   Thumb Code     0  startup_stm32h743xx.o(.text)
    OTG_FS_EP1_IN_IRQHandler                 0x08000363   Thumb Code     0  startup_stm32h743xx.o(.text)
    OTG_FS_EP1_OUT_IRQHandler                0x08000363   Thumb Code     0  startup_stm32h743xx.o(.text)
    OTG_FS_IRQHandler                        0x08000363   Thumb Code     0  startup_stm32h743xx.o(.text)
    OTG_FS_WKUP_IRQHandler                   0x08000363   Thumb Code     0  startup_stm32h743xx.o(.text)
    OTG_HS_EP1_IN_IRQHandler                 0x08000363   Thumb Code     0  startup_stm32h743xx.o(.text)
    OTG_HS_EP1_OUT_IRQHandler                0x08000363   Thumb Code     0  startup_stm32h743xx.o(.text)
    OTG_HS_IRQHandler                        0x08000363   Thumb Code     0  startup_stm32h743xx.o(.text)
    OTG_HS_WKUP_IRQHandler                   0x08000363   Thumb Code     0  startup_stm32h743xx.o(.text)
    PVD_AVD_IRQHandler                       0x08000363   Thumb Code     0  startup_stm32h743xx.o(.text)
    QUADSPI_IRQHandler                       0x08000363   Thumb Code     0  startup_stm32h743xx.o(.text)
    RCC_IRQHandler                           0x08000363   Thumb Code     0  startup_stm32h743xx.o(.text)
    RNG_IRQHandler                           0x08000363   Thumb Code     0  startup_stm32h743xx.o(.text)
    RTC_Alarm_IRQHandler                     0x08000363   Thumb Code     0  startup_stm32h743xx.o(.text)
    RTC_WKUP_IRQHandler                      0x08000363   Thumb Code     0  startup_stm32h743xx.o(.text)
    SAI1_IRQHandler                          0x08000363   Thumb Code     0  startup_stm32h743xx.o(.text)
    SAI2_IRQHandler                          0x08000363   Thumb Code     0  startup_stm32h743xx.o(.text)
    SAI3_IRQHandler                          0x08000363   Thumb Code     0  startup_stm32h743xx.o(.text)
    SAI4_IRQHandler                          0x08000363   Thumb Code     0  startup_stm32h743xx.o(.text)
    SDMMC1_IRQHandler                        0x08000363   Thumb Code     0  startup_stm32h743xx.o(.text)
    SDMMC2_IRQHandler                        0x08000363   Thumb Code     0  startup_stm32h743xx.o(.text)
    SPDIF_RX_IRQHandler                      0x08000363   Thumb Code     0  startup_stm32h743xx.o(.text)
    SPI1_IRQHandler                          0x08000363   Thumb Code     0  startup_stm32h743xx.o(.text)
    SPI2_IRQHandler                          0x08000363   Thumb Code     0  startup_stm32h743xx.o(.text)
    SPI3_IRQHandler                          0x08000363   Thumb Code     0  startup_stm32h743xx.o(.text)
    SPI4_IRQHandler                          0x08000363   Thumb Code     0  startup_stm32h743xx.o(.text)
    SPI5_IRQHandler                          0x08000363   Thumb Code     0  startup_stm32h743xx.o(.text)
    SPI6_IRQHandler                          0x08000363   Thumb Code     0  startup_stm32h743xx.o(.text)
    SWPMI1_IRQHandler                        0x08000363   Thumb Code     0  startup_stm32h743xx.o(.text)
    TAMP_STAMP_IRQHandler                    0x08000363   Thumb Code     0  startup_stm32h743xx.o(.text)
    TIM15_IRQHandler                         0x08000363   Thumb Code     0  startup_stm32h743xx.o(.text)
    TIM16_IRQHandler                         0x08000363   Thumb Code     0  startup_stm32h743xx.o(.text)
    TIM17_IRQHandler                         0x08000363   Thumb Code     0  startup_stm32h743xx.o(.text)
    TIM1_BRK_IRQHandler                      0x08000363   Thumb Code     0  startup_stm32h743xx.o(.text)
    TIM1_CC_IRQHandler                       0x08000363   Thumb Code     0  startup_stm32h743xx.o(.text)
    TIM1_TRG_COM_IRQHandler                  0x08000363   Thumb Code     0  startup_stm32h743xx.o(.text)
    TIM1_UP_IRQHandler                       0x08000363   Thumb Code     0  startup_stm32h743xx.o(.text)
    TIM2_IRQHandler                          0x08000363   Thumb Code     0  startup_stm32h743xx.o(.text)
    TIM4_IRQHandler                          0x08000363   Thumb Code     0  startup_stm32h743xx.o(.text)
    TIM6_DAC_IRQHandler                      0x08000363   Thumb Code     0  startup_stm32h743xx.o(.text)
    TIM7_IRQHandler                          0x08000363   Thumb Code     0  startup_stm32h743xx.o(.text)
    TIM8_BRK_TIM12_IRQHandler                0x08000363   Thumb Code     0  startup_stm32h743xx.o(.text)
    TIM8_CC_IRQHandler                       0x08000363   Thumb Code     0  startup_stm32h743xx.o(.text)
    TIM8_TRG_COM_TIM14_IRQHandler            0x08000363   Thumb Code     0  startup_stm32h743xx.o(.text)
    TIM8_UP_TIM13_IRQHandler                 0x08000363   Thumb Code     0  startup_stm32h743xx.o(.text)
    UART4_IRQHandler                         0x08000363   Thumb Code     0  startup_stm32h743xx.o(.text)
    UART5_IRQHandler                         0x08000363   Thumb Code     0  startup_stm32h743xx.o(.text)
    UART7_IRQHandler                         0x08000363   Thumb Code     0  startup_stm32h743xx.o(.text)
    UART8_IRQHandler                         0x08000363   Thumb Code     0  startup_stm32h743xx.o(.text)
    USART3_IRQHandler                        0x08000363   Thumb Code     0  startup_stm32h743xx.o(.text)
    USART6_IRQHandler                        0x08000363   Thumb Code     0  startup_stm32h743xx.o(.text)
    WAKEUP_PIN_IRQHandler                    0x08000363   Thumb Code     0  startup_stm32h743xx.o(.text)
    WWDG_IRQHandler                          0x08000363   Thumb Code     0  startup_stm32h743xx.o(.text)
    __user_initial_stackheap                 0x08000365   Thumb Code     0  startup_stm32h743xx.o(.text)
    __use_no_semihosting                     0x0800038d   Thumb Code     2  use_no_semi_2.o(.text)
    __aeabi_uldivmod                         0x0800038f   Thumb Code     0  lludivv7m.o(.text)
    _ll_udiv                                 0x0800038f   Thumb Code   238  lludivv7m.o(.text)
    __2printf                                0x0800047d   Thumb Code    20  noretval__2printf.o(.text)
    __printf                                 0x08000495   Thumb Code   104  __printf.o(.text)
    __aeabi_memclr4                          0x080004fd   Thumb Code     0  rt_memclr_w.o(.text)
    __aeabi_memclr8                          0x080004fd   Thumb Code     0  rt_memclr_w.o(.text)
    __rt_memclr_w                            0x080004fd   Thumb Code    78  rt_memclr_w.o(.text)
    _memset_w                                0x08000501   Thumb Code     0  rt_memclr_w.o(.text)
    __use_two_region_memory                  0x0800054b   Thumb Code     2  heapauxi.o(.text)
    __rt_heap_escrow$2region                 0x0800054d   Thumb Code     2  heapauxi.o(.text)
    __rt_heap_expand$2region                 0x0800054f   Thumb Code     2  heapauxi.o(.text)
    __semihosting$guard                      0x08000551   Thumb Code     0  use_no_semi.o(.text)
    __use_no_semihosting_swi                 0x08000551   Thumb Code     2  use_no_semi.o(.text)
    _printf_char_file                        0x08000555   Thumb Code    32  _printf_char_file.o(.text)
    _printf_char_common                      0x08000583   Thumb Code    32  _printf_char_common.o(.text)
    ferror                                   0x080005a9   Thumb Code     8  ferror.o(.text)
    __user_libspace                          0x080005b1   Thumb Code     8  libspace.o(.text)
    __user_perproc_libspace                  0x080005b1   Thumb Code     0  libspace.o(.text)
    __user_perthread_libspace                0x080005b1   Thumb Code     0  libspace.o(.text)
    __user_setup_stackheap                   0x080005b9   Thumb Code    74  sys_stackheap_outer.o(.text)
    exit                                     0x08000603   Thumb Code    18  exit.o(.text)
    BusFault_Handler                         0x08000615   Thumb Code     4  stm32h7xx_it.o(i.BusFault_Handler)
    Check_Data                               0x08000619   Thumb Code   930  comm.o(i.Check_Data)
    DMA1_Stream0_IRQHandler                  0x080009c1   Thumb Code    10  stm32h7xx_it.o(i.DMA1_Stream0_IRQHandler)
    DebugMon_Handler                         0x08000f3d   Thumb Code     2  stm32h7xx_it.o(i.DebugMon_Handler)
    DecRecvData_Usart232                     0x08000f41   Thumb Code   146  comm.o(i.DecRecvData_Usart232)
    EXTI3_IRQHandler                         0x08000fdd   Thumb Code    16  exti.o(i.EXTI3_IRQHandler)
    EXTI9_5_IRQHandler                       0x08000ff1   Thumb Code    16  exti.o(i.EXTI9_5_IRQHandler)
    Error_Handler                            0x08001005   Thumb Code    22  main.o(i.Error_Handler)
    Getdata                                  0x08001031   Thumb Code   574  comm.o(i.Getdata)
    HAL_DMA_Abort                            0x08001271   Thumb Code  1236  stm32h7xx_hal_dma.o(i.HAL_DMA_Abort)
    HAL_DMA_Abort_IT                         0x0800174d   Thumb Code   906  stm32h7xx_hal_dma.o(i.HAL_DMA_Abort_IT)
    HAL_DMA_IRQHandler                       0x08001ae5   Thumb Code  2798  stm32h7xx_hal_dma.o(i.HAL_DMA_IRQHandler)
    HAL_DMA_Init                             0x080025dd   Thumb Code  1304  stm32h7xx_hal_dma.o(i.HAL_DMA_Init)
    HAL_DMA_Start_IT                         0x08002afd   Thumb Code   980  stm32h7xx_hal_dma.o(i.HAL_DMA_Start_IT)
    HAL_Delay                                0x08002edd   Thumb Code    36  stm32h7xx_hal.o(i.HAL_Delay)
    HAL_EnableCompensationCell               0x08002f05   Thumb Code    14  stm32h7xx_hal.o(i.HAL_EnableCompensationCell)
    HAL_GPIO_EXTI_Callback                   0x08002f19   Thumb Code    46  exti.o(i.HAL_GPIO_EXTI_Callback)
    HAL_GPIO_EXTI_IRQHandler                 0x08002f4d   Thumb Code    24  stm32h7xx_hal_gpio.o(i.HAL_GPIO_EXTI_IRQHandler)
    HAL_GPIO_Init                            0x08002f69   Thumb Code   456  stm32h7xx_hal_gpio.o(i.HAL_GPIO_Init)
    HAL_GPIO_TogglePin                       0x08003165   Thumb Code    20  stm32h7xx_hal_gpio.o(i.HAL_GPIO_TogglePin)
    HAL_GPIO_WritePin                        0x08003179   Thumb Code    12  stm32h7xx_hal_gpio.o(i.HAL_GPIO_WritePin)
    HAL_GetREVID                             0x08003185   Thumb Code     8  stm32h7xx_hal.o(i.HAL_GetREVID)
    HAL_GetTick                              0x08003191   Thumb Code     6  stm32h7xx_hal.o(i.HAL_GetTick)
    HAL_IncTick                              0x0800319d   Thumb Code    16  stm32h7xx_hal.o(i.HAL_IncTick)
    HAL_Init                                 0x080031b5   Thumb Code    80  stm32h7xx_hal.o(i.HAL_Init)
    HAL_InitTick                             0x08003215   Thumb Code    74  stm32h7xx_hal.o(i.HAL_InitTick)
    HAL_MspInit                              0x0800326d   Thumb Code     2  stm32h7xx_hal.o(i.HAL_MspInit)
    HAL_NVIC_EnableIRQ                       0x0800326f   Thumb Code    40  stm32h7xx_hal_cortex.o(i.HAL_NVIC_EnableIRQ)
    HAL_NVIC_SetPriority                     0x08003297   Thumb Code   122  stm32h7xx_hal_cortex.o(i.HAL_NVIC_SetPriority)
    HAL_NVIC_SetPriorityGrouping             0x08003311   Thumb Code    32  stm32h7xx_hal_cortex.o(i.HAL_NVIC_SetPriorityGrouping)
    HAL_NVIC_SystemReset                     0x08003339   Thumb Code    60  stm32h7xx_hal_cortex.o(i.HAL_NVIC_SystemReset)
    HAL_PWREx_EnableUSBVoltageDetector       0x0800337d   Thumb Code    14  stm32h7xx_hal_pwr_ex.o(i.HAL_PWREx_EnableUSBVoltageDetector)
    HAL_RCCEx_GetD3PCLK1Freq                 0x08003391   Thumb Code    26  stm32h7xx_hal_rcc_ex.o(i.HAL_RCCEx_GetD3PCLK1Freq)
    HAL_RCCEx_GetPLL2ClockFreq               0x080033b5   Thumb Code   536  stm32h7xx_hal_rcc_ex.o(i.HAL_RCCEx_GetPLL2ClockFreq)
    HAL_RCCEx_GetPLL3ClockFreq               0x080035e5   Thumb Code   536  stm32h7xx_hal_rcc_ex.o(i.HAL_RCCEx_GetPLL3ClockFreq)
    HAL_RCCEx_PeriphCLKConfig                0x08003815   Thumb Code  2910  stm32h7xx_hal_rcc_ex.o(i.HAL_RCCEx_PeriphCLKConfig)
    HAL_RCC_ClockConfig                      0x08004379   Thumb Code   774  stm32h7xx_hal_rcc.o(i.HAL_RCC_ClockConfig)
    HAL_RCC_GetHCLKFreq                      0x08004699   Thumb Code    60  stm32h7xx_hal_rcc.o(i.HAL_RCC_GetHCLKFreq)
    HAL_RCC_GetPCLK1Freq                     0x080046e5   Thumb Code    26  stm32h7xx_hal_rcc.o(i.HAL_RCC_GetPCLK1Freq)
    HAL_RCC_GetPCLK2Freq                     0x08004709   Thumb Code    26  stm32h7xx_hal_rcc.o(i.HAL_RCC_GetPCLK2Freq)
    HAL_RCC_GetSysClockFreq                  0x0800472d   Thumb Code   524  stm32h7xx_hal_rcc.o(i.HAL_RCC_GetSysClockFreq)
    HAL_RCC_OscConfig                        0x08004959   Thumb Code  2048  stm32h7xx_hal_rcc.o(i.HAL_RCC_OscConfig)
    HAL_SYSTICK_CLKSourceConfig              0x08005159   Thumb Code    40  stm32h7xx_hal_cortex.o(i.HAL_SYSTICK_CLKSourceConfig)
    HAL_SYSTICK_Config                       0x08005181   Thumb Code    52  stm32h7xx_hal_cortex.o(i.HAL_SYSTICK_Config)
    HAL_TIMEx_Break2Callback                 0x080051b5   Thumb Code     2  stm32h7xx_hal_tim_ex.o(i.HAL_TIMEx_Break2Callback)
    HAL_TIMEx_BreakCallback                  0x080051b7   Thumb Code     2  stm32h7xx_hal_tim_ex.o(i.HAL_TIMEx_BreakCallback)
    HAL_TIMEx_CommutCallback                 0x080051b9   Thumb Code     2  stm32h7xx_hal_tim_ex.o(i.HAL_TIMEx_CommutCallback)
    HAL_TIM_IC_CaptureCallback               0x080051bb   Thumb Code     2  stm32h7xx_hal_tim.o(i.HAL_TIM_IC_CaptureCallback)
    HAL_TIM_IRQHandler                       0x080051bd   Thumb Code   440  stm32h7xx_hal_tim.o(i.HAL_TIM_IRQHandler)
    HAL_TIM_OC_DelayElapsedCallback          0x08005375   Thumb Code     2  stm32h7xx_hal_tim.o(i.HAL_TIM_OC_DelayElapsedCallback)
    HAL_TIM_PWM_PulseFinishedCallback        0x08005377   Thumb Code     2  stm32h7xx_hal_tim.o(i.HAL_TIM_PWM_PulseFinishedCallback)
    HAL_TIM_PeriodElapsedCallback            0x08005379   Thumb Code     2  timer.o(i.HAL_TIM_PeriodElapsedCallback)
    HAL_TIM_TriggerCallback                  0x0800537b   Thumb Code     2  stm32h7xx_hal_tim.o(i.HAL_TIM_TriggerCallback)
    HAL_UARTEx_DisableFifoMode               0x0800537d   Thumb Code    78  stm32h7xx_hal_uart_ex.o(i.HAL_UARTEx_DisableFifoMode)
    HAL_UARTEx_ReceiveToIdle_DMA             0x080053cb   Thumb Code   114  stm32h7xx_hal_uart_ex.o(i.HAL_UARTEx_ReceiveToIdle_DMA)
    HAL_UARTEx_RxEventCallback               0x0800543d   Thumb Code   288  stm32h7xx_it.o(i.HAL_UARTEx_RxEventCallback)
    HAL_UARTEx_RxFifoFullCallback            0x0800558d   Thumb Code     2  stm32h7xx_hal_uart_ex.o(i.HAL_UARTEx_RxFifoFullCallback)
    HAL_UARTEx_SetRxFifoThreshold            0x0800558f   Thumb Code    94  stm32h7xx_hal_uart_ex.o(i.HAL_UARTEx_SetRxFifoThreshold)
    HAL_UARTEx_SetTxFifoThreshold            0x080055ed   Thumb Code    94  stm32h7xx_hal_uart_ex.o(i.HAL_UARTEx_SetTxFifoThreshold)
    HAL_UARTEx_TxFifoEmptyCallback           0x0800564b   Thumb Code     2  stm32h7xx_hal_uart_ex.o(i.HAL_UARTEx_TxFifoEmptyCallback)
    HAL_UARTEx_WakeupCallback                0x0800564d   Thumb Code     2  stm32h7xx_hal_uart_ex.o(i.HAL_UARTEx_WakeupCallback)
    HAL_UART_ErrorCallback                   0x08005651   Thumb Code    54  stm32h7xx_it.o(i.HAL_UART_ErrorCallback)
    HAL_UART_GetState                        0x08005691   Thumb Code    16  stm32h7xx_hal_uart.o(i.HAL_UART_GetState)
    HAL_UART_IRQHandler                      0x080056a1   Thumb Code  1112  stm32h7xx_hal_uart.o(i.HAL_UART_IRQHandler)
    HAL_UART_Init                            0x08005af9   Thumb Code   120  stm32h7xx_hal_uart.o(i.HAL_UART_Init)
    HAL_UART_MspInit                         0x08005b71   Thumb Code   596  usart.o(i.HAL_UART_MspInit)
    HAL_UART_Receive_IT                      0x08005de5   Thumb Code   110  stm32h7xx_hal_uart.o(i.HAL_UART_Receive_IT)
    HAL_UART_RxCpltCallback                  0x08005e59   Thumb Code   158  usart.o(i.HAL_UART_RxCpltCallback)
    HAL_UART_RxHalfCpltCallback              0x08005f09   Thumb Code     2  stm32h7xx_hal_uart.o(i.HAL_UART_RxHalfCpltCallback)
    HAL_UART_Transmit                        0x08005f0b   Thumb Code   214  stm32h7xx_hal_uart.o(i.HAL_UART_Transmit)
    HAL_UART_TxCpltCallback                  0x08005fe1   Thumb Code     2  stm32h7xx_hal_uart.o(i.HAL_UART_TxCpltCallback)
    HardFault_Handler                        0x08005fe3   Thumb Code     4  stm32h7xx_it.o(i.HardFault_Handler)
    LED_Init                                 0x08005fe9   Thumb Code    78  led.o(i.LED_Init)
    MX_DMA_Init                              0x08006041   Thumb Code    48  dma.o(i.MX_DMA_Init)
    MX_USART2_UART_Init                      0x08006075   Thumb Code   116  usart232.o(i.MX_USART2_UART_Init)
    MemManage_Handler                        0x080060f5   Thumb Code     4  stm32h7xx_it.o(i.MemManage_Handler)
    Module_TR_Mode_Set                       0x080060f9   Thumb Code   232  trgpio.o(i.Module_TR_Mode_Set)
    NMI_Handler                              0x080061ed   Thumb Code     4  stm32h7xx_it.o(i.NMI_Handler)
    PendSV_Handler                           0x080061f1   Thumb Code     2  stm32h7xx_it.o(i.PendSV_Handler)
    Recv_ACK_Usart232                        0x080064bd   Thumb Code    58  comm.o(i.Recv_ACK_Usart232)
    SVC_Handler                              0x080064fd   Thumb Code     2  stm32h7xx_it.o(i.SVC_Handler)
    Set_TR1                                  0x08006501   Thumb Code   290  trspi.o(i.Set_TR1)
    Set_TR2                                  0x0800662d   Thumb Code   292  trspi.o(i.Set_TR2)
    SysTick_Handler                          0x08006759   Thumb Code     8  stm32h7xx_it.o(i.SysTick_Handler)
    SystemInit                               0x08006761   Thumb Code   212  system_stm32h7xx.o(i.SystemInit)
    TIM3_IRQHandler                          0x0800685d   Thumb Code    10  timer.o(i.TIM3_IRQHandler)
    TIM5_IRQHandler                          0x0800686d   Thumb Code    14  timer.o(i.TIM5_IRQHandler)
    TR1_ioReset                              0x08006881   Thumb Code    64  trspi.o(i.TR1_ioReset)
    TR2_ioReset                              0x080068c9   Thumb Code    64  trspi.o(i.TR2_ioReset)
    TR_GPIO_Init                             0x08006911   Thumb Code   380  trgpio.o(i.TR_GPIO_Init)
    UART_AdvFeatureConfig                    0x08006afd   Thumb Code   248  stm32h7xx_hal_uart.o(i.UART_AdvFeatureConfig)
    UART_CheckIdleState                      0x08006bf5   Thumb Code   118  stm32h7xx_hal_uart.o(i.UART_CheckIdleState)
    UART_SetConfig                           0x080073bd   Thumb Code  1402  stm32h7xx_hal_uart.o(i.UART_SetConfig)
    UART_Start_Receive_DMA                   0x08007949   Thumb Code   200  stm32h7xx_hal_uart.o(i.UART_Start_Receive_DMA)
    UART_Start_Receive_IT                    0x08007a1d   Thumb Code   352  stm32h7xx_hal_uart.o(i.UART_Start_Receive_IT)
    UART_WaitOnFlagUntilTimeout              0x08007b8d   Thumb Code   254  stm32h7xx_hal_uart.o(i.UART_WaitOnFlagUntilTimeout)
    USART1_IRQHandler                        0x08007c8d   Thumb Code    66  usart.o(i.USART1_IRQHandler)
    USART2_IRQHandler                        0x08007cdd   Thumb Code    10  stm32h7xx_it.o(i.USART2_IRQHandler)
    Update_1Hz_Usart232                      0x08007ced   Thumb Code    56  comm.o(i.Update_1Hz_Usart232)
    UsageFault_Handler                       0x08007d29   Thumb Code     4  stm32h7xx_it.o(i.UsageFault_Handler)
    _sys_exit                                0x08007d65   Thumb Code     4  usart.o(i._sys_exit)
    cmemcpy                                  0x08007d69   Thumb Code    22  func.o(i.cmemcpy)
    combineByte                              0x08007d7f   Thumb Code    76  comm.o(i.combineByte)
    delay_init                               0x08007dcd   Thumb Code    16  delay.o(i.delay_init)
    delay_ms                                 0x08007de1   Thumb Code    50  delay.o(i.delay_ms)
    delay_nus                                0x08007e13   Thumb Code    10  delay.o(i.delay_nus)
    delay_us                                 0x08007e1d   Thumb Code    68  delay.o(i.delay_us)
    fputc                                    0x08007e65   Thumb Code    22  usart.o(i.fputc)
    main                                     0x08007e81   Thumb Code   188  main.o(i.main)
    sys_stm32_clock_init                     0x08007f45   Thumb Code   274  sys.o(i.sys_stm32_clock_init)
    usart_init                               0x08008065   Thumb Code    44  usart.o(i.usart_init)
    _fp_init                                 0x0800809d   Thumb Code    10  fpinit.o(x$fpl$fpinit)
    __fplib_config_fpu_vfp                   0x080080a5   Thumb Code     0  fpinit.o(x$fpl$fpinit)
    __fplib_config_pureend_doubles           0x080080a5   Thumb Code     0  fpinit.o(x$fpl$fpinit)
    D1CorePrescTable                         0x080080a6   Data          16  system_stm32h7xx.o(.constdata)
    UARTPrescTable                           0x080080be   Data          24  stm32h7xx_hal_uart.o(.constdata)
    Region$$Table$$Base                      0x080080e8   Number         0  anon$$obj.o(Region$$Table)
    Region$$Table$$Limit                     0x08008108   Number         0  anon$$obj.o(Region$$Table)
    SystemCoreClock                          0x24000000   Data           4  system_stm32h7xx.o(.data)
    SystemD2Clock                            0x24000004   Data           4  system_stm32h7xx.o(.data)
    __stdout                                 0x2400000c   Data           4  usart.o(.data)
    g_usart_rx_sta                           0x24000010   Data           2  usart.o(.data)
    g_rx_buffer                              0x24000012   Data           1  usart.o(.data)
    uwTick                                   0x24000014   Data           4  stm32h7xx_hal.o(.data)
    uwTickPrio                               0x24000018   Data           4  stm32h7xx_hal.o(.data)
    uwTickFreq                               0x2400001c   Data           1  stm32h7xx_hal.o(.data)
    g_usart_rx_buf                           0x24000020   Data         200  usart.o(.bss)
    g_uart1_handle                           0x240000e8   Data         144  usart.o(.bss)
    FlagStr                                  0x24000178   Data         100  comm.o(.bss)
    USART_Data                               0x240001dc   Data         112  comm.o(.bss)
    TIM3_Handler                             0x2400024c   Data          76  timer.o(.bss)
    htim5                                    0x24000298   Data          76  timer.o(.bss)
    huart2                                   0x240002e4   Data         144  usart232.o(.bss)
    hdma_usart2_rx                           0x24000374   Data         120  usart232.o(.bss)
    __libspace_start                         0x240003ec   Data          96  libspace.o(.bss)
    __temporary_stack_top$libspace           0x2400044c   Data           0  libspace.o(.bss)
    ltdc_lcd_framebuf                        0xc0000000   Data       2048000  ltdc.o(.ARM.__AT_0xC0000000)



==============================================================================

Memory Map of the image

  Image Entry point : 0x08000299

  Load Region LR_IROM1 (Base: 0x08000000, Size: 0x00008128, Max: 0x00200000, ABSOLUTE)

    Execution Region ER_IROM1 (Exec base: 0x08000000, Load base: 0x08000000, Size: 0x00008108, Max: 0x00200000, ABSOLUTE)

    Exec Addr    Load Addr    Size         Type   Attr      Idx    E Section Name        Object

    0x08000000   0x08000000   0x00000298   Data   RO            3    RESET               startup_stm32h743xx.o
    0x08000298   0x08000298   0x00000008   Code   RO         7669  * !!!main             c_w.l(__main.o)
    0x080002a0   0x080002a0   0x00000034   Code   RO         7866    !!!scatter          c_w.l(__scatter.o)
    0x080002d4   0x080002d4   0x0000001a   Code   RO         7868    !!handler_copy      c_w.l(__scatter_copy.o)
    0x080002ee   0x080002ee   0x00000002   PAD
    0x080002f0   0x080002f0   0x0000001c   Code   RO         7870    !!handler_zi        c_w.l(__scatter_zi.o)
    0x0800030c   0x0800030c   0x00000000   Code   RO         7660    .ARM.Collect$$_printf_percent$$00000000  c_w.l(_printf_percent.o)
    0x0800030c   0x0800030c   0x00000004   Code   RO         7698    .ARM.Collect$$_printf_percent$$00000017  c_w.l(_printf_percent_end.o)
    0x08000310   0x08000310   0x00000002   Code   RO         7746    .ARM.Collect$$libinit$$00000000  c_w.l(libinit.o)
    0x08000312   0x08000312   0x00000004   Code   RO         7755    .ARM.Collect$$libinit$$00000001  c_w.l(libinit2.o)
    0x08000316   0x08000316   0x00000000   Code   RO         7758    .ARM.Collect$$libinit$$00000004  c_w.l(libinit2.o)
    0x08000316   0x08000316   0x00000000   Code   RO         7761    .ARM.Collect$$libinit$$0000000A  c_w.l(libinit2.o)
    0x08000316   0x08000316   0x00000000   Code   RO         7763    .ARM.Collect$$libinit$$0000000C  c_w.l(libinit2.o)
    0x08000316   0x08000316   0x00000000   Code   RO         7765    .ARM.Collect$$libinit$$0000000E  c_w.l(libinit2.o)
    0x08000316   0x08000316   0x00000000   Code   RO         7768    .ARM.Collect$$libinit$$00000011  c_w.l(libinit2.o)
    0x08000316   0x08000316   0x00000000   Code   RO         7770    .ARM.Collect$$libinit$$00000013  c_w.l(libinit2.o)
    0x08000316   0x08000316   0x00000000   Code   RO         7772    .ARM.Collect$$libinit$$00000015  c_w.l(libinit2.o)
    0x08000316   0x08000316   0x00000000   Code   RO         7774    .ARM.Collect$$libinit$$00000017  c_w.l(libinit2.o)
    0x08000316   0x08000316   0x00000000   Code   RO         7776    .ARM.Collect$$libinit$$00000019  c_w.l(libinit2.o)
    0x08000316   0x08000316   0x00000000   Code   RO         7778    .ARM.Collect$$libinit$$0000001B  c_w.l(libinit2.o)
    0x08000316   0x08000316   0x00000000   Code   RO         7780    .ARM.Collect$$libinit$$0000001D  c_w.l(libinit2.o)
    0x08000316   0x08000316   0x00000000   Code   RO         7782    .ARM.Collect$$libinit$$0000001F  c_w.l(libinit2.o)
    0x08000316   0x08000316   0x00000000   Code   RO         7784    .ARM.Collect$$libinit$$00000021  c_w.l(libinit2.o)
    0x08000316   0x08000316   0x00000000   Code   RO         7786    .ARM.Collect$$libinit$$00000023  c_w.l(libinit2.o)
    0x08000316   0x08000316   0x00000000   Code   RO         7788    .ARM.Collect$$libinit$$00000025  c_w.l(libinit2.o)
    0x08000316   0x08000316   0x00000000   Code   RO         7792    .ARM.Collect$$libinit$$0000002C  c_w.l(libinit2.o)
    0x08000316   0x08000316   0x00000000   Code   RO         7794    .ARM.Collect$$libinit$$0000002E  c_w.l(libinit2.o)
    0x08000316   0x08000316   0x00000000   Code   RO         7796    .ARM.Collect$$libinit$$00000030  c_w.l(libinit2.o)
    0x08000316   0x08000316   0x00000000   Code   RO         7798    .ARM.Collect$$libinit$$00000032  c_w.l(libinit2.o)
    0x08000316   0x08000316   0x00000002   Code   RO         7799    .ARM.Collect$$libinit$$00000033  c_w.l(libinit2.o)
    0x08000318   0x08000318   0x00000002   Code   RO         7823    .ARM.Collect$$libshutdown$$00000000  c_w.l(libshutdown.o)
    0x0800031a   0x0800031a   0x00000000   Code   RO         7847    .ARM.Collect$$libshutdown$$00000002  c_w.l(libshutdown2.o)
    0x0800031a   0x0800031a   0x00000000   Code   RO         7849    .ARM.Collect$$libshutdown$$00000004  c_w.l(libshutdown2.o)
    0x0800031a   0x0800031a   0x00000000   Code   RO         7851    .ARM.Collect$$libshutdown$$00000006  c_w.l(libshutdown2.o)
    0x0800031a   0x0800031a   0x00000000   Code   RO         7854    .ARM.Collect$$libshutdown$$00000009  c_w.l(libshutdown2.o)
    0x0800031a   0x0800031a   0x00000000   Code   RO         7857    .ARM.Collect$$libshutdown$$0000000C  c_w.l(libshutdown2.o)
    0x0800031a   0x0800031a   0x00000000   Code   RO         7859    .ARM.Collect$$libshutdown$$0000000E  c_w.l(libshutdown2.o)
    0x0800031a   0x0800031a   0x00000000   Code   RO         7862    .ARM.Collect$$libshutdown$$00000011  c_w.l(libshutdown2.o)
    0x0800031a   0x0800031a   0x00000002   Code   RO         7863    .ARM.Collect$$libshutdown$$00000012  c_w.l(libshutdown2.o)
    0x0800031c   0x0800031c   0x00000000   Code   RO         7685    .ARM.Collect$$rtentry$$00000000  c_w.l(__rtentry.o)
    0x0800031c   0x0800031c   0x00000000   Code   RO         7701    .ARM.Collect$$rtentry$$00000002  c_w.l(__rtentry2.o)
    0x0800031c   0x0800031c   0x00000006   Code   RO         7713    .ARM.Collect$$rtentry$$00000004  c_w.l(__rtentry4.o)
    0x08000322   0x08000322   0x00000000   Code   RO         7703    .ARM.Collect$$rtentry$$00000009  c_w.l(__rtentry2.o)
    0x08000322   0x08000322   0x00000004   Code   RO         7704    .ARM.Collect$$rtentry$$0000000A  c_w.l(__rtentry2.o)
    0x08000326   0x08000326   0x00000000   Code   RO         7706    .ARM.Collect$$rtentry$$0000000C  c_w.l(__rtentry2.o)
    0x08000326   0x08000326   0x00000008   Code   RO         7707    .ARM.Collect$$rtentry$$0000000D  c_w.l(__rtentry2.o)
    0x0800032e   0x0800032e   0x00000002   Code   RO         7747    .ARM.Collect$$rtexit$$00000000  c_w.l(rtexit.o)
    0x08000330   0x08000330   0x00000000   Code   RO         7801    .ARM.Collect$$rtexit$$00000002  c_w.l(rtexit2.o)
    0x08000330   0x08000330   0x00000004   Code   RO         7802    .ARM.Collect$$rtexit$$00000003  c_w.l(rtexit2.o)
    0x08000334   0x08000334   0x00000006   Code   RO         7803    .ARM.Collect$$rtexit$$00000004  c_w.l(rtexit2.o)
    0x0800033a   0x0800033a   0x00000002   PAD
    0x0800033c   0x0800033c   0x00000050   Code   RO            4    .text               startup_stm32h743xx.o
    0x0800038c   0x0800038c   0x00000002   Code   RO         7602    .text               c_w.l(use_no_semi_2.o)
    0x0800038e   0x0800038e   0x000000ee   Code   RO         7604    .text               c_w.l(lludivv7m.o)
    0x0800047c   0x0800047c   0x00000018   Code   RO         7608    .text               c_w.l(noretval__2printf.o)
    0x08000494   0x08000494   0x00000068   Code   RO         7610    .text               c_w.l(__printf.o)
    0x080004fc   0x080004fc   0x0000004e   Code   RO         7663    .text               c_w.l(rt_memclr_w.o)
    0x0800054a   0x0800054a   0x00000006   Code   RO         7667    .text               c_w.l(heapauxi.o)
    0x08000550   0x08000550   0x00000002   Code   RO         7683    .text               c_w.l(use_no_semi.o)
    0x08000552   0x08000552   0x00000002   PAD
    0x08000554   0x08000554   0x00000024   Code   RO         7696    .text               c_w.l(_printf_char_file.o)
    0x08000578   0x08000578   0x00000030   Code   RO         7722    .text               c_w.l(_printf_char_common.o)
    0x080005a8   0x080005a8   0x00000008   Code   RO         7724    .text               c_w.l(ferror.o)
    0x080005b0   0x080005b0   0x00000008   Code   RO         7728    .text               c_w.l(libspace.o)
    0x080005b8   0x080005b8   0x0000004a   Code   RO         7731    .text               c_w.l(sys_stackheap_outer.o)
    0x08000602   0x08000602   0x00000012   Code   RO         7735    .text               c_w.l(exit.o)
    0x08000614   0x08000614   0x00000004   Code   RO          438    i.BusFault_Handler  stm32h7xx_it.o
    0x08000618   0x08000618   0x000003a8   Code   RO         5840    i.Check_Data        comm.o
    0x080009c0   0x080009c0   0x00000010   Code   RO          439    i.DMA1_Stream0_IRQHandler  stm32h7xx_it.o
    0x080009d0   0x080009d0   0x000000ec   Code   RO         1485    i.DMA_CalcBaseAndBitshift  stm32h7xx_hal_dma.o
    0x08000abc   0x08000abc   0x000000c4   Code   RO         1486    i.DMA_CalcDMAMUXChannelBaseAndMask  stm32h7xx_hal_dma.o
    0x08000b80   0x08000b80   0x00000098   Code   RO         1487    i.DMA_CalcDMAMUXRequestGenBaseAndMask  stm32h7xx_hal_dma.o
    0x08000c18   0x08000c18   0x000000ae   Code   RO         1488    i.DMA_CheckFifoParam  stm32h7xx_hal_dma.o
    0x08000cc6   0x08000cc6   0x00000002   PAD
    0x08000cc8   0x08000cc8   0x00000274   Code   RO         1489    i.DMA_SetConfig     stm32h7xx_hal_dma.o
    0x08000f3c   0x08000f3c   0x00000002   Code   RO          440    i.DebugMon_Handler  stm32h7xx_it.o
    0x08000f3e   0x08000f3e   0x00000002   PAD
    0x08000f40   0x08000f40   0x0000009c   Code   RO         5841    i.DecRecvData_Usart232  comm.o
    0x08000fdc   0x08000fdc   0x00000014   Code   RO         7417    i.EXTI3_IRQHandler  exti.o
    0x08000ff0   0x08000ff0   0x00000014   Code   RO         7418    i.EXTI9_5_IRQHandler  exti.o
    0x08001004   0x08001004   0x0000002c   Code   RO           13    i.Error_Handler     main.o
    0x08001030   0x08001030   0x0000023e   Code   RO         5842    i.Getdata           comm.o
    0x0800126e   0x0800126e   0x00000002   PAD
    0x08001270   0x08001270   0x000004dc   Code   RO         1490    i.HAL_DMA_Abort     stm32h7xx_hal_dma.o
    0x0800174c   0x0800174c   0x00000398   Code   RO         1491    i.HAL_DMA_Abort_IT  stm32h7xx_hal_dma.o
    0x08001ae4   0x08001ae4   0x00000af8   Code   RO         1495    i.HAL_DMA_IRQHandler  stm32h7xx_hal_dma.o
    0x080025dc   0x080025dc   0x00000520   Code   RO         1496    i.HAL_DMA_Init      stm32h7xx_hal_dma.o
    0x08002afc   0x08002afc   0x000003e0   Code   RO         1500    i.HAL_DMA_Start_IT  stm32h7xx_hal_dma.o
    0x08002edc   0x08002edc   0x00000028   Code   RO         1034    i.HAL_Delay         stm32h7xx_hal.o
    0x08002f04   0x08002f04   0x00000014   Code   RO         1041    i.HAL_EnableCompensationCell  stm32h7xx_hal.o
    0x08002f18   0x08002f18   0x00000034   Code   RO         7419    i.HAL_GPIO_EXTI_Callback  exti.o
    0x08002f4c   0x08002f4c   0x0000001c   Code   RO         1674    i.HAL_GPIO_EXTI_IRQHandler  stm32h7xx_hal_gpio.o
    0x08002f68   0x08002f68   0x000001fc   Code   RO         1675    i.HAL_GPIO_Init     stm32h7xx_hal_gpio.o
    0x08003164   0x08003164   0x00000014   Code   RO         1678    i.HAL_GPIO_TogglePin  stm32h7xx_hal_gpio.o
    0x08003178   0x08003178   0x0000000c   Code   RO         1679    i.HAL_GPIO_WritePin  stm32h7xx_hal_gpio.o
    0x08003184   0x08003184   0x0000000c   Code   RO         1045    i.HAL_GetREVID      stm32h7xx_hal.o
    0x08003190   0x08003190   0x0000000c   Code   RO         1046    i.HAL_GetTick       stm32h7xx_hal.o
    0x0800319c   0x0800319c   0x00000018   Code   RO         1052    i.HAL_IncTick       stm32h7xx_hal.o
    0x080031b4   0x080031b4   0x00000060   Code   RO         1053    i.HAL_Init          stm32h7xx_hal.o
    0x08003214   0x08003214   0x00000058   Code   RO         1054    i.HAL_InitTick      stm32h7xx_hal.o
    0x0800326c   0x0800326c   0x00000002   Code   RO         1056    i.HAL_MspInit       stm32h7xx_hal.o
    0x0800326e   0x0800326e   0x00000028   Code   RO         1345    i.HAL_NVIC_EnableIRQ  stm32h7xx_hal_cortex.o
    0x08003296   0x08003296   0x0000007a   Code   RO         1351    i.HAL_NVIC_SetPriority  stm32h7xx_hal_cortex.o
    0x08003310   0x08003310   0x00000028   Code   RO         1352    i.HAL_NVIC_SetPriorityGrouping  stm32h7xx_hal_cortex.o
    0x08003338   0x08003338   0x00000044   Code   RO         1353    i.HAL_NVIC_SystemReset  stm32h7xx_hal_cortex.o
    0x0800337c   0x0800337c   0x00000014   Code   RO         1880    i.HAL_PWREx_EnableUSBVoltageDetector  stm32h7xx_hal_pwr_ex.o
    0x08003390   0x08003390   0x00000024   Code   RO         2232    i.HAL_RCCEx_GetD3PCLK1Freq  stm32h7xx_hal_rcc_ex.o
    0x080033b4   0x080033b4   0x00000230   Code   RO         2234    i.HAL_RCCEx_GetPLL2ClockFreq  stm32h7xx_hal_rcc_ex.o
    0x080035e4   0x080035e4   0x00000230   Code   RO         2235    i.HAL_RCCEx_GetPLL3ClockFreq  stm32h7xx_hal_rcc_ex.o
    0x08003814   0x08003814   0x00000b64   Code   RO         2241    i.HAL_RCCEx_PeriphCLKConfig  stm32h7xx_hal_rcc_ex.o
    0x08004378   0x08004378   0x00000320   Code   RO         2117    i.HAL_RCC_ClockConfig  stm32h7xx_hal_rcc.o
    0x08004698   0x08004698   0x0000004c   Code   RO         2122    i.HAL_RCC_GetHCLKFreq  stm32h7xx_hal_rcc.o
    0x080046e4   0x080046e4   0x00000024   Code   RO         2124    i.HAL_RCC_GetPCLK1Freq  stm32h7xx_hal_rcc.o
    0x08004708   0x08004708   0x00000024   Code   RO         2125    i.HAL_RCC_GetPCLK2Freq  stm32h7xx_hal_rcc.o
    0x0800472c   0x0800472c   0x0000022c   Code   RO         2126    i.HAL_RCC_GetSysClockFreq  stm32h7xx_hal_rcc.o
    0x08004958   0x08004958   0x00000800   Code   RO         2129    i.HAL_RCC_OscConfig  stm32h7xx_hal_rcc.o
    0x08005158   0x08005158   0x00000028   Code   RO         1354    i.HAL_SYSTICK_CLKSourceConfig  stm32h7xx_hal_cortex.o
    0x08005180   0x08005180   0x00000034   Code   RO         1356    i.HAL_SYSTICK_Config  stm32h7xx_hal_cortex.o
    0x080051b4   0x080051b4   0x00000002   Code   RO         3671    i.HAL_TIMEx_Break2Callback  stm32h7xx_hal_tim_ex.o
    0x080051b6   0x080051b6   0x00000002   Code   RO         3672    i.HAL_TIMEx_BreakCallback  stm32h7xx_hal_tim_ex.o
    0x080051b8   0x080051b8   0x00000002   Code   RO         3673    i.HAL_TIMEx_CommutCallback  stm32h7xx_hal_tim_ex.o
    0x080051ba   0x080051ba   0x00000002   Code   RO         2980    i.HAL_TIM_IC_CaptureCallback  stm32h7xx_hal_tim.o
    0x080051bc   0x080051bc   0x000001b8   Code   RO         2994    i.HAL_TIM_IRQHandler  stm32h7xx_hal_tim.o
    0x08005374   0x08005374   0x00000002   Code   RO         2997    i.HAL_TIM_OC_DelayElapsedCallback  stm32h7xx_hal_tim.o
    0x08005376   0x08005376   0x00000002   Code   RO         3024    i.HAL_TIM_PWM_PulseFinishedCallback  stm32h7xx_hal_tim.o
    0x08005378   0x08005378   0x00000002   Code   RO         6820    i.HAL_TIM_PeriodElapsedCallback  timer.o
    0x0800537a   0x0800537a   0x00000002   Code   RO         3037    i.HAL_TIM_TriggerCallback  stm32h7xx_hal_tim.o
    0x0800537c   0x0800537c   0x0000004e   Code   RO         2827    i.HAL_UARTEx_DisableFifoMode  stm32h7xx_hal_uart_ex.o
    0x080053ca   0x080053ca   0x00000072   Code   RO         2832    i.HAL_UARTEx_ReceiveToIdle_DMA  stm32h7xx_hal_uart_ex.o
    0x0800543c   0x0800543c   0x00000150   Code   RO          441    i.HAL_UARTEx_RxEventCallback  stm32h7xx_it.o
    0x0800558c   0x0800558c   0x00000002   Code   RO         2834    i.HAL_UARTEx_RxFifoFullCallback  stm32h7xx_hal_uart_ex.o
    0x0800558e   0x0800558e   0x0000005e   Code   RO         2835    i.HAL_UARTEx_SetRxFifoThreshold  stm32h7xx_hal_uart_ex.o
    0x080055ec   0x080055ec   0x0000005e   Code   RO         2836    i.HAL_UARTEx_SetTxFifoThreshold  stm32h7xx_hal_uart_ex.o
    0x0800564a   0x0800564a   0x00000002   Code   RO         2838    i.HAL_UARTEx_TxFifoEmptyCallback  stm32h7xx_hal_uart_ex.o
    0x0800564c   0x0800564c   0x00000002   Code   RO         2839    i.HAL_UARTEx_WakeupCallback  stm32h7xx_hal_uart_ex.o
    0x0800564e   0x0800564e   0x00000002   PAD
    0x08005650   0x08005650   0x00000040   Code   RO          442    i.HAL_UART_ErrorCallback  stm32h7xx_it.o
    0x08005690   0x08005690   0x00000010   Code   RO         2429    i.HAL_UART_GetState  stm32h7xx_hal_uart.o
    0x080056a0   0x080056a0   0x00000458   Code   RO         2430    i.HAL_UART_IRQHandler  stm32h7xx_hal_uart.o
    0x08005af8   0x08005af8   0x00000078   Code   RO         2431    i.HAL_UART_Init     stm32h7xx_hal_uart.o
    0x08005b70   0x08005b70   0x00000274   Code   RO          942    i.HAL_UART_MspInit  usart.o
    0x08005de4   0x08005de4   0x00000074   Code   RO         2436    i.HAL_UART_Receive_IT  stm32h7xx_hal_uart.o
    0x08005e58   0x08005e58   0x000000b0   Code   RO          943    i.HAL_UART_RxCpltCallback  usart.o
    0x08005f08   0x08005f08   0x00000002   Code   RO         2439    i.HAL_UART_RxHalfCpltCallback  stm32h7xx_hal_uart.o
    0x08005f0a   0x08005f0a   0x000000d6   Code   RO         2440    i.HAL_UART_Transmit  stm32h7xx_hal_uart.o
    0x08005fe0   0x08005fe0   0x00000002   Code   RO         2443    i.HAL_UART_TxCpltCallback  stm32h7xx_hal_uart.o
    0x08005fe2   0x08005fe2   0x00000004   Code   RO          443    i.HardFault_Handler  stm32h7xx_it.o
    0x08005fe6   0x08005fe6   0x00000002   PAD
    0x08005fe8   0x08005fe8   0x00000058   Code   RO         6629    i.LED_Init          led.o
    0x08006040   0x08006040   0x00000034   Code   RO         7467    i.MX_DMA_Init       dma.o
    0x08006074   0x08006074   0x00000080   Code   RO         7495    i.MX_USART2_UART_Init  usart232.o
    0x080060f4   0x080060f4   0x00000004   Code   RO          444    i.MemManage_Handler  stm32h7xx_it.o
    0x080060f8   0x080060f8   0x000000f4   Code   RO         7531    i.Module_TR_Mode_Set  trgpio.o
    0x080061ec   0x080061ec   0x00000004   Code   RO          445    i.NMI_Handler       stm32h7xx_it.o
    0x080061f0   0x080061f0   0x00000002   Code   RO          446    i.PendSV_Handler    stm32h7xx_it.o
    0x080061f2   0x080061f2   0x00000002   PAD
    0x080061f4   0x080061f4   0x00000164   Code   RO         2244    i.RCCEx_PLL2_Config  stm32h7xx_hal_rcc_ex.o
    0x08006358   0x08006358   0x00000164   Code   RO         2245    i.RCCEx_PLL3_Config  stm32h7xx_hal_rcc_ex.o
    0x080064bc   0x080064bc   0x00000040   Code   RO         5843    i.Recv_ACK_Usart232  comm.o
    0x080064fc   0x080064fc   0x00000002   Code   RO          447    i.SVC_Handler       stm32h7xx_it.o
    0x080064fe   0x080064fe   0x00000002   PAD
    0x08006500   0x08006500   0x0000012c   Code   RO         7561    i.Set_TR1           trspi.o
    0x0800662c   0x0800662c   0x0000012c   Code   RO         7562    i.Set_TR2           trspi.o
    0x08006758   0x08006758   0x00000008   Code   RO          448    i.SysTick_Handler   stm32h7xx_it.o
    0x08006760   0x08006760   0x000000fc   Code   RO          777    i.SystemInit        system_stm32h7xx.o
    0x0800685c   0x0800685c   0x00000010   Code   RO         6822    i.TIM3_IRQHandler   timer.o
    0x0800686c   0x0800686c   0x00000014   Code   RO         6824    i.TIM5_IRQHandler   timer.o
    0x08006880   0x08006880   0x00000048   Code   RO         7563    i.TR1_ioReset       trspi.o
    0x080068c8   0x080068c8   0x00000048   Code   RO         7564    i.TR2_ioReset       trspi.o
    0x08006910   0x08006910   0x00000194   Code   RO         7532    i.TR_GPIO_Init      trgpio.o
    0x08006aa4   0x08006aa4   0x00000058   Code   RO         2840    i.UARTEx_SetNbDataToProcess  stm32h7xx_hal_uart_ex.o
    0x08006afc   0x08006afc   0x000000f8   Code   RO         2445    i.UART_AdvFeatureConfig  stm32h7xx_hal_uart.o
    0x08006bf4   0x08006bf4   0x00000076   Code   RO         2446    i.UART_CheckIdleState  stm32h7xx_hal_uart.o
    0x08006c6a   0x08006c6a   0x00000018   Code   RO         2447    i.UART_DMAAbortOnError  stm32h7xx_hal_uart.o
    0x08006c82   0x08006c82   0x0000005e   Code   RO         2448    i.UART_DMAError     stm32h7xx_hal_uart.o
    0x08006ce0   0x08006ce0   0x000000aa   Code   RO         2449    i.UART_DMAReceiveCplt  stm32h7xx_hal_uart.o
    0x08006d8a   0x08006d8a   0x00000022   Code   RO         2451    i.UART_DMARxHalfCplt  stm32h7xx_hal_uart.o
    0x08006dac   0x08006dac   0x0000006c   Code   RO         2457    i.UART_EndRxTransfer  stm32h7xx_hal_uart.o
    0x08006e18   0x08006e18   0x00000030   Code   RO         2458    i.UART_EndTransmit_IT  stm32h7xx_hal_uart.o
    0x08006e48   0x08006e48   0x00000040   Code   RO         2459    i.UART_EndTxTransfer  stm32h7xx_hal_uart.o
    0x08006e88   0x08006e88   0x000000d2   Code   RO         2460    i.UART_RxISR_16BIT  stm32h7xx_hal_uart.o
    0x08006f5a   0x08006f5a   0x00000002   PAD
    0x08006f5c   0x08006f5c   0x000001c8   Code   RO         2461    i.UART_RxISR_16BIT_FIFOEN  stm32h7xx_hal_uart.o
    0x08007124   0x08007124   0x000000ce   Code   RO         2462    i.UART_RxISR_8BIT   stm32h7xx_hal_uart.o
    0x080071f2   0x080071f2   0x00000002   PAD
    0x080071f4   0x080071f4   0x000001c8   Code   RO         2463    i.UART_RxISR_8BIT_FIFOEN  stm32h7xx_hal_uart.o
    0x080073bc   0x080073bc   0x0000058c   Code   RO         2464    i.UART_SetConfig    stm32h7xx_hal_uart.o
    0x08007948   0x08007948   0x000000d4   Code   RO         2465    i.UART_Start_Receive_DMA  stm32h7xx_hal_uart.o
    0x08007a1c   0x08007a1c   0x00000170   Code   RO         2466    i.UART_Start_Receive_IT  stm32h7xx_hal_uart.o
    0x08007b8c   0x08007b8c   0x000000fe   Code   RO         2471    i.UART_WaitOnFlagUntilTimeout  stm32h7xx_hal_uart.o
    0x08007c8a   0x08007c8a   0x00000002   PAD
    0x08007c8c   0x08007c8c   0x00000050   Code   RO          944    i.USART1_IRQHandler  usart.o
    0x08007cdc   0x08007cdc   0x00000010   Code   RO          449    i.USART2_IRQHandler  stm32h7xx_it.o
    0x08007cec   0x08007cec   0x0000003c   Code   RO         5844    i.Update_1Hz_Usart232  comm.o
    0x08007d28   0x08007d28   0x00000004   Code   RO          450    i.UsageFault_Handler  stm32h7xx_it.o
    0x08007d2c   0x08007d2c   0x00000010   Code   RO         1358    i.__NVIC_GetPriorityGrouping  stm32h7xx_hal_cortex.o
    0x08007d3c   0x08007d3c   0x00000028   Code   RO         1359    i.__NVIC_SetPriority  stm32h7xx_hal_cortex.o
    0x08007d64   0x08007d64   0x00000004   Code   RO          946    i._sys_exit         usart.o
    0x08007d68   0x08007d68   0x00000016   Code   RO         5914    i.cmemcpy           func.o
    0x08007d7e   0x08007d7e   0x0000004c   Code   RO         5845    i.combineByte       comm.o
    0x08007dca   0x08007dca   0x00000002   PAD
    0x08007dcc   0x08007dcc   0x00000014   Code   RO          813    i.delay_init        delay.o
    0x08007de0   0x08007de0   0x00000032   Code   RO          814    i.delay_ms          delay.o
    0x08007e12   0x08007e12   0x0000000a   Code   RO          816    i.delay_nus         delay.o
    0x08007e1c   0x08007e1c   0x00000048   Code   RO          817    i.delay_us          delay.o
    0x08007e64   0x08007e64   0x0000001c   Code   RO          948    i.fputc             usart.o
    0x08007e80   0x08007e80   0x000000c4   Code   RO           14    i.main              main.o
    0x08007f44   0x08007f44   0x00000120   Code   RO          870    i.sys_stm32_clock_init  sys.o
    0x08008064   0x08008064   0x00000038   Code   RO          949    i.usart_init        usart.o
    0x0800809c   0x0800809c   0x0000000a   Code   RO         7813    x$fpl$fpinit        fz_wv.l(fpinit.o)
    0x080080a6   0x080080a6   0x00000010   Data   RO          778    .constdata          system_stm32h7xx.o
    0x080080b6   0x080080b6   0x00000008   Data   RO         1502    .constdata          stm32h7xx_hal_dma.o
    0x080080be   0x080080be   0x00000018   Data   RO         2472    .constdata          stm32h7xx_hal_uart.o
    0x080080d6   0x080080d6   0x00000010   Data   RO         2842    .constdata          stm32h7xx_hal_uart_ex.o
    0x080080e6   0x080080e6   0x00000002   PAD
    0x080080e8   0x080080e8   0x00000020   Data   RO         7864    Region$$Table       anon$$obj.o


    Execution Region RW_IRAM2 (Exec base: 0x24000000, Load base: 0x08008108, Size: 0x00001e50, Max: 0x00080000, ABSOLUTE)

    Exec Addr    Load Addr    Size         Type   Attr      Idx    E Section Name        Object

    0x24000000   0x08008108   0x00000008   Data   RW          779    .data               system_stm32h7xx.o
    0x24000008   0x08008110   0x00000002   Data   RW          818    .data               delay.o
    0x2400000a   0x08008112   0x00000002   PAD
    0x2400000c   0x08008114   0x00000007   Data   RW          951    .data               usart.o
    0x24000013   0x0800811b   0x00000001   PAD
    0x24000014   0x0800811c   0x00000009   Data   RW         1075    .data               stm32h7xx_hal.o
    0x2400001d   0x08008125   0x00000003   PAD
    0x24000020        -       0x00000158   Zero   RW          950    .bss                usart.o
    0x24000178        -       0x000000d4   Zero   RW         5846    .bss                comm.o
    0x2400024c        -       0x00000098   Zero   RW         6825    .bss                timer.o
    0x240002e4        -       0x00000108   Zero   RW         7496    .bss                usart232.o
    0x240003ec        -       0x00000060   Zero   RW         7729    .bss                c_w.l(libspace.o)
    0x2400044c   0x08008125   0x00000004   PAD
    0x24000450        -       0x00000800   Zero   RW            2    HEAP                startup_stm32h743xx.o
    0x24000c50        -       0x00001200   Zero   RW            1    STACK               startup_stm32h743xx.o



  Load Region LR$$.ARM.__AT_0xC0000000 (Base: 0xc0000000, Size: 0x00000000, Max: 0x001f4000, ABSOLUTE)

    Execution Region ER$$.ARM.__AT_0xC0000000 (Exec base: 0xc0000000, Load base: 0xc0000000, Size: 0x001f4000, Max: 0x001f4000, ABSOLUTE, UNINIT)

    Exec Addr    Load Addr    Size         Type   Attr      Idx    E Section Name        Object

    0xc0000000        -       0x001f4000   Zero   RW         6521    .ARM.__AT_0xC0000000  ltdc.o


==============================================================================

Image component sizes


      Code (inc. data)   RO Data    RW Data    ZI Data      Debug   Object Name

      1866         26          0          0        212       6907   comm.o
       152          8          0          2          0       2719   delay.o
        52          4          0          0          0        882   dma.o
        92         14          0          0          0       1669   exti.o
        22          0          0          0          0        670   func.o
        88         10          0          0          0        919   led.o
         0          0          0          0    2048000       2745   ltdc.o
       240         30          0          0          0    1285551   main.o
        80         30        664          0       6656        992   startup_stm32h743xx.o
       294         58          0          9          0      24639   stm32h7xx_hal.o
       418         30          0          0          0      41576   stm32h7xx_hal_cortex.o
      8662        168          8          0          0      13518   stm32h7xx_hal_dma.o
       568         56          0          0          0       3536   stm32h7xx_hal_gpio.o
        20          6          0          0          0        597   stm32h7xx_hal_pwr_ex.o
      3552        108          0          0          0       7072   stm32h7xx_hal_rcc.o
      4784        110          0          0          0       7345   stm32h7xx_hal_rcc_ex.o
       448          0          0          0          0       3838   stm32h7xx_hal_tim.o
         6          0          0          0          0       2268   stm32h7xx_hal_tim_ex.o
      6072        198         24          0          0      42475   stm32h7xx_hal_uart.o
       474         10         16          0          0       6609   stm32h7xx_hal_uart_ex.o
       466         70          0          0          0    1084809   stm32h7xx_it.o
       288         14          0          0          0       1443   sys.o
       252         40         16          8          0       1586   system_stm32h7xx.o
        38         12          0          0        152       2353   timer.o
       648         36          0          0          0       1896   trgpio.o
       744         34          0          0          0       2864   trspi.o
       972         82          0          7        344       6498   usart.o
       128         12          0          0        264        894   usart232.o

    ----------------------------------------------------------------------
     31448       1166        762         32    2055628    2558870   Object Totals
         0          0         32          0          0          0   (incl. Generated)
        22          0          2          6          0          0   (incl. Padding)

    ----------------------------------------------------------------------

      Code (inc. data)   RO Data    RW Data    ZI Data      Debug   Library Member Name

         8          0          0          0          0         68   __main.o
       104          0          0          0          0         84   __printf.o
         0          0          0          0          0          0   __rtentry.o
        12          0          0          0          0          0   __rtentry2.o
         6          0          0          0          0          0   __rtentry4.o
        52          8          0          0          0          0   __scatter.o
        26          0          0          0          0          0   __scatter_copy.o
        28          0          0          0          0          0   __scatter_zi.o
        48          6          0          0          0         96   _printf_char_common.o
        36          4          0          0          0         80   _printf_char_file.o
         0          0          0          0          0          0   _printf_percent.o
         4          0          0          0          0          0   _printf_percent_end.o
        18          0          0          0          0         80   exit.o
         8          0          0          0          0         68   ferror.o
         6          0          0          0          0        152   heapauxi.o
         2          0          0          0          0          0   libinit.o
         6          0          0          0          0          0   libinit2.o
         2          0          0          0          0          0   libshutdown.o
         2          0          0          0          0          0   libshutdown2.o
         8          4          0          0         96         68   libspace.o
       238          0          0          0          0        100   lludivv7m.o
        24          4          0          0          0         84   noretval__2printf.o
        78          0          0          0          0         80   rt_memclr_w.o
         2          0          0          0          0          0   rtexit.o
        10          0          0          0          0          0   rtexit2.o
        74          0          0          0          0         80   sys_stackheap_outer.o
         2          0          0          0          0         68   use_no_semi.o
         2          0          0          0          0         68   use_no_semi_2.o
        10          0          0          0          0        116   fpinit.o

    ----------------------------------------------------------------------
       822         26          0          0        100       1292   Library Totals
         6          0          0          0          4          0   (incl. Padding)

    ----------------------------------------------------------------------

      Code (inc. data)   RO Data    RW Data    ZI Data      Debug   Library Name

       806         26          0          0         96       1176   c_w.l
        10          0          0          0          0        116   fz_wv.l

    ----------------------------------------------------------------------
       822         26          0          0        100       1292   Library Totals

    ----------------------------------------------------------------------

==============================================================================


      Code (inc. data)   RO Data    RW Data    ZI Data      Debug   

     32270       1192        762         32    2055728    2547142   Grand Totals
     32270       1192        762         32    2055728    2547142   ELF Image Totals
     32270       1192        762         32          0          0   ROM Totals

==============================================================================

    Total RO  Size (Code + RO Data)                33032 (  32.26kB)
    Total RW  Size (RW Data + ZI Data)           2055760 (2007.58kB)
    Total ROM Size (Code + RO Data + RW Data)      33064 (  32.29kB)

==============================================================================

