:020000040800F2
:10000000501E00243D030008ED610008E35F000876
:10001000F560000815060008297D000800000000B2
:10002000000000000000000000000000FD64000867
:100030003D0F000800000000F1610008596700084A
:1000400063030008630300086303000863030008F8
:1000500063030008630300086303000863030008E8
:1000600063030008DD0F000863030008C1090008EE
:1000700063030008630300086303000863030008C8
:1000800063030008630300086303000863030008B8
:10009000630300086303000863030008F10F00080E
:1000A0006303000863030008630300086303000898
:1000B000630300085D680008630300086303000829
:1000C0006303000863030008630300086303000878
:1000D000630300088D7C0008DD7C000863030008D2
:1000E00063030008630300080000000063030008C6
:1000F0006303000863030008630300086303000848
:1001000063030008630300086D68000863030008C8
:100110006303000863030008630300086303000827
:100120006303000863030008630300086303000817
:100130006303000863030008630300086303000807
:1001400000000000000000000000000000000000AF
:1001500063030008630300086303000863030008E7
:1001600063030008630300086303000863030008D7
:100170006303000863030008630300080000000035
:1001800063030008630300086303000863030008B7
:1001900063030008630300086303000863030008A7
:1001A0006303000863030008630300086303000897
:1001B0006303000863030008630300086303000887
:1001C0006303000863030008630300086303000877
:1001D0006303000863030008630300086303000867
:1001E0006303000863030008630300086303000857
:1001F0006303000863030008630300086303000847
:100200006303000863030008630300086303000836
:100210006303000863030008630300086303000826
:100220006303000863030008630300080000000084
:100230006303000863030008000000006303000874
:1002400063030008630300086303000863030008F6
:1002500063030008630300086303000863030008E6
:1002600063030008630300086303000863030008D6
:100270006303000863030008630300080000000034
:100280006303000863030008630300080000000024
:10029000000000006303000800F002F800F03EF8E0
:1002A0000AA090E8000C82448344AAF10107DA45D1
:1002B00001D100F033F8AFF2090EBAE80F0013F0E5
:1002C000010F18BFFB1A43F0010318471C7E000002
:1002D0003C7E0000103A24BF78C878C1FAD8520793
:1002E00024BF30C830C144BF04680C6070470000B0
:1002F0000023002400250026103A28BF78C1FBD82F
:10030000520728BF30C148BF0B60704700207047BC
:100310001FB507F0C3FE1FBD10B510BD00F04CF9AE
:100320001146FFF7F5FF07F0ABFD00F06AF903B4E3
:10033000FFF7F2FF03BC07F015FD0000DFF8300007
:10034000016841F4700101600A4880470A4800478B
:10035000FEE7FEE7FEE7FEE7FEE7FEE7FEE7FEE775
:10036000FEE7FEE705480649064A074B70470000CE
:1003700088ED00E06167000899020008500400243D
:10038000501E0024500C0024500C0024704753EAE7
:10039000020C00F069802DE9F04B4FF00006002BB5
:1003A0001FBFB3FA83F503FA05F424FA05F65E409D
:1003B00012BF1643B2FA82F502FA05F4C5F1200520
:1003C0001EBF22FA05FC44EA0C04203556EA044C10
:1003D0004FEA144418BF641C4FF000084FF00009A6
:1003E000904271EB030C39D3002919BFB1FA81F7A0
:1003F00001FA07F6B0FA80F700FA07F6C7F120070E
:100400001EBF20FA07FC46EA0C062037B6FBF4FCB8
:10041000A7EB0507103F07F01F0BCBF120060CFAE6
:100420000BFB2CFA06F644BFB3460026202FA4BFD0
:100430005E464FF0000B5BEA060C08BF4FF0010B65
:1004400019EB0B09ABFB027C48EB0608C01B06FB53
:1004500002CC0BFB03CC71EB0C01C1E70B4602464F
:1004600041464846BDE8F08B13B54FF000004FF011
:100470000001AFF30080BDE81C4070470FB4044991
:1004800010B503AA029800F065F810BC5DF814FBE3
:100490000C0000242DE9F0410E46044600202062A5
:1004A0002046E168884730B3252805D0D4E90121EA
:1004B0009047206A401CF2E7E16820460027884701
:1004C000050018D0A5F14100192802D820354FF4B5
:1004D00000673246294620462760FFF717FF40B1E4
:1004E000012804D0F61D26F007060836D8E7361D89
:1004F000D6E72846DAE7206ABDE8F0814FF000022F
:1005000000B5134694469646203922BFA0E80C5009
:10051000A0E80C50B1F12001BFF4F7AF090728BFE4
:10052000A0E80C5048BF0CC05DF804EB890028BF60
:1005300040F8042B08BF704748BF20F8022B11F089
:10054000804F18BF00F8012B704770477047704705
:1005500070470000074B70B50D467B4400F011F862
:100560000446284600F020F810B14FF0FF3070BD6F
:10057000204670BD0779000001694A1C02610878B5
:10058000704700B58FB0CDE90131002105910549D3
:100590007944CDE9031011466846FFF77BFF0FB0A1
:1005A00000BD0000E5FFFFFF007B00F0800070470A
:1005B00000487047EC0300247546FFF7F9FFAE468C
:1005C00005006946534620F00700854618B020B55F
:1005D000FFF7C8FEBDE820404FF000064FF00007CF
:1005E0004FF000084FF0000B21F00701AC46ACE8DB
:1005F000C009ACE8C009ACE8C009ACE8C0098D4648
:10060000704710B50446AFF300802046BDE81040A7
:10061000FFF78DBE00BFFEE7F0B58DB004460D4676
:1006200034216846FFF76AFF00270026E81EC2B2A1
:10063000A11C684607F098FB00BF04E01DF8060007
:100640004740701CC6B2E81EB042F7DC681E205C52
:10065000B84202D001200DB0F0BDA0782A2801D008
:100660000120F8E7E078022801DD0120F3E7207996
:1006700000F00F00022804DC20790221B1EB201FDA
:1006800001DA0120E7E7607900F00F00022804DCBE
:1006900060790221B1EB201F01DA0120DBE7A079AC
:1006A00000F00F00022804DCA0790221B1EB201F2A
:1006B00001DA0120CFE7E07900F00F00022804DC26
:1006C000E0790221B1EB201F01DA0120C3E7207A93
:1006D00000F00F00022804DC207A0221B1EB201F79
:1006E00001DA0120B7E7607A00F00F00022804DC8D
:1006F000607A0221B1EB201F01DA0120ABE7A07A7A
:1007000000F00F00022804DCA07A0221B1EB201FC8
:1007100001DA01209FE7E07A00F00F00022804DCF4
:10072000E07A0221B1EB201F01DA012093E7207B60
:100730003F2801DD01208EE7607B1F2801DD0120BD
:1007400089E7A07B3F2801DD012084E7E07B1F28AB
:1007500001DD01207FE7207C3F2801DD01207AE7D1
:10076000607C1F2801DD012075E7A07C3F2801DDAA
:10077000012070E7E07C1F2801DD01206BE7207D70
:100780003F2801DD012066E7607D1F2801DD012093
:1007900061E7A07D3F2801DD01205CE7E07D1F28A7
:1007A00001DD012057E7207E3F2801DD012052E7CF
:1007B000607E1F2801DD01204DE7A07E3F2801DD7E
:1007C000012048E7E07E1F2801DD012043E7207F6C
:1007D0003F2801DD01203EE7607F1F2801DD012069
:1007E00039E7A07F3F2801DD012034E7E07F1F28A3
:1007F00001DD01202FE794F820003F2801DD0120D2
:1008000029E794F821001F2801DD012023E794F84F
:1008100022003F2801DD01201DE794F823001F2856
:1008200001DD012017E794F824003F2801DD0120B5
:1008300011E794F825001F2801DD01200BE794F84B
:1008400026003F2801DD012005E794F827001F2836
:1008500001DD0120FFE694F828003F2801DD01209A
:10086000F9E694F829001F2801DD0120F3E694F849
:100870002A003F2801DD0120EDE694F82B001F2817
:1008800001DD0120E7E614F8030F4C490870607899
:1008900000114870607800F00F000871A078001116
:1008A000C871A07800F00F008872E07800114873DA
:1008B000E07800F00F00087420790011C8742079E6
:1008C00000F00F008875607900114876607900F0BB
:1008D0000F000877A0790011C877A07900F00F0009
:1008E00081F82200E079001181F82500E07900F01C
:1008F0000F0081F82800207A001181F82B00207A5F
:1009000000F00F0081F82E00617A2C488170A17AE6
:10091000C170E17A4171217B8171617B0172A17BA0
:100920004172E17BC172217C0173617C8173A17C86
:10093000C173E17C4174217D8174617D0175A17D6C
:100940004175E17DC175217E0176617E8176A17E52
:10095000C176E17E4177217F8177617F80F8201029
:10096000A17F80F82110E17F80F8231094F82010F7
:1009700080F8241094F8211080F8261094F82210A2
:1009800080F8271094F8231080F8291094F8241088
:1009900080F82A1094F8251080F82C1094F826106E
:1009A00080F82D1094F8271080F82F1094F8281054
:1009B000E41E80F8301000204DE60000780100248D
:1009C00010B5024801F08EF810BD00007403002439
:1009D0000146374A0868904249D0354A18320868BB
:1009E000904244D0324A3032086890423FD0304A78
:1009F0004832086890423AD02D4A603208689042E6
:100A000035D02B4A78320868904230D0284A90324C
:100A1000086890422BD0264AA8320868904226D017
:100A2000244A0868904222D0224A1832086890422C
:100A30001DD0204A30320868904218D01D4A4832F2
:100A40000868904213D01B4A6032086890420ED06A
:100A5000184A78320868904209D0164A90320868DD
:100A6000904204D0134AA8320868904201D1012074
:100A700000E00020B0B10A78103A1823B2FBF3F07E
:100A800000F007020C4B9A5CCA65032805D90A6876
:100A90006FF30902121D8A6503E00A686FF3090209
:100AA0008A6503E0086820F0FF008865886D70475C
:100AB0001000024010040240B680000810B5026821
:100AC0002B4C0368A34222D0294C14340368A34260
:100AD0001DD0274C28340368A34218D0244C3C3442
:100AE0000368A34213D0224C50340368A3420ED0B3
:100AF0001F4C64340368A34209D01D4C783403684A
:100B0000A34204D01A4C8C340368A34201D10123C0
:100B100000E000238BB10378083B1424B3FBF4F10D
:100B2000144B03EB81030366124B8033436601F0E1
:100B30001F040123A340836618E00378103B1824A8
:100B4000B3FBF4F10C4B9A4204D80B4BA83B9A42EE
:100B500000D30831094B03EB81030366074B803355
:100B6000436601F01F040123A340836610BD00000B
:100B70000854025800580258B804024000080240C5
:100B80000179A9B3082940D8204B02689A4222D0A3
:100B90001E4B143302689A421DD01C4B2833026846
:100BA0009A4218D0194B3C3302689A4213D0174B23
:100BB000503302689A420ED0144B643302689A4252
:100BC00009D0124B783302689A4204D00F4B8C3311
:100BD00002689A4201D1012200E000224AB14A1E75
:100BE0000B4B03EB8202C266094A4032026708E0FF
:100BF0000BE04A1E074B03EB8202C266054A4032F5
:100C000002674A1E01239340436770470854025805
:100C10000059025800090240014600208A69D2B9F1
:100C20008A6A32B1012A0DD0022A03D0032A10D1D8
:100C30000EE000BFCA6A02F08072B2F1807F00D17C
:100C4000012007E0CA6AB2F1C07F00D1012001E0B3
:100C500000E000BF36E08A69B2F5005F1BD18A6A06
:100C600032B1012A07D0022A03D0032A11D10AE0A7
:100C700000BF01200EE0CA6A02F08072B2F1807FEC
:100C800000D1012006E0CA6AB2F1C07F00D1012084
:100C900000E000BF16E08A6A32B1012A05D0022ABC
:100CA00004D0032A0CD103E000BF00BF012008E0FC
:100CB000CA6A02F08072B2F1807F00D1012000E0A8
:100CC00000BF00BF70470000F0B5856D846D984F80
:100CD0000668BE4270D0964F18370668BE426BD089
:100CE000934F30370668BE4266D0914F483706684A
:100CF000BE4261D08E4F60370668BE425CD08C4FDA
:100D000078370668BE4257D0894F90370668BE4292
:100D100052D0874FA8370668BE424DD0854F06682F
:100D2000BE4249D0834F18370668BE4244D0814F37
:100D300030370668BE423FD07E4F48370668BE4215
:100D40003AD07C4F60370668BE4235D0794F78374D
:100D50000668BE4230D0774F90370668BE422BD02F
:100D6000744FA8370668BE4226D0734F0668BE424D
:100D700022D0714F14370668BE421DD06E4F2837FF
:100D80000668BE4218D06C4F3C370668BE4213D08E
:100D9000694F50370668BE420ED0674F6437066809
:100DA000BE4209D0644F78370668BE4204D0624F15
:100DB0008C370668BE4201D1012600E000263EB114
:100DC000D0E919767E60C66E16B1D0E91C767E60D9
:100DD000574F0668BE4249D0554F18370668BE4285
:100DE00044D0534F30370668BE423FD0504F48374B
:100DF0000668BE423AD04E4F60370668BE4235D0D4
:100E00004B4F78370668BE4230D0494F903706685E
:100E1000BE422BD0464FA8370668BE4226D0454F6B
:100E20000668BE4222D0434F18370668BE421DD026
:100E3000404F30370668BE4218D03E4F48370668EC
:100E4000BE4213D03B4F60370668BE420ED0394FCA
:100E500078370668BE4209D0364F90370668BE42E2
:100E600004D0344FA8370668BE4201D1012600E005
:100E70000026DEB190F85C6006F01F073F26BE40FA
:100E8000AE600668366826F4802607683E6006680D
:100E900073608668402E04D10668B2600668F1600F
:100EA00044E00668B1600668F2603FE0224F0668E1
:100EB000BE4222D0204F14370668BE421DD01E4FBE
:100EC00028370668BE4218D01B4F3C370668BE4222
:100ED00013D0194F50370668BE420ED0164F6437F4
:100EE0000668BE4209D0144F78370668BE4204D067
:100EF000114F8C370668BE4201D1012600E0002662
:100F0000A6B190F85C6006F01F070126BE4066603F
:100F1000066873608668402E04D10668B260066871
:100F2000F16003E00668B1600668F260F0BD0000A1
:100F3000100002401004024008540258704700009C
:100F400038B5002423480078012841D100202149E8
:100F500008702D211F48801CFFF75EFB0446002C03
:100F600033D11D49087805F0C7F81B480A30C31E65
:100F7000821FD11E0090273000F05AF81648163014
:100F8000C31E821FD11E0090263000F051F8124877
:100F90002230C31E821FD11E0090253000F048F879
:100FA0000D482E30C31E821FD11E0090243000F049
:100FB0003FF809493C31A1F10B0005F0A1FA0649BF
:100FC0005231A1F10B0005F031FB204605F076FA15
:100FD00038BD0000DC0100247801002410B5082091
:100FE00001F0B4FF08200149086010BD88000058D6
:100FF00010B5802001F0AAFF80200149086010BDD3
:101000008800005872B607E0642006F0E9FE03A0ED
:10101000FFF734FA02F090F9F6E700004572726FBC
:10102000722172657374617274210D0A00000000F0
:101030002DE9FC4104460D4616461F46DDF820808A
:1010400098F801007978CDE9001073786A7800216A
:10105000052006F094FE207098F801007978CDE91B
:10106000001073786A780021042006F088FE607012
:1010700098F801007978CDE9001073786A7800213A
:10108000032006F07CFEA07098F801007978CDE985
:10109000001073786A780021022006F070FEE0707C
:1010A00098F801007978CDE9001073786A7800210A
:1010B000012006F064FE207198F801007978CDE9EE
:1010C000001073786A780021084606F058FE6071B7
:1010D00098F80200B978CDE90010B378AA78002119
:1010E000042006F04CFEA07198F80200B978CDE912
:1010F0000010B378AA780021032006F040FEE071CA
:1011000098F80200B978CDE90010B378AA780021E8
:10111000022006F034FE207298F80200B978CDE97A
:101120000010B378AA780021012006F028FE607232
:1011300098F80200B978CDE90010B378AA780021B8
:10114000084606F01CFEA07298F8000020B10128A5
:101150000BD002281BD111E0E07800F00F00E07006
:10116000207900F00F00207112E0E07800F01F00FD
:10117000E070207900F00F00207109E0E07800F0C5
:101180000F00E070207900F01F00207100E000BF28
:1011900000BF387820B101280BD002281BD111E004
:1011A000607900F00F006071A07900F00F00A0716D
:1011B00012E0607900F01F006071A07900F00F006C
:1011C000A07109E0607900F00F006071A07900F073
:1011D0001F00A07100E000BF00BF307820B10128DF
:1011E0000BD002281BD111E0E07900F00F00E07174
:1011F000207A00F00F00207212E0E07900F01F006A
:10120000E071207A00F00F00207209E0E07900F030
:101210000F00E071207A00F01F00207200E000BF94
:1012200000BF287820B101280BD002281BD111E083
:10123000607A00F00F006072A07A00F00F00A072D8
:1012400012E0607A00F01F006072A07A00F00F00D8
:10125000A07209E0607A00F00F006072A07A00F0DE
:101260001F00A07200E000BF00BFBDE8FC810000CD
:101270002DE9F041044601F08BFF804614B90120AE
:10128000BDE8F08194F83500022808D08020606520
:1012900000BF002084F8340000BF0120F0E7FE49C1
:1012A0002068884249D0FC4918312068884244D0DF
:1012B000F9493031206888423FD0F74948312068E9
:1012C00088423AD0F44960312068884235D0F249EA
:1012D00078312068884230D0EF49903120688842C8
:1012E0002BD0ED49A8312068884226D0EB492068F0
:1012F000884222D0E9491831206888421DD0E74948
:1013000030312068884218D0E4494831206888424A
:1013100013D0E2496031206888420ED0DF4978312D
:101320002068884209D0DD4990312068884204D085
:10133000DA49A8312068884201D1012000E000206C
:1013400068B12068006820F01E00216808602068ED
:10135000406920F0800021684861256806E0206827
:10136000006820F00E00216808602568CA492068DE
:10137000884270D0C8491831206888426BD0C6496D
:1013800030312068884266D0C3494831206888429D
:1013900061D0C1496031206888425CD0BE49783153
:1013A0002068884257D0BC4990312068884252D08A
:1013B000B949A831206888424DD0B8492068884290
:1013C00049D0B64918312068884244D0B3493031F9
:1013D000206888423FD0B1494831206888423AD0DD
:1013E000AE4960312068884235D0AC4978312068F8
:1013F000884230D0A9499031206888422BD0A74933
:10140000A8312068884226D0A5492068884222D089
:10141000A3491431206888421DD0A1492831206891
:10142000884218D09E493C312068884213D09C499C
:101430005031206888420ED0994964312068884232
:1014400009D0974978312068884204D094498C317A
:101450002068884201D1012000E0002028B1206EE0
:10146000006820F48070216E08608B4920688842F3
:1014700049D0894918312068884244D086493031A2
:10148000206888423FD084494831206888423AD059
:10149000814960312068884235D07F4978312068A1
:1014A000884230D07C499031206888422BD07A49DC
:1014B000A8312068884226D078492068884222D006
:1014C00076491831206888421DD07449303120682F
:1014D000884218D0714948312068884213D06F493A
:1014E0006031206888420ED06C497831206888428B
:1014F00009D06A4990312068884204D06749A831F0
:101500002068884206D12068006820F00100216828
:10151000086005E02068006820F00100216808608C
:1015200011E001F035FEA0EB080005280BD92020C2
:101530006065032084F8350000BF002084F8340083
:1015400000BF01209CE6286800F001000028E8D1D7
:1015500051492068884249D04F4918312068884253
:1015600044D04D493031206888423FD04A49483103
:10157000206888423AD0484960312068884235D096
:10158000454978312068884230D0434990312068FD
:1015900088422BD04049A8312068884226D03F4954
:1015A0002068884222D03D491831206888421DD0E9
:1015B0003A4930312068884218D03849483120688B
:1015C000884213D035496031206888420ED03349B3
:1015D00078312068884209D03049903120688842AB
:1015E00004D02E49A8312068884201D1012000E0B2
:1015F000002040B1A66D94F85C0000F01F013F2070
:101600008840B06007E0A76D94F85C0000F01F010F
:1016100001208840786020492068884276D01E49A1
:1016200018312068884271D01B49303120688842C7
:101630006CD0194948312068884267D0164960311A
:101640002068884262D014497831206888425DD091
:10165000114990312068884258D00F49A83120683C
:10166000884253D00D49206888424FD00B49183129
:10167000206888424AD0094930312068884245D0E4
:10168000064948312068884240D0044960312068CA
:1016900088423BD0014905E010000240100402409E
:1016A000085402587831206888422FD02549206894
:1016B00088422BD0234918312068884226D02249FD
:1016C0002068884222D020491431206888421DD0E9
:1016D0001D4928312068884218D01B493C312068B8
:1016E000884213D018495031206888420ED01649DC
:1016F00064312068884209D01349783120688842D3
:1017000004D011498C312068884201D1012000E0C9
:10171000002068B1D4E919104860E06E40B1E06E75
:10172000006820F48070E16E0860D4E91C10486005
:10173000012084F8350000BF002084F8340000BF89
:1017400000BF9DE5A00402400854025870B504464D
:101750000CB9012070BD94F83500022803D0802018
:1017600060650120F6E7DC492068884249D0DA4903
:1017700018312068884244D0D749303120688842E7
:101780003FD0D5494831206888423AD0D2496031AB
:101790002068884235D0D04978312068884230D0DE
:1017A000CD499031206888422BD0CB49A8312068A0
:1017B000884226D0C9492068884222D0C7491831BA
:1017C000206888421DD0C54930312068884218D031
:1017D000C24948312068884213D0C049603120682E
:1017E00088420ED0BD4978312068884209D0BB4973
:1017F00090312068884204D0B849A83120688842D6
:1018000001D1012000E00020F0B3042084F835006D
:10181000B149206888424BD0AF49183120688842CE
:1018200046D0AD4930312068884241D0AA4948317C
:10183000206888423CD0A84960312068884237D06F
:10184000A54978312068884232D0A3499031206878
:1018500088422DD0A049A8312068884228D09F49CD
:101860002068884224D09D491831206888421FD0C2
:101870009A493031206888421AD098494831206806
:10188000884215D0954900E020E060312068884208
:101890000ED0924978312068884209D08F49903122
:1018A0002068884204D08D49A8312068884206D13A
:1018B0002068006820F001002168086009E12068C4
:1018C000006820F001002168086002E120680068DB
:1018D00020F00E00216808607F492068884249D0C6
:1018E0007D4918312068884244D07B4930312068D6
:1018F00088423FD078494831206888423AD07649BA
:1019000060312068884235D0734978312068884238
:1019100030D071499031206888422BD06E49A8316F
:101920002068884226D06D492068884222D06B49C1
:101930001831206888421DD06849303120688842BB
:1019400018D0664948312068884213D06349603115
:10195000206888420ED0614978312068884209D0D9
:101960005E4990312068884204D05C49A8312068E3
:10197000884206D12068006820F0010021680860D4
:1019800005E02068006820F00100216808605249E5
:101990002068884270D050491831206888426BD046
:1019A0004D4930312068884266D04B494831206823
:1019B000884261D048496031206888425CD04649FD
:1019C00078312068884257D0434990312068884256
:1019D00052D04149A831206888424DD03F49206803
:1019E000884249D03D4918312068884244D03B495B
:1019F0003031206888423FD03849483120688842D9
:101A00003AD0364960312068884235D03349783140
:101A10002068884230D031499031206888422BD0EC
:101A20002E49A8312068884226D02D492068884256
:101A300022D02B491431206888421DD028492831F2
:101A40002068884218D026493C312068884213D04B
:101A500023495031206888420ED0214964312068E2
:101A6000884209D01E4978312068884204D01C4938
:101A70008C312068884201D1012000E00020D8B1DB
:101A8000206E006820F48070216E0860A56D94F8C7
:101A90005C0000F01F01012088406860D4E9191043
:101AA0004860E06E40B1E06E006820F48070E16E46
:101AB0000860D4E91C104860012084F8350000BF9C
:101AC000002084F8340000BF206D10B12046216D45
:101AD000884700203EE6000010000240100402404B
:101AE000085402582DE9F84F044600200090FE48A3
:101AF00000684FF41651B0FBF1FAA66DD4F8588087
:101B00003768D8F80090F9492068884249D0F749E9
:101B100018312068884244D0F44930312068884226
:101B20003FD0F2494831206888423AD0EF496031CD
:101B30002068884235D0ED4978312068884230D01D
:101B4000EA499031206888422BD0E849A8312068C2
:101B5000884226D0E6492068884222D0E4491831DC
:101B6000206888421DD0E24930312068884218D070
:101B7000DF4948312068884213D0DD496031206850
:101B800088420ED0DA4978312068884209D0D84995
:101B900090312068884204D0D549A8312068884215
:101BA00001D1012000E0002000287DD094F85C00E5
:101BB00000F01F01082088403840002868D0CB4939
:101BC0002068884249D0C94918312068884244D0E9
:101BD000C6493031206888423FD0C4494831206826
:101BE00088423AD0C14960312068884235D0BF4927
:101BF00078312068884230D0BC49903120688842D2
:101C00002BD0BA49A8312068884226D0B84920682C
:101C1000884222D0B6491831206888421DD0B44984
:101C200030312068884218D0B14948312068884254
:101C300013D0AF496031206888420ED0AC4978316A
:101C40002068884209D0AA4990312068884204D08F
:101C5000A749A8312068884204D12068006800F0B4
:101C6000040003E02068006800F0080080B12068EC
:101C7000006820F004002168086094F85C0000F01F
:101C80001F0108208840B060606D40F00100606571
:101C900094F85C0000F01F01012088403840E8B350
:101CA00092492068884200E0B7E24BD08F49183152
:101CB0002068884246D08D4930312068884241D022
:101CC0008A494831206888423CD088496031206880
:101CD000884237D0854978312068884232D083499C
:101CE0009031206888422DD08049A83120688842F0
:101CF00028D07F492068884224D07D491831206847
:101D000088421FD07A493031206888421AD07849F9
:101D100048312068884215D0754900E026E06031DE
:101D2000206888420ED0724978312068884209D0F4
:101D30006F4990312068884204D06D49A8312068ED
:101D4000884204D12068406900F0800002E02068E9
:101D50000068002050B194F85C0000F01F010120E1
:101D60008840B060606D40F00200606594F85C00EF
:101D700000F01F01042088403840E8B35B49206828
:101D800088424BD0594918312068884246D057497B
:101D900030312068884241D0544948312068884217
:101DA0003CD0524960312068884237D04F49783161
:101DB0002068884232D04D499031206888422DD029
:101DC0004A49A8312068884228D049492068884279
:101DD00024D047491831206888421FD04449303107
:101DE000206888421AD0424948312068884215D07C
:101DF0003F496031206800E024E088420ED03C4931
:101E000078312068884209D0394990312068884269
:101E100004D03749A8312068884204D1206800687E
:101E200000F0020002E020680068002050B194F841
:101E30005C0000F01F0104208840B060606D40F03D
:101E40000400606594F85C0000F01F0110208840D9
:101E50003840E8B325492068884251D023491831D9
:101E6000206888424CD0214930312068884247D0D0
:101E70001E4948312068884242D01C4960312068A0
:101E800088423DD0194978312068884238D01749B6
:101E900090312068884233D01449A83120688842A4
:101EA0002ED01349206888422AD011491831206861
:101EB000884225D00E4930312068884220D00C4914
:101EC0004831206888421BD009496031206800E011
:101ED0004DE0884214D006497831206888420FD0FE
:101EE00003499031206805E0000000241000024002
:101EF00010040240884203D0FE492068884204D181
:101F00002068006800F0080003E02068006800F026
:101F1000040060B394F85C0000F01F0110208840BA
:101F2000B0602068006800F4802080B120680068FC
:101F300000F4002028B9206CC8B12046216C8847E5
:101F400015E0A06C98B12046A16C88470FE020688E
:101F5000006800F4807028B92068006820F008004C
:101F600021680860206C10B12046216C884794F8E5
:101F70005C0000F01F0120208840384000287DD000
:101F8000DD492068884249D0DB4918312068884201
:101F900044D0D9493031206888423FD0D6494831B1
:101FA000206888423AD0D44960312068884235D0D0
:101FB000D14978312068884230D0CF4990312068AB
:101FC00088422BD0CC49A8312068884226D0C94904
:101FD000A8392068884221D0C649903920688842B3
:101FE0001CD0C44978392068884217D0C14960396B
:101FF0002068884212D0BF494839206888420DD0F5
:10200000BC4930392068884208D0BA49183920685C
:10201000884203D0B7492068884204D1206800680C
:1020200000F0100003E02068006800F0020028B310
:1020300094F85C0000F01F0120208840B06094F804
:10204000350004282DD12068006820F01600216892
:1020500008602068406920F0800021684861206C99
:1020600008B9A06C28B12068006820F00800216839
:10207000086094F85C0000F01F0100E03FE03F20A2
:102080008840B060012084F8350000BF002084F84B
:10209000340000BF206D10B12046216D8847BDE897
:1020A000F88F2068006800F4802080B12068006804
:1020B00000F4002028B9606C08B32046616C8847A2
:1020C0001DE0E06BD8B12046E16B884717E020683F
:1020D000006800F4807068B92068006820F0100083
:1020E00021680860012084F8350000BF002084F8D2
:1020F000340000BFE06B10B12046E16B8847606D93
:1021000000287AD0606D00F00100E8B3042084F864
:1021100035007949206888424BD0774918312068CA
:10212000884246D0744930312068884241D0724993
:102130004831206888423CD06F496031206888422D
:1021400037D06D4978312068884232D06A49903161
:10215000206888422DD06849A8312068884228D05C
:102160006449A8392068884223D0624990392068A0
:1021700088421ED05F4978392068884219D05D496D
:1021800060392068884200E040E012D0594948395F
:10219000206888420DD0574930392068884208D0DD
:1021A000544918392068884203D05249206888422F
:1021B00006D12068006820F001002168086005E071
:1021C0002068006820F001002168086000BF0098C6
:1021D000401C0090504500D905E02068006800F0E0
:1021E00001000028F3D100BF2068006800F0010062
:1021F00020B1032084F8350003E00DE0012084F8CD
:10220000350000BF002084F8340000BFE06C0028D7
:1022100002D02046E16C8847D9E1384920688842DD
:1022200022D036491431206888421DD033492831E4
:102230002068884218D031493C312068884213D048
:102240002E495031206888420ED02C4964312068D4
:10225000884209D0294978312068884204D027492A
:102260008C312068884201D1012000E00020002844
:10227000D2D02068056894F85C0000F01F010420AB
:10228000884000EA0900D8B305F00400C0B394F810
:102290005C0000F01F0104208840C8F8040005F429
:1022A000004080B105F4803030B9A06C0028B3D074
:1022B0002046A16C88478AE1206C0028ACD02046DB
:1022C000216C884783E105F02000E8BB0A492068BB
:1022D000884253D008491831206888424ED00649B8
:1022E00030312068884249D003494831206888420B
:1022F00044D006E0B80402401000024008540258DE
:102300004FE0B44960312068884237D0B149783114
:102310002068884232D0AF499031206888422DD061
:10232000AC49A8312068884228D0AB49206888424F
:1023300024D0A9491831206888421FD0A6493031DD
:10234000206888421AD000E025E0A349483120687F
:10235000884213D0A0496031206888420ED09E493F
:1023600078312068884209D09B49903120688842A2
:1023700004D09949A8312068884206D120680068B5
:1023800020F008002168086005E02068006820F05F
:10239000040021680860206C10B32046216C884737
:1023A00015E194F85C0000F01F010220884000EA6B
:1023B0000900E8B305F00200D0B394F85C0000F027
:1023C0001F0102208840C8F8040005F4004070B1E5
:1023D00005F4803028B9606C10B12046616C8847E4
:1023E000F5E0E06BF0B32046E16B8847EFE005F0E5
:1023F0002000C0BB7749206888424ED0754918310B
:102400002068884249D0734930312068884244D0DE
:1024100070494831206888423FD06E496031206859
:1024200088423AD06B4978312068884235D000E044
:102430004EE068499031206888422ED06549A83125
:102440002068884229D064492068884225D06249A2
:1024500018312068884220D05F4930312068884296
:102460001BD001E06EE02DE05B49483120688842D6
:1024700013D059496031206888420ED056497831CE
:102480002068884209D0544990312068884204D09D
:102490005149A8312068884206D12068006820F0A0
:1024A00014002168086005E02068006820F00A0038
:1024B00021680860012084F8350000BF002084F8FE
:1024C000340000BFE06BE8B32046E16B88477EE054
:1024D00094F85C0000F01F010820884000EA090021
:1024E00080B305F0080068B33A49206888424BD0B1
:1024F000384918312068884246D036493031206842
:10250000884241D033494831206888423CD0314923
:1025100060312068884237D02E497831206888425F
:1025200032D02C499031206888422DD02949A831D9
:102530002068884228D028492068884224D026492B
:10254000183100E043E0206888421DD02249303134
:102550002068884218D0204948312068884213D02A
:102560001D496031206888420ED01B4978312068AF
:10257000884209D0184990312068884204D0164911
:10258000A8312068884206D12068006820F01C002D
:102590002168086005E02068006820F00E002168CE
:1025A000086094F85C0000F01F0101208840C8F822
:1025B00004000120606584F8350000BF002084F825
:1025C000340000BFE06C10B12046E16C884700BFCA
:1025D00065E5000010000240100402402DE9F041C2
:1025E000044600F0D5FD804614B90120BDE8F08115
:1025F000FE492068884249D0FC4918312068884249
:1026000044D0FA493031206888423FD0F7494831F8
:10261000206888423AD0F54960312068884235D038
:10262000F24978312068884230D0F04990312068F2
:1026300088422BD0ED49A8312068884226D0EC4949
:102640002068884222D0EA491831206888421DD08B
:10265000E74930312068884218D0E5494831206880
:10266000884213D0E2496031206888420ED0E049A8
:1026700078312068884209D0DD499031206888424D
:1026800004D0DB49A8312068884201D1012000E054
:102690000020002873D0606A00B100BF022084F8D7
:1026A000350000BF002084F8340000BFCF49206807
:1026B000884249D0CD4918312068884244D0CB495E
:1026C0003031206888423FD0C8494831206888426C
:1026D0003AD0C64960312068884235D0C349783144
:1026E0002068884230D0C1499031206888422BD080
:1026F000BE49A8312068884226D0BD49206888425A
:1027000022D0BB491831206888421DD0B8493031E9
:102710002068884218D0B64948312068884213D0D2
:10272000B3496031206888420ED0B14978312068C1
:10273000884209D0AE4990312068884204D0AC4923
:10274000A8312068884206D12068006820F0010086
:102750002168086005E02068006820F00100216819
:1027600008600DE000F014FDA0EB0800052807D973
:1027700020206065032084F83500012036E76AE0F8
:102780002068006800F001000028EBD1206805688F
:1027900098480540D4E9020108432169084361696A
:1027A0000843A1690843E1690843216A08430543D6
:1027B000606A042803D1D4E90B01084305438E481D
:1027C00000686FF30F00B0F1005F1DD36068292827
:1027D00002D360682E2811D960683F2802D3606850
:1027E00042280BD96068472802D36068482805D979
:1027F00060684F2804D36068522801D8012000E0A7
:10280000002008B145F480152068056020684569FE
:1028100025F00705606A0543606A04280DD1A06AA7
:102820000543E06A48B12046FEF7F6F928B140209A
:102830006065012084F83500D8E6206845612046AF
:10284000FEF7C6F8064694F85C0000F01F013F2032
:102850008840B0609EE069492068884222D067497C
:102860001431206888421DD064492831206888428C
:1028700018D062493C312068884213D05F495031FA
:10288000206888420ED05D4964312068884209D0B2
:102890005A4978312068884204D058498C312068E0
:1028A000884201D1012000E00020E0B353492068B4
:1028B000884222D051491431206888421DD04F49A6
:1028C00028312068884218D04C493C312068884221
:1028D00013D04A495031206888420ED047496431AC
:1028E0002068884209D0454978312068884204D060
:1028F00042498C312068884201D1012000E000204B
:1029000000B100BF022084F8350000BF002084F829
:10291000340000BF2068056839480540A068402899
:1029200002D1102106E02EE0A068802801D1C1016B
:1029300000E00021E06841EAD001206941EAD001CD
:10294000606941EAD001A06941EAD001E06941EA49
:10295000D001206A41EA101005432068056027492C
:102960002068401A1421B0FBF1F08000E065204699
:10297000FEF72EF8074694F85C0000F01F010120D6
:102980008840786006E040206065032084F83500C8
:1029900001202BE61549206888427FD01349183161
:1029A000206888427AD0114930312068884275D039
:1029B0000E4948312068884270D00C496031206847
:1029C00088426BD0094978312068884266D007492F
:1029D00090312068884261D00449A831206888423B
:1029E0005CD003492068884258D00BE010000240B8
:1029F000100402403F8010FE0010005C0854025892
:102A00000F00FEFF3B4918312068884246D0394903
:102A100030312068884241D03649483120688842A8
:102A20003CD0344960312068884237D03149783110
:102A30002068884232D02F499031206888422DD0BA
:102A40002C49A8312068884228D02B492068884228
:102A500024D029491431206888421FD026492831C2
:102A6000206888421AD024493C312068884215D019
:102A7000214950312068884210D01F4964312068B4
:102A800088420BD01C4978312068884206D01A4908
:102A90008C312068884200E000E001D1012000E094
:102AA000002000B32046FEF709F8A068802801D175
:102AB000002060602079216E0860D4E91910486018
:102AC000606860B16068082809D82046FEF758F8A9
:102AD0000020E16E0860D4E91C10486003E000208B
:102AE000E0662067606700206065012084F835009B
:102AF00000207BE510040240085402582DE9F04103
:102B000004460D4616461F464FF0000814B9012032
:102B1000BDE8F08100BF94F83400012801D1022003
:102B2000F6E7012084F8340000BF94F8350001284E
:102B30007ED1022084F8350000206065E4492068D9
:102B4000884249D0E24918312068884244D0E0499F
:102B50003031206888423FD0DD49483120688842C2
:102B60003AD0DB4960312068884235D0D849783185
:102B70002068884230D0D6499031206888422BD0D6
:102B8000D349A8312068884226D0D249206888429B
:102B900022D0D0491831206888421DD0CD4930312B
:102BA0002068884218D0CB4948312068884213D029
:102BB000C8496031206888420ED0C6497831206803
:102BC000884209D0C34990312068884204D0C14965
:102BD000A8312068884206D12068006820F00100F2
:102BE0002168086005E02068006820F00100216885
:102BF00008603B46324629462046FEF765F8B44950
:102C0000206888424BD0B24918312068884246D0AB
:102C1000AF4930312068884241D0AD494831206801
:102C200088423CD0AA4960312068884237D000E011
:102C300042E1A74978312068884230D0A4499031D8
:102C4000206888422BD0A249A8312068884226D02B
:102C5000A0492068884222D09E49183120688842C5
:102C60001DD09C4930312068884218D0994948319C
:102C70002068884213D097496031206888420ED07E
:102C8000944978312068884209D09249903120686F
:102C9000884204D08F49A8312068884201D10120A0
:102CA00000E0002080B12068006820F01E0040F0A5
:102CB000160021680860206CB0B12068006840F000
:102CC0000800216808600FE02068006820F00E000E
:102CD00040F00A0021680860206C28B12068006874
:102CE00040F004002168086079492068884270D06B
:102CF00077491831206888426BD075493031206897
:102D0000884266D0724948312068884261D0704953
:102D10006031206888425CD06D49783120688842F3
:102D200057D06B4990312068884252D06849A83109
:102D3000206888424DD067492068884249D065495B
:102D400018312068884244D0624930312068884276
:102D50003FD060494831206888423AD05D496031AF
:102D60002068884235D05B4978312068884230D06D
:102D700058499031206888422BD05649A8312068A4
:102D8000884226D054492068884222D052491431C2
:102D9000206888421DD0504928312068884218D0C8
:102DA0004D493C312068884213D04B49503120684E
:102DB00088420ED0484964312068884209D046498B
:102DC00078312068884204D043498C312068884299
:102DD00001D1012000E0002090B1206E006800F4D5
:102DE000803028B1206E006840F48070216E086049
:102DF000E06E28B1E06E006840F48070E16E08601B
:102E000033492068884249D03149183120688842C6
:102E100044D02F493031206888423FD02C49483176
:102E2000206888423AD02A4960312068884235D0EB
:102E3000274978312068884230D025499031206870
:102E400088422BD02249A8312068884226D02149C7
:102E50002068884222D01F491831206888421DD03E
:102E60001C4930312068884218D01A4948312068FE
:102E7000884213D017496031206888420ED0154926
:102E800078312068884209D0124990312068884200
:102E900004D01049A8312068884206D12068006813
:102EA00040F001002168086010E02068006840F0F0
:102EB00001002168086009E04FF40060606500BF10
:102EC000002084F8340000BF4FF0010840461FE6A0
:102ED00010000240100402400854025870B5044625
:102EE00000F056F906462546681C10B104480078E3
:102EF000054400BF00F04CF9801BA842FAD370BD16
:102F00001C0000240348006840F0010001490860EB
:102F1000704700002004005810B50446142004F047
:102F20005FFF082C02D0802C0AD104E00221064861
:102F300000F018F905E00121034800F013F900E062
:102F400000BF00BF10BD00000004025810B50446C9
:102F500004480068204020B1024804602046FFF782
:102F6000DBFF10BD88000058F8B502460B46002173
:102F70006F4DD7E001278F401E6806EA0704002C3A
:102F800072D01E7906F00306012E04D01E7906F0D9
:102F90000306022E13D190684F000326BE40B043B3
:102FA0004F00DE68BE4030439060506801268E407E
:102FB000B0431E79C6F300168E40304350601E7930
:102FC00006F00306032E09D0D0684F000326BE404A
:102FD000B0434F009E68BE403043D0601E7906F07B
:102FE0000306022E13D1CF0802F1200656F827005F
:102FF0004E07F70E0F26BE40B0434F07FF0E1E6967
:10300000BE403043CF0802F1200646F82700106882
:103010004F000326BE40B0431E7906F003064F0062
:10302000BE40304310605E6806F44036002E78D013
:1030300000BF404E366846F002063E4F3E603E46B8
:10304000366806F00206009600BF00BF3A4E8F08B1
:1030500056F827008E07370F0F26BE40B043374E75
:10306000B24202D100262EE05BE0354EB24201D1E1
:10307000012628E0334EB24201D1022623E0324E2F
:10308000B24201D103261EE0304EB24201D10426E5
:1030900019E02F4EB24201D1052614E02D4EB24266
:1030A00001D106260FE02C4EB24201D107260AE0DC
:1030B0002A4EB24201D1082605E0294EB24201D182
:1030C000092600E00A268F073F0FBE4030431A4E04
:1030D0008F0846F827004FF0B0463068A0435E687E
:1030E00006F4801606B120434FF0B0463060706899
:1030F000A0435E6806F4001606B120434FF0B046C8
:1031000070606868A0435E6806F4003606B120432C
:1031100068602868A0435E6806F4803606B12043E4
:103120002860491C1E68CE40002E7FF423AFF8BDF6
:1031300080000058F4440258080400580000025867
:103140000004025800080258000C025800100258EF
:103150000014025800180258001C0258002002589F
:103160000024025810B5426921EA020302EA010470
:1031700043EA0443836110BD0AB1816101E00B049D
:103180008361704701480068000C70470010005CC4
:1031900001480068704700001400002403480068DC
:1031A0000349097808440149086070471400002465
:1031B0001C00002410B5052000F0AAF801F0B6FAB2
:1031C00010490968C1F303210F4A515C01F01F0146
:1031D00020FA01F40B48006800F00F001146085C6B
:1031E00000F01F0024FA00F0084908600848046055
:1031F0000F2000F00FF808B1012010BD00F036F8E4
:103200000020FAE718440258A680000804000024B1
:103210000000002470B504461148007808B9012068
:1032200070BD0F4800784FF47A71B1FBF0F00D4992
:103230000968B1FBF0F5284601F0A2FF08B10120B2
:10324000EEE7102C07D200222146501E00F023F892
:103250000548046001E00120E2E70020E0E700000B
:103260001C000024000000241800002470470146C0
:10327000084600280DDB00BF00BF00F01F0301223D
:103280009A4043099B0003F1E023C3F8002100BFEB
:1032900000BF00BF70472DE9F05F80460D4616461F
:1032A00004F044FD074639462A46334601F007003C
:1032B000C0F1070ABAF1040F02D94FF0040A01E085
:1032C000C0F1070AD14600F1040ABAF1070F02D291
:1032D0004FF0000A01E0A0F1030AD4464FF0010AC2
:1032E0000AFA09FAAAF1010A0AEA020A0AFA0CFA27
:1032F0004FF0010B0BFA0CFBABF1010B0BEA030BCC
:103300004AEA0B042146404604F018FDBDE8F09F50
:1033100000BF00F00702064B19684FF6FF03194083
:10332000044B0B4343EA0221014B196000BF704775
:103330000CED00E00000FA0500BF00BF00BF00BFB9
:1033400000BFBFF34F8F00BF00BF00BF0948006838
:1033500000F4E06008490843001D0649086000BF0A
:1033600000BF00BFBFF34F8F00BF00BF00BF00BF53
:1033700000BFFDE70CED00E00000FA05034800681F
:1033800040F0807001490860704700000C48025806
:1033900010B501F081F905490968C1F30211044A29
:1033A000515C01F01F01C84010BD000020440258CC
:1033B000A680000870B50146844D2D6805F0030312
:1033C000824D2D68C5F30530804D2D1D2D68C5F348
:1033D00000147E4D14352D68C5F3CC0515FB04F59E
:1033E00001EE105AB8EE411AF0EE410A00286FD0F3
:1033F00023B1012B4ED0022B6BD16BE0734D283DD6
:103400002D68C5F340153DB3704D283D2D68C5F3BB
:10341000C1066F4D25FA06F201EE102AF8EE411AA8
:1034200001EE100AB8EE411A81EE812A9FED691A69
:10343000C0EE811A654D10352D68C5F3080501EE03
:10344000105AB8EE411A31EE811AF7EE001A31EE39
:10345000211A22EE010A1CE001EE100AB8EE411A10
:10346000DFED5D1A81EE812A9FED5A1AC0EE811AB6
:10347000564D10352D68C5F3080501EE105AB8EE0B
:10348000411A31EE811AF7EE001A31EE211A22EEBE
:10349000010A5BE001EE100AB8EE411ADFED4F1AA7
:1034A00081EE812A9FED4B1AC0EE811A474D1035EF
:1034B0002D68C5F3080501EE105AB8EE411A31EE39
:1034C000811AF7EE001A31EE211A22EE010A3DE0D0
:1034D00077E01DE001EE100AB8EE411A9FED402A98
:1034E000C2EE011A9FED3B1A80EE812A374D10354E
:1034F0002D68C5F3080501EE105AB8EE411A32EEF8
:10350000011AB7EE002A31EE021A21EE810A1DE0FF
:1035100001EE100AB8EE411ADFED301A81EE812A71
:103520009FED2C1AC0EE811A284D10352D68C5F379
:10353000080501EE105AB8EE411A31EE811AF7EE85
:10354000001A31EE211A22EE010A00BF00BF1F4D02
:1035500010352D68C5F3462501EE105AB8EE411A14
:10356000F7EE001A31EE211AC0EE011ABCEEE11A94
:1035700081ED001A154D10352D68C5F3064501EE95
:10358000105AB8EE411AF7EE001A31EE211AC0EEC9
:10359000011ABCEEE11A81ED011A0C4D10352D68AF
:1035A000C5F3066501EE105AB8EE411AF7EE001A9F
:1035B00031EE211AC0EE011ABCEEE11A81ED021AB9
:1035C00003E000250D604D608D6070BD28440258F9
:1035D0000090D003000000460024744C0024744A7C
:1035E00020BCBE4B70B50146844D2D6805F0030329
:1035F000824D2D68C5F30550804D2D1D2D68C5F3F6
:1036000000247E4D1C352D68C5F3CC0515FB04F553
:1036100001EE105AB8EE411AF0EE410A00286FD0C0
:1036200023B1012B4ED0022B6BD16BE0734D283DA3
:103630002D68C5F340153DB3704D283D2D68C5F389
:10364000C1066F4D25FA06F201EE102AF8EE411A76
:1036500001EE100AB8EE411A81EE812A9FED691A37
:10366000C0EE811A654D18352D68C5F3080501EEC9
:10367000105AB8EE411A31EE811AF7EE001A31EE07
:10368000211A22EE010A1CE001EE100AB8EE411ADE
:10369000DFED5D1A81EE812A9FED5A1AC0EE811A84
:1036A000564D18352D68C5F3080501EE105AB8EED1
:1036B000411A31EE811AF7EE001A31EE211A22EE8C
:1036C000010A5BE001EE100AB8EE411ADFED4F1A75
:1036D00081EE812A9FED4B1AC0EE811A474D1835B5
:1036E0002D68C5F3080501EE105AB8EE411A31EE07
:1036F000811AF7EE001A31EE211A22EE010A3DE09E
:1037000077E01DE001EE100AB8EE411A9FED402A65
:10371000C2EE011A9FED3B1A80EE812A374D183513
:103720002D68C5F3080501EE105AB8EE411A32EEC5
:10373000011AB7EE002A31EE021A21EE810A1DE0CD
:1037400001EE100AB8EE411ADFED301A81EE812A3F
:103750009FED2C1AC0EE811A284D18352D68C5F33F
:10376000080501EE105AB8EE411A31EE811AF7EE53
:10377000001A31EE211A22EE010A00BF00BF1F4DD0
:1037800018352D68C5F3462501EE105AB8EE411ADA
:10379000F7EE001A31EE211AC0EE011ABCEEE11A62
:1037A00081ED001A154D18352D68C5F3064501EE5B
:1037B000105AB8EE411AF7EE001A31EE211AC0EE97
:1037C000011ABCEEE11A81ED011A0C4D18352D6875
:1037D000C5F3066501EE105AB8EE411AF7EE001A6D
:1037E00031EE211AC0EE011ABCEEE11A81ED021A87
:1037F00003E000250D604D608D6070BD28440258C7
:103800000090D003000000460024744C0024744A49
:1038100020BCBE4B2DE9F04104460025A846206897
:1038200000F00060B0F1006F30D1606E48B1B0F5CB
:10383000801F0DD0B0F5001F10D0B0F5401F15D17E
:1038400013E0F948006840F40030F74908600FE0E1
:103850000221201D02F0CEFC054609E0022104F100
:10386000240002F079FD054602E001E0012500BFD9
:1038700000BF55B9EC482430006820F44010616E58
:103880000843E9492431086000E0A846208800F494
:103890008070B0F5807F2DD1606D05281AD2DFE8E9
:1038A00000F0030A10171800DF48006840F40030E9
:1038B000DD49086010E00021201D02F09BFC054658
:1038C0000AE0002104F1240002F046FD054603E071
:1038D00002E001E0012500BF00BF55B9D248243005
:1038E000006820F00700616D0843CF49243108606B
:1038F00000E0A846208800F40070B0F5007F33D1C6
:10390000A06D802817D003DC40B140281CD10CE00A
:10391000C02817D0B0F5807F16D114E0C2480068E7
:1039200040F40030C049086010E00021201D02F082
:1039300061FC05460AE0002104F1240002F00CFDC0
:10394000054603E002E001E0012500BF00BF55B9D4
:10395000B5482430006820F4E070A16D0843B249F6
:103960002431086000E0A846208800F48060B0F5AB
:10397000806F38D1D4F8A400B0F5800F19D004DCE2
:1039800050B1B0F5001F1DD10DE0B0F5C00F17D03C
:10399000B0F5000F16D114E0A348006840F40030E1
:1039A000A149086010E00021201D02F023FC05461B
:1039B0000AE0002104F1240002F0CEFC054603E0F9
:1039C00002E001E0012500BF00BF5DB996482C3040
:1039D000006820F46000D4F8A410084392492C3108
:1039E000086000E0A846208800F40060B0F5006F91
:1039F00038D1D4F8A800B0F1007F19D004DC50B160
:103A0000B0F1807F1DD10DE0B0F1407F17D0B0F153
:103A1000806F16D114E08448006840F40030824979
:103A2000086010E00021201D02F0E4FB05460AE0DA
:103A3000002104F1240002F08FFC054603E002E0BF
:103A400001E0012500BF00BF5DB977482C30006858
:103A500020F0E060D4F8A810084373492C310860C6
:103A600000E0A846206800F00070B0F1007F27D188
:103A7000A06CA0B1102804D0202809D030280FD184
:103A80000CE06948006840F400306749086009E0CC
:103A90000221201D02F0AEFB054603E002E001E03A
:103AA000012500BF00BF55B95F482030006820F0F5
:103AB0003000A16C08435C492031086000E0A84652
:103AC000208800F48050B0F5805F36D1E06DB0F50D
:103AD000005F19D004DC50B1B0F5805F1DD10DE05E
:103AE000B0F5405F17D0B0F5804F16D114E04E48C6
:103AF000006840F400304C49086010E00021201DAF
:103B000002F078FB05460AE0002104F1240002F0EF
:103B100023FC054603E002E001E0012500BF00BFF1
:103B200055B941482430006820F4E040E16D084375
:103B30003D492431086000E0A846208800F4005088
:103B4000B0F5005F34D1206EB0F5403F1DD007DCEA
:103B500068B1B0F5803F0BD0B0F5003F18D10DE053
:103B6000B0F5802F12D0B0F5A02F11D10FE011E0E9
:103B70000121201D02F03EFB05460BE0012104F16E
:103B8000240002F0E9FB054604E003E002E001E066
:103B9000012500BF00BF55B923482430006820F438
:103BA000E020216E084320492431086000E0A84647
:103BB000208800F48040B0F5804F38D1D4F8AC00B4
:103BC000B0F1405F1DD007DC68B1B0F1805F0BD071
:103BD000B0F1005F18D10DE0B0F1804F12D0B0F11C
:103BE000A04F11D10FE011E00121201D02F002FBD6
:103BF00005460BE0012104F1240002F0ADFB05466F
:103C000004E003E002E001E0012500BF00BF6DB960
:103C100005482C30006820F0E040D4F8AC10084390
:103C200001492C31086002E02C440258A846208843
:103C300000F40040B0F5004F26D1E06E98B1B0F12D
:103C4000805F03D0B0F1005F0ED106E0F948006854
:103C500040F40030F749086008E00121201D02F01F
:103C6000C9FA054602E001E0012500BF00BF55B9D1
:103C7000F0482430006820F04050E16E0843ED49E0
:103C80002431086000E0A846206800F08070B0F1A0
:103C9000807F27D1606CA0B1012804D0022809D010
:103CA00003280FD10CE0E348006840F40030E149FC
:103CB000086009E00221201D02F09CFA054603E09D
:103CC00002E001E0012500BF00BF55B9D94820300E
:103CD000006820F00300616C0843D6492031086079
:103CE00000E0A846206800F48000B0F5800F7DD188
:103CF000D148006840F48070CF490860FFF748FA67
:103D0000064606E0FFF744FA801B642801D9032524
:103D100005E0C948006800F480700028F2D000BFB8
:103D200085BBC4484430006800F44070B4F8B0105B
:103D300001F44071884213D0BE484430006820F43A
:103D40004077BC484430006840F48030B949443181
:103D500008600846006820F4803008600846076064
:103D6000D4F8B000B0F5807F15D1FFF711FA064600
:103D700009E0FFF70DFA801B41F28831884202D931
:103D8000032507E038E0AB4844300068C0F340004A
:103D90000028EED000BF55BB00BFB4F8B00000F45F
:103DA0004070B0F5407F0ED1A2481C38006820F466
:103DB0007C51A24AD4F8B000104041EA10109D494D
:103DC0001C39086007E09B481C38006820F47C50D0
:103DD00098491C390860974844300068B4F8B0101E
:103DE000C1F30B0108439349443101E005E001E0D0
:103DF000086002E0A84600E0A846207800F0010034
:103E000068B3A06F182819D005DC48B1082808D07D
:103E1000102816D10BE0202811D0282811D10FE04E
:103E200011E00121201D02F0E5F905460BE001211A
:103E300004F1240002F090FA054604E003E002E0F9
:103E400001E0012500BF00BF55B97A48283000685D
:103E500020F03800A16F084376492831086000E05F
:103E6000A846207800F00200022828D1606F0628BA
:103E700015D2DFE800F003040A11121311E001214A
:103E8000201D02F0B7F905460BE0012104F12400E2
:103E900002F062FA054604E003E002E001E00125D9
:103EA00000BF00BF55B963482830006820F0070004
:103EB000616F08435F492831086000E0A846207818
:103EC00000F0040004282AD1D4F89000062815D266
:103ED000DFE800F003040A11121311E00121201D94
:103EE00002F088F905460BE0012104F1240002F0FC
:103EF00033FA054604E003E002E001E0012500BFDB
:103F000000BF5DB94B482C30006820F00700D4F8A2
:103F10009010084347492C31086000E0A8462078FB
:103F200000F02000202836D1D4F88C00B0F1405F9A
:103F30001DD007DC68B1B0F1805F0BD0B0F1005F3D
:103F400018D10DE0B0F1804F12D0B0F1A04F11D1D7
:103F50000FE011E00021201D02F04CF905460BE0B6
:103F6000022104F1240002F0F7F9054604E003E021
:103F700002E001E0012500BF00BF5DB92D482830F7
:103F8000006820F0E040D4F88C100843294928311B
:103F9000086000E0A846207800F04000402836D1B4
:103FA000D4F89800B0F5406F1DD007DC68B1B0F5CB
:103FB000806F0BD0B0F5006F18D10DE0B0F5805FC9
:103FC00012D0B0F5A05F11D10FE011E00021201D4B
:103FD00002F010F905460BE0022104F1240002F082
:103FE000BBF9054604E003E002E001E0012500BF63
:103FF00000BF5DB90F482C30006820F4E050D4F8C1
:10400000981008430B492C31086000E0A84620783E
:1040100000F0800080283AD1D4F89C00B0F5C04F61
:1040200023D00DDC98B1B0F5005F11D0B0F5804F12
:104030001ED113E02C44025800480258FFFCFF0F29
:10404000B0F5004F12D0B0F5204F11D10FE011E0C4
:104050000021201D02F0CEF805460BE0022104F1FC
:10406000240002F079F9054604E003E002E001E0F3
:10407000012500BF00BF4DB9BE48006820F4604074
:10408000D4F89C100843BB49086000E0A84620789B
:1040900000F00800082817D1D4F88000B0F5805F40
:1040A00007D1022104F1240002F056F908B14FF0C3
:1040B0000108B048001F006820F44050D4F8801078
:1040C0000843AC49091F0860207800F01000102850
:1040D00015D1D4F89400B0F5807F07D1022104F106
:1040E000240002F039F908B14FF00108A148006836
:1040F00020F44070D4F8941008439E49086020686A
:1041000000F40020B0F5002F26D1D4F8A00030B183
:10411000B0F5803F09D0B0F5003F0ED10CE0002192
:10412000201D02F067F8054609E0022104F1240091
:1041300002F012F9054602E001E0012500BF00BFD0
:104140004DB98C48006820F44030D4F8A0100843E2
:104150008849086000E0A846206800F48020B0F597
:10416000802F2DD1D4F88400B0F5801F06D0B0F593
:10417000001F0CD0B0F5401F11D10FE07D482C3846
:10418000006840F400307B492C39086009E00121C7
:1041900004F1240002F0E0F8054602E001E0012508
:1041A00000BF00BF5DB97348001F006820F44010D5
:1041B000D4F8841008436F49091F086000E0A8463E
:1041C000206800F48030B0F5803F24D1E06C18B155
:1041D000B0F5803F0FD108E066482C38006840F405
:1041E000003064492C39086007E00221201D02F0EC
:1041F00001F8054601E0012500BF00BF55B95D4843
:104200000C38006820F48030E16C084359490C39BF
:10421000086000E0A846206800F00050B0F1005FA0
:1042200007D1022104F1240002F096F808B14FF002
:104230000108206800F40030B0F5003F27D1E06F9E
:10424000A0B1B0F5807F06D0B0F5007F0CD0B0F5FE
:10425000407F0CD109E047482C38006840F400301A
:1042600044492C39086004E003E002E001E0012544
:1042700000BF00BF55B93F48001F006820F44070E0
:10428000E16F08433B49091F086000E0A846206829
:1042900000F48010B0F5801F09D136480838006856
:1042A00020F00040216F0843324908390860206837
:1042B00000F08050B0F1805F0AD12E484838006885
:1042C00020F48040D4F8B41008432A4948390860E3
:1042D000206800F40010B0F5001F09D12548083807
:1042E000006820F08070A16E0843224908390860F8
:1042F000206800F08040B0F1804F11D100BF1D4810
:104300004838006820F400401A49483908600846D7
:104310000068D4F8B810084316494839086000BF4F
:10432000206800F00040B0F1004F09D111480C386E
:10433000006820F04050216D08430E490C39086098
:10434000206800F40000B0F5000F0AD10948001FF2
:10435000006820F44000D4F8881008430549091F7C
:104360000860B8F1000F02D10020BDE8F081012003
:10437000FBE70000584402582DE9F04104460D4681
:1043800014B90120BDE8F081BD48006800F00F00BD
:10439000A8420ED2BA48006820F00F002843B8495E
:1043A00008600846006800F00F00A84201D0012014
:1043B000E8E7207800F0040004280ED1B149206914
:1043C000096801F07001884207D9AE48006820F002
:1043D000700021690843AB490860207800F00800AC
:1043E000082811D1A749091D6069096801F0700109
:1043F000884209D9A348001D006820F07000616957
:104400000843A049091D0860207800F0100010281A
:1044100011D19C49091DA069096801F4E061884235
:1044200009D99848001D006820F4E060A16908439C
:104430009449091D0860207800F02000202811D13F
:1044400090490831E069096801F07001884209D992
:104450008C480830006820F07000E1690843894901
:1044600008310860207800F0020002280ED185494A
:10447000E068096801F00F01884207D981480068A7
:1044800020F00F00E16808437E490860207800F0C2
:104490000100002850D07B48006820F47060A168BB
:1044A0000843784908606068022807D175481838C1
:1044B0000068C0F34040F8B9012063E76068032852
:1044C00007D1704818380068C0F34060A0B90120D7
:1044D00058E76068012807D16A4818380068C0F3B7
:1044E000002048B901204DE7664818380068C0F33D
:1044F000800008B9012045E762480838006820F0CC
:104500000700616808435F4908390860FEF740FE0C
:10451000064608E0FEF73CFE801B41F288318842E7
:1045200001D903202EE757480838006800F038000A
:104530006168B0EBC10FEDD1207800F002000228D5
:104540000ED15049E068096801F00F01884207D296
:104550004C48006820F00F00E168084349490860B2
:104560004748006800F00F00A8420ED94448006890
:1045700020F00F002843424908600846006800F018
:104580000F00A84201D00120FCE6207800F00400D2
:1045900004280ED13B492069096801F07001884266
:1045A00007D23848006820F0700021690843354977
:1045B0000860207800F00800082811D13149091D51
:1045C0006069096801F07001884209D22D48001D18
:1045D000006820F07000616908432A49091D0860DD
:1045E000207800F01000102811D12649091DA0697B
:1045F000096801F4E061884209D22248001D006880
:1046000020F4E060A16908431E49091D0860207874
:1046100000F02000202811D11A490831E06909680A
:1046200001F07001884209D216480830006820F075
:104630007000E169084313490831086000F076F81A
:1046400010490968C1F303210F4A515C01F01F01B1
:1046500020FA01F70B48006800F00F001146085CD3
:1046600000F01F0027FA00F00849086008480760BA
:1046700008480068FEF7CEFD8046404682E600000E
:104680000020005218440258A680000804000024AC
:10469000000000241800002410B500F047F80D4970
:1046A0000968C1F303210C4A515C01F01F0120FA93
:1046B00001F40848006800F00F001146085C00F0A3
:1046C0001F0024FA00F00549086005480460084608
:1046D000006810BD18440258A68000080400002499
:1046E0000000002400B5FFF7D7FF05490968C1F3B2
:1046F0000211044A515C01F01F01C84000BD0000D6
:104700001C440258A680000800B5FFF7C5FF054904
:104710000968C1F30221044A515C01F01F01C8403D
:1047200000BD00001C440258A6800008F0B5824E6F
:10473000366806F0380636B1082E15D0102E15D082
:10474000182E7DD114E07C4E103E3668C6F340161C
:1047500046B1794E103E3668C6F3C107774E26FA49
:1047600007F000E07548E5E07548E3E07548E1E0F2
:10477000714E1836366806F003046F4E18363668E8
:10478000C6F305116C4E1C36366806F001056A4EFC
:1047900024363668C6F3CC0616FB05F601EE106A21
:1047A000B8EE410A002971D024B1012C50D0022C5E
:1047B0006DD16DE0604E103E3668C6F340163EB3D4
:1047C0005D4E103E3668C6F3C1075C4E26FA07F30D
:1047D00001EE103AF8EE411A01EE101AB8EE411A45
:1047E00081EE812A9FED581AC0EE011A524E2036F2
:1047F0003668C6F3080601EE106AB8EE411A31EECB
:10480000811AF7EE001A31EE211A62EE010A1EE05B
:1048100001EE101AB8EE411ADFED4C1A81EE812A32
:104820009FED491AC0EE011A434E20363668C6F392
:10483000080601EE106AB8EE411A31EE811A00E066
:1048400076E0F7EE001A31EE211A62EE010A5BE023
:1048500001EE101AB8EE411A9FED3D2AC2EE011A80
:104860009FED391A80EE012A334E20363668C6F3A2
:10487000080601EE106AB8EE411A32EE011AB7EEE0
:10488000002A31EE021A61EE810A3DE04EE01DE0A1
:1048900001EE101AB8EE411ADFED2E1A81EE812AD0
:1048A0009FED291AC0EE011A234E20363668C6F352
:1048B000080601EE106AB8EE411A31EE811AF7EEE1
:1048C000001A31EE211A62EE010A1DE001EE101A03
:1048D000B8EE411A9FED1E2AC2EE011A9FED1A1A78
:1048E00080EE012A144E20363668C6F3080601EE23
:1048F000106AB8EE411A32EE011AB7EE002A31EE14
:10490000021A61EE810A00BF00BF0B4E20363668E6
:10491000C6F34626721C01EE102AB8EE411AC0EE0C
:10492000811ABCEEE11A11EE100A00E0002001E04D
:10493000034800BF00BFF0BD104402580090D003F0
:1049400000093D0040787D01000000460024744CC1
:104950000024744A20BCBE4B2DE9F047044614B92C
:104960000120BDE8F087207800F00100002870D019
:10497000FA48006800F03808F8481830D0F800907D
:10498000B8F1100F06D0B8F1180F0FD109F00300DD
:1049900002280BD1F14810380068C0F340400028CD
:1049A0006AD06068002867D10120DAE700BF60683C
:1049B000B0F5803F08D1E9481038006840F48030F5
:1049C000E649103908602EE0606868B9E34810389D
:1049D000006820F48030E14910390860084600681A
:1049E00020F4802008601EE06068B0F5A02F0DD193
:1049F000DA481038006840F48020D849103908603F
:104A00000846006840F4803008600CE0D348103855
:104A1000006820F48030D1491039086008460068E9
:104A200020F48020086000BF606898B1FEF7B0FBFA
:104A3000054606E0FEF7ACFB401B642801D90320C5
:104A40008FE7C64810380068C0F340400028F1D016
:104A500012E012E0FEF79CFB054606E0FEF798FB2D
:104A6000401B642801D903207BE7BC48103800684C
:104A7000C0F340400028F1D100BF207800F00200D0
:104A8000022874D1B548006800F03808B3481830DF
:104A9000D0F80090B8F1000F05D0B8F1180F56D13A
:104AA00009F00300D0BBAD4810380068C0F38000A7
:104AB00018B1E06808B9012053E7A8481038006829
:104AC00020F01900E1680843A44910390860FEF796
:104AD0005FFB054606E0FEF75BFB401B022801D9A1
:104AE00003203EE79D4810380068C0F3800000288E
:104AF000F1D000BFFEF746FB41F2030188421AD80D
:104B0000206940280BD195480C38006820F47C308F
:104B100040F4003091490C39086017E017E08F48E5
:104B20000C38006820F47C30216940EA01308B4960
:104B30000C3908600AE089480C38006820F0FE4013
:104B4000217C40EA016085490C39086066E0E06834
:104B500088B382481038006820F01900E1680843E3
:104B60007E4910390860FEF713FB054607E056E062
:104B7000FEF70EFB401B022801D90320F1E677481F
:104B800010380068C0F380000028F1D000BFFEF7A5
:104B9000F9FA41F2030188421AD8206940280BD162
:104BA0006E480C38006820F47C3040F400306B49CB
:104BB0000C39086017E017E068480C38006820F4EA
:104BC0007C30216940EA013064490C3908600AE010
:104BD00062480C38006820F0FE40217C40EA016009
:104BE0005E490C39086019E05C481038006820F014
:104BF00001005A4910390860FEF7CAFA054606E076
:104C0000FEF7C6FA401B022801D90320A9E6534843
:104C100010380068C0F380000028F1D100BF207870
:104C200000F0100010287CD14C48006800F03808D3
:104C30004A481830D0F80090B8F1080F06D0B8F103
:104C4000180F3DD109F00300012839D1434810382D
:104C50000068C0F3002020B1E069802801D0012065
:104C60007FE600BFFEF78EFA41F2030188421AD8B0
:104C7000206A20280AD139480C38006820F0F84012
:104C800040F0804035490C39086018E033480C3852
:104C9000006820F0F84094F8201040EA81602F4925
:104CA0000C3908600BE02D48001F006820F07C5094
:104CB00094F8201040EA01602849091F086066E066
:104CC000E06978B325481038006840F08000234937
:104CD00010390860FEF75CFA054606E0FEF758FA60
:104CE000401B022801D903203BE61C48103800680D
:104CF000C0F300200028F1D000BFFEF743FA41F2D4
:104D0000030188421CD8206A20280CD113480C3893
:104D1000006820F0F84040F0804010490C390860ED
:104D20001AE035E01CE00D480C38006820F0F8402F
:104D300094F8201040EA816008490C3908600BE0C3
:104D40000648001F006820F07C5094F8201040EACC
:104D500001600249091F086019E000001044025870
:104D6000FA48006820F08000F8490860FEF710FA61
:104D7000054606E0FEF70CFA401B022801D9032085
:104D8000EFE5F2480068C0F300200028F2D100BF30
:104D9000207800F00800082836D16069D0B1EB48CF
:104DA0007430006840F00100E84974310860FEF793
:104DB000EFF9054606E0FEF7EBF9401B022801D9A2
:104DC0000320CEE5E14874300068C0F340000028BD
:104DD000F1D019E0DD487430006820F00100DB49B3
:104DE00074310860FEF7D4F9054606E0FEF7D0F905
:104DF000401B022801D90320B3E5D4487430006871
:104E0000C0F340000028F1D1207800F020002028D5
:104E100030D1A069B8B1CD48006840F48050CB498A
:104E20000860FEF7B5F9054606E0FEF7B1F9401B4C
:104E3000022801D9032094E5C4480068C0F340303B
:104E40000028F2D016E0C148006820F48050BF4925
:104E50000860FEF79DF9054606E0FEF799F9401B4C
:104E6000022801D903207CE5B8480068C0F340302F
:104E70000028F2D1207800F0040004287DD1B44845
:104E8000006840F48070B2490860FEF781F9054679
:104E900006E0FEF77DF9401B642801D9032060E598
:104EA000AB48006800F480700028F2D000BFA06812
:104EB000012808D1A5487030006840F00100A349DE
:104EC000703108602DE0A06868B9A04870300068B3
:104ED00020F001009D49703108600846006820F00C
:104EE000040008601DE0A06805280DD197487030C7
:104EF000006840F004009549703108600846006879
:104F000040F0010008600CE090487030006820F02C
:104F100001008E49703108600846006820F00400E6
:104F2000086000BFA068A0B1FEF732F9054608E0AE
:104F3000FEF72EF9401B41F28831884201D9032047
:104F40000FE5824870300068C0F340000028EFD0C1
:104F500013E0FEF71DF9054608E0FEF719F9401BBE
:104F600041F28831884201D90320FAE47748703051
:104F70000068C0F340000028EFD1606A00287DD0AF
:104F800072481030006800F03800182877D0606A46
:104F9000022875D16D48006820F080706B49086068
:104FA000FEF7F6F8054606E0FEF7F2F8401B022889
:104FB00001D90320D5E465480068C0F340600028AB
:104FC000F2D100BFD4E90A1041EA00105F4928314C
:104FD000096840F2F332914308435C492831086084
:104FE000208E401EC0F30800616B491E4FF47E42C4
:104FF00002EA41210843218F491ED20102EA014100
:1050000008433C21095D491E120202EA016108437E
:105010004E493031086000BF081F006820F00100D1
:10502000091F08604948343000684FF6F87188431A
:10503000A16C40EAC10045493431086043482C3036
:10504000006820F00C00216C084340492C310860B6
:105050000846006820F00200616C08433B492C318F
:1050600008600846006840F4803008600846006820
:1050700040F4003008600846006802E06AE038E06A
:105080001FE040F4802008600846006840F00100FE
:1050900008602E48006840F080702C490860FEF7D8
:1050A00077F8054606E0FEF773F8401B022801D9A1
:1050B000032056E425480068C0F340600028F2D081
:1050C00048E02248006820F0807020490860FEF720
:1050D0005FF8054606E0FEF75BF8401B022801D9A1
:1050E00003203EE419480068C0F340600028F2D174
:1050F00030E0164828300768144830300668606A87
:10510000012821D007F00301A06A81421CD1C7F316
:105110000511E06A884217D1C6F30801206B401ED2
:10512000814211D1606B401EC6F3462188420BD1EB
:10513000A06B401EC6F30641884205D1E06B401EBD
:10514000C6F30661884205D001200AE400440258F3
:1051500000480258002004E4042808D14FF0E02160
:10516000096941F004014FF0E022116107E04FF0BE
:10517000E021096921F004014FF0E022116170473C
:1051800070B504462546681EB0F1807F01D301202A
:105190000FE0681E4FF0E02148610F214FF0FF3013
:1051A00002F0CCFD00204FF0E0218861072008616B
:1051B000002070BD704770477047704710B50446B7
:1051C00020680069C0F34000D8B12068C068C0F30F
:1051D0004000B0B16FF00200216808610120207723
:1051E0002068806900F0030018B12046FFF7E5FF52
:1051F00005E0204600F0BEF8204600F0BCF8002094
:10520000207720680069C0F38000D8B12068C068AA
:10521000C0F38000B0B16FF0040021680861022083
:1052200020772068806900F4407018B12046FFF7AD
:10523000C4FF05E0204600F09DF8204600F09BF8F2
:105240000020207720680069C0F3C000D8B1206832
:10525000C068C0F3C000B0B16FF0080021680861F9
:10526000042020772068C06900F0030018B12046B0
:10527000FFF7A3FF05E0204600F07CF8204600F091
:105280007AF80020207720680069C0F30010D8B1B8
:105290002068C068C0F30010B0B16FF01000216842
:1052A0000861082020772068C06900F4407018B1B8
:1052B0002046FFF782FF05E0204600F05BF820461D
:1052C00000F059F8002020772068006900F0010004
:1052D00058B12068C06800F0010030B16FF00100E3
:1052E00021680861204600F047F820680069C0F393
:1052F000C01058B12068C068C0F3C01030B16FF062
:105300008000216808612046FFF755FF206800698A
:10531000C0F3002058B12068C068C0F3C01030B19D
:105320006FF48070216808612046FFF743FF206812
:105330000069C0F3801058B12068C068C0F38010C5
:1053400030B16FF0400021680861204600F015F888
:1053500020680069C0F3401058B12068C068C0F3ED
:10536000401030B16FF02000216808612046FFF73F
:1053700023FF10BD7047704770477047014600BF5C
:1053800091F88000012801D102207047012081F8A6
:10539000800000BF2420C1F8840008680268086803
:1053A000006820F001000B68186022F00052002015
:1053B0004866086802602020C1F8840000BF002011
:1053C00081F8800000BF00BFDFE72DE9F04104460F
:1053D0000E461746D4F8880020282DD106B117B9FB
:1053E0000120BDE8F08100BF94F88000012801D1C0
:1053F0000220F6E7012084F8800000BFE0663A460C
:105400003146204602F0A0FA05469DB9E06E01281B
:105410000FD110202168086200BF00BF216851E849
:10542000001F41F01000226842E800010029F5D178
:1054300000E001252846D4E70220D2E770B50446F3
:105440000D464648844203D145A0FBF717F884E097
:10545000494884427ED1494800684949884258D029
:105460004648006846491831884252D0434800688F
:105470004349303188424CD0404800684049483167
:10548000884246D03D4800683D496031884240D05E
:105490003A4800683A49783188423AD0374800683B
:1054A00037499031884234D0344800683449A831B3
:1054B00088422ED0314800683249884229D02F488E
:1054C000006830491831884223D02C4800682D49A3
:1054D000303188421DD0294800682A494831884225
:1054E00017D02648006827496031884211D02348E8
:1054F00000682449783188420BD02048006821494F
:105500009031884205D01D4800681E49A831884264
:1055100003D11A480068406802E0184800684068F3
:105520001549B1F85C10081A1749A1F86C0002205F
:105530004870084680785A2805D10846C078A528C2
:1055400001D101200870FBF7FBFC64220E49891C85
:10555000094800E001E0FFF738FF70BDE8000024D3
:105560007573617274312072656365697665642054
:105570006F6B0D0A00000000E40200247403002495
:105580001000024010040240DC010024704770B596
:1055900004460D4600BF94F88000012801D1022086
:1055A00070BD012084F8800000BF2420C4F884006E
:1055B000206806682068006820F001002168086003
:1055C0002068806820F06060284321688860204659
:1055D00001F068FA206806602020C4F8840000BF4B
:1055E000002084F8800000BF00BFD9E770B50446F2
:1055F0000D4600BF94F88000012801D1022070BD43
:10560000012084F8800000BF2420C4F884002068B2
:1056100006682068006820F00100216808602068A2
:10562000806820F06040284321688860204601F0AF
:1056300039FA206806602020C4F8840000BF0020EA
:1056400084F8800000BF00BFD9E7704770470000B2
:1056500010B504460C48844214D10E200A4909684A
:105660000862102008490968086207480068006855
:1056700040F01000044909680860642203490248A8
:10568000FFF7A3FE10BD0000E4020024DE010024A9
:105690000146D1F88430D1F8882043EA02007047EF
:1056A0002DE9F04704462068C5692068066820682F
:1056B000876840F60F0005EA0009B9F1000F0FD125
:1056C00005F0200060B106F0200010B907F080500E
:1056D00030B1206F10B12046216F8847BDE8F087B8
:1056E000B9F1000F7ED0F948384018B9F848304079
:1056F0000028F7D005F0010058B106F4807040B1E1
:10570000012021680862D4F88C0040F00100C4F840
:105710008C0005F0020058B107F0010040B10220F2
:1057200021680862D4F88C0040F00400C4F88C00B2
:1057300005F0040058B107F0010040B104202168D1
:105740000862D4F88C0040F00200C4F88C0005F028
:10575000080070B106F0200010B9DC48384040B1B4
:10576000082021680862D4F88C0040F00800C4F8D2
:105770008C0005F4006060B106F0806048B14FF421
:10578000006021680862D4F88C0040F02000C4F862
:105790008C00D4F88C0000284ED005F0200050B1C9
:1057A00006F0200010B907F0805020B1206F10B132
:1057B0002046216F8847D4F88CA02068806800F0CC
:1057C0004000402802D00AF0280070B3204601F0C3
:1057D000EDFA2068806800F04000402821D100BF29
:1057E00000BF00E029E02168083151E8001F21F0E6
:1057F00040002168083141E80002002AF1D100BFD1
:10580000E06F50B1B348E16F0865E06FFBF79EFFB2
:1058100090B1E06F016D88470EE02046FFF718FF5A
:105820000AE02046FFF714FF06E0FFE72046FFF7F7
:105830000FFF0020C4F88C0050E7E06E012872D101
:1058400005F0100000286ED006F010000028FAD0F5
:105850001020216808622068806800F0400040281D
:105860007ED1E06F00689C49884258D0E06F0068A4
:1058700099491831884252D0E06F0068964930311A
:1058800088424CD0E06F006893494831884246D046
:10589000E06F006890496031884240D0E06F006856
:1058A0008D49783188423AD0E06F00688A4990315A
:1058B000884234D0E06F00688749A83188422ED0F2
:1058C000E06F00688549884229D0E06F006883490D
:1058D0001831884223D0E06F006880493031884217
:1058E0001DD0E06F00687D494831884217D0E06FD5
:1058F00000687A496031884211D0E06F00687749CA
:10590000783188420BD0E06F00687449903188424A
:1059100005D0E06F00687149A831884204D1E06F7A
:105920000068406803E0A0E0E06F006840681FFA8C
:1059300080F8B8F1000F55D0B4F85C00404551DD57
:10594000A4F85E80E06FC069B0F5807F41D000BFF1
:1059500000BF216851E8001F21F48070226800E038
:1059600041E042E800010029F3D100BF00BF00BFC1
:105970002168083151E8001F21F001002168083139
:1059800041E80002002AF3D100BF00BF00BF216838
:10599000083151E8001F21F040002168083141E83A
:1059A0000002002AF3D100BF2020C4F888000020A4
:1059B000E06600BF00BF216851E8001F21F0100021
:1059C000226842E800010029F5D100BFE06FFBF733
:1059D0004FFCB4F85C00B4F85E20801A81B2204617
:1059E000FFF72CFD7AE634F85C0F6188401A1FFA45
:1059F00080F860885C3CB8B3B8F1000F34D000BFC9
:105A000000BF216851E8001F21F49070226842E82D
:105A100000010029F5D100BF00BF00BF2168083197
:105A200051E8001F294AD24301EA020021680831E7
:105A300041E80002002AF1D100BF2020C4F888000C
:105A40000020E066206700BF00BF216851E8001F0A
:105A500021F01000226842E800010029F5D100BFC2
:105A600041462046FFF7EAFC38E605F4801050B1C5
:105A700007F4800038B14FF4801021680862204696
:105A8000FFF7E4FD2AE605F0800058B106F080003B
:105A900010B907F4000028B1606F10B12046616FA3
:105AA00088471BE605F0400030B106F0400018B111
:105AB000204601F0B1F911E605F4000080B106F0CE
:105AC000804068B12046FFF7C0FD07E601000010E6
:105AD000200100046B6C000810000240100402401A
:105AE00005F0807030B106F0004018B12046FFF795
:105AF0004DFDF3E500BFF1E510B504460CB90120FA
:105B000010BDA06900B100E000BFD4F8840028B93E
:105B1000002084F88000204600F02AF82420C4F8F1
:105B200084002068006820F0010021680860204699
:105B300001F044FC012800D1E2E7A06A10B1204640
:105B400000F0DCFF2068406820F490402168486045
:105B50002068806820F02A0021688860206800683A
:105B600040F0010021680860204601F043F8C7E7D3
:105B700010B5BAB00446142135A8FAF7BFFCBC2111
:105B800006A8FAF7BBFC8F492068884251D100BFB4
:105B900000BF8D48006840F010008B49086008463F
:105BA000006800F01000009000BF00BF00BF00BF01
:105BB00000BF85481038006840F001008249103964
:105BC00008600846006800F00100009000BF00BFB8
:105BD00000BF00BF00BF0846006840F00100086039
:105BE0000846006800F00100009000BF00BF00BF41
:105BF0004FF40070019002200290012003900220D7
:105C000004900720059001A97048FDF7ADF94FF405
:105C1000806001900720059001A96C48FDF7A4F968
:105C20002520FDF724FB032211462520FDF733FB39
:105C3000C6E067492068884259D1022006900020BA
:105C4000239006A8FDF7E6FD00BF5F48083800680E
:105C500040F400305C49083908600846006800F4E8
:105C60000030009000BF00BF00BF574810380068E8
:105C700040F001005449103908600846006800F0FF
:105C80000100009000BF00BF0C203590022036902C
:105C900000203790032038900720399035A94B48D1
:105CA000FDF762F94B484C4908602B204860002101
:105CB00049488160C1604FF4806101610021416108
:105CC0008161C16101624162FCF788FC08B1FBF7A8
:105CD00099F900BF4048E067846300BF00220221B9
:105CE0002620FDF7D8FA2620FDF7C1FA68E03B49E7
:105CF0002068884264D100BF00BF33481038006874
:105D000040F002003049103908600846006800F091
:105D10000200009000BF00BF00BF00BF00BF0846E8
:105D2000006840F0020008600846006800F00200C9
:105D3000009000BF00BF00BF00BF00BF224808386E
:105D4000006840F48020204908390860084600684F
:105D500000F48020009000BF00BF00BF4FF48060BF
:105D6000019002200290002003900220049007205E
:105D7000059001A91A48FDF7F7F84FF4006001906B
:105D8000022002900020039002200490072005903A
:105D900001A91348FDF7E8F8002211462720FDF776
:105DA0007AFA2720FDF763FA2068006840F02000A7
:105DB000216808602068006840F0100021680860D1
:105DC0003AB010BD00100140F044025800000258E3
:105DD00000440040100002407403002400480040CA
:105DE0000004025870B504460D461646D4F88800E3
:105DF00020282CD105B10EB9012070BD00BF94F848
:105E00008000012801D10220F7E7012084F88000FA
:105E100000BF0020E0660F492068884211D020684A
:105E2000406800F4000060B100BF00BF216851E885
:105E3000001F41F08060226842E800010029F5D18E
:105E400000BF32462946204601F0E8FDD5E7022092
:105E5000D3E70000000C005810B50146264B0A6835
:105E60009A4236D1254A128802F400428ABB234A5C
:105E7000128802F4804272B1214A12780A2A03D0B1
:105E800000221E4B1A8024E01C4A128842F4004271
:105E90001A4B1A801DE01A4A12780D2A06D1174AA9
:105EA000128842F48042154B1A8012E0144A12788C
:105EB000124B1B88C3F30D03124CE2540F4A128895
:105EC000521C0E4B1A801A461288C72A01DD002286
:105ED0001A800A4A128802F400425AB1074A10781E
:105EE0000D22084B1A540A23064C421CA3540022CC
:105EF000024B1A8010BD0000001001401000002469
:105F0000120000242000002470472DE9F84F0446B9
:105F10000E4617469946D4F8840020285ED106B173
:105F200017B90120BDE8F88F00BF94F88000012860
:105F300001D10220F6E7012084F8800000BF002094
:105F40005434A06321202063FDF722F98246278084
:105F50006780543CA068B0F5805F04D1206910B917
:105F60000025B04602E035464FF0000800BF002093
:105F700084F8800000BF1DE05346002280212046A7
:105F8000CDF8009001F002FE08B10320CAE745B940
:105F9000B8F80000C0F308002168886208F1020820
:105FA00003E02878216888626D1CB4F85600401E12
:105FB000A4F85600B4F856000028DDD1534600225C
:105FC00040212046CDF8009001F0E0FD08B103200B
:105FD000A8E72020C4F884000020A3E70220A1E75E
:105FE000704700BFFEE7000000B587B000BF124851
:105FF000006840F00200104908600846006800F0A0
:106000000200019000BF00BF032002900120039016
:1060100004900320059002A90848FCF7A5FF01227F
:1060200011460648FDF7A8F8012202210348FDF7B2
:10603000A3F807B000BD0000E04402580004025875
:1060400008B500BF0A48006840F001000849086030
:106050000846006800F00100009000BF00BF002269
:1060600011460B20FDF717F90B20FDF700F908BDCD
:10607000D844025810B51C481C4908604FF4E13060
:106080004860002119488160C16001610C214161B3
:1060900000218161C161016241620020134988626F
:1060A0000846FFF729FD00211048FFF79FFA00215D
:1060B0000E48FFF76CFA0D48FFF760F910200B4906
:1060C000096808620E2009490968086207480068E3
:1060D000006840F01000054909680860642204491E
:1060E0000248FFF772F910BD00440040E4020024AA
:1060F000DE01002400BFFEE710B5044624B1012CE8
:1061000027D0022C69D147E000224FF400613448C7
:10611000FDF732F800224FF480713248FDF72CF879
:1061200000224FF400712F48FDF726F800224FF4AB
:1061300080512B48FDF720F800224FF480712A4847
:10614000FDF71AF800224FF400712748FDF714F804
:1061500044E00122D1022248FDF70EF800224FF45C
:1061600080712048FDF708F800224FF400711D48A7
:10617000FDF702F8012211031948FCF7FDFF002288
:106180004FF480711848FCF7F7FF00224FF40071BC
:106190001548FCF7F1FF21E000224FF400611048A0
:1061A000FCF7EAFF012211020E48FCF7E5FF01228D
:1061B00051020C48FCF7E0FF00224FF480510848E0
:1061C000FCF7DAFF012211020748FCF7D5FF012294
:1061D00051020548FCF7D0FF00E000BF00BF10BD32
:1061E000000C0258001402580008025800BFFEE7D5
:1061F000704700002DE9F04104460E46002755483F
:10620000006800F00300032802D10120BDE8F081FE
:1062100050482838006820F080604E4928390860CE
:10622000FCF7B6FF054606E0FCF7B2FF401B02286C
:1062300001D90320EAE7474828380068C0F3C06066
:106240000028F1D100BF4348006820F47C30216869
:1062500040EA01303F490860A088401EC0F30800B2
:10626000A168491E4FF47E4202EA41210843A189F8
:10627000491ED20102EA01410843217C491E120253
:1062800002EA0161084333491031086000BF314818
:10629000001D006820F0C000616908432D49091DF8
:1062A00008600846006820F02000A16908432949D9
:1062B000091D08600846006820F0100008602548A5
:1062C000143000684FF6F8718843E16940EAC10074
:1062D0002049143108601F48001D006840F010007C
:1062E0001C49091D08602EB90846006840F40020CA
:1062F000086012E0012E08D11648001D006840F425
:1063000080101449091D086007E01248001D00684C
:1063100040F400100F49091D08600E482838006835
:1063200040F080600B4928390860FCF731FF0546D2
:1063300006E0FCF72DFF401B022801D9032065E78A
:10634000044828380068C0F3C0600028F1D03846FF
:106350005CE70000284402582DE9F04104460E464F
:1063600000275548006800F00300032802D10120EF
:10637000BDE8F08150482838006820F080504E4930
:1063800028390860FCF704FF054606E0FCF700FF2B
:10639000401B022801D90320EAE747482838006853
:1063A000C0F340700028F1D100BF4348006820F0DE
:1063B0007C70218840EA01503F490860A088401E57
:1063C000C0F30800A168491E4FF47E4202EA412151
:1063D0000843A189491ED20102EA01410843217CF8
:1063E000491E120202EA016108433349183108606C
:1063F00000BF3148001D006820F440606169084317
:106400002D49091D08600846006820F40070A16944
:1064100008432949091D08600846006820F4807077
:10642000086025481C3000684FF6F8718843E16920
:1064300040EAC10020491C3108601F48001D006867
:1064400040F480701C49091D08602EB90846006898
:1064500040F48000086012E0012E08D11648001DAB
:10646000006840F400001449091D086007E0124864
:10647000001D006840F080700F49091D08600E483B
:106480002838006840F080500B4928390860FCF734
:106490007FFE054606E0FCF77BFE401B022801D983
:1064A000032065E7044828380068C0F340700028DE
:1064B000F1D038465CE70000284402583EB5044657
:1064C00000200090019002905A208DF80000A52035
:1064D0008DF8010002208DF802008DF8034084F051
:1064E00002008DF804004FF0FF3305226946024890
:1064F000FFF70BFD3EBD0000E402002470470000E2
:106500002DE9F05F05460E464FF0000AD34600F035
:10651000B7F9052001F07DFC002469E015F804803E
:1065200016F80490002739E008F0100A09F0100B63
:10653000BAF1000F05D1002240213A48FCF71CFEB9
:1065400004E0012240213748FCF716FEBBF1000FA2
:1065500005D1002280213348FCF70EFE04E0012221
:1065600080213048FCF708FE052001F052FC012292
:1065700004212D48FCF700FE052001F04AFC4FEAFB
:1065800048604FEA10684FEA49604FEA10690022FC
:1065900004212548FCF7F0FD781CC7B2052FC3DBAA
:1065A000052001F036FC002210211F48FCF7E4FD15
:1065B000052001F02EFC012210211B48FCF7DCFD18
:1065C000052001F026FC052001F023FC0122082112
:1065D0001548FCF7D1FD052001F01BFC0022082125
:1065E0001148FCF7C9FD052001F013FC601CC4B282
:1065F0000B2C93DB052001F00CFC002220210A4823
:10660000FCF7BAFD052001F004FC01222021064818
:10661000FCF7B2FD052001F0FCFB00F031F9BDE80C
:10662000F09F000000140258001C02582DE9F05F92
:1066300005460E464FF0000AD34600F045F9052006
:1066400001F0E7FB002469E015F8048016F80490D7
:10665000002739E008F0100A09F0100BBAF1000F1A
:1066600005D1002240213A48FCF786FD04E00122D2
:1066700040213748FCF780FDBBF1000F05D1002217
:1066800080213348FCF778FD04E001228021304866
:10669000FCF772FD052001F0BCFB012208212D480A
:1066A000FCF76AFD052001F0B4FB4FEA48604FEAB1
:1066B00010684FEA49604FEA106900220821254816
:1066C000FCF75AFD781CC7B2052FC3DB052001F08B
:1066D000A0FB002280211F48FCF74EFD052001F0A1
:1066E00098FB012280211B48FCF746FD052001F0A4
:1066F00090FB052001F08DFB012210211548FCF7CD
:106700003BFD052001F085FB002210211148FCF71C
:1067100033FD052001F07DFB601CC4B20B2C93DB24
:10672000052001F076FB00224FF480710948FCF748
:1067300023FD052001F06DFB012211020548FCF745
:106740001BFD052001F065FB00F0BEF8BDE8F09FE1
:10675000000802580004025810B5FCF71FFD10BDD8
:106760003448006840F470003249086032480068DC
:1067700000F00F00072806D22F48006820F00F0015
:10678000C01D2D4908602D48006840F001002B49CC
:10679000086000202949103108602848006828490D
:1067A0000840264908602448006800F00F000728C8
:1067B00006D92148006820F00F00C01D1E4908605E
:1067C00000201E4918310860091D0860091D086075
:1067D0001C481A49283108601B48091D08601B48DD
:1067E000091D08600020091D08601848091D08607F
:1067F0000020091D08601548091D08600020091DBA
:1068000008600E48006820F480200C4908600020D1
:106810000A49603108600E4800686FF30F00B0F15C
:10682000005F02D201200B49086043F2D2000A49FE
:106830000860704788ED00E00020005200440258D4
:106840007FEDF6EA000202020000FF018002010172
:106850000010005C088100510040005210B5024851
:10686000FEF7ACFC10BD00004C02002410B503483C
:10687000FEF7A4FC01F03AFA10BD000098020024D3
:1068800010B5002204210E48FCF776FC00220821F6
:106890000B48FCF771FC002240210A48FCF76CFC15
:1068A000002280210748FCF767FC012210210448E0
:1068B000FCF762FC012220210148FCF75DFC10BDC1
:1068C000001C02580014025810B5002208210E487E
:1068D000FCF752FC002210210B48FCF74DFC002273
:1068E00040210A48FCF748FC002280210748FCF7B9
:1068F00043FC012280210448FCF73EFC01221102E6
:106900000148FCF739FC10BD000402580008025889
:1069100000B587B0142102A8F9F7F0FD00BF5B486D
:10692000006840F02000594908600846006800F0FF
:106930002000019000BF00BF00BF0846006840F083
:10694000800008600846006800F08000019000BFE9
:1069500000BF00BF0846006840F008000860084615
:10696000006800F00800019000BF00BF00BF0846AB
:10697000006840F0040008600846006800F0040069
:10698000019000BF00BF00BF0846006840F0010052
:1069900008600846006800F00100019000BF00BFD9
:1069A00000BF0846006840F0020008600846006822
:1069B00000F00200019000BF00BF00224FF4707190
:1069C0003348FCF7D9FB00220C213248FCF7D4FBFA
:1069D000012230212F48FCF7CFFB00224FF4C05199
:1069E0002D48FCF7C9FB00224FF470712B48FCF7CF
:1069F000C3FB002218212A48FCF7BEFB01224FF4FA
:106A0000C0712748FCF7B8FB4FF47070029001206A
:106A10000390022004900120059002A91C48FCF775
:106A2000A3FA3C2002900120039002200490012050
:106A3000059002A91748FCF797FA4FF4C05002904E
:106A400001200390022004900120059002A9124821
:106A5000FCF78AFA4FF47070029001200390022034
:106A600004900120059002A90C48FCF77DFA4FF430
:106A7000CC70029001200390022004900120059028
:106A800002A90748FCF770FA07B000BDE0440258BD
:106A900000140258001C0258000C0258000802584A
:106AA0000004025870B5456E2DB90125A0F86A5052
:106AB000A0F868501CE0102310240568AD68C5F3E9
:106AC00042610568AD686A0F0A4DAD5C15FB04F5BF
:106AD000094EB65C95FBF6F5A0F86A50054D6D5C65
:106AE00015FB03F5044E765C95FBF6F5A0F86850AF
:106AF00070BD0000D6800008DE80000890F82810E5
:106B000001F0010139B10168496821F40031C26A1C
:106B100011430268516090F8281001F00201022927
:106B200007D10168496821F48031026B1143026882
:106B3000516090F8281001F00401042907D1016880
:106B4000496821F48021426B11430268516090F83A
:106B5000281001F00801082907D10168496821F4CB
:106B60000041826B11430268516090F8281001F0D7
:106B70001001102907D10168896821F48051C26B86
:106B800011430268916090F8281001F0200120293B
:106B900007D10168896821F40051026C1143026831
:106BA000916090F8281001F04001402913D101684C
:106BB000496821F48011426C114302685160416CB4
:106BC000B1F5801F07D10168496821F4C001826CCA
:106BD00011430268516090F8281001F0800180296B
:106BE00007D10168496821F40021C26C1143026891
:106BF0005160704738B504460020C4F88C00FCF79B
:106C0000C7FA05462068006800F0080008280CD183
:106C10006FF07E402B4600224FF40011009020467A
:106C200000F0B4FF08B1032038BD2068006800F010
:106C3000040004280CD16FF07E402B4600224FF454
:106C400080010090204600F0A1FF08B10320EBE78F
:106C50002020C4F88400C4F888000020E06600BF4B
:106C600084F8800000BF00BFDEE770B50546AC6B5E
:106C70000020A4F85E00A4F856002046FEF7E8FCC9
:106C800070BD2DE9F0410546AC6BD4F88460D4F8B2
:106C900088702068806800F08000802807D1212E4D
:106CA00005D10020A4F85600204600F0CDF8206859
:106CB000806800F04000402807D1222F05D1002035
:106CC000A4F85E00204600F071F8D4F88C0040F083
:106CD0001000C4F88C002046FEF7BAFCBDE8F08135
:106CE00070B50546AC6BE869B0F5807F40D00020F8
:106CF000A4F85E0000BF00BF216851E8001F21F426
:106D00008070226842E800010029F5D100BF00BF71
:106D100000BF2168083151E8001F21F001002168FF
:106D2000083141E80002002AF3D100BF00BF00BFD4
:106D30002168083151E8001F21F040002168083126
:106D400041E80002002AF3D100BF2020C4F88800E7
:106D5000E06E01280CD100BF00BF216851E8001F80
:106D600021F01000226842E800010029F5D100BF9F
:106D7000E06E012805D1B4F85C102046FEF75EFBFA
:106D800002E02046FFF768F870BD70B50546AC6BB1
:106D9000E06E012806D1B4F85C0041082046FEF7F9
:106DA0004DFB02E02046FFF7AFF870BD00BF00BF0B
:106DB000026852E8002F22F49071036843E8001241
:106DC000002AF5D100BF00BF00BF0268083252E8B8
:106DD000002F104B02EA03010268083242E8001358
:106DE000002BF2D100BFC16E01290CD100BF00BF42
:106DF000026852E8002F22F01001036843E80012F5
:106E0000002AF5D100BF2021C0F888100021C166FA
:106E100001677047FEFFFFEF10B5044600BF00BFDB
:106E2000216851E8001F21F04000226842E800017B
:106E30000029F5D100BF2020C4F88400002060673D
:106E40002046FFF7CDF810BD00BF00BF026852E832
:106E5000002F22F0C001036843E80012002AF5D198
:106E600000BF00BF00BF0268083252E8002F22F4C2
:106E700000010268083242E80013002BF3D100BF82
:106E80002021C0F8841070472DE9F0410446B4F881
:106E90006070D4F88800222857D12068406A86B2F2
:106EA000A56D06EA07002880A06D801CA065B4F8D7
:106EB0005E00401EA4F85E00B4F85E0000284AD1CF
:106EC00000BF00BF216851E8001F21F490702268C4
:106ED00042E800010029F5D100BF00BF00BF2168D2
:106EE000083151E8001F21F001002168083141E814
:106EF0000002002AF3D100BF2020C4F8880000203F
:106F00002067E06E01281CD10020E06600BF00BFB2
:106F1000216851E8001F21F01000226842E80001BA
:106F20000029F5D100BF2068C069C0F3001010B17E
:106F3000102021680862B4F85C102046FEF77EFA43
:106F400009E02046FEF788FF05E02068806940F0F0
:106F5000080021688861BDE8F08100002DE9F84F44
:106F60000446B4F860B02068C569206800680090E5
:106F70002068D0F808A0D4F8880022287ED1B4F880
:106F8000689096E02068406A1FFA80F8A76D08EACA
:106F90000B003880A06D801CA065B4F85E00401E18
:106FA000A4F85E002068C56905F00700B0B305F0DD
:106FB000010060B1009800F4807040B101202168A8
:106FC0000862D4F88C0040F00100C4F88C0005F091
:106FD000020058B10AF0010040B1022021680862A5
:106FE000D4F88C0040F00400C4F88C0005F00400D4
:106FF00058B10AF0010040B1042021680862D4F8B9
:107000008C0040F00200C4F88C00D4F88C0028B149
:107010002046FEF71DFB0020C4F88C00B4F85E008B
:1070200068BB00BF00BF216851E8001F21F48070D9
:10703000226842E800010029F5D100BF00BF00BF6F
:107040002168083151E8001F344A01EA0200216832
:10705000083141E80002002AF2D100BF2020C4F824
:10706000880000202067E06E01281FD10020E06624
:1070700000BF00BF216851E8001F01E046E018E0B2
:1070800021F01000226842E800010029F2D100BF7F
:107090002068C069C0F3001010B110202168086298
:1070A000B4F85C102046FEF7C9F902E02046FEF76E
:1070B000D3FEB9F1000F04D005F0200000287FF4C2
:1070C00061AFB4F85E6006B3B4F86800B04223DD87
:1070D00000BF00BF2168083151E8001F21F0805037
:1070E0002168083141E80002002AF3D100BF0C48B2
:1070F000206700BF00BF216851E8001F41F0200059
:10710000226842E800010029F5D105E02068806985
:1071100040F0080021688861BDE8F88FFEFFFFEFAE
:10712000896E000870B50446B4F86060D4F8880031
:10713000222857D12068406A85B2F0B22840A16D5C
:107140000870A06D401CA065B4F85E00401EA4F855
:107150005E00B4F85E0000284AD100BF00BF21687D
:1071600051E8001F21F49070226842E800010029D4
:10717000F5D100BF00BF00BF2168083151E8001FF2
:1071800021F001002168083141E80002002AF3D112
:1071900000BF2020C4F8880000202067E06E01288E
:1071A0001CD10020E06600BF00BF216851E8001F2D
:1071B00021F01000226842E800010029F5D100BF4B
:1071C0002068C069C0F3001010B110202168086267
:1071D000B4F85C102046FEF731F909E02046FEF7CE
:1071E0003BFE05E02068806940F008002168886166
:1071F00070BD00002DE9F05F0446B4F860A020687F
:10720000C5692068D0F800B02068D0F80890D4F89C
:10721000880022287DD1B4F8688095E02068406A13
:1072200087B20AF0FF003840A16D0870A06D401CC5
:10723000A065B4F85E00401EA4F85E002068C56931
:1072400005F00700A8B305F0010058B10BF48070F9
:1072500040B1012021680862D4F88C0040F00100A0
:10726000C4F88C0005F0020058B109F0010040B1EB
:10727000022021680862D4F88C0040F00400C4F8B1
:107280008C0005F0040058B109F0010040B1042061
:1072900021680862D4F88C0040F00200C4F88C0029
:1072A000D4F88C0028B12046FEF7D2F90020C4F8AB
:1072B0008C00B4F85E0068BB00BF00BF216851E8D5
:1072C000001F21F48070226842E800010029F5D1F6
:1072D00000BF00BF00BF2168083151E8001F354AD8
:1072E00001EA02002168083141E80002002AF2D1D7
:1072F00000BF2020C4F8880000202067E06E01282D
:107300001FD10020E06600BF00BF216851E8001FC8
:1073100001E046E018E021F01000226842E8000198
:107320000029F2D100BF2068C069C0F3001010B17D
:10733000102021680862B4F85C102046FEF77EF841
:1073400002E02046FEF788FDB8F1000F04D005F0FA
:10735000200000287FF462AFB4F85E6006B3B4F892
:107360006800B04223DD00BF00BF2168083151E84A
:10737000001F21F080502168083141E80002002AF6
:10738000F3D100BF0C48206700BF00BF216851E85F
:10739000001F41F02000226842E800010029F5D1D9
:1073A00005E02068806940F0080021688861BDE838
:1073B000F09F0000FEFFFFEF257100082DE9F04F60
:1073C00089B0054600200890F8492868884200D115
:1073D00000E000BF2969A868084369690843E969B2
:1073E00040EA010828680068F149084040EA0800BE
:1073F000296808602868406820F44050E96808431C
:1074000029684860D5F81880E8492868884202D081
:10741000286A40EA080828688068E649084040EA87
:107420000800296888602868C06A20F00F00696A2F
:1074300008432968C86200BFDF492868884220D114
:10744000DE48006800F03800182811D005DC48B18B
:10745000082809D0102811D108E020280AD02828AF
:107460000CD109E001240BE0042409E0082407E022
:10747000102405E0202403E0402401E0802400BF24
:10748000F8E0CF492868884219D1CC48006800F05C
:107490000700062810D2DFE800F0030507090B0DEE
:1074A00000240BE0042409E0082407E0102405E090
:1074B000202403E0402401E0802400BFDAE0C14939
:1074C0002868884219D1BD48006800F007000628E6
:1074D00010D2DFE800F0030507090B0D00240BE0D4
:1074E000042409E0082407E0102405E0202403E038
:1074F000402401E0802400BFBCE0B34928688842F2
:1075000019D1AE48006800F00700062810D2DFE865
:1075100000F0030507090B0D00240BE0042409E02B
:10752000082407E0102405E0202403E0402401E0C3
:10753000802400BF9EE0A5492868884219D19F4851
:10754000006800F00700062810D2DFE800F003050D
:1075500007090B0D00240BE0042409E0082407E0D0
:10756000102405E0202403E0402401E0802400BF33
:1075700080E097492868884220D19048006800F050
:107580003800182811D005DC48B1082809D0102887
:1075900011D108E020280AD028280CD109E00124C4
:1075A0000BE0042409E0082407E0102405E020246F
:1075B00003E0402401E0802400BF5BE085492868A7
:1075C000884219D17D48006800F00700062810D2D3
:1075D000DFE800F0030507090B0D00240BE004248D
:1075E00009E0082407E0102405E0202403E04024FB
:1075F00001E0802400BF3DE077492868884219D126
:107600006E48006800F00700062810D2DFE800F09E
:10761000030507090B0D00240BE0042409E00824EE
:1076200007E0102405E0202403E0402401E080244A
:1076300000BF1FE05D49286888421AD15F48001DDD
:10764000006800F00700062810D2DFE800F003050C
:1076500007090B0D02240BE0042409E0082407E0CD
:10766000102405E0202403E0402401E0802400BF32
:1076700000E0802400BF4D49286888427DD1102C4D
:107680001AD006DC022C09D0042C0BD0082C29D1EE
:107690000DE0202C21D0402C24D120E0FBF778FEF7
:1076A000064623E005A8FBF785FE069E1EE002A81D
:1076B000FBF798FF039E19E0404854380068C0F378
:1076C000401040B13D4854380068C0F3C101434800
:1076D00020FA01F600E0414E08E0414E06E04FF48A
:1076E000004603E000260120089000BF00BF002EE6
:1076F00010D03C49686A31F81000B6FBF0F96868B0
:1077000000EB4000484503D868680003484502D2B2
:107710000120089003E13349686A31F810C06246DD
:10772000002330461946F8F732FE4FF480730022EA
:107730008446ACFB030B01FB03B10CFB021C696824
:107740004908034659184CEB0200CDE90010D5F862
:1077500004C06246002308460199F8F718FE074660
:10776000B7F5407F06D3B7F5801F03D22868C760FE
:10777000D5E002E001200890D1E0E869B0F5004FC3
:107780007BD1082C39D005DC5CB1012C2CD0042C29
:107790004CD12DE0102C35D0202C42D0402C45D19E
:1077A00041E0FCF79FFF064644E00000000C005853
:1077B000F369FFCFFFF4FF11001001405444025859
:1077C0000044004000480040004C00400050004091
:1077D0000014014000780040007C00400090D0037D
:1077E00000093D00BE800008FCF78EFF064621E040
:1077F00005A8FBF7DFFD069E1CE002A8FBF7F2FEE2
:10780000039E17E04C480068C0F3401038B14A4866
:107810000068C0F3C101494820FA01F600E0474E74
:1078200008E0474E06E04FF4004603E00026012042
:10783000089000BF00BFFEB14249686A31F81000ED
:10784000B6FBF0F04000696800EB5100B0FBF1F7C7
:10785000102F0FD3B7F5803F0CD24FF6F07007EA28
:10786000000AC7F342004AEA000A2868C0F80CA0E0
:1078700055E002E00120089051E0082C1AD005DC08
:107880005CB1012C0DD0042C2DD10EE0102C16D0A3
:10789000202C23D0402C26D122E0FCF723FF0646E3
:1078A00025E0FCF731FF064621E005A8FBF782FD45
:1078B000069E1CE002A8FBF795FE039E17E01E48FB
:1078C0000068C0F3401038B11B480068C0F3C10124
:1078D0001A4820FA01F600E0184E08E0184E06E0BB
:1078E0004FF4004603E000260120089000BF00BFCF
:1078F000AEB11449686A31F81000B6FBF0F069685F
:1079000000EB5100B0FBF1F7102F06D3B7F5803F25
:1079100003D2B8B22968C86001E0012008900120B4
:10792000A5F86A00A5F8680000202867686708982D
:1079300009B0BDE8F08F0000004402580090D00369
:1079400000093D00BE80000870B504460E4615468D
:1079500044F8586FA5800020606322202063606A8D
:10796000583C08B32A48E16FC8632A48E16F0864AD
:107970002948E16FC8640020E16F0865236803F1BE
:1079800024012B46A26DE06FFBF7B8F860B1102020
:10799000C4F88C0000BF002084F8800000BF2020C5
:1079A000C4F88800012070BD00BF002084F880006A
:1079B00000BF206960B100BF00BF216851E8001F0F
:1079C00041F48070226842E800010029F5D100BF2F
:1079D00000BF00BF2168083151E8001F41F00100DD
:1079E0002168083141E80002002AF3D100BF00BF3E
:1079F00000BF2168083151E8001F41F040002168B4
:107A0000083141E80002002AF3D100BF0020CAE794
:107A1000E16C00088B6D0008836C000830B50346EC
:107A20009965A3F85C20A3F85E200020186700BFCA
:107A30009868B0F5805F0AD1186920B940F2FF104C
:107A4000A3F8600020E0FF20A3F860001CE0986825
:107A500048B9186918B9FF20A3F8600014E07F2026
:107A6000A3F8600010E09868B0F1805F09D1186950
:107A700018B97F20A3F8600006E03F20A3F860005B
:107A800002E00020A3F8600000BF0020C3F88C00D3
:107A90002220C3F8880000BF00BF1C68083454E8E7
:107AA000004F44F001001C68083444E80005002D34
:107AB000F3D100BF586EB0F1005F31D1B3F8680068
:107AC00090422DDC9868B0F5805F04D1186910B938
:107AD0002A48186701E02A48186700BF002083F889
:107AE000800000BF186960B100BF00BF1C6854E887
:107AF000004F44F480701D6845E80004002CF5D167
:107B000000BF00BF00BF1C68083454E8004F44F0B9
:107B100080501C68083444E80005002DF3D12BE0A8
:107B20009868B0F5805F04D1186910B915481867D6
:107B300001E01548186700BF002083F8800000BFEF
:107B4000186960B100BF00BF1C6854E8004F44F4DE
:107B500090701D6845E80004002CF5D10CE000BFD2
:107B600000BF1C6854E8004F44F020001D6845E841
:107B70000004002CF5D100BF002030BD5D6F00086F
:107B8000F5710008896E0008257100082DE9F041A3
:107B900004460D4617469846069E6AE0701C00286B
:107BA00067D0FBF7F5FAA0EB0800B04200D846BB5F
:107BB00000BF00BF216851E8001F21F4D070226887
:107BC00042E800010029F5D100BF00BF00BF2168D5
:107BD000083151E8001F21F001002168083141E817
:107BE0000002002AF3D100BF2020C4F88400C4F8AA
:107BF000880000BF002084F8800000BF0320BDE89B
:107C0000F0812068006800F0040088B32068C06933
:107C1000C0F3C02060B34FF400602168086200BF69
:107C200000BF216851E8001F21F4D070226842E8AB
:107C300000010029F5D100BF00BF00BF2168083155
:107C400051E8001F21F001002168083141E80002DD
:107C5000002AF3D100BF202044F8840F6060A060A8
:107C6000843C00BF002084F8800000BF0320C6E7EA
:107C7000FFE72068C0692840A84201D1012000E048
:107C80000020B8428AD00020B9E7000070B5002477
:107C90000F4D1048FDF704FD00BF03E0641CAC422B
:107CA00000D904E00B48FDF7F3FC2028F6D100BF13
:107CB000002403E0641CAC4200D906E0012206491E
:107CC0000448FEF78FF80028F4D100BF70BD000013
:107CD000FFFF0100E80000241200002410B5024854
:107CE000FDF7DEFC10BD0000E402002400B585B005
:107CF00014216846F8F702FC5A208DF80000A520F0
:107D00008DF8010002208DF8020001208DF803009B
:107D10008DF80400831E052269460248FEF7F5F837
:107D200005B000BDE402002400BFFEE70248006881
:107D3000C0F30220704700000CED00E010B50028F1
:107D400004DB0A07130E054A135406E00A07140E53
:107D5000034A00F00F031B1FD45410BD00E400E0E1
:107D600018ED00E000BF704710B50346002003E0A7
:107D70000C5C1C54441CE0B29042F9DB10BD2DE9B0
:107D8000F04F0446DDE90956002041FA04FB0BF0F0
:107D9000010742FA04FB0BF0010C43FA04FB0BF061
:107DA000010845FA04FB0BF0010946FA04FB0BF04D
:107DB000010A4FEA071B4BEACC0B4BEA880B4BEA54
:107DC000490B4BEA0A00BDE8F08F000010B50446ED
:107DD0000420FDF7C1F90148048010BD080000240B
:107DE00070B504461E2094FBF0F594FBF0F100FB07
:107DF000114604E047F2305000F010F86D1E002DDF
:107E0000F8D12EB14FF47A7106FB01F000F006F8BC
:107E100070BD00E0401E0028FCD1704770B50346DD
:107E200000224FF0E02675690D4E368803FB06F4FC
:107E30004FF0E026B16910E04FF0E026B0698842CB
:107E40000BD0884202D20E1A324402E02E1A0E449F
:107E500032440146A24200D300E0EDE700BF70BD0E
:107E60000800002400BF054AD26902F04002002A3F
:107E7000F9D0C2B2014B9A62704700000010014075
:107E8000002400202D490870FBF794F904230222F6
:107E90000521A02000F056F84FF4C870FFF796FFB8
:107EA0004FF4E13000F0DEF8FEF79EF8FEF7C8F878
:107EB000FEF7E0F8FEF72CFDFEF7E2FCFEF704FD0E
:107EC0001E483130002101604160018181720B2127
:107ED0000B30F8F713FB194847300021016041606F
:107EE000018181720B300160416001818172A0F1DA
:107EF00016012138FEF704FB10495231A1F10B00A5
:107F0000FEF794FB0D490878FEF7F6F815E0641CBF
:107F1000032094FBF0F100FB114020B90221084836
:107F2000FBF720F906E00A2C04D1002401210448C3
:107F3000FBF718F96420FAF7D1FFE8E7780100248D
:107F4000000402582DE9F0419CB080460C461546CD
:107F50001E4600274048006820F004003E490860A3
:107F600000BF002000903D48006820F001003B4920
:107F700008600846006800F00100009036480C30A8
:107F8000006840F4404034490C31086008460068FD
:107F900000F44040009000BF00BF00BF2E480C30EE
:107FA000006800F40050B0F5005FF7D12120019087
:107FB0004FF4803002900020049008900120079038
:107FC00002200A9002210B91CDF834800C940E957A
:107FD0000F9600211291082111910021139101A8FF
:107FE000FCF7BAFC07461FB101201CB0BDE8F081C8
:107FF0003F20149003201590002016900820179021
:108000004020199000011A90402018901B900421E4
:1080100014A8FCF7B1F907460FB10120E5E7FBF71B
:10802000ADF90F48006840F080000D49086000BFBE
:108030000B48F430006840F002000949F431086050
:108040000846006800F00200009000BF00BFFAF789
:1080500059FF0020C9E700000C4802582C040058C2
:108060000044025810B5044609480A490860084609
:10807000446000218160C160016181610C21416126
:10808000FDF73AFD012204490248FDF7ABFE10BDA1
:1080900000100140E8000024120000244FF040705E
:1080A000E1EE100A70470000000001020304010223
:1080B0000304060708090006101600061016010042
:1080C00002000400060008000A000C001000200056
:1080D00040008000000101010103070100000804C5
:1080E00002040801010100000881000800000024CA
:1080F00020000000D402000828810008200000248D
:10810000301E0000F00200080090D0030090D00361
:10811000000000000000000000000000000000005F
:08812000100000000100000046
:040000050800029954
:00000001FF
