


ARM Macro Assembler    Page 1 


    1 00000000         ;*******************************************************
                       *************************
    2 00000000         ;* File Name          : startup_stm32h743xx.s
    3 00000000         ;* @author  MCD Application Team
    4 00000000         ;* Description        : STM32H7xx devices vector table f
                       or MDK-ARM toolchain. 
    5 00000000         ;*                      This module performs:
    6 00000000         ;*                      - Set the initial SP
    7 00000000         ;*                      - Set the initial PC == Reset_Ha
                       ndler
    8 00000000         ;*                      - Set the vector table entries w
                       ith the exceptions ISR address
    9 00000000         ;*                      - Branches to __main in the C li
                       brary (which eventually
   10 00000000         ;*                        calls main()).
   11 00000000         ;*                      After Reset the Cortex-M process
                       or is in Thread mode,
   12 00000000         ;*                      priority is Privileged, and the 
                       Stack is set to Main.
   13 00000000         ;* <<< Use Configuration Wizard in Context Menu >>>   
   14 00000000         ;*******************************************************
                       ***********************
   15 00000000         ;* @attention
   16 00000000         ;*
   17 00000000         ;* Copyright (c) 2017 STMicroelectronics.
   18 00000000         ;* All rights reserved.
   19 00000000         ;*
   20 00000000         ;* This software is licensed under terms that can be fou
                       nd in the LICENSE file
   21 00000000         ;* in the root directory of this software component.
   22 00000000         ;* If no LICENSE file comes with this software, it is pr
                       ovided AS-IS.
   23 00000000         ;*
   24 00000000         ;*******************************************************
                       ************************
   25 00000000         
   26 00000000         ; Amount of memory (in bytes) allocated for Stack
   27 00000000         ; Tailor this value to your application needs
   28 00000000         ; <h> Stack Configuration
   29 00000000         ;   <o> Stack Size (in Bytes) <0x0-0xFFFFFFFF:8>
   30 00000000         ; </h>
   31 00000000         
   32 00000000 00001200 
                       Stack_Size
                               EQU              0x00001200
   33 00000000         
   34 00000000                 AREA             STACK, NOINIT, READWRITE, ALIGN
=3
   35 00000000         Stack_Mem
                               SPACE            Stack_Size
   36 00001200         __initial_sp
   37 00001200         
   38 00001200         
   39 00001200         ; <h> Heap Configuration
   40 00001200         ;   <o>  Heap Size (in Bytes) <0x0-0xFFFFFFFF:8>
   41 00001200         ; </h>
   42 00001200         
   43 00001200         ;未用到编译器自带的内存管理(malloc,free等)，设置Heap_Szi
                       e为0



ARM Macro Assembler    Page 2 


   44 00001200 00000800 
                       Heap_Size
                               EQU              0x00000800
   45 00001200         
   46 00001200                 AREA             HEAP, NOINIT, READWRITE, ALIGN=
3
   47 00000000         __heap_base
   48 00000000         Heap_Mem
                               SPACE            Heap_Size
   49 00000800         __heap_limit
   50 00000800         
   51 00000800                 PRESERVE8
   52 00000800                 THUMB
   53 00000800         
   54 00000800         
   55 00000800         ; Vector Table Mapped to Address 0 at Reset
   56 00000800                 AREA             RESET, DATA, READONLY
   57 00000000                 EXPORT           __Vectors
   58 00000000                 EXPORT           __Vectors_End
   59 00000000                 EXPORT           __Vectors_Size
   60 00000000         
   61 00000000 00000000 
                       __Vectors
                               DCD              __initial_sp ; Top of Stack
   62 00000004 00000000        DCD              Reset_Handler ; Reset Handler
   63 00000008 00000000        DCD              NMI_Handler ; NMI Handler
   64 0000000C 00000000        DCD              HardFault_Handler ; Hard Fault 
                                                            Handler
   65 00000010 00000000        DCD              MemManage_Handler 
                                                            ; MPU Fault Handler
                                                            
   66 00000014 00000000        DCD              BusFault_Handler 
                                                            ; Bus Fault Handler
                                                            
   67 00000018 00000000        DCD              UsageFault_Handler ; Usage Faul
                                                            t Handler
   68 0000001C 00000000        DCD              0           ; Reserved
   69 00000020 00000000        DCD              0           ; Reserved
   70 00000024 00000000        DCD              0           ; Reserved
   71 00000028 00000000        DCD              0           ; Reserved
   72 0000002C 00000000        DCD              SVC_Handler ; SVCall Handler
   73 00000030 00000000        DCD              DebugMon_Handler ; Debug Monito
                                                            r Handler
   74 00000034 00000000        DCD              0           ; Reserved
   75 00000038 00000000        DCD              PendSV_Handler ; PendSV Handler
                                                            
   76 0000003C 00000000        DCD              SysTick_Handler 
                                                            ; SysTick Handler
   77 00000040         
   78 00000040         ; External Interrupts
   79 00000040 00000000        DCD              WWDG_IRQHandler ; Window WatchD
                                                            og interrupt ( wwdg
                                                            1_it)              
                                                                               
                                                                    
   80 00000044 00000000        DCD              PVD_AVD_IRQHandler ; PVD/AVD th
                                                            rough EXTI Line det
                                                            ection             
                                                                       



ARM Macro Assembler    Page 3 


   81 00000048 00000000        DCD              TAMP_STAMP_IRQHandler ; Tamper 
                                                            and TimeStamps thro
                                                            ugh the EXTI line  
                                                                      
   82 0000004C 00000000        DCD              RTC_WKUP_IRQHandler ; RTC Wakeu
                                                            p through the EXTI 
                                                            line               
                                                                    
   83 00000050 00000000        DCD              FLASH_IRQHandler ; FLASH       
                                                                               
                                                                             
   84 00000054 00000000        DCD              RCC_IRQHandler ; RCC           
                                                                               
                                                                           
   85 00000058 00000000        DCD              EXTI0_IRQHandler ; EXTI Line0  
                                                                               
                                                                               
                                                                 
   86 0000005C 00000000        DCD              EXTI1_IRQHandler ; EXTI Line1  
                                                                               
                                                                               
                                                                 
   87 00000060 00000000        DCD              EXTI2_IRQHandler ; EXTI Line2  
                                                                               
                                                                               
                                                                 
   88 00000064 00000000        DCD              EXTI3_IRQHandler ; EXTI Line3  
                                                                               
                                                                               
                                                                 
   89 00000068 00000000        DCD              EXTI4_IRQHandler ; EXTI Line4 
   90 0000006C 00000000        DCD              DMA1_Stream0_IRQHandler 
                                                            ; DMA1 Stream 0
   91 00000070 00000000        DCD              DMA1_Stream1_IRQHandler ; DMA1 
                                                            Stream 1           
                                                                               
                                                                 
   92 00000074 00000000        DCD              DMA1_Stream2_IRQHandler ; DMA1 
                                                            Stream 2           
                                                                               
                                                                 
   93 00000078 00000000        DCD              DMA1_Stream3_IRQHandler ; DMA1 
                                                            Stream 3           
                                                                               
                                                                 
   94 0000007C 00000000        DCD              DMA1_Stream4_IRQHandler ; DMA1 
                                                            Stream 4           
                                                                               
                                                                 
   95 00000080 00000000        DCD              DMA1_Stream5_IRQHandler ; DMA1 
                                                            Stream 5           
                                                                               
                                                                 
   96 00000084 00000000        DCD              DMA1_Stream6_IRQHandler 
                                                            ; DMA1 Stream 6  
   97 00000088 00000000        DCD              ADC_IRQHandler ; ADC1, ADC2    
                                                                               
                                                                  
   98 0000008C 00000000        DCD              FDCAN1_IT0_IRQHandler ; FDCAN1 



ARM Macro Assembler    Page 4 


                                                            interrupt line 0   
                                                                               
                                                              
   99 00000090 00000000        DCD              FDCAN2_IT0_IRQHandler ; FDCAN2 
                                                            interrupt line 0   
                                                                               
                                                                     
  100 00000094 00000000        DCD              FDCAN1_IT1_IRQHandler ; FDCAN1 
                                                            interrupt line 1   
                                                                               
                                                              
  101 00000098 00000000        DCD              FDCAN2_IT1_IRQHandler ; FDCAN2 
                                                            interrupt line 1   
                                                                               
                                                                               
                                                                  
  102 0000009C 00000000        DCD              EXTI9_5_IRQHandler ; External L
                                                            ine[9:5]s          
                                                                               
                                                                   
  103 000000A0 00000000        DCD              TIM1_BRK_IRQHandler ; TIM1 Brea
                                                            k interrupt        
                                                                       
  104 000000A4 00000000        DCD              TIM1_UP_IRQHandler ; TIM1 Updat
                                                            e Interrupt        
                                                                     
  105 000000A8 00000000        DCD              TIM1_TRG_COM_IRQHandler ; TIM1 
                                                            Trigger and Commuta
                                                            tion Interrupt 
  106 000000AC 00000000        DCD              TIM1_CC_IRQHandler ; TIM1 Captu
                                                            re Compare         
                                                                               
                                                                   
  107 000000B0 00000000        DCD              TIM2_IRQHandler ; TIM2         
                                                                               
                                                                            
  108 000000B4 00000000        DCD              TIM3_IRQHandler ; TIM3         
                                                                               
                                                                            
  109 000000B8 00000000        DCD              TIM4_IRQHandler ; TIM4         
                                                                               
                                                                            
  110 000000BC 00000000        DCD              I2C1_EV_IRQHandler ; I2C1 Event
                                                                               
                                                                               
                                                                   
  111 000000C0 00000000        DCD              I2C1_ER_IRQHandler ; I2C1 Error
                                                                               
                                                                               
                                                                   
  112 000000C4 00000000        DCD              I2C2_EV_IRQHandler ; I2C2 Event
                                                                               
                                                                               
                                                                   
  113 000000C8 00000000        DCD              I2C2_ER_IRQHandler ; I2C2 Error
                                                                               
                                                                               
                                                                     
  114 000000CC 00000000        DCD              SPI1_IRQHandler ; SPI1         



ARM Macro Assembler    Page 5 


                                                                               
                                                                            
  115 000000D0 00000000        DCD              SPI2_IRQHandler ; SPI2         
                                                                               
                                                                            
  116 000000D4 00000000        DCD              USART1_IRQHandler ; USART1     
                                                                               
                                                                              
  117 000000D8 00000000        DCD              USART2_IRQHandler ; USART2     
                                                                               
                                                                              
  118 000000DC 00000000        DCD              USART3_IRQHandler ; USART3     
                                                                               
                                                                              
  119 000000E0 00000000        DCD              EXTI15_10_IRQHandler ; External
                                                             Line[15:10]  
  120 000000E4 00000000        DCD              RTC_Alarm_IRQHandler ; RTC Alar
                                                            m (A and B) through
                                                             EXTI Line
  121 000000E8 00000000        DCD              0           ; Reserved         
                                                                               
                                                                          
  122 000000EC 00000000        DCD              TIM8_BRK_TIM12_IRQHandler ; TIM
                                                            8 Break Interrupt a
                                                            nd TIM12 global int
                                                            errupt             
                                                                
  123 000000F0 00000000        DCD              TIM8_UP_TIM13_IRQHandler ; TIM8
                                                             Update Interrupt a
                                                            nd TIM13 global int
                                                            errupt
  124 000000F4 00000000        DCD              TIM8_TRG_COM_TIM14_IRQHandler ;
                                                             TIM8 Trigger and C
                                                            ommutation Interrup
                                                            t and TIM14 global 
                                                            interrupt
  125 000000F8 00000000        DCD              TIM8_CC_IRQHandler ; TIM8 Captu
                                                            re Compare Interrup
                                                            t
  126 000000FC 00000000        DCD              DMA1_Stream7_IRQHandler ; DMA1 
                                                            Stream7            
                                                                               
                                                                        
  127 00000100 00000000        DCD              FMC_IRQHandler ; FMC           
                                                                              
  128 00000104 00000000        DCD              SDMMC1_IRQHandler ; SDMMC1     
                                                                               
                                                                
  129 00000108 00000000        DCD              TIM5_IRQHandler ; TIM5         
                                                                               
                                                            
  130 0000010C 00000000        DCD              SPI3_IRQHandler ; SPI3         
                                                                               
                                                            
  131 00000110 00000000        DCD              UART4_IRQHandler ; UART4       
                                                                               
                                                             
  132 00000114 00000000        DCD              UART5_IRQHandler ; UART5       
                                                                               



ARM Macro Assembler    Page 6 


                                                             
  133 00000118 00000000        DCD              TIM6_DAC_IRQHandler ; TIM6 and 
                                                            DAC1&2 underrun err
                                                            ors           
  134 0000011C 00000000        DCD              TIM7_IRQHandler 
                                                            ; TIM7           
  135 00000120 00000000        DCD              DMA2_Stream0_IRQHandler ; DMA2 
                                                            Stream 0           
                                                                    
  136 00000124 00000000        DCD              DMA2_Stream1_IRQHandler ; DMA2 
                                                            Stream 1           
                                                                    
  137 00000128 00000000        DCD              DMA2_Stream2_IRQHandler ; DMA2 
                                                            Stream 2           
                                                                    
  138 0000012C 00000000        DCD              DMA2_Stream3_IRQHandler ; DMA2 
                                                            Stream 3           
                                                                    
  139 00000130 00000000        DCD              DMA2_Stream4_IRQHandler ; DMA2 
                                                            Stream 4           
                                                                    
  140 00000134 00000000        DCD              ETH_IRQHandler ; Ethernet      
                                                                              
  141 00000138 00000000        DCD              ETH_WKUP_IRQHandler ; Ethernet 
                                                            Wakeup through EXTI
                                                             line              
                                                            
  142 0000013C 00000000        DCD              FDCAN_CAL_IRQHandler ; FDCAN ca
                                                            libration unit inte
                                                            rrupt              
                                                                      
  143 00000140 00000000        DCD              0           ; Reserved         
                                                                               
                                                              
  144 00000144 00000000        DCD              0           ; Reserved 
  145 00000148 00000000        DCD              0           ; Reserved 
  146 0000014C 00000000        DCD              0           ; Reserved         
                                                                         
  147 00000150 00000000        DCD              DMA2_Stream5_IRQHandler ; DMA2 
                                                            Stream 5           
                                                                    
  148 00000154 00000000        DCD              DMA2_Stream6_IRQHandler ; DMA2 
                                                            Stream 6           
                                                                    
  149 00000158 00000000        DCD              DMA2_Stream7_IRQHandler ; DMA2 
                                                            Stream 7           
                                                                    
  150 0000015C 00000000        DCD              USART6_IRQHandler ; USART6     
                                                                               
                                                               
  151 00000160 00000000        DCD              I2C3_EV_IRQHandler ; I2C3 event
                                                                               
                                                                      
  152 00000164 00000000        DCD              I2C3_ER_IRQHandler ; I2C3 error
                                                                               
                                                                      
  153 00000168 00000000        DCD              OTG_HS_EP1_OUT_IRQHandler ; USB
                                                             OTG HS End Point 1
                                                             Out               



ARM Macro Assembler    Page 7 


                                                                   
  154 0000016C 00000000        DCD              OTG_HS_EP1_IN_IRQHandler ; USB 
                                                            OTG HS End Point 1 
                                                            In                 
                                                                  
  155 00000170 00000000        DCD              OTG_HS_WKUP_IRQHandler ; USB OT
                                                            G HS Wakeup through
                                                             EXTI              
                                                                       
  156 00000174 00000000        DCD              OTG_HS_IRQHandler ; USB OTG HS 
                                                                               
                                                            
  157 00000178 00000000        DCD              DCMI_IRQHandler ; DCMI         
                                                                               
                                                            
  158 0000017C 00000000        DCD              0           ; Reserved         
                                                                               
                                                                     
  159 00000180 00000000        DCD              RNG_IRQHandler ; Rng
  160 00000184 00000000        DCD              FPU_IRQHandler ; FPU
  161 00000188 00000000        DCD              UART7_IRQHandler ; UART7
  162 0000018C 00000000        DCD              UART8_IRQHandler ; UART8
  163 00000190 00000000        DCD              SPI4_IRQHandler ; SPI4
  164 00000194 00000000        DCD              SPI5_IRQHandler ; SPI5
  165 00000198 00000000        DCD              SPI6_IRQHandler ; SPI6
  166 0000019C 00000000        DCD              SAI1_IRQHandler ; SAI1
  167 000001A0 00000000        DCD              LTDC_IRQHandler ; LTDC
  168 000001A4 00000000        DCD              LTDC_ER_IRQHandler ; LTDC error
                                                            
  169 000001A8 00000000        DCD              DMA2D_IRQHandler ; DMA2D
  170 000001AC 00000000        DCD              SAI2_IRQHandler ; SAI2
  171 000001B0 00000000        DCD              QUADSPI_IRQHandler ; QUADSPI
  172 000001B4 00000000        DCD              LPTIM1_IRQHandler ; LPTIM1
  173 000001B8 00000000        DCD              CEC_IRQHandler ; HDMI_CEC
  174 000001BC 00000000        DCD              I2C4_EV_IRQHandler ; I2C4 Event
                                                                               
                                                                      
  175 000001C0 00000000        DCD              I2C4_ER_IRQHandler 
                                                            ; I2C4 Error 
  176 000001C4 00000000        DCD              SPDIF_RX_IRQHandler ; SPDIF_RX
  177 000001C8 00000000        DCD              OTG_FS_EP1_OUT_IRQHandler ; USB
                                                             OTG FS End Point 1
                                                             Out               
                                                                   
  178 000001CC 00000000        DCD              OTG_FS_EP1_IN_IRQHandler ; USB 
                                                            OTG FS End Point 1 
                                                            In                 
                                                                  
  179 000001D0 00000000        DCD              OTG_FS_WKUP_IRQHandler ; USB OT
                                                            G FS Wakeup through
                                                             EXTI              
                                                                       
  180 000001D4 00000000        DCD              OTG_FS_IRQHandler ; USB OTG FS 
                                                                            
  181 000001D8 00000000        DCD              DMAMUX1_OVR_IRQHandler ; DMAMUX
                                                            1 Overrun interrupt
                                                              
  182 000001DC 00000000        DCD              HRTIM1_Master_IRQHandler ; HRTI
                                                            M Master Timer glob



ARM Macro Assembler    Page 8 


                                                            al Interrupts      
                                                                               
                                                                 
  183 000001E0 00000000        DCD              HRTIM1_TIMA_IRQHandler ; HRTIM 
                                                            Timer A global Inte
                                                            rrupt              
                                                                               
                                                               
  184 000001E4 00000000        DCD              HRTIM1_TIMB_IRQHandler ; HRTIM 
                                                            Timer B global Inte
                                                            rrupt              
                                                                               
                                                               
  185 000001E8 00000000        DCD              HRTIM1_TIMC_IRQHandler ; HRTIM 
                                                            Timer C global Inte
                                                            rrupt              
                                                                               
                                                               
  186 000001EC 00000000        DCD              HRTIM1_TIMD_IRQHandler ; HRTIM 
                                                            Timer D global Inte
                                                            rrupt              
                                                                               
                                                               
  187 000001F0 00000000        DCD              HRTIM1_TIME_IRQHandler ; HRTIM 
                                                            Timer E global Inte
                                                            rrupt              
                                                                               
                                                               
  188 000001F4 00000000        DCD              HRTIM1_FLT_IRQHandler ; HRTIM F
                                                            ault global Interru
                                                            pt 
  189 000001F8 00000000        DCD              DFSDM1_FLT0_IRQHandler ; DFSDM 
                                                            Filter0 Interrupt  
                                                             
  190 000001FC 00000000        DCD              DFSDM1_FLT1_IRQHandler ; DFSDM 
                                                            Filter1 Interrupt  
                                                                               
                                                                               
                                                                
  191 00000200 00000000        DCD              DFSDM1_FLT2_IRQHandler ; DFSDM 
                                                            Filter2 Interrupt  
                                                                               
                                                                               
                                                                
  192 00000204 00000000        DCD              DFSDM1_FLT3_IRQHandler ; DFSDM 
                                                            Filter3 Interrupt  
                                                                               
                                                                               
                                                                               
                                                                               
                                                                  
  193 00000208 00000000        DCD              SAI3_IRQHandler ; SAI3 global I
                                                            nterrupt           
                                                                               
                                                                           
  194 0000020C 00000000        DCD              SWPMI1_IRQHandler ; Serial Wire
                                                             Interface 1 global
                                                             interrupt         
                                                                             



ARM Macro Assembler    Page 9 


  195 00000210 00000000        DCD              TIM15_IRQHandler ; TIM15 global
                                                             Interrupt         
                                                                               
                                                                            
  196 00000214 00000000        DCD              TIM16_IRQHandler ; TIM16 global
                                                             Interrupt         
                                                                               
                                                                            
  197 00000218 00000000        DCD              TIM17_IRQHandler ; TIM17 global
                                                             Interrupt         
                                                                               
                                                                            
  198 0000021C 00000000        DCD              MDIOS_WKUP_IRQHandler ; MDIOS W
                                                            akeup  Interrupt   
                                                                               
                                                                               
                                                              
  199 00000220 00000000        DCD              MDIOS_IRQHandler ; MDIOS global
                                                             Interrupt         
                                                                               
                                                                            
  200 00000224 00000000        DCD              JPEG_IRQHandler ; JPEG global I
                                                            nterrupt           
                                                                               
                                                                           
  201 00000228 00000000        DCD              MDMA_IRQHandler ; MDMA global I
                                                            nterrupt           
                                                                               
                                                                           
  202 0000022C 00000000        DCD              0           ; Reserved         
                                                                               
                                                                               
                                                            
  203 00000230 00000000        DCD              SDMMC2_IRQHandler ; SDMMC2 glob
                                                            al Interrupt       
                                                                               
                                                                             
  204 00000234 00000000        DCD              HSEM1_IRQHandler ; HSEM1 global
                                                             Interrupt         
                                                                               
                                                                             
  205 00000238 00000000        DCD              0           ; Reserved         
                                                                               
                                                                              
  206 0000023C 00000000        DCD              ADC3_IRQHandler ; ADC3 global I
                                                            nterrupt           
                                                                               
                                                                            
  207 00000240 00000000        DCD              DMAMUX2_OVR_IRQHandler ; DMAMUX
                                                             Overrun interrupt 
                                                                               
                                                                               
                                                                
  208 00000244 00000000        DCD              BDMA_Channel0_IRQHandler ; BDMA
                                                             Channel 0 global I
                                                            nterrupt           
                                                                               
                                                                  
  209 00000248 00000000        DCD              BDMA_Channel1_IRQHandler ; BDMA



ARM Macro Assembler    Page 10 


                                                             Channel 1 global I
                                                            nterrupt           
                                                                               
                                                                  
  210 0000024C 00000000        DCD              BDMA_Channel2_IRQHandler ; BDMA
                                                             Channel 2 global I
                                                            nterrupt           
                                                                               
                                                                  
  211 00000250 00000000        DCD              BDMA_Channel3_IRQHandler ; BDMA
                                                             Channel 3 global I
                                                            nterrupt           
                                                                               
                                                                  
  212 00000254 00000000        DCD              BDMA_Channel4_IRQHandler ; BDMA
                                                             Channel 4 global I
                                                            nterrupt           
                                                                               
                                                                  
  213 00000258 00000000        DCD              BDMA_Channel5_IRQHandler ; BDMA
                                                             Channel 5 global I
                                                            nterrupt           
                                                                               
                                                                  
  214 0000025C 00000000        DCD              BDMA_Channel6_IRQHandler ; BDMA
                                                             Channel 6 global I
                                                            nterrupt           
                                                                               
                                                                  
  215 00000260 00000000        DCD              BDMA_Channel7_IRQHandler ; BDMA
                                                             Channel 7 global I
                                                            nterrupt           
                                                                               
                                                                  
  216 00000264 00000000        DCD              COMP1_IRQHandler ; COMP1 global
                                                             Interrupt         
                                                                               
                                                                            
  217 00000268 00000000        DCD              LPTIM2_IRQHandler ; LP TIM2 glo
                                                            bal interrupt      
                                                                               
                                                                             
  218 0000026C 00000000        DCD              LPTIM3_IRQHandler ; LP TIM3 glo
                                                            bal interrupt      
                                                                               
                                                                             
  219 00000270 00000000        DCD              LPTIM4_IRQHandler ; LP TIM4 glo
                                                            bal interrupt      
                                                                               
                                                                             
  220 00000274 00000000        DCD              LPTIM5_IRQHandler ; LP TIM5 glo
                                                            bal interrupt      
                                                                               
                                                                             
  221 00000278 00000000        DCD              LPUART1_IRQHandler ; LP UART1 i
                                                            nterrupt           
                                                                               
                                                                              
  222 0000027C 00000000        DCD              0           ; Reserved         



ARM Macro Assembler    Page 11 


                                                                               
                                                                               
                                                                               
                                                                        
  223 00000280 00000000        DCD              CRS_IRQHandler ; Clock Recovery
                                                             Global Interrupt  
                                                                               
                                                                          
  224 00000284 00000000        DCD              ECC_IRQHandler ; ECC diagnostic
                                                             Global Interrupt  
                                                                               
                                                                               
                                                                  
  225 00000288 00000000        DCD              SAI4_IRQHandler ; SAI4 global i
                                                            nterrupt           
                                                                               
                                                                              
  226 0000028C 00000000        DCD              0           ; Reserved         
                                                                               
                                                                 
  227 00000290 00000000        DCD              0           ; Reserved         
                                                                               
                                                                    
  228 00000294 00000000        DCD              WAKEUP_PIN_IRQHandler ; Interru
                                                            pt for all 6 wake-u
                                                            p pins 
  229 00000298         
  230 00000298         
  231 00000298         __Vectors_End
  232 00000298         
  233 00000298 00000298 
                       __Vectors_Size
                               EQU              __Vectors_End - __Vectors
  234 00000298         
  235 00000298                 AREA             |.text|, CODE, READONLY
  236 00000000         
  237 00000000         ; Reset handler
  238 00000000         Reset_Handler
                               PROC
  239 00000000                 EXPORT           Reset_Handler                  
  [WEAK]
  240 00000000                 IMPORT           SystemInit
  241 00000000                 IMPORT           __main
  242 00000000         
  243 00000000 F8DF 0030       LDR.W            R0, =0xE000ED88 ; 使能浮点运算 
                                                            CP10,CP11
  244 00000004 6801            LDR              R1,[R0]
  245 00000006 F441 0170       ORR              R1,R1,#(0xF << 20)
  246 0000000A 6001            STR              R1,[R0]
  247 0000000C         
  248 0000000C 480A            LDR              R0, =SystemInit
  249 0000000E 4780            BLX              R0
  250 00000010 480A            LDR              R0, =__main
  251 00000012 4700            BX               R0
  252 00000014                 ENDP
  253 00000014         
  254 00000014         ; Dummy Exception Handlers (infinite loops which can be 
                       modified)
  255 00000014         



ARM Macro Assembler    Page 12 


  256 00000014         NMI_Handler
                               PROC
  257 00000014                 EXPORT           NMI_Handler                    
  [WEAK]
  258 00000014 E7FE            B                .
  259 00000016                 ENDP
  261 00000016         HardFault_Handler
                               PROC
  262 00000016                 EXPORT           HardFault_Handler              
  [WEAK]
  263 00000016 E7FE            B                .
  264 00000018                 ENDP
  266 00000018         MemManage_Handler
                               PROC
  267 00000018                 EXPORT           MemManage_Handler              
  [WEAK]
  268 00000018 E7FE            B                .
  269 0000001A                 ENDP
  271 0000001A         BusFault_Handler
                               PROC
  272 0000001A                 EXPORT           BusFault_Handler               
  [WEAK]
  273 0000001A E7FE            B                .
  274 0000001C                 ENDP
  276 0000001C         UsageFault_Handler
                               PROC
  277 0000001C                 EXPORT           UsageFault_Handler             
  [WEAK]
  278 0000001C E7FE            B                .
  279 0000001E                 ENDP
  280 0000001E         SVC_Handler
                               PROC
  281 0000001E                 EXPORT           SVC_Handler                    
  [WEAK]
  282 0000001E E7FE            B                .
  283 00000020                 ENDP
  285 00000020         DebugMon_Handler
                               PROC
  286 00000020                 EXPORT           DebugMon_Handler               
   [WEAK]
  287 00000020 E7FE            B                .
  288 00000022                 ENDP
  289 00000022         PendSV_Handler
                               PROC
  290 00000022                 EXPORT           PendSV_Handler                 
   [WEAK]
  291 00000022 E7FE            B                .
  292 00000024                 ENDP
  293 00000024         SysTick_Handler
                               PROC
  294 00000024                 EXPORT           SysTick_Handler                
   [WEAK]
  295 00000024 E7FE            B                .
  296 00000026                 ENDP
  297 00000026         
  298 00000026         Default_Handler
                               PROC
  299 00000026         
  300 00000026                 EXPORT           WWDG_IRQHandler                



ARM Macro Assembler    Page 13 


   [WEAK]
  301 00000026                 EXPORT           PVD_AVD_IRQHandler             
   [WEAK]
  302 00000026                 EXPORT           TAMP_STAMP_IRQHandler          
   [WEAK]
  303 00000026                 EXPORT           RTC_WKUP_IRQHandler            
   [WEAK]
  304 00000026                 EXPORT           FLASH_IRQHandler               
   [WEAK]
  305 00000026                 EXPORT           RCC_IRQHandler                 
   [WEAK]
  306 00000026                 EXPORT           EXTI0_IRQHandler               
   [WEAK]
  307 00000026                 EXPORT           EXTI1_IRQHandler               
   [WEAK]
  308 00000026                 EXPORT           EXTI2_IRQHandler               
   [WEAK]
  309 00000026                 EXPORT           EXTI3_IRQHandler               
   [WEAK]
  310 00000026                 EXPORT           EXTI4_IRQHandler               
   [WEAK]
  311 00000026                 EXPORT           DMA1_Stream0_IRQHandler        
   [WEAK]
  312 00000026                 EXPORT           DMA1_Stream1_IRQHandler        
   [WEAK]
  313 00000026                 EXPORT           DMA1_Stream2_IRQHandler        
   [WEAK]
  314 00000026                 EXPORT           DMA1_Stream3_IRQHandler        
   [WEAK]
  315 00000026                 EXPORT           DMA1_Stream4_IRQHandler        
   [WEAK]
  316 00000026                 EXPORT           DMA1_Stream5_IRQHandler        
   [WEAK]
  317 00000026                 EXPORT           DMA1_Stream6_IRQHandler        
   [WEAK]
  318 00000026                 EXPORT           DMA1_Stream7_IRQHandler        
   [WEAK]
  319 00000026                 EXPORT           ADC_IRQHandler                 
   [WEAK]
  320 00000026                 EXPORT           FDCAN1_IT0_IRQHandler          
   [WEAK]
  321 00000026                 EXPORT           FDCAN2_IT0_IRQHandler          
   [WEAK]
  322 00000026                 EXPORT           FDCAN1_IT1_IRQHandler          
   [WEAK]
  323 00000026                 EXPORT           FDCAN2_IT1_IRQHandler          
   [WEAK]
  324 00000026                 EXPORT           EXTI9_5_IRQHandler             
   [WEAK]
  325 00000026                 EXPORT           TIM1_BRK_IRQHandler            
   [WEAK]
  326 00000026                 EXPORT           TIM1_UP_IRQHandler             
   [WEAK]
  327 00000026                 EXPORT           TIM1_TRG_COM_IRQHandler        
   [WEAK]
  328 00000026                 EXPORT           TIM1_CC_IRQHandler             
   [WEAK]
  329 00000026                 EXPORT           TIM2_IRQHandler                
   [WEAK]



ARM Macro Assembler    Page 14 


  330 00000026                 EXPORT           TIM3_IRQHandler                
   [WEAK]
  331 00000026                 EXPORT           TIM4_IRQHandler                
   [WEAK]
  332 00000026                 EXPORT           I2C1_EV_IRQHandler             
   [WEAK]
  333 00000026                 EXPORT           I2C1_ER_IRQHandler             
   [WEAK]
  334 00000026                 EXPORT           I2C2_EV_IRQHandler             
   [WEAK]
  335 00000026                 EXPORT           I2C2_ER_IRQHandler             
   [WEAK]
  336 00000026                 EXPORT           SPI1_IRQHandler                
   [WEAK]
  337 00000026                 EXPORT           SPI2_IRQHandler                
   [WEAK]
  338 00000026                 EXPORT           USART1_IRQHandler              
   [WEAK]
  339 00000026                 EXPORT           USART2_IRQHandler              
   [WEAK]
  340 00000026                 EXPORT           USART3_IRQHandler              
   [WEAK]
  341 00000026                 EXPORT           EXTI15_10_IRQHandler           
   [WEAK]
  342 00000026                 EXPORT           RTC_Alarm_IRQHandler           
   [WEAK]
  343 00000026                 EXPORT           TIM8_BRK_TIM12_IRQHandler      
   [WEAK]
  344 00000026                 EXPORT           TIM8_UP_TIM13_IRQHandler       
   [WEAK]
  345 00000026                 EXPORT           TIM8_TRG_COM_TIM14_IRQHandler  
   [WEAK]
  346 00000026                 EXPORT           TIM8_CC_IRQHandler             
   [WEAK]
  347 00000026                 EXPORT           DMA1_Stream7_IRQHandler        
   [WEAK]
  348 00000026                 EXPORT           FMC_IRQHandler                 
   [WEAK]
  349 00000026                 EXPORT           SDMMC1_IRQHandler              
   [WEAK]
  350 00000026                 EXPORT           TIM5_IRQHandler                
   [WEAK]
  351 00000026                 EXPORT           SPI3_IRQHandler                
   [WEAK]
  352 00000026                 EXPORT           UART4_IRQHandler               
   [WEAK]
  353 00000026                 EXPORT           UART5_IRQHandler               
   [WEAK]
  354 00000026                 EXPORT           TIM6_DAC_IRQHandler            
   [WEAK]
  355 00000026                 EXPORT           TIM7_IRQHandler                
   [WEAK]
  356 00000026                 EXPORT           DMA2_Stream0_IRQHandler        
   [WEAK]
  357 00000026                 EXPORT           DMA2_Stream1_IRQHandler        
   [WEAK]
  358 00000026                 EXPORT           DMA2_Stream2_IRQHandler        
   [WEAK]
  359 00000026                 EXPORT           DMA2_Stream3_IRQHandler        



ARM Macro Assembler    Page 15 


   [WEAK]
  360 00000026                 EXPORT           DMA2_Stream4_IRQHandler        
   [WEAK]
  361 00000026                 EXPORT           ETH_IRQHandler                 
   [WEAK]
  362 00000026                 EXPORT           ETH_WKUP_IRQHandler            
   [WEAK]
  363 00000026                 EXPORT           FDCAN_CAL_IRQHandler           
   [WEAK]
  364 00000026                 EXPORT           DMA2_Stream5_IRQHandler        
   [WEAK]
  365 00000026                 EXPORT           DMA2_Stream6_IRQHandler        
   [WEAK]
  366 00000026                 EXPORT           DMA2_Stream7_IRQHandler        
   [WEAK]
  367 00000026                 EXPORT           USART6_IRQHandler              
   [WEAK]
  368 00000026                 EXPORT           I2C3_EV_IRQHandler             
   [WEAK]
  369 00000026                 EXPORT           I2C3_ER_IRQHandler             
   [WEAK]
  370 00000026                 EXPORT           OTG_HS_EP1_OUT_IRQHandler      
   [WEAK]
  371 00000026                 EXPORT           OTG_HS_EP1_IN_IRQHandler       
   [WEAK]
  372 00000026                 EXPORT           OTG_HS_WKUP_IRQHandler         
   [WEAK]
  373 00000026                 EXPORT           OTG_HS_IRQHandler              
   [WEAK]
  374 00000026                 EXPORT           DCMI_IRQHandler                
   [WEAK]
  375 00000026                 EXPORT           RNG_IRQHandler                 
   [WEAK]
  376 00000026                 EXPORT           FPU_IRQHandler                 
   [WEAK]
  377 00000026                 EXPORT           UART7_IRQHandler               
   [WEAK]
  378 00000026                 EXPORT           UART8_IRQHandler               
   [WEAK]
  379 00000026                 EXPORT           SPI4_IRQHandler                
   [WEAK]
  380 00000026                 EXPORT           SPI5_IRQHandler                
   [WEAK]
  381 00000026                 EXPORT           SPI6_IRQHandler                
   [WEAK]
  382 00000026                 EXPORT           SAI1_IRQHandler                
   [WEAK]
  383 00000026                 EXPORT           LTDC_IRQHandler                
   [WEAK]
  384 00000026                 EXPORT           LTDC_ER_IRQHandler             
   [WEAK]
  385 00000026                 EXPORT           DMA2D_IRQHandler               
   [WEAK]
  386 00000026                 EXPORT           SAI2_IRQHandler                
   [WEAK]
  387 00000026                 EXPORT           QUADSPI_IRQHandler             
   [WEAK]
  388 00000026                 EXPORT           LPTIM1_IRQHandler              
   [WEAK]



ARM Macro Assembler    Page 16 


  389 00000026                 EXPORT           CEC_IRQHandler                 
   [WEAK]
  390 00000026                 EXPORT           I2C4_EV_IRQHandler             
   [WEAK]
  391 00000026                 EXPORT           I2C4_ER_IRQHandler             
   [WEAK]
  392 00000026                 EXPORT           SPDIF_RX_IRQHandler            
   [WEAK]
  393 00000026                 EXPORT           OTG_FS_EP1_OUT_IRQHandler      
   [WEAK]
  394 00000026                 EXPORT           OTG_FS_EP1_IN_IRQHandler       
   [WEAK]
  395 00000026                 EXPORT           OTG_FS_WKUP_IRQHandler         
   [WEAK]
  396 00000026                 EXPORT           OTG_FS_IRQHandler              
   [WEAK]
  397 00000026                 EXPORT           DMAMUX1_OVR_IRQHandler         
   [WEAK]
  398 00000026                 EXPORT           HRTIM1_Master_IRQHandler       
   [WEAK]
  399 00000026                 EXPORT           HRTIM1_TIMA_IRQHandler         
   [WEAK]
  400 00000026                 EXPORT           HRTIM1_TIMB_IRQHandler         
   [WEAK]
  401 00000026                 EXPORT           HRTIM1_TIMC_IRQHandler         
   [WEAK]
  402 00000026                 EXPORT           HRTIM1_TIMD_IRQHandler         
   [WEAK]
  403 00000026                 EXPORT           HRTIM1_TIME_IRQHandler         
   [WEAK]
  404 00000026                 EXPORT           HRTIM1_FLT_IRQHandler          
   [WEAK]
  405 00000026                 EXPORT           DFSDM1_FLT0_IRQHandler         
   [WEAK]
  406 00000026                 EXPORT           DFSDM1_FLT1_IRQHandler         
   [WEAK]
  407 00000026                 EXPORT           DFSDM1_FLT2_IRQHandler         
   [WEAK]
  408 00000026                 EXPORT           DFSDM1_FLT3_IRQHandler         
   [WEAK]
  409 00000026                 EXPORT           SAI3_IRQHandler                
   [WEAK]
  410 00000026                 EXPORT           SWPMI1_IRQHandler              
   [WEAK]
  411 00000026                 EXPORT           TIM15_IRQHandler               
   [WEAK]
  412 00000026                 EXPORT           TIM16_IRQHandler               
   [WEAK]
  413 00000026                 EXPORT           TIM17_IRQHandler               
   [WEAK]
  414 00000026                 EXPORT           MDIOS_WKUP_IRQHandler          
   [WEAK]
  415 00000026                 EXPORT           MDIOS_IRQHandler               
   [WEAK]
  416 00000026                 EXPORT           JPEG_IRQHandler                
   [WEAK]
  417 00000026                 EXPORT           MDMA_IRQHandler                
   [WEAK]
  418 00000026                 EXPORT           SDMMC2_IRQHandler              



ARM Macro Assembler    Page 17 


   [WEAK]
  419 00000026                 EXPORT           HSEM1_IRQHandler               
   [WEAK]
  420 00000026                 EXPORT           ADC3_IRQHandler                
   [WEAK]
  421 00000026                 EXPORT           DMAMUX2_OVR_IRQHandler         
   [WEAK]
  422 00000026                 EXPORT           BDMA_Channel0_IRQHandler       
   [WEAK]
  423 00000026                 EXPORT           BDMA_Channel1_IRQHandler       
   [WEAK]
  424 00000026                 EXPORT           BDMA_Channel2_IRQHandler       
   [WEAK]
  425 00000026                 EXPORT           BDMA_Channel3_IRQHandler       
   [WEAK]
  426 00000026                 EXPORT           BDMA_Channel4_IRQHandler       
   [WEAK]
  427 00000026                 EXPORT           BDMA_Channel5_IRQHandler       
   [WEAK]
  428 00000026                 EXPORT           BDMA_Channel6_IRQHandler       
   [WEAK]
  429 00000026                 EXPORT           BDMA_Channel7_IRQHandler       
   [WEAK]
  430 00000026                 EXPORT           COMP1_IRQHandler               
   [WEAK]
  431 00000026                 EXPORT           LPTIM2_IRQHandler              
   [WEAK]
  432 00000026                 EXPORT           LPTIM3_IRQHandler              
   [WEAK]
  433 00000026                 EXPORT           LPTIM4_IRQHandler              
   [WEAK]
  434 00000026                 EXPORT           LPTIM5_IRQHandler              
   [WEAK]
  435 00000026                 EXPORT           LPUART1_IRQHandler             
   [WEAK]
  436 00000026                 EXPORT           CRS_IRQHandler                 
   [WEAK]
  437 00000026                 EXPORT           ECC_IRQHandler                 
   [WEAK]
  438 00000026                 EXPORT           SAI4_IRQHandler                
   [WEAK]
  439 00000026                 EXPORT           WAKEUP_PIN_IRQHandler          
   [WEAK]
  440 00000026         
  441 00000026         
  442 00000026         WWDG_IRQHandler
  443 00000026         PVD_AVD_IRQHandler
  444 00000026         TAMP_STAMP_IRQHandler
  445 00000026         RTC_WKUP_IRQHandler
  446 00000026         FLASH_IRQHandler
  447 00000026         RCC_IRQHandler
  448 00000026         EXTI0_IRQHandler
  449 00000026         EXTI1_IRQHandler
  450 00000026         EXTI2_IRQHandler
  451 00000026         EXTI3_IRQHandler
  452 00000026         EXTI4_IRQHandler
  453 00000026         DMA1_Stream0_IRQHandler
  454 00000026         DMA1_Stream1_IRQHandler
  455 00000026         DMA1_Stream2_IRQHandler



ARM Macro Assembler    Page 18 


  456 00000026         DMA1_Stream3_IRQHandler
  457 00000026         DMA1_Stream4_IRQHandler
  458 00000026         DMA1_Stream5_IRQHandler
  459 00000026         DMA1_Stream6_IRQHandler
  460 00000026         ADC_IRQHandler
  461 00000026         FDCAN1_IT0_IRQHandler
  462 00000026         FDCAN2_IT0_IRQHandler
  463 00000026         FDCAN1_IT1_IRQHandler
  464 00000026         FDCAN2_IT1_IRQHandler
  465 00000026         EXTI9_5_IRQHandler
  466 00000026         TIM1_BRK_IRQHandler
  467 00000026         TIM1_UP_IRQHandler
  468 00000026         TIM1_TRG_COM_IRQHandler
  469 00000026         TIM1_CC_IRQHandler
  470 00000026         TIM2_IRQHandler
  471 00000026         TIM3_IRQHandler
  472 00000026         TIM4_IRQHandler
  473 00000026         I2C1_EV_IRQHandler
  474 00000026         I2C1_ER_IRQHandler
  475 00000026         I2C2_EV_IRQHandler
  476 00000026         I2C2_ER_IRQHandler
  477 00000026         SPI1_IRQHandler
  478 00000026         SPI2_IRQHandler
  479 00000026         USART1_IRQHandler
  480 00000026         USART2_IRQHandler
  481 00000026         USART3_IRQHandler
  482 00000026         EXTI15_10_IRQHandler
  483 00000026         RTC_Alarm_IRQHandler
  484 00000026         TIM8_BRK_TIM12_IRQHandler
  485 00000026         TIM8_UP_TIM13_IRQHandler
  486 00000026         TIM8_TRG_COM_TIM14_IRQHandler
  487 00000026         TIM8_CC_IRQHandler
  488 00000026         DMA1_Stream7_IRQHandler
  489 00000026         FMC_IRQHandler
  490 00000026         SDMMC1_IRQHandler
  491 00000026         TIM5_IRQHandler
  492 00000026         SPI3_IRQHandler
  493 00000026         UART4_IRQHandler
  494 00000026         UART5_IRQHandler
  495 00000026         TIM6_DAC_IRQHandler
  496 00000026         TIM7_IRQHandler
  497 00000026         DMA2_Stream0_IRQHandler
  498 00000026         DMA2_Stream1_IRQHandler
  499 00000026         DMA2_Stream2_IRQHandler
  500 00000026         DMA2_Stream3_IRQHandler
  501 00000026         DMA2_Stream4_IRQHandler
  502 00000026         ETH_IRQHandler
  503 00000026         ETH_WKUP_IRQHandler
  504 00000026         FDCAN_CAL_IRQHandler
  505 00000026         DMA2_Stream5_IRQHandler
  506 00000026         DMA2_Stream6_IRQHandler
  507 00000026         DMA2_Stream7_IRQHandler
  508 00000026         USART6_IRQHandler
  509 00000026         I2C3_EV_IRQHandler
  510 00000026         I2C3_ER_IRQHandler
  511 00000026         OTG_HS_EP1_OUT_IRQHandler
  512 00000026         OTG_HS_EP1_IN_IRQHandler
  513 00000026         OTG_HS_WKUP_IRQHandler
  514 00000026         OTG_HS_IRQHandler



ARM Macro Assembler    Page 19 


  515 00000026         DCMI_IRQHandler
  516 00000026         RNG_IRQHandler
  517 00000026         FPU_IRQHandler
  518 00000026         UART7_IRQHandler
  519 00000026         UART8_IRQHandler
  520 00000026         SPI4_IRQHandler
  521 00000026         SPI5_IRQHandler
  522 00000026         SPI6_IRQHandler
  523 00000026         SAI1_IRQHandler
  524 00000026         LTDC_IRQHandler
  525 00000026         LTDC_ER_IRQHandler
  526 00000026         DMA2D_IRQHandler
  527 00000026         SAI2_IRQHandler
  528 00000026         QUADSPI_IRQHandler
  529 00000026         LPTIM1_IRQHandler
  530 00000026         CEC_IRQHandler
  531 00000026         I2C4_EV_IRQHandler
  532 00000026         I2C4_ER_IRQHandler
  533 00000026         SPDIF_RX_IRQHandler
  534 00000026         OTG_FS_EP1_OUT_IRQHandler
  535 00000026         OTG_FS_EP1_IN_IRQHandler
  536 00000026         OTG_FS_WKUP_IRQHandler
  537 00000026         OTG_FS_IRQHandler
  538 00000026         DMAMUX1_OVR_IRQHandler
  539 00000026         HRTIM1_Master_IRQHandler
  540 00000026         HRTIM1_TIMA_IRQHandler
  541 00000026         HRTIM1_TIMB_IRQHandler
  542 00000026         HRTIM1_TIMC_IRQHandler
  543 00000026         HRTIM1_TIMD_IRQHandler
  544 00000026         HRTIM1_TIME_IRQHandler
  545 00000026         HRTIM1_FLT_IRQHandler
  546 00000026         DFSDM1_FLT0_IRQHandler
  547 00000026         DFSDM1_FLT1_IRQHandler
  548 00000026         DFSDM1_FLT2_IRQHandler
  549 00000026         DFSDM1_FLT3_IRQHandler
  550 00000026         SAI3_IRQHandler
  551 00000026         SWPMI1_IRQHandler
  552 00000026         TIM15_IRQHandler
  553 00000026         TIM16_IRQHandler
  554 00000026         TIM17_IRQHandler
  555 00000026         MDIOS_WKUP_IRQHandler
  556 00000026         MDIOS_IRQHandler
  557 00000026         JPEG_IRQHandler
  558 00000026         MDMA_IRQHandler
  559 00000026         SDMMC2_IRQHandler
  560 00000026         HSEM1_IRQHandler
  561 00000026         ADC3_IRQHandler
  562 00000026         DMAMUX2_OVR_IRQHandler
  563 00000026         BDMA_Channel0_IRQHandler
  564 00000026         BDMA_Channel1_IRQHandler
  565 00000026         BDMA_Channel2_IRQHandler
  566 00000026         BDMA_Channel3_IRQHandler
  567 00000026         BDMA_Channel4_IRQHandler
  568 00000026         BDMA_Channel5_IRQHandler
  569 00000026         BDMA_Channel6_IRQHandler
  570 00000026         BDMA_Channel7_IRQHandler
  571 00000026         COMP1_IRQHandler
  572 00000026         LPTIM2_IRQHandler
  573 00000026         LPTIM3_IRQHandler



ARM Macro Assembler    Page 20 


  574 00000026         LPTIM4_IRQHandler
  575 00000026         LPTIM5_IRQHandler
  576 00000026         LPUART1_IRQHandler
  577 00000026         CRS_IRQHandler
  578 00000026         ECC_IRQHandler
  579 00000026         SAI4_IRQHandler
  580 00000026         WAKEUP_PIN_IRQHandler
  581 00000026         
  582 00000026 E7FE            B                .
  583 00000028         
  584 00000028                 ENDP
  585 00000028         
  586 00000028                 ALIGN
  587 00000028         
  588 00000028         ;*******************************************************
                       ************************
  589 00000028         ; User Stack and Heap initialization
  590 00000028         ;*******************************************************
                       ************************
  591 00000028                 IF               :DEF:__MICROLIB
  598 00000028         
  599 00000028                 IMPORT           __use_two_region_memory
  600 00000028                 EXPORT           __user_initial_stackheap
  601 00000028         
  602 00000028         __user_initial_stackheap
  603 00000028         
  604 00000028 4805            LDR              R0, =  Heap_Mem
  605 0000002A 4906            LDR              R1, =(Stack_Mem + Stack_Size)
  606 0000002C 4A06            LDR              R2, = (Heap_Mem +  Heap_Size)
  607 0000002E 4B07            LDR              R3, = Stack_Mem
  608 00000030 4770            BX               LR
  609 00000032         
  610 00000032 00 00           ALIGN
  611 00000034         
  612 00000034                 ENDIF
  613 00000034         
  614 00000034                 END
              E000ED88 
              00000000 
              00000000 
              00000000 
              00001200 
              00000800 
              00000000 
Command Line: --debug --xref --diag_suppress=9931 --cpu=Cortex-M7.fp.dp --apcs=
interwork --depend=..\..\output\startup_stm32h743xx.d -o..\..\output\startup_st
m32h743xx.o -ID:\MDK\install\Keil\STM32H7xx_DFP\2.3.0\Drivers\CMSIS\Device\ST\S
TM32H7xx\Include -ID:\MDK\install\ARM\CMSIS\Include --predefine="__UVISION_VERS
ION SETA 532" --predefine="STM32H743xx SETA 1" --list=..\..\output\startup_stm3
2h743xx.lst ..\..\Drivers\CMSIS\Device\ST\STM32H7xx\Source\Templates\arm\startu
p_stm32h743xx.s



ARM Macro Assembler    Page 1 Alphabetic symbol ordering
Relocatable symbols

STACK 00000000

Symbol: STACK
   Definitions
      At line 34 in file ..\..\Drivers\CMSIS\Device\ST\STM32H7xx\Source\Templat
es\arm\startup_stm32h743xx.s
   Uses
      None
Comment: STACK unused
Stack_Mem 00000000

Symbol: Stack_Mem
   Definitions
      At line 35 in file ..\..\Drivers\CMSIS\Device\ST\STM32H7xx\Source\Templat
es\arm\startup_stm32h743xx.s
   Uses
      At line 605 in file ..\..\Drivers\CMSIS\Device\ST\STM32H7xx\Source\Templa
tes\arm\startup_stm32h743xx.s
      At line 607 in file ..\..\Drivers\CMSIS\Device\ST\STM32H7xx\Source\Templa
tes\arm\startup_stm32h743xx.s

__initial_sp 00001200

Symbol: __initial_sp
   Definitions
      At line 36 in file ..\..\Drivers\CMSIS\Device\ST\STM32H7xx\Source\Templat
es\arm\startup_stm32h743xx.s
   Uses
      At line 61 in file ..\..\Drivers\CMSIS\Device\ST\STM32H7xx\Source\Templat
es\arm\startup_stm32h743xx.s
Comment: __initial_sp used once
3 symbols



ARM Macro Assembler    Page 1 Alphabetic symbol ordering
Relocatable symbols

HEAP 00000000

Symbol: HEAP
   Definitions
      At line 46 in file ..\..\Drivers\CMSIS\Device\ST\STM32H7xx\Source\Templat
es\arm\startup_stm32h743xx.s
   Uses
      None
Comment: HEAP unused
Heap_Mem 00000000

Symbol: Heap_Mem
   Definitions
      At line 48 in file ..\..\Drivers\CMSIS\Device\ST\STM32H7xx\Source\Templat
es\arm\startup_stm32h743xx.s
   Uses
      At line 604 in file ..\..\Drivers\CMSIS\Device\ST\STM32H7xx\Source\Templa
tes\arm\startup_stm32h743xx.s
      At line 606 in file ..\..\Drivers\CMSIS\Device\ST\STM32H7xx\Source\Templa
tes\arm\startup_stm32h743xx.s

__heap_base 00000000

Symbol: __heap_base
   Definitions
      At line 47 in file ..\..\Drivers\CMSIS\Device\ST\STM32H7xx\Source\Templat
es\arm\startup_stm32h743xx.s
   Uses
      None
Comment: __heap_base unused
__heap_limit 00000800

Symbol: __heap_limit
   Definitions
      At line 49 in file ..\..\Drivers\CMSIS\Device\ST\STM32H7xx\Source\Templat
es\arm\startup_stm32h743xx.s
   Uses
      None
Comment: __heap_limit unused
4 symbols



ARM Macro Assembler    Page 1 Alphabetic symbol ordering
Relocatable symbols

RESET 00000000

Symbol: RESET
   Definitions
      At line 56 in file ..\..\Drivers\CMSIS\Device\ST\STM32H7xx\Source\Templat
es\arm\startup_stm32h743xx.s
   Uses
      None
Comment: RESET unused
__Vectors 00000000

Symbol: __Vectors
   Definitions
      At line 61 in file ..\..\Drivers\CMSIS\Device\ST\STM32H7xx\Source\Templat
es\arm\startup_stm32h743xx.s
   Uses
      At line 57 in file ..\..\Drivers\CMSIS\Device\ST\STM32H7xx\Source\Templat
es\arm\startup_stm32h743xx.s
      At line 233 in file ..\..\Drivers\CMSIS\Device\ST\STM32H7xx\Source\Templa
tes\arm\startup_stm32h743xx.s

__Vectors_End 00000298

Symbol: __Vectors_End
   Definitions
      At line 231 in file ..\..\Drivers\CMSIS\Device\ST\STM32H7xx\Source\Templa
tes\arm\startup_stm32h743xx.s
   Uses
      At line 58 in file ..\..\Drivers\CMSIS\Device\ST\STM32H7xx\Source\Templat
es\arm\startup_stm32h743xx.s
      At line 233 in file ..\..\Drivers\CMSIS\Device\ST\STM32H7xx\Source\Templa
tes\arm\startup_stm32h743xx.s

3 symbols



ARM Macro Assembler    Page 1 Alphabetic symbol ordering
Relocatable symbols

.text 00000000

Symbol: .text
   Definitions
      At line 235 in file ..\..\Drivers\CMSIS\Device\ST\STM32H7xx\Source\Templa
tes\arm\startup_stm32h743xx.s
   Uses
      None
Comment: .text unused
ADC3_IRQHandler 00000026

Symbol: ADC3_IRQHandler
   Definitions
      At line 561 in file ..\..\Drivers\CMSIS\Device\ST\STM32H7xx\Source\Templa
tes\arm\startup_stm32h743xx.s
   Uses
      At line 206 in file ..\..\Drivers\CMSIS\Device\ST\STM32H7xx\Source\Templa
tes\arm\startup_stm32h743xx.s
      At line 420 in file ..\..\Drivers\CMSIS\Device\ST\STM32H7xx\Source\Templa
tes\arm\startup_stm32h743xx.s

ADC_IRQHandler 00000026

Symbol: ADC_IRQHandler
   Definitions
      At line 460 in file ..\..\Drivers\CMSIS\Device\ST\STM32H7xx\Source\Templa
tes\arm\startup_stm32h743xx.s
   Uses
      At line 97 in file ..\..\Drivers\CMSIS\Device\ST\STM32H7xx\Source\Templat
es\arm\startup_stm32h743xx.s
      At line 319 in file ..\..\Drivers\CMSIS\Device\ST\STM32H7xx\Source\Templa
tes\arm\startup_stm32h743xx.s

BDMA_Channel0_IRQHandler 00000026

Symbol: BDMA_Channel0_IRQHandler
   Definitions
      At line 563 in file ..\..\Drivers\CMSIS\Device\ST\STM32H7xx\Source\Templa
tes\arm\startup_stm32h743xx.s
   Uses
      At line 208 in file ..\..\Drivers\CMSIS\Device\ST\STM32H7xx\Source\Templa
tes\arm\startup_stm32h743xx.s
      At line 422 in file ..\..\Drivers\CMSIS\Device\ST\STM32H7xx\Source\Templa
tes\arm\startup_stm32h743xx.s

BDMA_Channel1_IRQHandler 00000026

Symbol: BDMA_Channel1_IRQHandler
   Definitions
      At line 564 in file ..\..\Drivers\CMSIS\Device\ST\STM32H7xx\Source\Templa
tes\arm\startup_stm32h743xx.s
   Uses
      At line 209 in file ..\..\Drivers\CMSIS\Device\ST\STM32H7xx\Source\Templa
tes\arm\startup_stm32h743xx.s
      At line 423 in file ..\..\Drivers\CMSIS\Device\ST\STM32H7xx\Source\Templa
tes\arm\startup_stm32h743xx.s

BDMA_Channel2_IRQHandler 00000026




ARM Macro Assembler    Page 2 Alphabetic symbol ordering
Relocatable symbols

Symbol: BDMA_Channel2_IRQHandler
   Definitions
      At line 565 in file ..\..\Drivers\CMSIS\Device\ST\STM32H7xx\Source\Templa
tes\arm\startup_stm32h743xx.s
   Uses
      At line 210 in file ..\..\Drivers\CMSIS\Device\ST\STM32H7xx\Source\Templa
tes\arm\startup_stm32h743xx.s
      At line 424 in file ..\..\Drivers\CMSIS\Device\ST\STM32H7xx\Source\Templa
tes\arm\startup_stm32h743xx.s

BDMA_Channel3_IRQHandler 00000026

Symbol: BDMA_Channel3_IRQHandler
   Definitions
      At line 566 in file ..\..\Drivers\CMSIS\Device\ST\STM32H7xx\Source\Templa
tes\arm\startup_stm32h743xx.s
   Uses
      At line 211 in file ..\..\Drivers\CMSIS\Device\ST\STM32H7xx\Source\Templa
tes\arm\startup_stm32h743xx.s
      At line 425 in file ..\..\Drivers\CMSIS\Device\ST\STM32H7xx\Source\Templa
tes\arm\startup_stm32h743xx.s

BDMA_Channel4_IRQHandler 00000026

Symbol: BDMA_Channel4_IRQHandler
   Definitions
      At line 567 in file ..\..\Drivers\CMSIS\Device\ST\STM32H7xx\Source\Templa
tes\arm\startup_stm32h743xx.s
   Uses
      At line 212 in file ..\..\Drivers\CMSIS\Device\ST\STM32H7xx\Source\Templa
tes\arm\startup_stm32h743xx.s
      At line 426 in file ..\..\Drivers\CMSIS\Device\ST\STM32H7xx\Source\Templa
tes\arm\startup_stm32h743xx.s

BDMA_Channel5_IRQHandler 00000026

Symbol: BDMA_Channel5_IRQHandler
   Definitions
      At line 568 in file ..\..\Drivers\CMSIS\Device\ST\STM32H7xx\Source\Templa
tes\arm\startup_stm32h743xx.s
   Uses
      At line 213 in file ..\..\Drivers\CMSIS\Device\ST\STM32H7xx\Source\Templa
tes\arm\startup_stm32h743xx.s
      At line 427 in file ..\..\Drivers\CMSIS\Device\ST\STM32H7xx\Source\Templa
tes\arm\startup_stm32h743xx.s

BDMA_Channel6_IRQHandler 00000026

Symbol: BDMA_Channel6_IRQHandler
   Definitions
      At line 569 in file ..\..\Drivers\CMSIS\Device\ST\STM32H7xx\Source\Templa
tes\arm\startup_stm32h743xx.s
   Uses
      At line 214 in file ..\..\Drivers\CMSIS\Device\ST\STM32H7xx\Source\Templa
tes\arm\startup_stm32h743xx.s
      At line 428 in file ..\..\Drivers\CMSIS\Device\ST\STM32H7xx\Source\Templa
tes\arm\startup_stm32h743xx.s

BDMA_Channel7_IRQHandler 00000026



ARM Macro Assembler    Page 3 Alphabetic symbol ordering
Relocatable symbols


Symbol: BDMA_Channel7_IRQHandler
   Definitions
      At line 570 in file ..\..\Drivers\CMSIS\Device\ST\STM32H7xx\Source\Templa
tes\arm\startup_stm32h743xx.s
   Uses
      At line 215 in file ..\..\Drivers\CMSIS\Device\ST\STM32H7xx\Source\Templa
tes\arm\startup_stm32h743xx.s
      At line 429 in file ..\..\Drivers\CMSIS\Device\ST\STM32H7xx\Source\Templa
tes\arm\startup_stm32h743xx.s

BusFault_Handler 0000001A

Symbol: BusFault_Handler
   Definitions
      At line 271 in file ..\..\Drivers\CMSIS\Device\ST\STM32H7xx\Source\Templa
tes\arm\startup_stm32h743xx.s
   Uses
      At line 66 in file ..\..\Drivers\CMSIS\Device\ST\STM32H7xx\Source\Templat
es\arm\startup_stm32h743xx.s
      At line 272 in file ..\..\Drivers\CMSIS\Device\ST\STM32H7xx\Source\Templa
tes\arm\startup_stm32h743xx.s

CEC_IRQHandler 00000026

Symbol: CEC_IRQHandler
   Definitions
      At line 530 in file ..\..\Drivers\CMSIS\Device\ST\STM32H7xx\Source\Templa
tes\arm\startup_stm32h743xx.s
   Uses
      At line 173 in file ..\..\Drivers\CMSIS\Device\ST\STM32H7xx\Source\Templa
tes\arm\startup_stm32h743xx.s
      At line 389 in file ..\..\Drivers\CMSIS\Device\ST\STM32H7xx\Source\Templa
tes\arm\startup_stm32h743xx.s

COMP1_IRQHandler 00000026

Symbol: COMP1_IRQHandler
   Definitions
      At line 571 in file ..\..\Drivers\CMSIS\Device\ST\STM32H7xx\Source\Templa
tes\arm\startup_stm32h743xx.s
   Uses
      At line 216 in file ..\..\Drivers\CMSIS\Device\ST\STM32H7xx\Source\Templa
tes\arm\startup_stm32h743xx.s
      At line 430 in file ..\..\Drivers\CMSIS\Device\ST\STM32H7xx\Source\Templa
tes\arm\startup_stm32h743xx.s

CRS_IRQHandler 00000026

Symbol: CRS_IRQHandler
   Definitions
      At line 577 in file ..\..\Drivers\CMSIS\Device\ST\STM32H7xx\Source\Templa
tes\arm\startup_stm32h743xx.s
   Uses
      At line 223 in file ..\..\Drivers\CMSIS\Device\ST\STM32H7xx\Source\Templa
tes\arm\startup_stm32h743xx.s
      At line 436 in file ..\..\Drivers\CMSIS\Device\ST\STM32H7xx\Source\Templa
tes\arm\startup_stm32h743xx.s




ARM Macro Assembler    Page 4 Alphabetic symbol ordering
Relocatable symbols

DCMI_IRQHandler 00000026

Symbol: DCMI_IRQHandler
   Definitions
      At line 515 in file ..\..\Drivers\CMSIS\Device\ST\STM32H7xx\Source\Templa
tes\arm\startup_stm32h743xx.s
   Uses
      At line 157 in file ..\..\Drivers\CMSIS\Device\ST\STM32H7xx\Source\Templa
tes\arm\startup_stm32h743xx.s
      At line 374 in file ..\..\Drivers\CMSIS\Device\ST\STM32H7xx\Source\Templa
tes\arm\startup_stm32h743xx.s

DFSDM1_FLT0_IRQHandler 00000026

Symbol: DFSDM1_FLT0_IRQHandler
   Definitions
      At line 546 in file ..\..\Drivers\CMSIS\Device\ST\STM32H7xx\Source\Templa
tes\arm\startup_stm32h743xx.s
   Uses
      At line 189 in file ..\..\Drivers\CMSIS\Device\ST\STM32H7xx\Source\Templa
tes\arm\startup_stm32h743xx.s
      At line 405 in file ..\..\Drivers\CMSIS\Device\ST\STM32H7xx\Source\Templa
tes\arm\startup_stm32h743xx.s

DFSDM1_FLT1_IRQHandler 00000026

Symbol: DFSDM1_FLT1_IRQHandler
   Definitions
      At line 547 in file ..\..\Drivers\CMSIS\Device\ST\STM32H7xx\Source\Templa
tes\arm\startup_stm32h743xx.s
   Uses
      At line 190 in file ..\..\Drivers\CMSIS\Device\ST\STM32H7xx\Source\Templa
tes\arm\startup_stm32h743xx.s
      At line 406 in file ..\..\Drivers\CMSIS\Device\ST\STM32H7xx\Source\Templa
tes\arm\startup_stm32h743xx.s

DFSDM1_FLT2_IRQHandler 00000026

Symbol: DFSDM1_FLT2_IRQHandler
   Definitions
      At line 548 in file ..\..\Drivers\CMSIS\Device\ST\STM32H7xx\Source\Templa
tes\arm\startup_stm32h743xx.s
   Uses
      At line 191 in file ..\..\Drivers\CMSIS\Device\ST\STM32H7xx\Source\Templa
tes\arm\startup_stm32h743xx.s
      At line 407 in file ..\..\Drivers\CMSIS\Device\ST\STM32H7xx\Source\Templa
tes\arm\startup_stm32h743xx.s

DFSDM1_FLT3_IRQHandler 00000026

Symbol: DFSDM1_FLT3_IRQHandler
   Definitions
      At line 549 in file ..\..\Drivers\CMSIS\Device\ST\STM32H7xx\Source\Templa
tes\arm\startup_stm32h743xx.s
   Uses
      At line 192 in file ..\..\Drivers\CMSIS\Device\ST\STM32H7xx\Source\Templa
tes\arm\startup_stm32h743xx.s
      At line 408 in file ..\..\Drivers\CMSIS\Device\ST\STM32H7xx\Source\Templa
tes\arm\startup_stm32h743xx.s



ARM Macro Assembler    Page 5 Alphabetic symbol ordering
Relocatable symbols


DMA1_Stream0_IRQHandler 00000026

Symbol: DMA1_Stream0_IRQHandler
   Definitions
      At line 453 in file ..\..\Drivers\CMSIS\Device\ST\STM32H7xx\Source\Templa
tes\arm\startup_stm32h743xx.s
   Uses
      At line 90 in file ..\..\Drivers\CMSIS\Device\ST\STM32H7xx\Source\Templat
es\arm\startup_stm32h743xx.s
      At line 311 in file ..\..\Drivers\CMSIS\Device\ST\STM32H7xx\Source\Templa
tes\arm\startup_stm32h743xx.s

DMA1_Stream1_IRQHandler 00000026

Symbol: DMA1_Stream1_IRQHandler
   Definitions
      At line 454 in file ..\..\Drivers\CMSIS\Device\ST\STM32H7xx\Source\Templa
tes\arm\startup_stm32h743xx.s
   Uses
      At line 91 in file ..\..\Drivers\CMSIS\Device\ST\STM32H7xx\Source\Templat
es\arm\startup_stm32h743xx.s
      At line 312 in file ..\..\Drivers\CMSIS\Device\ST\STM32H7xx\Source\Templa
tes\arm\startup_stm32h743xx.s

DMA1_Stream2_IRQHandler 00000026

Symbol: DMA1_Stream2_IRQHandler
   Definitions
      At line 455 in file ..\..\Drivers\CMSIS\Device\ST\STM32H7xx\Source\Templa
tes\arm\startup_stm32h743xx.s
   Uses
      At line 92 in file ..\..\Drivers\CMSIS\Device\ST\STM32H7xx\Source\Templat
es\arm\startup_stm32h743xx.s
      At line 313 in file ..\..\Drivers\CMSIS\Device\ST\STM32H7xx\Source\Templa
tes\arm\startup_stm32h743xx.s

DMA1_Stream3_IRQHandler 00000026

Symbol: DMA1_Stream3_IRQHandler
   Definitions
      At line 456 in file ..\..\Drivers\CMSIS\Device\ST\STM32H7xx\Source\Templa
tes\arm\startup_stm32h743xx.s
   Uses
      At line 93 in file ..\..\Drivers\CMSIS\Device\ST\STM32H7xx\Source\Templat
es\arm\startup_stm32h743xx.s
      At line 314 in file ..\..\Drivers\CMSIS\Device\ST\STM32H7xx\Source\Templa
tes\arm\startup_stm32h743xx.s

DMA1_Stream4_IRQHandler 00000026

Symbol: DMA1_Stream4_IRQHandler
   Definitions
      At line 457 in file ..\..\Drivers\CMSIS\Device\ST\STM32H7xx\Source\Templa
tes\arm\startup_stm32h743xx.s
   Uses
      At line 94 in file ..\..\Drivers\CMSIS\Device\ST\STM32H7xx\Source\Templat
es\arm\startup_stm32h743xx.s
      At line 315 in file ..\..\Drivers\CMSIS\Device\ST\STM32H7xx\Source\Templa



ARM Macro Assembler    Page 6 Alphabetic symbol ordering
Relocatable symbols

tes\arm\startup_stm32h743xx.s

DMA1_Stream5_IRQHandler 00000026

Symbol: DMA1_Stream5_IRQHandler
   Definitions
      At line 458 in file ..\..\Drivers\CMSIS\Device\ST\STM32H7xx\Source\Templa
tes\arm\startup_stm32h743xx.s
   Uses
      At line 95 in file ..\..\Drivers\CMSIS\Device\ST\STM32H7xx\Source\Templat
es\arm\startup_stm32h743xx.s
      At line 316 in file ..\..\Drivers\CMSIS\Device\ST\STM32H7xx\Source\Templa
tes\arm\startup_stm32h743xx.s

DMA1_Stream6_IRQHandler 00000026

Symbol: DMA1_Stream6_IRQHandler
   Definitions
      At line 459 in file ..\..\Drivers\CMSIS\Device\ST\STM32H7xx\Source\Templa
tes\arm\startup_stm32h743xx.s
   Uses
      At line 96 in file ..\..\Drivers\CMSIS\Device\ST\STM32H7xx\Source\Templat
es\arm\startup_stm32h743xx.s
      At line 317 in file ..\..\Drivers\CMSIS\Device\ST\STM32H7xx\Source\Templa
tes\arm\startup_stm32h743xx.s

DMA1_Stream7_IRQHandler 00000026

Symbol: DMA1_Stream7_IRQHandler
   Definitions
      At line 488 in file ..\..\Drivers\CMSIS\Device\ST\STM32H7xx\Source\Templa
tes\arm\startup_stm32h743xx.s
   Uses
      At line 126 in file ..\..\Drivers\CMSIS\Device\ST\STM32H7xx\Source\Templa
tes\arm\startup_stm32h743xx.s
      At line 318 in file ..\..\Drivers\CMSIS\Device\ST\STM32H7xx\Source\Templa
tes\arm\startup_stm32h743xx.s
      At line 347 in file ..\..\Drivers\CMSIS\Device\ST\STM32H7xx\Source\Templa
tes\arm\startup_stm32h743xx.s

DMA2D_IRQHandler 00000026

Symbol: DMA2D_IRQHandler
   Definitions
      At line 526 in file ..\..\Drivers\CMSIS\Device\ST\STM32H7xx\Source\Templa
tes\arm\startup_stm32h743xx.s
   Uses
      At line 169 in file ..\..\Drivers\CMSIS\Device\ST\STM32H7xx\Source\Templa
tes\arm\startup_stm32h743xx.s
      At line 385 in file ..\..\Drivers\CMSIS\Device\ST\STM32H7xx\Source\Templa
tes\arm\startup_stm32h743xx.s

DMA2_Stream0_IRQHandler 00000026

Symbol: DMA2_Stream0_IRQHandler
   Definitions
      At line 497 in file ..\..\Drivers\CMSIS\Device\ST\STM32H7xx\Source\Templa
tes\arm\startup_stm32h743xx.s
   Uses



ARM Macro Assembler    Page 7 Alphabetic symbol ordering
Relocatable symbols

      At line 135 in file ..\..\Drivers\CMSIS\Device\ST\STM32H7xx\Source\Templa
tes\arm\startup_stm32h743xx.s
      At line 356 in file ..\..\Drivers\CMSIS\Device\ST\STM32H7xx\Source\Templa
tes\arm\startup_stm32h743xx.s

DMA2_Stream1_IRQHandler 00000026

Symbol: DMA2_Stream1_IRQHandler
   Definitions
      At line 498 in file ..\..\Drivers\CMSIS\Device\ST\STM32H7xx\Source\Templa
tes\arm\startup_stm32h743xx.s
   Uses
      At line 136 in file ..\..\Drivers\CMSIS\Device\ST\STM32H7xx\Source\Templa
tes\arm\startup_stm32h743xx.s
      At line 357 in file ..\..\Drivers\CMSIS\Device\ST\STM32H7xx\Source\Templa
tes\arm\startup_stm32h743xx.s

DMA2_Stream2_IRQHandler 00000026

Symbol: DMA2_Stream2_IRQHandler
   Definitions
      At line 499 in file ..\..\Drivers\CMSIS\Device\ST\STM32H7xx\Source\Templa
tes\arm\startup_stm32h743xx.s
   Uses
      At line 137 in file ..\..\Drivers\CMSIS\Device\ST\STM32H7xx\Source\Templa
tes\arm\startup_stm32h743xx.s
      At line 358 in file ..\..\Drivers\CMSIS\Device\ST\STM32H7xx\Source\Templa
tes\arm\startup_stm32h743xx.s

DMA2_Stream3_IRQHandler 00000026

Symbol: DMA2_Stream3_IRQHandler
   Definitions
      At line 500 in file ..\..\Drivers\CMSIS\Device\ST\STM32H7xx\Source\Templa
tes\arm\startup_stm32h743xx.s
   Uses
      At line 138 in file ..\..\Drivers\CMSIS\Device\ST\STM32H7xx\Source\Templa
tes\arm\startup_stm32h743xx.s
      At line 359 in file ..\..\Drivers\CMSIS\Device\ST\STM32H7xx\Source\Templa
tes\arm\startup_stm32h743xx.s

DMA2_Stream4_IRQHandler 00000026

Symbol: DMA2_Stream4_IRQHandler
   Definitions
      At line 501 in file ..\..\Drivers\CMSIS\Device\ST\STM32H7xx\Source\Templa
tes\arm\startup_stm32h743xx.s
   Uses
      At line 139 in file ..\..\Drivers\CMSIS\Device\ST\STM32H7xx\Source\Templa
tes\arm\startup_stm32h743xx.s
      At line 360 in file ..\..\Drivers\CMSIS\Device\ST\STM32H7xx\Source\Templa
tes\arm\startup_stm32h743xx.s

DMA2_Stream5_IRQHandler 00000026

Symbol: DMA2_Stream5_IRQHandler
   Definitions
      At line 505 in file ..\..\Drivers\CMSIS\Device\ST\STM32H7xx\Source\Templa
tes\arm\startup_stm32h743xx.s



ARM Macro Assembler    Page 8 Alphabetic symbol ordering
Relocatable symbols

   Uses
      At line 147 in file ..\..\Drivers\CMSIS\Device\ST\STM32H7xx\Source\Templa
tes\arm\startup_stm32h743xx.s
      At line 364 in file ..\..\Drivers\CMSIS\Device\ST\STM32H7xx\Source\Templa
tes\arm\startup_stm32h743xx.s

DMA2_Stream6_IRQHandler 00000026

Symbol: DMA2_Stream6_IRQHandler
   Definitions
      At line 506 in file ..\..\Drivers\CMSIS\Device\ST\STM32H7xx\Source\Templa
tes\arm\startup_stm32h743xx.s
   Uses
      At line 148 in file ..\..\Drivers\CMSIS\Device\ST\STM32H7xx\Source\Templa
tes\arm\startup_stm32h743xx.s
      At line 365 in file ..\..\Drivers\CMSIS\Device\ST\STM32H7xx\Source\Templa
tes\arm\startup_stm32h743xx.s

DMA2_Stream7_IRQHandler 00000026

Symbol: DMA2_Stream7_IRQHandler
   Definitions
      At line 507 in file ..\..\Drivers\CMSIS\Device\ST\STM32H7xx\Source\Templa
tes\arm\startup_stm32h743xx.s
   Uses
      At line 149 in file ..\..\Drivers\CMSIS\Device\ST\STM32H7xx\Source\Templa
tes\arm\startup_stm32h743xx.s
      At line 366 in file ..\..\Drivers\CMSIS\Device\ST\STM32H7xx\Source\Templa
tes\arm\startup_stm32h743xx.s

DMAMUX1_OVR_IRQHandler 00000026

Symbol: DMAMUX1_OVR_IRQHandler
   Definitions
      At line 538 in file ..\..\Drivers\CMSIS\Device\ST\STM32H7xx\Source\Templa
tes\arm\startup_stm32h743xx.s
   Uses
      At line 181 in file ..\..\Drivers\CMSIS\Device\ST\STM32H7xx\Source\Templa
tes\arm\startup_stm32h743xx.s
      At line 397 in file ..\..\Drivers\CMSIS\Device\ST\STM32H7xx\Source\Templa
tes\arm\startup_stm32h743xx.s

DMAMUX2_OVR_IRQHandler 00000026

Symbol: DMAMUX2_OVR_IRQHandler
   Definitions
      At line 562 in file ..\..\Drivers\CMSIS\Device\ST\STM32H7xx\Source\Templa
tes\arm\startup_stm32h743xx.s
   Uses
      At line 207 in file ..\..\Drivers\CMSIS\Device\ST\STM32H7xx\Source\Templa
tes\arm\startup_stm32h743xx.s
      At line 421 in file ..\..\Drivers\CMSIS\Device\ST\STM32H7xx\Source\Templa
tes\arm\startup_stm32h743xx.s

DebugMon_Handler 00000020

Symbol: DebugMon_Handler
   Definitions
      At line 285 in file ..\..\Drivers\CMSIS\Device\ST\STM32H7xx\Source\Templa



ARM Macro Assembler    Page 9 Alphabetic symbol ordering
Relocatable symbols

tes\arm\startup_stm32h743xx.s
   Uses
      At line 73 in file ..\..\Drivers\CMSIS\Device\ST\STM32H7xx\Source\Templat
es\arm\startup_stm32h743xx.s
      At line 286 in file ..\..\Drivers\CMSIS\Device\ST\STM32H7xx\Source\Templa
tes\arm\startup_stm32h743xx.s

Default_Handler 00000026

Symbol: Default_Handler
   Definitions
      At line 298 in file ..\..\Drivers\CMSIS\Device\ST\STM32H7xx\Source\Templa
tes\arm\startup_stm32h743xx.s
   Uses
      None
Comment: Default_Handler unused
ECC_IRQHandler 00000026

Symbol: ECC_IRQHandler
   Definitions
      At line 578 in file ..\..\Drivers\CMSIS\Device\ST\STM32H7xx\Source\Templa
tes\arm\startup_stm32h743xx.s
   Uses
      At line 224 in file ..\..\Drivers\CMSIS\Device\ST\STM32H7xx\Source\Templa
tes\arm\startup_stm32h743xx.s
      At line 437 in file ..\..\Drivers\CMSIS\Device\ST\STM32H7xx\Source\Templa
tes\arm\startup_stm32h743xx.s

ETH_IRQHandler 00000026

Symbol: ETH_IRQHandler
   Definitions
      At line 502 in file ..\..\Drivers\CMSIS\Device\ST\STM32H7xx\Source\Templa
tes\arm\startup_stm32h743xx.s
   Uses
      At line 140 in file ..\..\Drivers\CMSIS\Device\ST\STM32H7xx\Source\Templa
tes\arm\startup_stm32h743xx.s
      At line 361 in file ..\..\Drivers\CMSIS\Device\ST\STM32H7xx\Source\Templa
tes\arm\startup_stm32h743xx.s

ETH_WKUP_IRQHandler 00000026

Symbol: ETH_WKUP_IRQHandler
   Definitions
      At line 503 in file ..\..\Drivers\CMSIS\Device\ST\STM32H7xx\Source\Templa
tes\arm\startup_stm32h743xx.s
   Uses
      At line 141 in file ..\..\Drivers\CMSIS\Device\ST\STM32H7xx\Source\Templa
tes\arm\startup_stm32h743xx.s
      At line 362 in file ..\..\Drivers\CMSIS\Device\ST\STM32H7xx\Source\Templa
tes\arm\startup_stm32h743xx.s

EXTI0_IRQHandler 00000026

Symbol: EXTI0_IRQHandler
   Definitions
      At line 448 in file ..\..\Drivers\CMSIS\Device\ST\STM32H7xx\Source\Templa
tes\arm\startup_stm32h743xx.s
   Uses



ARM Macro Assembler    Page 10 Alphabetic symbol ordering
Relocatable symbols

      At line 85 in file ..\..\Drivers\CMSIS\Device\ST\STM32H7xx\Source\Templat
es\arm\startup_stm32h743xx.s
      At line 306 in file ..\..\Drivers\CMSIS\Device\ST\STM32H7xx\Source\Templa
tes\arm\startup_stm32h743xx.s

EXTI15_10_IRQHandler 00000026

Symbol: EXTI15_10_IRQHandler
   Definitions
      At line 482 in file ..\..\Drivers\CMSIS\Device\ST\STM32H7xx\Source\Templa
tes\arm\startup_stm32h743xx.s
   Uses
      At line 119 in file ..\..\Drivers\CMSIS\Device\ST\STM32H7xx\Source\Templa
tes\arm\startup_stm32h743xx.s
      At line 341 in file ..\..\Drivers\CMSIS\Device\ST\STM32H7xx\Source\Templa
tes\arm\startup_stm32h743xx.s

EXTI1_IRQHandler 00000026

Symbol: EXTI1_IRQHandler
   Definitions
      At line 449 in file ..\..\Drivers\CMSIS\Device\ST\STM32H7xx\Source\Templa
tes\arm\startup_stm32h743xx.s
   Uses
      At line 86 in file ..\..\Drivers\CMSIS\Device\ST\STM32H7xx\Source\Templat
es\arm\startup_stm32h743xx.s
      At line 307 in file ..\..\Drivers\CMSIS\Device\ST\STM32H7xx\Source\Templa
tes\arm\startup_stm32h743xx.s

EXTI2_IRQHandler 00000026

Symbol: EXTI2_IRQHandler
   Definitions
      At line 450 in file ..\..\Drivers\CMSIS\Device\ST\STM32H7xx\Source\Templa
tes\arm\startup_stm32h743xx.s
   Uses
      At line 87 in file ..\..\Drivers\CMSIS\Device\ST\STM32H7xx\Source\Templat
es\arm\startup_stm32h743xx.s
      At line 308 in file ..\..\Drivers\CMSIS\Device\ST\STM32H7xx\Source\Templa
tes\arm\startup_stm32h743xx.s

EXTI3_IRQHandler 00000026

Symbol: EXTI3_IRQHandler
   Definitions
      At line 451 in file ..\..\Drivers\CMSIS\Device\ST\STM32H7xx\Source\Templa
tes\arm\startup_stm32h743xx.s
   Uses
      At line 88 in file ..\..\Drivers\CMSIS\Device\ST\STM32H7xx\Source\Templat
es\arm\startup_stm32h743xx.s
      At line 309 in file ..\..\Drivers\CMSIS\Device\ST\STM32H7xx\Source\Templa
tes\arm\startup_stm32h743xx.s

EXTI4_IRQHandler 00000026

Symbol: EXTI4_IRQHandler
   Definitions
      At line 452 in file ..\..\Drivers\CMSIS\Device\ST\STM32H7xx\Source\Templa
tes\arm\startup_stm32h743xx.s



ARM Macro Assembler    Page 11 Alphabetic symbol ordering
Relocatable symbols

   Uses
      At line 89 in file ..\..\Drivers\CMSIS\Device\ST\STM32H7xx\Source\Templat
es\arm\startup_stm32h743xx.s
      At line 310 in file ..\..\Drivers\CMSIS\Device\ST\STM32H7xx\Source\Templa
tes\arm\startup_stm32h743xx.s

EXTI9_5_IRQHandler 00000026

Symbol: EXTI9_5_IRQHandler
   Definitions
      At line 465 in file ..\..\Drivers\CMSIS\Device\ST\STM32H7xx\Source\Templa
tes\arm\startup_stm32h743xx.s
   Uses
      At line 102 in file ..\..\Drivers\CMSIS\Device\ST\STM32H7xx\Source\Templa
tes\arm\startup_stm32h743xx.s
      At line 324 in file ..\..\Drivers\CMSIS\Device\ST\STM32H7xx\Source\Templa
tes\arm\startup_stm32h743xx.s

FDCAN1_IT0_IRQHandler 00000026

Symbol: FDCAN1_IT0_IRQHandler
   Definitions
      At line 461 in file ..\..\Drivers\CMSIS\Device\ST\STM32H7xx\Source\Templa
tes\arm\startup_stm32h743xx.s
   Uses
      At line 98 in file ..\..\Drivers\CMSIS\Device\ST\STM32H7xx\Source\Templat
es\arm\startup_stm32h743xx.s
      At line 320 in file ..\..\Drivers\CMSIS\Device\ST\STM32H7xx\Source\Templa
tes\arm\startup_stm32h743xx.s

FDCAN1_IT1_IRQHandler 00000026

Symbol: FDCAN1_IT1_IRQHandler
   Definitions
      At line 463 in file ..\..\Drivers\CMSIS\Device\ST\STM32H7xx\Source\Templa
tes\arm\startup_stm32h743xx.s
   Uses
      At line 100 in file ..\..\Drivers\CMSIS\Device\ST\STM32H7xx\Source\Templa
tes\arm\startup_stm32h743xx.s
      At line 322 in file ..\..\Drivers\CMSIS\Device\ST\STM32H7xx\Source\Templa
tes\arm\startup_stm32h743xx.s

FDCAN2_IT0_IRQHandler 00000026

Symbol: FDCAN2_IT0_IRQHandler
   Definitions
      At line 462 in file ..\..\Drivers\CMSIS\Device\ST\STM32H7xx\Source\Templa
tes\arm\startup_stm32h743xx.s
   Uses
      At line 99 in file ..\..\Drivers\CMSIS\Device\ST\STM32H7xx\Source\Templat
es\arm\startup_stm32h743xx.s
      At line 321 in file ..\..\Drivers\CMSIS\Device\ST\STM32H7xx\Source\Templa
tes\arm\startup_stm32h743xx.s

FDCAN2_IT1_IRQHandler 00000026

Symbol: FDCAN2_IT1_IRQHandler
   Definitions
      At line 464 in file ..\..\Drivers\CMSIS\Device\ST\STM32H7xx\Source\Templa



ARM Macro Assembler    Page 12 Alphabetic symbol ordering
Relocatable symbols

tes\arm\startup_stm32h743xx.s
   Uses
      At line 101 in file ..\..\Drivers\CMSIS\Device\ST\STM32H7xx\Source\Templa
tes\arm\startup_stm32h743xx.s
      At line 323 in file ..\..\Drivers\CMSIS\Device\ST\STM32H7xx\Source\Templa
tes\arm\startup_stm32h743xx.s

FDCAN_CAL_IRQHandler 00000026

Symbol: FDCAN_CAL_IRQHandler
   Definitions
      At line 504 in file ..\..\Drivers\CMSIS\Device\ST\STM32H7xx\Source\Templa
tes\arm\startup_stm32h743xx.s
   Uses
      At line 142 in file ..\..\Drivers\CMSIS\Device\ST\STM32H7xx\Source\Templa
tes\arm\startup_stm32h743xx.s
      At line 363 in file ..\..\Drivers\CMSIS\Device\ST\STM32H7xx\Source\Templa
tes\arm\startup_stm32h743xx.s

FLASH_IRQHandler 00000026

Symbol: FLASH_IRQHandler
   Definitions
      At line 446 in file ..\..\Drivers\CMSIS\Device\ST\STM32H7xx\Source\Templa
tes\arm\startup_stm32h743xx.s
   Uses
      At line 83 in file ..\..\Drivers\CMSIS\Device\ST\STM32H7xx\Source\Templat
es\arm\startup_stm32h743xx.s
      At line 304 in file ..\..\Drivers\CMSIS\Device\ST\STM32H7xx\Source\Templa
tes\arm\startup_stm32h743xx.s

FMC_IRQHandler 00000026

Symbol: FMC_IRQHandler
   Definitions
      At line 489 in file ..\..\Drivers\CMSIS\Device\ST\STM32H7xx\Source\Templa
tes\arm\startup_stm32h743xx.s
   Uses
      At line 127 in file ..\..\Drivers\CMSIS\Device\ST\STM32H7xx\Source\Templa
tes\arm\startup_stm32h743xx.s
      At line 348 in file ..\..\Drivers\CMSIS\Device\ST\STM32H7xx\Source\Templa
tes\arm\startup_stm32h743xx.s

FPU_IRQHandler 00000026

Symbol: FPU_IRQHandler
   Definitions
      At line 517 in file ..\..\Drivers\CMSIS\Device\ST\STM32H7xx\Source\Templa
tes\arm\startup_stm32h743xx.s
   Uses
      At line 160 in file ..\..\Drivers\CMSIS\Device\ST\STM32H7xx\Source\Templa
tes\arm\startup_stm32h743xx.s
      At line 376 in file ..\..\Drivers\CMSIS\Device\ST\STM32H7xx\Source\Templa
tes\arm\startup_stm32h743xx.s

HRTIM1_FLT_IRQHandler 00000026

Symbol: HRTIM1_FLT_IRQHandler
   Definitions



ARM Macro Assembler    Page 13 Alphabetic symbol ordering
Relocatable symbols

      At line 545 in file ..\..\Drivers\CMSIS\Device\ST\STM32H7xx\Source\Templa
tes\arm\startup_stm32h743xx.s
   Uses
      At line 188 in file ..\..\Drivers\CMSIS\Device\ST\STM32H7xx\Source\Templa
tes\arm\startup_stm32h743xx.s
      At line 404 in file ..\..\Drivers\CMSIS\Device\ST\STM32H7xx\Source\Templa
tes\arm\startup_stm32h743xx.s

HRTIM1_Master_IRQHandler 00000026

Symbol: HRTIM1_Master_IRQHandler
   Definitions
      At line 539 in file ..\..\Drivers\CMSIS\Device\ST\STM32H7xx\Source\Templa
tes\arm\startup_stm32h743xx.s
   Uses
      At line 182 in file ..\..\Drivers\CMSIS\Device\ST\STM32H7xx\Source\Templa
tes\arm\startup_stm32h743xx.s
      At line 398 in file ..\..\Drivers\CMSIS\Device\ST\STM32H7xx\Source\Templa
tes\arm\startup_stm32h743xx.s

HRTIM1_TIMA_IRQHandler 00000026

Symbol: HRTIM1_TIMA_IRQHandler
   Definitions
      At line 540 in file ..\..\Drivers\CMSIS\Device\ST\STM32H7xx\Source\Templa
tes\arm\startup_stm32h743xx.s
   Uses
      At line 183 in file ..\..\Drivers\CMSIS\Device\ST\STM32H7xx\Source\Templa
tes\arm\startup_stm32h743xx.s
      At line 399 in file ..\..\Drivers\CMSIS\Device\ST\STM32H7xx\Source\Templa
tes\arm\startup_stm32h743xx.s

HRTIM1_TIMB_IRQHandler 00000026

Symbol: HRTIM1_TIMB_IRQHandler
   Definitions
      At line 541 in file ..\..\Drivers\CMSIS\Device\ST\STM32H7xx\Source\Templa
tes\arm\startup_stm32h743xx.s
   Uses
      At line 184 in file ..\..\Drivers\CMSIS\Device\ST\STM32H7xx\Source\Templa
tes\arm\startup_stm32h743xx.s
      At line 400 in file ..\..\Drivers\CMSIS\Device\ST\STM32H7xx\Source\Templa
tes\arm\startup_stm32h743xx.s

HRTIM1_TIMC_IRQHandler 00000026

Symbol: HRTIM1_TIMC_IRQHandler
   Definitions
      At line 542 in file ..\..\Drivers\CMSIS\Device\ST\STM32H7xx\Source\Templa
tes\arm\startup_stm32h743xx.s
   Uses
      At line 185 in file ..\..\Drivers\CMSIS\Device\ST\STM32H7xx\Source\Templa
tes\arm\startup_stm32h743xx.s
      At line 401 in file ..\..\Drivers\CMSIS\Device\ST\STM32H7xx\Source\Templa
tes\arm\startup_stm32h743xx.s

HRTIM1_TIMD_IRQHandler 00000026

Symbol: HRTIM1_TIMD_IRQHandler



ARM Macro Assembler    Page 14 Alphabetic symbol ordering
Relocatable symbols

   Definitions
      At line 543 in file ..\..\Drivers\CMSIS\Device\ST\STM32H7xx\Source\Templa
tes\arm\startup_stm32h743xx.s
   Uses
      At line 186 in file ..\..\Drivers\CMSIS\Device\ST\STM32H7xx\Source\Templa
tes\arm\startup_stm32h743xx.s
      At line 402 in file ..\..\Drivers\CMSIS\Device\ST\STM32H7xx\Source\Templa
tes\arm\startup_stm32h743xx.s

HRTIM1_TIME_IRQHandler 00000026

Symbol: HRTIM1_TIME_IRQHandler
   Definitions
      At line 544 in file ..\..\Drivers\CMSIS\Device\ST\STM32H7xx\Source\Templa
tes\arm\startup_stm32h743xx.s
   Uses
      At line 187 in file ..\..\Drivers\CMSIS\Device\ST\STM32H7xx\Source\Templa
tes\arm\startup_stm32h743xx.s
      At line 403 in file ..\..\Drivers\CMSIS\Device\ST\STM32H7xx\Source\Templa
tes\arm\startup_stm32h743xx.s

HSEM1_IRQHandler 00000026

Symbol: HSEM1_IRQHandler
   Definitions
      At line 560 in file ..\..\Drivers\CMSIS\Device\ST\STM32H7xx\Source\Templa
tes\arm\startup_stm32h743xx.s
   Uses
      At line 204 in file ..\..\Drivers\CMSIS\Device\ST\STM32H7xx\Source\Templa
tes\arm\startup_stm32h743xx.s
      At line 419 in file ..\..\Drivers\CMSIS\Device\ST\STM32H7xx\Source\Templa
tes\arm\startup_stm32h743xx.s

HardFault_Handler 00000016

Symbol: HardFault_Handler
   Definitions
      At line 261 in file ..\..\Drivers\CMSIS\Device\ST\STM32H7xx\Source\Templa
tes\arm\startup_stm32h743xx.s
   Uses
      At line 64 in file ..\..\Drivers\CMSIS\Device\ST\STM32H7xx\Source\Templat
es\arm\startup_stm32h743xx.s
      At line 262 in file ..\..\Drivers\CMSIS\Device\ST\STM32H7xx\Source\Templa
tes\arm\startup_stm32h743xx.s

I2C1_ER_IRQHandler 00000026

Symbol: I2C1_ER_IRQHandler
   Definitions
      At line 474 in file ..\..\Drivers\CMSIS\Device\ST\STM32H7xx\Source\Templa
tes\arm\startup_stm32h743xx.s
   Uses
      At line 111 in file ..\..\Drivers\CMSIS\Device\ST\STM32H7xx\Source\Templa
tes\arm\startup_stm32h743xx.s
      At line 333 in file ..\..\Drivers\CMSIS\Device\ST\STM32H7xx\Source\Templa
tes\arm\startup_stm32h743xx.s

I2C1_EV_IRQHandler 00000026




ARM Macro Assembler    Page 15 Alphabetic symbol ordering
Relocatable symbols

Symbol: I2C1_EV_IRQHandler
   Definitions
      At line 473 in file ..\..\Drivers\CMSIS\Device\ST\STM32H7xx\Source\Templa
tes\arm\startup_stm32h743xx.s
   Uses
      At line 110 in file ..\..\Drivers\CMSIS\Device\ST\STM32H7xx\Source\Templa
tes\arm\startup_stm32h743xx.s
      At line 332 in file ..\..\Drivers\CMSIS\Device\ST\STM32H7xx\Source\Templa
tes\arm\startup_stm32h743xx.s

I2C2_ER_IRQHandler 00000026

Symbol: I2C2_ER_IRQHandler
   Definitions
      At line 476 in file ..\..\Drivers\CMSIS\Device\ST\STM32H7xx\Source\Templa
tes\arm\startup_stm32h743xx.s
   Uses
      At line 113 in file ..\..\Drivers\CMSIS\Device\ST\STM32H7xx\Source\Templa
tes\arm\startup_stm32h743xx.s
      At line 335 in file ..\..\Drivers\CMSIS\Device\ST\STM32H7xx\Source\Templa
tes\arm\startup_stm32h743xx.s

I2C2_EV_IRQHandler 00000026

Symbol: I2C2_EV_IRQHandler
   Definitions
      At line 475 in file ..\..\Drivers\CMSIS\Device\ST\STM32H7xx\Source\Templa
tes\arm\startup_stm32h743xx.s
   Uses
      At line 112 in file ..\..\Drivers\CMSIS\Device\ST\STM32H7xx\Source\Templa
tes\arm\startup_stm32h743xx.s
      At line 334 in file ..\..\Drivers\CMSIS\Device\ST\STM32H7xx\Source\Templa
tes\arm\startup_stm32h743xx.s

I2C3_ER_IRQHandler 00000026

Symbol: I2C3_ER_IRQHandler
   Definitions
      At line 510 in file ..\..\Drivers\CMSIS\Device\ST\STM32H7xx\Source\Templa
tes\arm\startup_stm32h743xx.s
   Uses
      At line 152 in file ..\..\Drivers\CMSIS\Device\ST\STM32H7xx\Source\Templa
tes\arm\startup_stm32h743xx.s
      At line 369 in file ..\..\Drivers\CMSIS\Device\ST\STM32H7xx\Source\Templa
tes\arm\startup_stm32h743xx.s

I2C3_EV_IRQHandler 00000026

Symbol: I2C3_EV_IRQHandler
   Definitions
      At line 509 in file ..\..\Drivers\CMSIS\Device\ST\STM32H7xx\Source\Templa
tes\arm\startup_stm32h743xx.s
   Uses
      At line 151 in file ..\..\Drivers\CMSIS\Device\ST\STM32H7xx\Source\Templa
tes\arm\startup_stm32h743xx.s
      At line 368 in file ..\..\Drivers\CMSIS\Device\ST\STM32H7xx\Source\Templa
tes\arm\startup_stm32h743xx.s

I2C4_ER_IRQHandler 00000026



ARM Macro Assembler    Page 16 Alphabetic symbol ordering
Relocatable symbols


Symbol: I2C4_ER_IRQHandler
   Definitions
      At line 532 in file ..\..\Drivers\CMSIS\Device\ST\STM32H7xx\Source\Templa
tes\arm\startup_stm32h743xx.s
   Uses
      At line 175 in file ..\..\Drivers\CMSIS\Device\ST\STM32H7xx\Source\Templa
tes\arm\startup_stm32h743xx.s
      At line 391 in file ..\..\Drivers\CMSIS\Device\ST\STM32H7xx\Source\Templa
tes\arm\startup_stm32h743xx.s

I2C4_EV_IRQHandler 00000026

Symbol: I2C4_EV_IRQHandler
   Definitions
      At line 531 in file ..\..\Drivers\CMSIS\Device\ST\STM32H7xx\Source\Templa
tes\arm\startup_stm32h743xx.s
   Uses
      At line 174 in file ..\..\Drivers\CMSIS\Device\ST\STM32H7xx\Source\Templa
tes\arm\startup_stm32h743xx.s
      At line 390 in file ..\..\Drivers\CMSIS\Device\ST\STM32H7xx\Source\Templa
tes\arm\startup_stm32h743xx.s

JPEG_IRQHandler 00000026

Symbol: JPEG_IRQHandler
   Definitions
      At line 557 in file ..\..\Drivers\CMSIS\Device\ST\STM32H7xx\Source\Templa
tes\arm\startup_stm32h743xx.s
   Uses
      At line 200 in file ..\..\Drivers\CMSIS\Device\ST\STM32H7xx\Source\Templa
tes\arm\startup_stm32h743xx.s
      At line 416 in file ..\..\Drivers\CMSIS\Device\ST\STM32H7xx\Source\Templa
tes\arm\startup_stm32h743xx.s

LPTIM1_IRQHandler 00000026

Symbol: LPTIM1_IRQHandler
   Definitions
      At line 529 in file ..\..\Drivers\CMSIS\Device\ST\STM32H7xx\Source\Templa
tes\arm\startup_stm32h743xx.s
   Uses
      At line 172 in file ..\..\Drivers\CMSIS\Device\ST\STM32H7xx\Source\Templa
tes\arm\startup_stm32h743xx.s
      At line 388 in file ..\..\Drivers\CMSIS\Device\ST\STM32H7xx\Source\Templa
tes\arm\startup_stm32h743xx.s

LPTIM2_IRQHandler 00000026

Symbol: LPTIM2_IRQHandler
   Definitions
      At line 572 in file ..\..\Drivers\CMSIS\Device\ST\STM32H7xx\Source\Templa
tes\arm\startup_stm32h743xx.s
   Uses
      At line 217 in file ..\..\Drivers\CMSIS\Device\ST\STM32H7xx\Source\Templa
tes\arm\startup_stm32h743xx.s
      At line 431 in file ..\..\Drivers\CMSIS\Device\ST\STM32H7xx\Source\Templa
tes\arm\startup_stm32h743xx.s




ARM Macro Assembler    Page 17 Alphabetic symbol ordering
Relocatable symbols

LPTIM3_IRQHandler 00000026

Symbol: LPTIM3_IRQHandler
   Definitions
      At line 573 in file ..\..\Drivers\CMSIS\Device\ST\STM32H7xx\Source\Templa
tes\arm\startup_stm32h743xx.s
   Uses
      At line 218 in file ..\..\Drivers\CMSIS\Device\ST\STM32H7xx\Source\Templa
tes\arm\startup_stm32h743xx.s
      At line 432 in file ..\..\Drivers\CMSIS\Device\ST\STM32H7xx\Source\Templa
tes\arm\startup_stm32h743xx.s

LPTIM4_IRQHandler 00000026

Symbol: LPTIM4_IRQHandler
   Definitions
      At line 574 in file ..\..\Drivers\CMSIS\Device\ST\STM32H7xx\Source\Templa
tes\arm\startup_stm32h743xx.s
   Uses
      At line 219 in file ..\..\Drivers\CMSIS\Device\ST\STM32H7xx\Source\Templa
tes\arm\startup_stm32h743xx.s
      At line 433 in file ..\..\Drivers\CMSIS\Device\ST\STM32H7xx\Source\Templa
tes\arm\startup_stm32h743xx.s

LPTIM5_IRQHandler 00000026

Symbol: LPTIM5_IRQHandler
   Definitions
      At line 575 in file ..\..\Drivers\CMSIS\Device\ST\STM32H7xx\Source\Templa
tes\arm\startup_stm32h743xx.s
   Uses
      At line 220 in file ..\..\Drivers\CMSIS\Device\ST\STM32H7xx\Source\Templa
tes\arm\startup_stm32h743xx.s
      At line 434 in file ..\..\Drivers\CMSIS\Device\ST\STM32H7xx\Source\Templa
tes\arm\startup_stm32h743xx.s

LPUART1_IRQHandler 00000026

Symbol: LPUART1_IRQHandler
   Definitions
      At line 576 in file ..\..\Drivers\CMSIS\Device\ST\STM32H7xx\Source\Templa
tes\arm\startup_stm32h743xx.s
   Uses
      At line 221 in file ..\..\Drivers\CMSIS\Device\ST\STM32H7xx\Source\Templa
tes\arm\startup_stm32h743xx.s
      At line 435 in file ..\..\Drivers\CMSIS\Device\ST\STM32H7xx\Source\Templa
tes\arm\startup_stm32h743xx.s

LTDC_ER_IRQHandler 00000026

Symbol: LTDC_ER_IRQHandler
   Definitions
      At line 525 in file ..\..\Drivers\CMSIS\Device\ST\STM32H7xx\Source\Templa
tes\arm\startup_stm32h743xx.s
   Uses
      At line 168 in file ..\..\Drivers\CMSIS\Device\ST\STM32H7xx\Source\Templa
tes\arm\startup_stm32h743xx.s
      At line 384 in file ..\..\Drivers\CMSIS\Device\ST\STM32H7xx\Source\Templa
tes\arm\startup_stm32h743xx.s



ARM Macro Assembler    Page 18 Alphabetic symbol ordering
Relocatable symbols


LTDC_IRQHandler 00000026

Symbol: LTDC_IRQHandler
   Definitions
      At line 524 in file ..\..\Drivers\CMSIS\Device\ST\STM32H7xx\Source\Templa
tes\arm\startup_stm32h743xx.s
   Uses
      At line 167 in file ..\..\Drivers\CMSIS\Device\ST\STM32H7xx\Source\Templa
tes\arm\startup_stm32h743xx.s
      At line 383 in file ..\..\Drivers\CMSIS\Device\ST\STM32H7xx\Source\Templa
tes\arm\startup_stm32h743xx.s

MDIOS_IRQHandler 00000026

Symbol: MDIOS_IRQHandler
   Definitions
      At line 556 in file ..\..\Drivers\CMSIS\Device\ST\STM32H7xx\Source\Templa
tes\arm\startup_stm32h743xx.s
   Uses
      At line 199 in file ..\..\Drivers\CMSIS\Device\ST\STM32H7xx\Source\Templa
tes\arm\startup_stm32h743xx.s
      At line 415 in file ..\..\Drivers\CMSIS\Device\ST\STM32H7xx\Source\Templa
tes\arm\startup_stm32h743xx.s

MDIOS_WKUP_IRQHandler 00000026

Symbol: MDIOS_WKUP_IRQHandler
   Definitions
      At line 555 in file ..\..\Drivers\CMSIS\Device\ST\STM32H7xx\Source\Templa
tes\arm\startup_stm32h743xx.s
   Uses
      At line 198 in file ..\..\Drivers\CMSIS\Device\ST\STM32H7xx\Source\Templa
tes\arm\startup_stm32h743xx.s
      At line 414 in file ..\..\Drivers\CMSIS\Device\ST\STM32H7xx\Source\Templa
tes\arm\startup_stm32h743xx.s

MDMA_IRQHandler 00000026

Symbol: MDMA_IRQHandler
   Definitions
      At line 558 in file ..\..\Drivers\CMSIS\Device\ST\STM32H7xx\Source\Templa
tes\arm\startup_stm32h743xx.s
   Uses
      At line 201 in file ..\..\Drivers\CMSIS\Device\ST\STM32H7xx\Source\Templa
tes\arm\startup_stm32h743xx.s
      At line 417 in file ..\..\Drivers\CMSIS\Device\ST\STM32H7xx\Source\Templa
tes\arm\startup_stm32h743xx.s

MemManage_Handler 00000018

Symbol: MemManage_Handler
   Definitions
      At line 266 in file ..\..\Drivers\CMSIS\Device\ST\STM32H7xx\Source\Templa
tes\arm\startup_stm32h743xx.s
   Uses
      At line 65 in file ..\..\Drivers\CMSIS\Device\ST\STM32H7xx\Source\Templat
es\arm\startup_stm32h743xx.s
      At line 267 in file ..\..\Drivers\CMSIS\Device\ST\STM32H7xx\Source\Templa



ARM Macro Assembler    Page 19 Alphabetic symbol ordering
Relocatable symbols

tes\arm\startup_stm32h743xx.s

NMI_Handler 00000014

Symbol: NMI_Handler
   Definitions
      At line 256 in file ..\..\Drivers\CMSIS\Device\ST\STM32H7xx\Source\Templa
tes\arm\startup_stm32h743xx.s
   Uses
      At line 63 in file ..\..\Drivers\CMSIS\Device\ST\STM32H7xx\Source\Templat
es\arm\startup_stm32h743xx.s
      At line 257 in file ..\..\Drivers\CMSIS\Device\ST\STM32H7xx\Source\Templa
tes\arm\startup_stm32h743xx.s

OTG_FS_EP1_IN_IRQHandler 00000026

Symbol: OTG_FS_EP1_IN_IRQHandler
   Definitions
      At line 535 in file ..\..\Drivers\CMSIS\Device\ST\STM32H7xx\Source\Templa
tes\arm\startup_stm32h743xx.s
   Uses
      At line 178 in file ..\..\Drivers\CMSIS\Device\ST\STM32H7xx\Source\Templa
tes\arm\startup_stm32h743xx.s
      At line 394 in file ..\..\Drivers\CMSIS\Device\ST\STM32H7xx\Source\Templa
tes\arm\startup_stm32h743xx.s

OTG_FS_EP1_OUT_IRQHandler 00000026

Symbol: OTG_FS_EP1_OUT_IRQHandler
   Definitions
      At line 534 in file ..\..\Drivers\CMSIS\Device\ST\STM32H7xx\Source\Templa
tes\arm\startup_stm32h743xx.s
   Uses
      At line 177 in file ..\..\Drivers\CMSIS\Device\ST\STM32H7xx\Source\Templa
tes\arm\startup_stm32h743xx.s
      At line 393 in file ..\..\Drivers\CMSIS\Device\ST\STM32H7xx\Source\Templa
tes\arm\startup_stm32h743xx.s

OTG_FS_IRQHandler 00000026

Symbol: OTG_FS_IRQHandler
   Definitions
      At line 537 in file ..\..\Drivers\CMSIS\Device\ST\STM32H7xx\Source\Templa
tes\arm\startup_stm32h743xx.s
   Uses
      At line 180 in file ..\..\Drivers\CMSIS\Device\ST\STM32H7xx\Source\Templa
tes\arm\startup_stm32h743xx.s
      At line 396 in file ..\..\Drivers\CMSIS\Device\ST\STM32H7xx\Source\Templa
tes\arm\startup_stm32h743xx.s

OTG_FS_WKUP_IRQHandler 00000026

Symbol: OTG_FS_WKUP_IRQHandler
   Definitions
      At line 536 in file ..\..\Drivers\CMSIS\Device\ST\STM32H7xx\Source\Templa
tes\arm\startup_stm32h743xx.s
   Uses
      At line 179 in file ..\..\Drivers\CMSIS\Device\ST\STM32H7xx\Source\Templa
tes\arm\startup_stm32h743xx.s



ARM Macro Assembler    Page 20 Alphabetic symbol ordering
Relocatable symbols

      At line 395 in file ..\..\Drivers\CMSIS\Device\ST\STM32H7xx\Source\Templa
tes\arm\startup_stm32h743xx.s

OTG_HS_EP1_IN_IRQHandler 00000026

Symbol: OTG_HS_EP1_IN_IRQHandler
   Definitions
      At line 512 in file ..\..\Drivers\CMSIS\Device\ST\STM32H7xx\Source\Templa
tes\arm\startup_stm32h743xx.s
   Uses
      At line 154 in file ..\..\Drivers\CMSIS\Device\ST\STM32H7xx\Source\Templa
tes\arm\startup_stm32h743xx.s
      At line 371 in file ..\..\Drivers\CMSIS\Device\ST\STM32H7xx\Source\Templa
tes\arm\startup_stm32h743xx.s

OTG_HS_EP1_OUT_IRQHandler 00000026

Symbol: OTG_HS_EP1_OUT_IRQHandler
   Definitions
      At line 511 in file ..\..\Drivers\CMSIS\Device\ST\STM32H7xx\Source\Templa
tes\arm\startup_stm32h743xx.s
   Uses
      At line 153 in file ..\..\Drivers\CMSIS\Device\ST\STM32H7xx\Source\Templa
tes\arm\startup_stm32h743xx.s
      At line 370 in file ..\..\Drivers\CMSIS\Device\ST\STM32H7xx\Source\Templa
tes\arm\startup_stm32h743xx.s

OTG_HS_IRQHandler 00000026

Symbol: OTG_HS_IRQHandler
   Definitions
      At line 514 in file ..\..\Drivers\CMSIS\Device\ST\STM32H7xx\Source\Templa
tes\arm\startup_stm32h743xx.s
   Uses
      At line 156 in file ..\..\Drivers\CMSIS\Device\ST\STM32H7xx\Source\Templa
tes\arm\startup_stm32h743xx.s
      At line 373 in file ..\..\Drivers\CMSIS\Device\ST\STM32H7xx\Source\Templa
tes\arm\startup_stm32h743xx.s

OTG_HS_WKUP_IRQHandler 00000026

Symbol: OTG_HS_WKUP_IRQHandler
   Definitions
      At line 513 in file ..\..\Drivers\CMSIS\Device\ST\STM32H7xx\Source\Templa
tes\arm\startup_stm32h743xx.s
   Uses
      At line 155 in file ..\..\Drivers\CMSIS\Device\ST\STM32H7xx\Source\Templa
tes\arm\startup_stm32h743xx.s
      At line 372 in file ..\..\Drivers\CMSIS\Device\ST\STM32H7xx\Source\Templa
tes\arm\startup_stm32h743xx.s

PVD_AVD_IRQHandler 00000026

Symbol: PVD_AVD_IRQHandler
   Definitions
      At line 443 in file ..\..\Drivers\CMSIS\Device\ST\STM32H7xx\Source\Templa
tes\arm\startup_stm32h743xx.s
   Uses
      At line 80 in file ..\..\Drivers\CMSIS\Device\ST\STM32H7xx\Source\Templat



ARM Macro Assembler    Page 21 Alphabetic symbol ordering
Relocatable symbols

es\arm\startup_stm32h743xx.s
      At line 301 in file ..\..\Drivers\CMSIS\Device\ST\STM32H7xx\Source\Templa
tes\arm\startup_stm32h743xx.s

PendSV_Handler 00000022

Symbol: PendSV_Handler
   Definitions
      At line 289 in file ..\..\Drivers\CMSIS\Device\ST\STM32H7xx\Source\Templa
tes\arm\startup_stm32h743xx.s
   Uses
      At line 75 in file ..\..\Drivers\CMSIS\Device\ST\STM32H7xx\Source\Templat
es\arm\startup_stm32h743xx.s
      At line 290 in file ..\..\Drivers\CMSIS\Device\ST\STM32H7xx\Source\Templa
tes\arm\startup_stm32h743xx.s

QUADSPI_IRQHandler 00000026

Symbol: QUADSPI_IRQHandler
   Definitions
      At line 528 in file ..\..\Drivers\CMSIS\Device\ST\STM32H7xx\Source\Templa
tes\arm\startup_stm32h743xx.s
   Uses
      At line 171 in file ..\..\Drivers\CMSIS\Device\ST\STM32H7xx\Source\Templa
tes\arm\startup_stm32h743xx.s
      At line 387 in file ..\..\Drivers\CMSIS\Device\ST\STM32H7xx\Source\Templa
tes\arm\startup_stm32h743xx.s

RCC_IRQHandler 00000026

Symbol: RCC_IRQHandler
   Definitions
      At line 447 in file ..\..\Drivers\CMSIS\Device\ST\STM32H7xx\Source\Templa
tes\arm\startup_stm32h743xx.s
   Uses
      At line 84 in file ..\..\Drivers\CMSIS\Device\ST\STM32H7xx\Source\Templat
es\arm\startup_stm32h743xx.s
      At line 305 in file ..\..\Drivers\CMSIS\Device\ST\STM32H7xx\Source\Templa
tes\arm\startup_stm32h743xx.s

RNG_IRQHandler 00000026

Symbol: RNG_IRQHandler
   Definitions
      At line 516 in file ..\..\Drivers\CMSIS\Device\ST\STM32H7xx\Source\Templa
tes\arm\startup_stm32h743xx.s
   Uses
      At line 159 in file ..\..\Drivers\CMSIS\Device\ST\STM32H7xx\Source\Templa
tes\arm\startup_stm32h743xx.s
      At line 375 in file ..\..\Drivers\CMSIS\Device\ST\STM32H7xx\Source\Templa
tes\arm\startup_stm32h743xx.s

RTC_Alarm_IRQHandler 00000026

Symbol: RTC_Alarm_IRQHandler
   Definitions
      At line 483 in file ..\..\Drivers\CMSIS\Device\ST\STM32H7xx\Source\Templa
tes\arm\startup_stm32h743xx.s
   Uses



ARM Macro Assembler    Page 22 Alphabetic symbol ordering
Relocatable symbols

      At line 120 in file ..\..\Drivers\CMSIS\Device\ST\STM32H7xx\Source\Templa
tes\arm\startup_stm32h743xx.s
      At line 342 in file ..\..\Drivers\CMSIS\Device\ST\STM32H7xx\Source\Templa
tes\arm\startup_stm32h743xx.s

RTC_WKUP_IRQHandler 00000026

Symbol: RTC_WKUP_IRQHandler
   Definitions
      At line 445 in file ..\..\Drivers\CMSIS\Device\ST\STM32H7xx\Source\Templa
tes\arm\startup_stm32h743xx.s
   Uses
      At line 82 in file ..\..\Drivers\CMSIS\Device\ST\STM32H7xx\Source\Templat
es\arm\startup_stm32h743xx.s
      At line 303 in file ..\..\Drivers\CMSIS\Device\ST\STM32H7xx\Source\Templa
tes\arm\startup_stm32h743xx.s

Reset_Handler 00000000

Symbol: Reset_Handler
   Definitions
      At line 238 in file ..\..\Drivers\CMSIS\Device\ST\STM32H7xx\Source\Templa
tes\arm\startup_stm32h743xx.s
   Uses
      At line 62 in file ..\..\Drivers\CMSIS\Device\ST\STM32H7xx\Source\Templat
es\arm\startup_stm32h743xx.s
      At line 239 in file ..\..\Drivers\CMSIS\Device\ST\STM32H7xx\Source\Templa
tes\arm\startup_stm32h743xx.s

SAI1_IRQHandler 00000026

Symbol: SAI1_IRQHandler
   Definitions
      At line 523 in file ..\..\Drivers\CMSIS\Device\ST\STM32H7xx\Source\Templa
tes\arm\startup_stm32h743xx.s
   Uses
      At line 166 in file ..\..\Drivers\CMSIS\Device\ST\STM32H7xx\Source\Templa
tes\arm\startup_stm32h743xx.s
      At line 382 in file ..\..\Drivers\CMSIS\Device\ST\STM32H7xx\Source\Templa
tes\arm\startup_stm32h743xx.s

SAI2_IRQHandler 00000026

Symbol: SAI2_IRQHandler
   Definitions
      At line 527 in file ..\..\Drivers\CMSIS\Device\ST\STM32H7xx\Source\Templa
tes\arm\startup_stm32h743xx.s
   Uses
      At line 170 in file ..\..\Drivers\CMSIS\Device\ST\STM32H7xx\Source\Templa
tes\arm\startup_stm32h743xx.s
      At line 386 in file ..\..\Drivers\CMSIS\Device\ST\STM32H7xx\Source\Templa
tes\arm\startup_stm32h743xx.s

SAI3_IRQHandler 00000026

Symbol: SAI3_IRQHandler
   Definitions
      At line 550 in file ..\..\Drivers\CMSIS\Device\ST\STM32H7xx\Source\Templa
tes\arm\startup_stm32h743xx.s



ARM Macro Assembler    Page 23 Alphabetic symbol ordering
Relocatable symbols

   Uses
      At line 193 in file ..\..\Drivers\CMSIS\Device\ST\STM32H7xx\Source\Templa
tes\arm\startup_stm32h743xx.s
      At line 409 in file ..\..\Drivers\CMSIS\Device\ST\STM32H7xx\Source\Templa
tes\arm\startup_stm32h743xx.s

SAI4_IRQHandler 00000026

Symbol: SAI4_IRQHandler
   Definitions
      At line 579 in file ..\..\Drivers\CMSIS\Device\ST\STM32H7xx\Source\Templa
tes\arm\startup_stm32h743xx.s
   Uses
      At line 225 in file ..\..\Drivers\CMSIS\Device\ST\STM32H7xx\Source\Templa
tes\arm\startup_stm32h743xx.s
      At line 438 in file ..\..\Drivers\CMSIS\Device\ST\STM32H7xx\Source\Templa
tes\arm\startup_stm32h743xx.s

SDMMC1_IRQHandler 00000026

Symbol: SDMMC1_IRQHandler
   Definitions
      At line 490 in file ..\..\Drivers\CMSIS\Device\ST\STM32H7xx\Source\Templa
tes\arm\startup_stm32h743xx.s
   Uses
      At line 128 in file ..\..\Drivers\CMSIS\Device\ST\STM32H7xx\Source\Templa
tes\arm\startup_stm32h743xx.s
      At line 349 in file ..\..\Drivers\CMSIS\Device\ST\STM32H7xx\Source\Templa
tes\arm\startup_stm32h743xx.s

SDMMC2_IRQHandler 00000026

Symbol: SDMMC2_IRQHandler
   Definitions
      At line 559 in file ..\..\Drivers\CMSIS\Device\ST\STM32H7xx\Source\Templa
tes\arm\startup_stm32h743xx.s
   Uses
      At line 203 in file ..\..\Drivers\CMSIS\Device\ST\STM32H7xx\Source\Templa
tes\arm\startup_stm32h743xx.s
      At line 418 in file ..\..\Drivers\CMSIS\Device\ST\STM32H7xx\Source\Templa
tes\arm\startup_stm32h743xx.s

SPDIF_RX_IRQHandler 00000026

Symbol: SPDIF_RX_IRQHandler
   Definitions
      At line 533 in file ..\..\Drivers\CMSIS\Device\ST\STM32H7xx\Source\Templa
tes\arm\startup_stm32h743xx.s
   Uses
      At line 176 in file ..\..\Drivers\CMSIS\Device\ST\STM32H7xx\Source\Templa
tes\arm\startup_stm32h743xx.s
      At line 392 in file ..\..\Drivers\CMSIS\Device\ST\STM32H7xx\Source\Templa
tes\arm\startup_stm32h743xx.s

SPI1_IRQHandler 00000026

Symbol: SPI1_IRQHandler
   Definitions
      At line 477 in file ..\..\Drivers\CMSIS\Device\ST\STM32H7xx\Source\Templa



ARM Macro Assembler    Page 24 Alphabetic symbol ordering
Relocatable symbols

tes\arm\startup_stm32h743xx.s
   Uses
      At line 114 in file ..\..\Drivers\CMSIS\Device\ST\STM32H7xx\Source\Templa
tes\arm\startup_stm32h743xx.s
      At line 336 in file ..\..\Drivers\CMSIS\Device\ST\STM32H7xx\Source\Templa
tes\arm\startup_stm32h743xx.s

SPI2_IRQHandler 00000026

Symbol: SPI2_IRQHandler
   Definitions
      At line 478 in file ..\..\Drivers\CMSIS\Device\ST\STM32H7xx\Source\Templa
tes\arm\startup_stm32h743xx.s
   Uses
      At line 115 in file ..\..\Drivers\CMSIS\Device\ST\STM32H7xx\Source\Templa
tes\arm\startup_stm32h743xx.s
      At line 337 in file ..\..\Drivers\CMSIS\Device\ST\STM32H7xx\Source\Templa
tes\arm\startup_stm32h743xx.s

SPI3_IRQHandler 00000026

Symbol: SPI3_IRQHandler
   Definitions
      At line 492 in file ..\..\Drivers\CMSIS\Device\ST\STM32H7xx\Source\Templa
tes\arm\startup_stm32h743xx.s
   Uses
      At line 130 in file ..\..\Drivers\CMSIS\Device\ST\STM32H7xx\Source\Templa
tes\arm\startup_stm32h743xx.s
      At line 351 in file ..\..\Drivers\CMSIS\Device\ST\STM32H7xx\Source\Templa
tes\arm\startup_stm32h743xx.s

SPI4_IRQHandler 00000026

Symbol: SPI4_IRQHandler
   Definitions
      At line 520 in file ..\..\Drivers\CMSIS\Device\ST\STM32H7xx\Source\Templa
tes\arm\startup_stm32h743xx.s
   Uses
      At line 163 in file ..\..\Drivers\CMSIS\Device\ST\STM32H7xx\Source\Templa
tes\arm\startup_stm32h743xx.s
      At line 379 in file ..\..\Drivers\CMSIS\Device\ST\STM32H7xx\Source\Templa
tes\arm\startup_stm32h743xx.s

SPI5_IRQHandler 00000026

Symbol: SPI5_IRQHandler
   Definitions
      At line 521 in file ..\..\Drivers\CMSIS\Device\ST\STM32H7xx\Source\Templa
tes\arm\startup_stm32h743xx.s
   Uses
      At line 164 in file ..\..\Drivers\CMSIS\Device\ST\STM32H7xx\Source\Templa
tes\arm\startup_stm32h743xx.s
      At line 380 in file ..\..\Drivers\CMSIS\Device\ST\STM32H7xx\Source\Templa
tes\arm\startup_stm32h743xx.s

SPI6_IRQHandler 00000026

Symbol: SPI6_IRQHandler
   Definitions



ARM Macro Assembler    Page 25 Alphabetic symbol ordering
Relocatable symbols

      At line 522 in file ..\..\Drivers\CMSIS\Device\ST\STM32H7xx\Source\Templa
tes\arm\startup_stm32h743xx.s
   Uses
      At line 165 in file ..\..\Drivers\CMSIS\Device\ST\STM32H7xx\Source\Templa
tes\arm\startup_stm32h743xx.s
      At line 381 in file ..\..\Drivers\CMSIS\Device\ST\STM32H7xx\Source\Templa
tes\arm\startup_stm32h743xx.s

SVC_Handler 0000001E

Symbol: SVC_Handler
   Definitions
      At line 280 in file ..\..\Drivers\CMSIS\Device\ST\STM32H7xx\Source\Templa
tes\arm\startup_stm32h743xx.s
   Uses
      At line 72 in file ..\..\Drivers\CMSIS\Device\ST\STM32H7xx\Source\Templat
es\arm\startup_stm32h743xx.s
      At line 281 in file ..\..\Drivers\CMSIS\Device\ST\STM32H7xx\Source\Templa
tes\arm\startup_stm32h743xx.s

SWPMI1_IRQHandler 00000026

Symbol: SWPMI1_IRQHandler
   Definitions
      At line 551 in file ..\..\Drivers\CMSIS\Device\ST\STM32H7xx\Source\Templa
tes\arm\startup_stm32h743xx.s
   Uses
      At line 194 in file ..\..\Drivers\CMSIS\Device\ST\STM32H7xx\Source\Templa
tes\arm\startup_stm32h743xx.s
      At line 410 in file ..\..\Drivers\CMSIS\Device\ST\STM32H7xx\Source\Templa
tes\arm\startup_stm32h743xx.s

SysTick_Handler 00000024

Symbol: SysTick_Handler
   Definitions
      At line 293 in file ..\..\Drivers\CMSIS\Device\ST\STM32H7xx\Source\Templa
tes\arm\startup_stm32h743xx.s
   Uses
      At line 76 in file ..\..\Drivers\CMSIS\Device\ST\STM32H7xx\Source\Templat
es\arm\startup_stm32h743xx.s
      At line 294 in file ..\..\Drivers\CMSIS\Device\ST\STM32H7xx\Source\Templa
tes\arm\startup_stm32h743xx.s

TAMP_STAMP_IRQHandler 00000026

Symbol: TAMP_STAMP_IRQHandler
   Definitions
      At line 444 in file ..\..\Drivers\CMSIS\Device\ST\STM32H7xx\Source\Templa
tes\arm\startup_stm32h743xx.s
   Uses
      At line 81 in file ..\..\Drivers\CMSIS\Device\ST\STM32H7xx\Source\Templat
es\arm\startup_stm32h743xx.s
      At line 302 in file ..\..\Drivers\CMSIS\Device\ST\STM32H7xx\Source\Templa
tes\arm\startup_stm32h743xx.s

TIM15_IRQHandler 00000026

Symbol: TIM15_IRQHandler



ARM Macro Assembler    Page 26 Alphabetic symbol ordering
Relocatable symbols

   Definitions
      At line 552 in file ..\..\Drivers\CMSIS\Device\ST\STM32H7xx\Source\Templa
tes\arm\startup_stm32h743xx.s
   Uses
      At line 195 in file ..\..\Drivers\CMSIS\Device\ST\STM32H7xx\Source\Templa
tes\arm\startup_stm32h743xx.s
      At line 411 in file ..\..\Drivers\CMSIS\Device\ST\STM32H7xx\Source\Templa
tes\arm\startup_stm32h743xx.s

TIM16_IRQHandler 00000026

Symbol: TIM16_IRQHandler
   Definitions
      At line 553 in file ..\..\Drivers\CMSIS\Device\ST\STM32H7xx\Source\Templa
tes\arm\startup_stm32h743xx.s
   Uses
      At line 196 in file ..\..\Drivers\CMSIS\Device\ST\STM32H7xx\Source\Templa
tes\arm\startup_stm32h743xx.s
      At line 412 in file ..\..\Drivers\CMSIS\Device\ST\STM32H7xx\Source\Templa
tes\arm\startup_stm32h743xx.s

TIM17_IRQHandler 00000026

Symbol: TIM17_IRQHandler
   Definitions
      At line 554 in file ..\..\Drivers\CMSIS\Device\ST\STM32H7xx\Source\Templa
tes\arm\startup_stm32h743xx.s
   Uses
      At line 197 in file ..\..\Drivers\CMSIS\Device\ST\STM32H7xx\Source\Templa
tes\arm\startup_stm32h743xx.s
      At line 413 in file ..\..\Drivers\CMSIS\Device\ST\STM32H7xx\Source\Templa
tes\arm\startup_stm32h743xx.s

TIM1_BRK_IRQHandler 00000026

Symbol: TIM1_BRK_IRQHandler
   Definitions
      At line 466 in file ..\..\Drivers\CMSIS\Device\ST\STM32H7xx\Source\Templa
tes\arm\startup_stm32h743xx.s
   Uses
      At line 103 in file ..\..\Drivers\CMSIS\Device\ST\STM32H7xx\Source\Templa
tes\arm\startup_stm32h743xx.s
      At line 325 in file ..\..\Drivers\CMSIS\Device\ST\STM32H7xx\Source\Templa
tes\arm\startup_stm32h743xx.s

TIM1_CC_IRQHandler 00000026

Symbol: TIM1_CC_IRQHandler
   Definitions
      At line 469 in file ..\..\Drivers\CMSIS\Device\ST\STM32H7xx\Source\Templa
tes\arm\startup_stm32h743xx.s
   Uses
      At line 106 in file ..\..\Drivers\CMSIS\Device\ST\STM32H7xx\Source\Templa
tes\arm\startup_stm32h743xx.s
      At line 328 in file ..\..\Drivers\CMSIS\Device\ST\STM32H7xx\Source\Templa
tes\arm\startup_stm32h743xx.s

TIM1_TRG_COM_IRQHandler 00000026




ARM Macro Assembler    Page 27 Alphabetic symbol ordering
Relocatable symbols

Symbol: TIM1_TRG_COM_IRQHandler
   Definitions
      At line 468 in file ..\..\Drivers\CMSIS\Device\ST\STM32H7xx\Source\Templa
tes\arm\startup_stm32h743xx.s
   Uses
      At line 105 in file ..\..\Drivers\CMSIS\Device\ST\STM32H7xx\Source\Templa
tes\arm\startup_stm32h743xx.s
      At line 327 in file ..\..\Drivers\CMSIS\Device\ST\STM32H7xx\Source\Templa
tes\arm\startup_stm32h743xx.s

TIM1_UP_IRQHandler 00000026

Symbol: TIM1_UP_IRQHandler
   Definitions
      At line 467 in file ..\..\Drivers\CMSIS\Device\ST\STM32H7xx\Source\Templa
tes\arm\startup_stm32h743xx.s
   Uses
      At line 104 in file ..\..\Drivers\CMSIS\Device\ST\STM32H7xx\Source\Templa
tes\arm\startup_stm32h743xx.s
      At line 326 in file ..\..\Drivers\CMSIS\Device\ST\STM32H7xx\Source\Templa
tes\arm\startup_stm32h743xx.s

TIM2_IRQHandler 00000026

Symbol: TIM2_IRQHandler
   Definitions
      At line 470 in file ..\..\Drivers\CMSIS\Device\ST\STM32H7xx\Source\Templa
tes\arm\startup_stm32h743xx.s
   Uses
      At line 107 in file ..\..\Drivers\CMSIS\Device\ST\STM32H7xx\Source\Templa
tes\arm\startup_stm32h743xx.s
      At line 329 in file ..\..\Drivers\CMSIS\Device\ST\STM32H7xx\Source\Templa
tes\arm\startup_stm32h743xx.s

TIM3_IRQHandler 00000026

Symbol: TIM3_IRQHandler
   Definitions
      At line 471 in file ..\..\Drivers\CMSIS\Device\ST\STM32H7xx\Source\Templa
tes\arm\startup_stm32h743xx.s
   Uses
      At line 108 in file ..\..\Drivers\CMSIS\Device\ST\STM32H7xx\Source\Templa
tes\arm\startup_stm32h743xx.s
      At line 330 in file ..\..\Drivers\CMSIS\Device\ST\STM32H7xx\Source\Templa
tes\arm\startup_stm32h743xx.s

TIM4_IRQHandler 00000026

Symbol: TIM4_IRQHandler
   Definitions
      At line 472 in file ..\..\Drivers\CMSIS\Device\ST\STM32H7xx\Source\Templa
tes\arm\startup_stm32h743xx.s
   Uses
      At line 109 in file ..\..\Drivers\CMSIS\Device\ST\STM32H7xx\Source\Templa
tes\arm\startup_stm32h743xx.s
      At line 331 in file ..\..\Drivers\CMSIS\Device\ST\STM32H7xx\Source\Templa
tes\arm\startup_stm32h743xx.s

TIM5_IRQHandler 00000026



ARM Macro Assembler    Page 28 Alphabetic symbol ordering
Relocatable symbols


Symbol: TIM5_IRQHandler
   Definitions
      At line 491 in file ..\..\Drivers\CMSIS\Device\ST\STM32H7xx\Source\Templa
tes\arm\startup_stm32h743xx.s
   Uses
      At line 129 in file ..\..\Drivers\CMSIS\Device\ST\STM32H7xx\Source\Templa
tes\arm\startup_stm32h743xx.s
      At line 350 in file ..\..\Drivers\CMSIS\Device\ST\STM32H7xx\Source\Templa
tes\arm\startup_stm32h743xx.s

TIM6_DAC_IRQHandler 00000026

Symbol: TIM6_DAC_IRQHandler
   Definitions
      At line 495 in file ..\..\Drivers\CMSIS\Device\ST\STM32H7xx\Source\Templa
tes\arm\startup_stm32h743xx.s
   Uses
      At line 133 in file ..\..\Drivers\CMSIS\Device\ST\STM32H7xx\Source\Templa
tes\arm\startup_stm32h743xx.s
      At line 354 in file ..\..\Drivers\CMSIS\Device\ST\STM32H7xx\Source\Templa
tes\arm\startup_stm32h743xx.s

TIM7_IRQHandler 00000026

Symbol: TIM7_IRQHandler
   Definitions
      At line 496 in file ..\..\Drivers\CMSIS\Device\ST\STM32H7xx\Source\Templa
tes\arm\startup_stm32h743xx.s
   Uses
      At line 134 in file ..\..\Drivers\CMSIS\Device\ST\STM32H7xx\Source\Templa
tes\arm\startup_stm32h743xx.s
      At line 355 in file ..\..\Drivers\CMSIS\Device\ST\STM32H7xx\Source\Templa
tes\arm\startup_stm32h743xx.s

TIM8_BRK_TIM12_IRQHandler 00000026

Symbol: TIM8_BRK_TIM12_IRQHandler
   Definitions
      At line 484 in file ..\..\Drivers\CMSIS\Device\ST\STM32H7xx\Source\Templa
tes\arm\startup_stm32h743xx.s
   Uses
      At line 122 in file ..\..\Drivers\CMSIS\Device\ST\STM32H7xx\Source\Templa
tes\arm\startup_stm32h743xx.s
      At line 343 in file ..\..\Drivers\CMSIS\Device\ST\STM32H7xx\Source\Templa
tes\arm\startup_stm32h743xx.s

TIM8_CC_IRQHandler 00000026

Symbol: TIM8_CC_IRQHandler
   Definitions
      At line 487 in file ..\..\Drivers\CMSIS\Device\ST\STM32H7xx\Source\Templa
tes\arm\startup_stm32h743xx.s
   Uses
      At line 125 in file ..\..\Drivers\CMSIS\Device\ST\STM32H7xx\Source\Templa
tes\arm\startup_stm32h743xx.s
      At line 346 in file ..\..\Drivers\CMSIS\Device\ST\STM32H7xx\Source\Templa
tes\arm\startup_stm32h743xx.s




ARM Macro Assembler    Page 29 Alphabetic symbol ordering
Relocatable symbols

TIM8_TRG_COM_TIM14_IRQHandler 00000026

Symbol: TIM8_TRG_COM_TIM14_IRQHandler
   Definitions
      At line 486 in file ..\..\Drivers\CMSIS\Device\ST\STM32H7xx\Source\Templa
tes\arm\startup_stm32h743xx.s
   Uses
      At line 124 in file ..\..\Drivers\CMSIS\Device\ST\STM32H7xx\Source\Templa
tes\arm\startup_stm32h743xx.s
      At line 345 in file ..\..\Drivers\CMSIS\Device\ST\STM32H7xx\Source\Templa
tes\arm\startup_stm32h743xx.s

TIM8_UP_TIM13_IRQHandler 00000026

Symbol: TIM8_UP_TIM13_IRQHandler
   Definitions
      At line 485 in file ..\..\Drivers\CMSIS\Device\ST\STM32H7xx\Source\Templa
tes\arm\startup_stm32h743xx.s
   Uses
      At line 123 in file ..\..\Drivers\CMSIS\Device\ST\STM32H7xx\Source\Templa
tes\arm\startup_stm32h743xx.s
      At line 344 in file ..\..\Drivers\CMSIS\Device\ST\STM32H7xx\Source\Templa
tes\arm\startup_stm32h743xx.s

UART4_IRQHandler 00000026

Symbol: UART4_IRQHandler
   Definitions
      At line 493 in file ..\..\Drivers\CMSIS\Device\ST\STM32H7xx\Source\Templa
tes\arm\startup_stm32h743xx.s
   Uses
      At line 131 in file ..\..\Drivers\CMSIS\Device\ST\STM32H7xx\Source\Templa
tes\arm\startup_stm32h743xx.s
      At line 352 in file ..\..\Drivers\CMSIS\Device\ST\STM32H7xx\Source\Templa
tes\arm\startup_stm32h743xx.s

UART5_IRQHandler 00000026

Symbol: UART5_IRQHandler
   Definitions
      At line 494 in file ..\..\Drivers\CMSIS\Device\ST\STM32H7xx\Source\Templa
tes\arm\startup_stm32h743xx.s
   Uses
      At line 132 in file ..\..\Drivers\CMSIS\Device\ST\STM32H7xx\Source\Templa
tes\arm\startup_stm32h743xx.s
      At line 353 in file ..\..\Drivers\CMSIS\Device\ST\STM32H7xx\Source\Templa
tes\arm\startup_stm32h743xx.s

UART7_IRQHandler 00000026

Symbol: UART7_IRQHandler
   Definitions
      At line 518 in file ..\..\Drivers\CMSIS\Device\ST\STM32H7xx\Source\Templa
tes\arm\startup_stm32h743xx.s
   Uses
      At line 161 in file ..\..\Drivers\CMSIS\Device\ST\STM32H7xx\Source\Templa
tes\arm\startup_stm32h743xx.s
      At line 377 in file ..\..\Drivers\CMSIS\Device\ST\STM32H7xx\Source\Templa
tes\arm\startup_stm32h743xx.s



ARM Macro Assembler    Page 30 Alphabetic symbol ordering
Relocatable symbols


UART8_IRQHandler 00000026

Symbol: UART8_IRQHandler
   Definitions
      At line 519 in file ..\..\Drivers\CMSIS\Device\ST\STM32H7xx\Source\Templa
tes\arm\startup_stm32h743xx.s
   Uses
      At line 162 in file ..\..\Drivers\CMSIS\Device\ST\STM32H7xx\Source\Templa
tes\arm\startup_stm32h743xx.s
      At line 378 in file ..\..\Drivers\CMSIS\Device\ST\STM32H7xx\Source\Templa
tes\arm\startup_stm32h743xx.s

USART1_IRQHandler 00000026

Symbol: USART1_IRQHandler
   Definitions
      At line 479 in file ..\..\Drivers\CMSIS\Device\ST\STM32H7xx\Source\Templa
tes\arm\startup_stm32h743xx.s
   Uses
      At line 116 in file ..\..\Drivers\CMSIS\Device\ST\STM32H7xx\Source\Templa
tes\arm\startup_stm32h743xx.s
      At line 338 in file ..\..\Drivers\CMSIS\Device\ST\STM32H7xx\Source\Templa
tes\arm\startup_stm32h743xx.s

USART2_IRQHandler 00000026

Symbol: USART2_IRQHandler
   Definitions
      At line 480 in file ..\..\Drivers\CMSIS\Device\ST\STM32H7xx\Source\Templa
tes\arm\startup_stm32h743xx.s
   Uses
      At line 117 in file ..\..\Drivers\CMSIS\Device\ST\STM32H7xx\Source\Templa
tes\arm\startup_stm32h743xx.s
      At line 339 in file ..\..\Drivers\CMSIS\Device\ST\STM32H7xx\Source\Templa
tes\arm\startup_stm32h743xx.s

USART3_IRQHandler 00000026

Symbol: USART3_IRQHandler
   Definitions
      At line 481 in file ..\..\Drivers\CMSIS\Device\ST\STM32H7xx\Source\Templa
tes\arm\startup_stm32h743xx.s
   Uses
      At line 118 in file ..\..\Drivers\CMSIS\Device\ST\STM32H7xx\Source\Templa
tes\arm\startup_stm32h743xx.s
      At line 340 in file ..\..\Drivers\CMSIS\Device\ST\STM32H7xx\Source\Templa
tes\arm\startup_stm32h743xx.s

USART6_IRQHandler 00000026

Symbol: USART6_IRQHandler
   Definitions
      At line 508 in file ..\..\Drivers\CMSIS\Device\ST\STM32H7xx\Source\Templa
tes\arm\startup_stm32h743xx.s
   Uses
      At line 150 in file ..\..\Drivers\CMSIS\Device\ST\STM32H7xx\Source\Templa
tes\arm\startup_stm32h743xx.s
      At line 367 in file ..\..\Drivers\CMSIS\Device\ST\STM32H7xx\Source\Templa



ARM Macro Assembler    Page 31 Alphabetic symbol ordering
Relocatable symbols

tes\arm\startup_stm32h743xx.s

UsageFault_Handler 0000001C

Symbol: UsageFault_Handler
   Definitions
      At line 276 in file ..\..\Drivers\CMSIS\Device\ST\STM32H7xx\Source\Templa
tes\arm\startup_stm32h743xx.s
   Uses
      At line 67 in file ..\..\Drivers\CMSIS\Device\ST\STM32H7xx\Source\Templat
es\arm\startup_stm32h743xx.s
      At line 277 in file ..\..\Drivers\CMSIS\Device\ST\STM32H7xx\Source\Templa
tes\arm\startup_stm32h743xx.s

WAKEUP_PIN_IRQHandler 00000026

Symbol: WAKEUP_PIN_IRQHandler
   Definitions
      At line 580 in file ..\..\Drivers\CMSIS\Device\ST\STM32H7xx\Source\Templa
tes\arm\startup_stm32h743xx.s
   Uses
      At line 228 in file ..\..\Drivers\CMSIS\Device\ST\STM32H7xx\Source\Templa
tes\arm\startup_stm32h743xx.s
      At line 439 in file ..\..\Drivers\CMSIS\Device\ST\STM32H7xx\Source\Templa
tes\arm\startup_stm32h743xx.s

WWDG_IRQHandler 00000026

Symbol: WWDG_IRQHandler
   Definitions
      At line 442 in file ..\..\Drivers\CMSIS\Device\ST\STM32H7xx\Source\Templa
tes\arm\startup_stm32h743xx.s
   Uses
      At line 79 in file ..\..\Drivers\CMSIS\Device\ST\STM32H7xx\Source\Templat
es\arm\startup_stm32h743xx.s
      At line 300 in file ..\..\Drivers\CMSIS\Device\ST\STM32H7xx\Source\Templa
tes\arm\startup_stm32h743xx.s

__user_initial_stackheap 00000028

Symbol: __user_initial_stackheap
   Definitions
      At line 602 in file ..\..\Drivers\CMSIS\Device\ST\STM32H7xx\Source\Templa
tes\arm\startup_stm32h743xx.s
   Uses
      At line 600 in file ..\..\Drivers\CMSIS\Device\ST\STM32H7xx\Source\Templa
tes\arm\startup_stm32h743xx.s
Comment: __user_initial_stackheap used once
152 symbols



ARM Macro Assembler    Page 1 Alphabetic symbol ordering
Absolute symbols

Heap_Size 00000800

Symbol: Heap_Size
   Definitions
      At line 44 in file ..\..\Drivers\CMSIS\Device\ST\STM32H7xx\Source\Templat
es\arm\startup_stm32h743xx.s
   Uses
      At line 48 in file ..\..\Drivers\CMSIS\Device\ST\STM32H7xx\Source\Templat
es\arm\startup_stm32h743xx.s
      At line 606 in file ..\..\Drivers\CMSIS\Device\ST\STM32H7xx\Source\Templa
tes\arm\startup_stm32h743xx.s

Stack_Size 00001200

Symbol: Stack_Size
   Definitions
      At line 32 in file ..\..\Drivers\CMSIS\Device\ST\STM32H7xx\Source\Templat
es\arm\startup_stm32h743xx.s
   Uses
      At line 35 in file ..\..\Drivers\CMSIS\Device\ST\STM32H7xx\Source\Templat
es\arm\startup_stm32h743xx.s
      At line 605 in file ..\..\Drivers\CMSIS\Device\ST\STM32H7xx\Source\Templa
tes\arm\startup_stm32h743xx.s

__Vectors_Size 00000298

Symbol: __Vectors_Size
   Definitions
      At line 233 in file ..\..\Drivers\CMSIS\Device\ST\STM32H7xx\Source\Templa
tes\arm\startup_stm32h743xx.s
   Uses
      At line 59 in file ..\..\Drivers\CMSIS\Device\ST\STM32H7xx\Source\Templat
es\arm\startup_stm32h743xx.s
Comment: __Vectors_Size used once
3 symbols



ARM Macro Assembler    Page 1 Alphabetic symbol ordering
External symbols

SystemInit 00000000

Symbol: SystemInit
   Definitions
      At line 240 in file ..\..\Drivers\CMSIS\Device\ST\STM32H7xx\Source\Templa
tes\arm\startup_stm32h743xx.s
   Uses
      At line 248 in file ..\..\Drivers\CMSIS\Device\ST\STM32H7xx\Source\Templa
tes\arm\startup_stm32h743xx.s
Comment: SystemInit used once
__main 00000000

Symbol: __main
   Definitions
      At line 241 in file ..\..\Drivers\CMSIS\Device\ST\STM32H7xx\Source\Templa
tes\arm\startup_stm32h743xx.s
   Uses
      At line 250 in file ..\..\Drivers\CMSIS\Device\ST\STM32H7xx\Source\Templa
tes\arm\startup_stm32h743xx.s
Comment: __main used once
__use_two_region_memory 00000000

Symbol: __use_two_region_memory
   Definitions
      At line 599 in file ..\..\Drivers\CMSIS\Device\ST\STM32H7xx\Source\Templa
tes\arm\startup_stm32h743xx.s
   Uses
      None
Comment: __use_two_region_memory unused
3 symbols
505 symbols in table
